{
  "_format": "hh-sol-artifact-1",
  "contractName": "ERC721Mock",
  "sourceName": "contracts/mocks/ERC721Mock.sol",
  "abi": [
    {
      "inputs": [
        {
          "internalType": "string",
          "name": "name",
          "type": "string"
        },
        {
          "internalType": "string",
          "name": "symbol",
          "type": "string"
        }
      ],
      "stateMutability": "nonpayable",
      "type": "constructor"
    },
    {
      "inputs": [
        {
          "internalType": "address",
          "name": "sender",
          "type": "address"
        },
        {
          "internalType": "uint256",
          "name": "tokenId",
          "type": "uint256"
        },
        {
          "internalType": "address",
          "name": "owner",
          "type": "address"
        }
      ],
      "name": "ERC721IncorrectOwner",
      "type": "error"
    },
    {
      "inputs": [
        {
          "internalType": "address",
          "name": "operator",
          "type": "address"
        },
        {
          "internalType": "uint256",
          "name": "tokenId",
          "type": "uint256"
        }
      ],
      "name": "ERC721InsufficientApproval",
      "type": "error"
    },
    {
      "inputs": [
        {
          "internalType": "address",
          "name": "approver",
          "type": "address"
        }
      ],
      "name": "ERC721InvalidApprover",
      "type": "error"
    },
    {
      "inputs": [
        {
          "internalType": "address",
          "name": "operator",
          "type": "address"
        }
      ],
      "name": "ERC721InvalidOperator",
      "type": "error"
    },
    {
      "inputs": [
        {
          "internalType": "address",
          "name": "owner",
          "type": "address"
        }
      ],
      "name": "ERC721InvalidOwner",
      "type": "error"
    },
    {
      "inputs": [
        {
          "internalType": "address",
          "name": "receiver",
          "type": "address"
        }
      ],
      "name": "ERC721InvalidReceiver",
      "type": "error"
    },
    {
      "inputs": [
        {
          "internalType": "address",
          "name": "sender",
          "type": "address"
        }
      ],
      "name": "ERC721InvalidSender",
      "type": "error"
    },
    {
      "inputs": [
        {
          "internalType": "uint256",
          "name": "tokenId",
          "type": "uint256"
        }
      ],
      "name": "ERC721NonexistentToken",
      "type": "error"
    },
    {
      "anonymous": false,
      "inputs": [
        {
          "indexed": true,
          "internalType": "address",
          "name": "owner",
          "type": "address"
        },
        {
          "indexed": true,
          "internalType": "address",
          "name": "approved",
          "type": "address"
        },
        {
          "indexed": true,
          "internalType": "uint256",
          "name": "tokenId",
          "type": "uint256"
        }
      ],
      "name": "Approval",
      "type": "event"
    },
    {
      "anonymous": false,
      "inputs": [
        {
          "indexed": true,
          "internalType": "address",
          "name": "owner",
          "type": "address"
        },
        {
          "indexed": true,
          "internalType": "address",
          "name": "operator",
          "type": "address"
        },
        {
          "indexed": false,
          "internalType": "bool",
          "name": "approved",
          "type": "bool"
        }
      ],
      "name": "ApprovalForAll",
      "type": "event"
    },
    {
      "anonymous": false,
      "inputs": [
        {
          "indexed": true,
          "internalType": "address",
          "name": "from",
          "type": "address"
        },
        {
          "indexed": true,
          "internalType": "address",
          "name": "to",
          "type": "address"
        },
        {
          "indexed": true,
          "internalType": "uint256",
          "name": "tokenId",
          "type": "uint256"
        }
      ],
      "name": "Transfer",
      "type": "event"
    },
    {
      "inputs": [
        {
          "internalType": "address",
          "name": "to",
          "type": "address"
        },
        {
          "internalType": "uint256",
          "name": "tokenId",
          "type": "uint256"
        }
      ],
      "name": "approve",
      "outputs": [],
      "stateMutability": "nonpayable",
      "type": "function"
    },
    {
      "inputs": [
        {
          "internalType": "address",
          "name": "owner",
          "type": "address"
        }
      ],
      "name": "balanceOf",
      "outputs": [
        {
          "internalType": "uint256",
          "name": "",
          "type": "uint256"
        }
      ],
      "stateMutability": "view",
      "type": "function"
    },
    {
      "inputs": [
        {
          "internalType": "uint256",
          "name": "tokenId",
          "type": "uint256"
        }
      ],
      "name": "getApproved",
      "outputs": [
        {
          "internalType": "address",
          "name": "",
          "type": "address"
        }
      ],
      "stateMutability": "view",
      "type": "function"
    },
    {
      "inputs": [
        {
          "internalType": "address",
          "name": "owner",
          "type": "address"
        },
        {
          "internalType": "address",
          "name": "operator",
          "type": "address"
        }
      ],
      "name": "isApprovedForAll",
      "outputs": [
        {
          "internalType": "bool",
          "name": "",
          "type": "bool"
        }
      ],
      "stateMutability": "view",
      "type": "function"
    },
    {
      "inputs": [
        {
          "internalType": "address",
          "name": "to",
          "type": "address"
        },
        {
          "internalType": "uint256",
          "name": "tokenId",
          "type": "uint256"
        }
      ],
      "name": "mint",
      "outputs": [],
      "stateMutability": "nonpayable",
      "type": "function"
    },
    {
      "inputs": [],
      "name": "name",
      "outputs": [
        {
          "internalType": "string",
          "name": "",
          "type": "string"
        }
      ],
      "stateMutability": "view",
      "type": "function"
    },
    {
      "inputs": [
        {
          "internalType": "uint256",
          "name": "tokenId",
          "type": "uint256"
        }
      ],
      "name": "ownerOf",
      "outputs": [
        {
          "internalType": "address",
          "name": "",
          "type": "address"
        }
      ],
      "stateMutability": "view",
      "type": "function"
    },
    {
      "inputs": [
        {
          "internalType": "address",
          "name": "from",
          "type": "address"
        },
        {
          "internalType": "address",
          "name": "to",
          "type": "address"
        },
        {
          "internalType": "uint256",
          "name": "tokenId",
          "type": "uint256"
        }
      ],
      "name": "safeTransferFrom",
      "outputs": [],
      "stateMutability": "nonpayable",
      "type": "function"
    },
    {
      "inputs": [
        {
          "internalType": "address",
          "name": "from",
          "type": "address"
        },
        {
          "internalType": "address",
          "name": "to",
          "type": "address"
        },
        {
          "internalType": "uint256",
          "name": "tokenId",
          "type": "uint256"
        },
        {
          "internalType": "bytes",
          "name": "data",
          "type": "bytes"
        }
      ],
      "name": "safeTransferFrom",
      "outputs": [],
      "stateMutability": "nonpayable",
      "type": "function"
    },
    {
      "inputs": [
        {
          "internalType": "address",
          "name": "operator",
          "type": "address"
        },
        {
          "internalType": "bool",
          "name": "approved",
          "type": "bool"
        }
      ],
      "name": "setApprovalForAll",
      "outputs": [],
      "stateMutability": "nonpayable",
      "type": "function"
    },
    {
      "inputs": [
        {
          "internalType": "bytes4",
          "name": "interfaceId",
          "type": "bytes4"
        }
      ],
      "name": "supportsInterface",
      "outputs": [
        {
          "internalType": "bool",
          "name": "",
          "type": "bool"
        }
      ],
      "stateMutability": "view",
      "type": "function"
    },
    {
      "inputs": [],
      "name": "symbol",
      "outputs": [
        {
          "internalType": "string",
          "name": "",
          "type": "string"
        }
      ],
      "stateMutability": "view",
      "type": "function"
    },
    {
      "inputs": [
        {
          "internalType": "uint256",
          "name": "tokenId",
          "type": "uint256"
        }
      ],
      "name": "tokenURI",
      "outputs": [
        {
          "internalType": "string",
          "name": "",
          "type": "string"
        }
      ],
      "stateMutability": "view",
      "type": "function"
    },
    {
      "inputs": [
        {
          "internalType": "address",
          "name": "from",
          "type": "address"
        },
        {
          "internalType": "address",
          "name": "to",
          "type": "address"
        },
        {
          "internalType": "uint256",
          "name": "tokenId",
          "type": "uint256"
        }
      ],
      "name": "transferFrom",
      "outputs": [],
      "stateMutability": "nonpayable",
      "type": "function"
    }
  ],
  "bytecode": "0x60806040523480156200001157600080fd5b50604051620013bd380380620013bd833981016040819052620000349162000123565b818160006200004483826200021c565b5060016200005382826200021c565b5050505050620002e8565b634e487b7160e01b600052604160045260246000fd5b600082601f8301126200008657600080fd5b81516001600160401b0380821115620000a357620000a36200005e565b604051601f8301601f19908116603f01168101908282118183101715620000ce57620000ce6200005e565b81604052838152602092508683858801011115620000eb57600080fd5b600091505b838210156200010f5785820183015181830184015290820190620000f0565b600093810190920192909252949350505050565b600080604083850312156200013757600080fd5b82516001600160401b03808211156200014f57600080fd5b6200015d8683870162000074565b935060208501519150808211156200017457600080fd5b50620001838582860162000074565b9150509250929050565b600181811c90821680620001a257607f821691505b602082108103620001c357634e487b7160e01b600052602260045260246000fd5b50919050565b601f8211156200021757600081815260208120601f850160051c81016020861015620001f25750805b601f850160051c820191505b818110156200021357828155600101620001fe565b5050505b505050565b81516001600160401b038111156200023857620002386200005e565b62000250816200024984546200018d565b84620001c9565b602080601f8311600181146200028857600084156200026f5750858301515b600019600386901b1c1916600185901b17855562000213565b600085815260208120601f198616915b82811015620002b95788860151825594840194600190910190840162000298565b5085821015620002d85787850151600019600388901b60f8161c191681555b5050505050600190811b01905550565b6110c580620002f86000396000f3fe608060405234801561001057600080fd5b50600436106100ea5760003560e01c80636352211e1161008c578063a22cb46511610066578063a22cb465146101e1578063b88d4fde146101f4578063c87b56dd14610207578063e985e9c51461021a57600080fd5b80636352211e146101a557806370a08231146101b857806395d89b41146101d957600080fd5b8063095ea7b3116100c8578063095ea7b31461015757806323b872dd1461016c57806340c10f191461017f57806342842e0e1461019257600080fd5b806301ffc9a7146100ef57806306fdde0314610117578063081812fc1461012c575b600080fd5b6101026100fd366004610d36565b610256565b60405190151581526020015b60405180910390f35b61011f6102f3565b60405161010e9190610da3565b61013f61013a366004610db6565b610385565b6040516001600160a01b03909116815260200161010e565b61016a610165366004610deb565b6103ae565b005b61016a61017a366004610e15565b6103bd565b61016a61018d366004610deb565b610466565b61016a6101a0366004610e15565b610470565b61013f6101b3366004610db6565b610490565b6101cb6101c6366004610e51565b61049b565b60405190815260200161010e565b61011f6104fc565b61016a6101ef366004610e6c565b61050b565b61016a610202366004610ebe565b610516565b61011f610215366004610db6565b61052d565b610102610228366004610f9a565b6001600160a01b03918216600090815260056020908152604080832093909416825291909152205460ff1690565b60006001600160e01b031982167f80ac58cd0000000000000000000000000000000000000000000000000000000014806102b957506001600160e01b031982167f5b5e139f00000000000000000000000000000000000000000000000000000000145b806102ed57507f01ffc9a7000000000000000000000000000000000000000000000000000000006001600160e01b03198316145b92915050565b60606000805461030290610fcd565b80601f016020809104026020016040519081016040528092919081815260200182805461032e90610fcd565b801561037b5780601f106103505761010080835404028352916020019161037b565b820191906000526020600020905b81548152906001019060200180831161035e57829003601f168201915b5050505050905090565b6000610390826105a2565b506000828152600460205260409020546001600160a01b03166102ed565b6103b98282336105db565b5050565b6001600160a01b0382166103ec57604051633250574960e11b8152600060048201526024015b60405180910390fd5b60006103f98383336105e8565b9050836001600160a01b0316816001600160a01b031614610460576040517f64283d7b0000000000000000000000000000000000000000000000000000000081526001600160a01b03808616600483015260248201849052821660448201526064016103e3565b50505050565b6103b982826106ee565b61048b83838360405180602001604052806000815250610516565b505050565b60006102ed826105a2565b60006001600160a01b0382166104e0576040517f89c62b64000000000000000000000000000000000000000000000000000000008152600060048201526024016103e3565b506001600160a01b031660009081526003602052604090205490565b60606001805461030290610fcd565b6103b933838361076c565b6105218484846103bd565b61046084848484610824565b6060610538826105a2565b50600061055060408051602081019091526000815290565b90506000815111610570576040518060200160405280600081525061059b565b8061057a8461094d565b60405160200161058b929190611007565b6040516020818303038152906040525b9392505050565b6000818152600260205260408120546001600160a01b0316806102ed57604051637e27328960e01b8152600481018490526024016103e3565b61048b83838360016109ed565b6000828152600260205260408120546001600160a01b039081169083161561061557610615818486610b38565b6001600160a01b03811615610653576106326000856000806109ed565b6001600160a01b038116600090815260036020526040902080546000190190555b6001600160a01b03851615610682576001600160a01b0385166000908152600360205260409020805460010190555b600084815260026020526040808220805473ffffffffffffffffffffffffffffffffffffffff19166001600160a01b0389811691821790925591518793918516917fddf252ad1be2c89b69c2b068fc378daa952ba7f163c4a11628f55a4df523b3ef91a4949350505050565b6001600160a01b03821661071857604051633250574960e11b8152600060048201526024016103e3565b6000610726838360006105e8565b90506001600160a01b0381161561048b576040517f73c6ac6e000000000000000000000000000000000000000000000000000000008152600060048201526024016103e3565b6001600160a01b0382166107b7576040517f5b08ba180000000000000000000000000000000000000000000000000000000081526001600160a01b03831660048201526024016103e3565b6001600160a01b03838116600081815260056020908152604080832094871680845294825291829020805460ff191686151590811790915591519182527f17307eab39ab6107e8899845ad3d59bd9653f200f220920489ca2b5937696c31910160405180910390a3505050565b6001600160a01b0383163b1561046057604051630a85bd0160e11b81526001600160a01b0384169063150b7a0290610866903390889087908790600401611036565b6020604051808303816000875af19250505080156108a1575060408051601f3d908101601f1916820190925261089e91810190611072565b60015b61090a573d8080156108cf576040519150601f19603f3d011682016040523d82523d6000602084013e6108d4565b606091505b50805160000361090257604051633250574960e11b81526001600160a01b03851660048201526024016103e3565b805181602001fd5b6001600160e01b03198116630a85bd0160e11b1461094657604051633250574960e11b81526001600160a01b03851660048201526024016103e3565b5050505050565b6060600061095a83610bb5565b600101905060008167ffffffffffffffff81111561097a5761097a610ea8565b6040519080825280601f01601f1916602001820160405280156109a4576020820181803683370190505b5090508181016020015b600019017f3031323334353637383961626364656600000000000000000000000000000000600a86061a8153600a85049450846109ae57509392505050565b8080610a0157506001600160a01b03821615155b15610afb576000610a11846105a2565b90506001600160a01b03831615801590610a3d5750826001600160a01b0316816001600160a01b031614155b8015610a6f57506001600160a01b0380821660009081526005602090815260408083209387168352929052205460ff16155b15610ab1576040517fa9fbf51f0000000000000000000000000000000000000000000000000000000081526001600160a01b03841660048201526024016103e3565b8115610af95783856001600160a01b0316826001600160a01b03167f8c5be1e5ebec7d5bd14f71427d1e84f3dd0314c0f7b2291e5b200ac8c7c3b92560405160405180910390a45b505b50506000908152600460205260409020805473ffffffffffffffffffffffffffffffffffffffff19166001600160a01b0392909216919091179055565b610b43838383610c97565b61048b576001600160a01b038316610b7157604051637e27328960e01b8152600481018290526024016103e3565b6040517f177e802f0000000000000000000000000000000000000000000000000000000081526001600160a01b0383166004820152602481018290526044016103e3565b6000807a184f03e93ff9f4daa797ed6e38ed64bf6a1f0100000000000000008310610bfe577a184f03e93ff9f4daa797ed6e38ed64bf6a1f010000000000000000830492506040015b6d04ee2d6d415b85acef81000000008310610c2a576d04ee2d6d415b85acef8100000000830492506020015b662386f26fc100008310610c4857662386f26fc10000830492506010015b6305f5e1008310610c60576305f5e100830492506008015b6127108310610c7457612710830492506004015b60648310610c86576064830492506002015b600a83106102ed5760010192915050565b60006001600160a01b03831615801590610d155750826001600160a01b0316846001600160a01b03161480610cf157506001600160a01b0380851660009081526005602090815260408083209387168352929052205460ff165b80610d1557506000828152600460205260409020546001600160a01b038481169116145b949350505050565b6001600160e01b031981168114610d3357600080fd5b50565b600060208284031215610d4857600080fd5b813561059b81610d1d565b60005b83811015610d6e578181015183820152602001610d56565b50506000910152565b60008151808452610d8f816020860160208601610d53565b601f01601f19169290920160200192915050565b60208152600061059b6020830184610d77565b600060208284031215610dc857600080fd5b5035919050565b80356001600160a01b0381168114610de657600080fd5b919050565b60008060408385031215610dfe57600080fd5b610e0783610dcf565b946020939093013593505050565b600080600060608486031215610e2a57600080fd5b610e3384610dcf565b9250610e4160208501610dcf565b9150604084013590509250925092565b600060208284031215610e6357600080fd5b61059b82610dcf565b60008060408385031215610e7f57600080fd5b610e8883610dcf565b915060208301358015158114610e9d57600080fd5b809150509250929050565b634e487b7160e01b600052604160045260246000fd5b60008060008060808587031215610ed457600080fd5b610edd85610dcf565b9350610eeb60208601610dcf565b925060408501359150606085013567ffffffffffffffff80821115610f0f57600080fd5b818701915087601f830112610f2357600080fd5b813581811115610f3557610f35610ea8565b604051601f8201601f19908116603f01168101908382118183101715610f5d57610f5d610ea8565b816040528281528a6020848701011115610f7657600080fd5b82602086016020830137600060208483010152809550505050505092959194509250565b60008060408385031215610fad57600080fd5b610fb683610dcf565b9150610fc460208401610dcf565b90509250929050565b600181811c90821680610fe157607f821691505b60208210810361100157634e487b7160e01b600052602260045260246000fd5b50919050565b60008351611019818460208801610d53565b83519083019061102d818360208801610d53565b01949350505050565b60006001600160a01b038087168352808616602084015250836040830152608060608301526110686080830184610d77565b9695505050505050565b60006020828403121561108457600080fd5b815161059b81610d1d56fea2646970667358221220b58ccd4dc18fd45176d4fea77b4468fa2a4538df63b6e2c62f981be4f2dd93e564736f6c63430008140033",
  "linkReferences": {},
  "deployedLinkReferences": {}
}