{
  "_format": "hh-sol-artifact-1",
  "contractName": "ChainlinkOracle",
  "sourceName": "contracts/libraries/ChainlinkOracle.sol",
  "abi": [
    {
      "inputs": [],
      "name": "InvalidPrice",
      "type": "error"
    },
    {
      "inputs": [
        {
          "internalType": "contract AggregatorV3Interface",
          "name": "",
          "type": "AggregatorV3Interface"
        }
      ],
      "name": "getTimeOut",
      "outputs": [
        {
          "internalType": "uint256",
          "name": "",
          "type": "uint256"
        }
      ],
      "stateMutability": "pure",
      "type": "function"
    }
  ],
  "bytecode": "0x60cd610039600b82828239805160001a60731461002c57634e487b7160e01b600052600060045260246000fd5b30600052607381538281f3fe730000000000000000000000000000000000000000301460806040526004361060335760003560e01c8063c03e0fd7146038575b600080fd5b604a6043366004605c565b50611c2090565b60405190815260200160405180910390f35b600060208284031215606d57600080fd5b813573ffffffffffffffffffffffffffffffffffffffff81168114609057600080fd5b939250505056fea264697066735822122029685f7fde26e4006f0e953e76598ffd5affe9ce678b9a6dee46c54e71be879364736f6c63430008140033",
  "linkReferences": {},
  "deployedLinkReferences": {}
}