{
  "_format": "hh-sol-artifact-1",
  "contractName": "NFTPledging",
  "sourceName": "contracts/NFTPledging.sol",
  "abi": [
    {
      "inputs": [],
      "name": "AlreadySupported",
      "type": "error"
    },
    {
      "inputs": [],
      "name": "InvalidNFT",
      "type": "error"
    },
    {
      "inputs": [],
      "name": "InvalidPrice",
      "type": "error"
    },
    {
      "inputs": [
        {
          "internalType": "enum Structs.TokenType",
          "name": "tokenType",
          "type": "uint8"
        }
      ],
      "name": "InvalidTokenType",
      "type": "error"
    },
    {
      "inputs": [],
      "name": "TokenNotSupported",
      "type": "error"
    },
    {
      "anonymous": false,
      "inputs": [
        {
          "indexed": false,
          "internalType": "address",
          "name": "token",
          "type": "address"
        },
        {
          "indexed": false,
          "internalType": "enum Structs.TokenType",
          "name": "tokenType",
          "type": "uint8"
        }
      ],
      "name": "AddSupportedToken",
      "type": "event"
    },
    {
      "inputs": [],
      "name": "BLOCKS_PER_YEAR",
      "outputs": [
        {
          "internalType": "uint256",
          "name": "",
          "type": "uint256"
        }
      ],
      "stateMutability": "view",
      "type": "function"
    },
    {
      "inputs": [],
      "name": "BPS",
      "outputs": [
        {
          "internalType": "uint256",
          "name": "",
          "type": "uint256"
        }
      ],
      "stateMutability": "view",
      "type": "function"
    },
    {
      "inputs": [],
      "name": "PRECISION",
      "outputs": [
        {
          "internalType": "uint256",
          "name": "",
          "type": "uint256"
        }
      ],
      "stateMutability": "view",
      "type": "function"
    },
    {
      "inputs": [
        {
          "internalType": "address",
          "name": "owner",
          "type": "address"
        },
        {
          "internalType": "address",
          "name": "nftAddress",
          "type": "address"
        }
      ],
      "name": "getDepositedNFT",
      "outputs": [
        {
          "internalType": "uint256[]",
          "name": "",
          "type": "uint256[]"
        }
      ],
      "stateMutability": "view",
      "type": "function"
    },
    {
      "inputs": [
        {
          "internalType": "address",
          "name": "owner",
          "type": "address"
        },
        {
          "internalType": "address",
          "name": "nftAddress",
          "type": "address"
        }
      ],
      "name": "getDepositedNFTCount",
      "outputs": [
        {
          "internalType": "uint256",
          "name": "",
          "type": "uint256"
        }
      ],
      "stateMutability": "view",
      "type": "function"
    },
    {
      "inputs": [
        {
          "internalType": "address",
          "name": "token",
          "type": "address"
        }
      ],
      "name": "getTokenPrice",
      "outputs": [
        {
          "internalType": "uint256",
          "name": "price",
          "type": "uint256"
        }
      ],
      "stateMutability": "view",
      "type": "function"
    },
    {
      "inputs": [
        {
          "internalType": "address",
          "name": "owner",
          "type": "address"
        },
        {
          "internalType": "address",
          "name": "nftAddress",
          "type": "address"
        },
        {
          "internalType": "uint256",
          "name": "tokenId",
          "type": "uint256"
        }
      ],
      "name": "hasDepositedNFT",
      "outputs": [
        {
          "internalType": "bool",
          "name": "",
          "type": "bool"
        }
      ],
      "stateMutability": "view",
      "type": "function"
    },
    {
      "inputs": [
        {
          "internalType": "address",
          "name": "",
          "type": "address"
        },
        {
          "internalType": "address",
          "name": "",
          "type": "address"
        },
        {
          "internalType": "uint256",
          "name": "",
          "type": "uint256"
        },
        {
          "internalType": "bytes",
          "name": "",
          "type": "bytes"
        }
      ],
      "name": "onERC721Received",
      "outputs": [
        {
          "internalType": "bytes4",
          "name": "",
          "type": "bytes4"
        }
      ],
      "stateMutability": "pure",
      "type": "function"
    }
  ],
  "bytecode": "0x608060405234801561001057600080fd5b50610ded806100206000396000f3fe608060405234801561001057600080fd5b50600436106100885760003560e01c8063b4240c991161005b578063b4240c9914610129578063d02641a014610159578063d37db1d214610189578063f6aa13f2146101a757610088565b8063150b7a021461008d578063249d39e9146100bd578063351b14a0146100db578063aaf5eb681461010b575b600080fd5b6100a760048036038101906100a291906107ae565b6101d7565b6040516100b49190610871565b60405180910390f35b6100c56101ec565b6040516100d2919061089b565b60405180910390f35b6100f560048036038101906100f091906108b6565b6101f3565b60405161010291906109b4565b60405180910390f35b610113610281565b604051610120919061089b565b60405180910390f35b610143600480360381019061013e91906108b6565b61028d565b604051610150919061089b565b60405180910390f35b610173600480360381019061016e91906109d6565b61031b565b604051610180919061089b565b60405180910390f35b610191610409565b60405161019e919061089b565b60405180910390f35b6101c160048036038101906101bc9190610a03565b610410565b6040516101ce9190610a71565b60405180910390f35b600063150b7a0260e01b905095945050505050565b620186a081565b6060610279600360008573ffffffffffffffffffffffffffffffffffffffff1673ffffffffffffffffffffffffffffffffffffffff16815260200190815260200160002060008473ffffffffffffffffffffffffffffffffffffffff1673ffffffffffffffffffffffffffffffffffffffff1681526020019081526020016000206104a9565b905092915050565b670de0b6b3a764000081565b6000610313600360008573ffffffffffffffffffffffffffffffffffffffff1673ffffffffffffffffffffffffffffffffffffffff16815260200190815260200160002060008473ffffffffffffffffffffffffffffffffffffffff1673ffffffffffffffffffffffffffffffffffffffff1681526020019081526020016000206104ca565b905092915050565b6000600260008373ffffffffffffffffffffffffffffffffffffffff1673ffffffffffffffffffffffffffffffffffffffff16815260200190815260200160002060000160159054906101000a900460ff1661037a5760009050610404565b6000600260008473ffffffffffffffffffffffffffffffffffffffff1673ffffffffffffffffffffffffffffffffffffffff16815260200190815260200160002060000160009054906101000a900473ffffffffffffffffffffffffffffffffffffffff1690506104008173ffffffffffffffffffffffffffffffffffffffff166104df565b9150505b919050565b6220148081565b60006104a082600360008773ffffffffffffffffffffffffffffffffffffffff1673ffffffffffffffffffffffffffffffffffffffff16815260200190815260200160002060008673ffffffffffffffffffffffffffffffffffffffff1673ffffffffffffffffffffffffffffffffffffffff16815260200190815260200160002061060190919063ffffffff16565b90509392505050565b606060006104b98360000161061b565b905060608190508092505050919050565b60006104d882600001610677565b9050919050565b60008060008060008573ffffffffffffffffffffffffffffffffffffffff1663feaf968c6040518163ffffffff1660e01b815260040160a060405180830381865afa158015610532573d6000803e3d6000fd5b505050506040513d601f19601f820116820180604052508101906105569190610b19565b94509450509350935060008313158061056f5750600082145b8061059157508369ffffffffffffffffffff168169ffffffffffffffffffff16105b806105a85750611c2082426105a69190610bc3565b115b156105de576040517ebfc92100000000000000000000000000000000000000000000000000000000815260040160405180910390fd5b600a806105eb9190610d2a565b836105f69190610d75565b945050505050919050565b6000610613836000018360001b610688565b905092915050565b60608160000180548060200260200160405190810160405280929190818152602001828054801561066b57602002820191906000526020600020905b815481526020019060010190808311610657575b50505050509050919050565b600081600001805490509050919050565b600080836001016000848152602001908152602001600020541415905092915050565b600080fd5b600080fd5b600073ffffffffffffffffffffffffffffffffffffffff82169050919050565b60006106e0826106b5565b9050919050565b6106f0816106d5565b81146106fb57600080fd5b50565b60008135905061070d816106e7565b92915050565b6000819050919050565b61072681610713565b811461073157600080fd5b50565b6000813590506107438161071d565b92915050565b600080fd5b600080fd5b600080fd5b60008083601f84011261076e5761076d610749565b5b8235905067ffffffffffffffff81111561078b5761078a61074e565b5b6020830191508360018202830111156107a7576107a6610753565b5b9250929050565b6000806000806000608086880312156107ca576107c96106ab565b5b60006107d8888289016106fe565b95505060206107e9888289016106fe565b94505060406107fa88828901610734565b935050606086013567ffffffffffffffff81111561081b5761081a6106b0565b5b61082788828901610758565b92509250509295509295909350565b60007fffffffff0000000000000000000000000000000000000000000000000000000082169050919050565b61086b81610836565b82525050565b60006020820190506108866000830184610862565b92915050565b61089581610713565b82525050565b60006020820190506108b0600083018461088c565b92915050565b600080604083850312156108cd576108cc6106ab565b5b60006108db858286016106fe565b92505060206108ec858286016106fe565b9150509250929050565b600081519050919050565b600082825260208201905092915050565b6000819050602082019050919050565b61092b81610713565b82525050565b600061093d8383610922565b60208301905092915050565b6000602082019050919050565b6000610961826108f6565b61096b8185610901565b935061097683610912565b8060005b838110156109a757815161098e8882610931565b975061099983610949565b92505060018101905061097a565b5085935050505092915050565b600060208201905081810360008301526109ce8184610956565b905092915050565b6000602082840312156109ec576109eb6106ab565b5b60006109fa848285016106fe565b91505092915050565b600080600060608486031215610a1c57610a1b6106ab565b5b6000610a2a868287016106fe565b9350506020610a3b868287016106fe565b9250506040610a4c86828701610734565b9150509250925092565b60008115159050919050565b610a6b81610a56565b82525050565b6000602082019050610a866000830184610a62565b92915050565b600069ffffffffffffffffffff82169050919050565b610aab81610a8c565b8114610ab657600080fd5b50565b600081519050610ac881610aa2565b92915050565b6000819050919050565b610ae181610ace565b8114610aec57600080fd5b50565b600081519050610afe81610ad8565b92915050565b600081519050610b138161071d565b92915050565b600080600080600060a08688031215610b3557610b346106ab565b5b6000610b4388828901610ab9565b9550506020610b5488828901610aef565b9450506040610b6588828901610b04565b9350506060610b7688828901610b04565b9250506080610b8788828901610ab9565b9150509295509295909350565b7f4e487b7100000000000000000000000000000000000000000000000000000000600052601160045260246000fd5b6000610bce82610713565b9150610bd983610713565b9250828203905081811115610bf157610bf0610b94565b5b92915050565b60008160011c9050919050565b6000808291508390505b6001851115610c4e57808604811115610c2a57610c29610b94565b5b6001851615610c395780820291505b8081029050610c4785610bf7565b9450610c0e565b94509492505050565b600082610c675760019050610d23565b81610c755760009050610d23565b8160018114610c8b5760028114610c9557610cc4565b6001915050610d23565b60ff841115610ca757610ca6610b94565b5b8360020a915084821115610cbe57610cbd610b94565b5b50610d23565b5060208310610133831016604e8410600b8410161715610cf95782820a905083811115610cf457610cf3610b94565b5b610d23565b610d068484846001610c04565b92509050818404811115610d1d57610d1c610b94565b5b81810290505b9392505050565b6000610d3582610713565b9150610d4083610713565b9250610d6d7fffffffffffffffffffffffffffffffffffffffffffffffffffffffffffffffff8484610c57565b905092915050565b6000610d8082610713565b9150610d8b83610713565b9250828202610d9981610713565b91508282048414831517610db057610daf610b94565b5b509291505056fea2646970667358221220b9244d96730929a577711814949c062b32b582b0bd226775651e1b956857af6264736f6c63430008180033",
  "linkReferences": {},
  "deployedLinkReferences": {}
}