{
  "_format": "hh-sol-artifact-1",
  "contractName": "NFTPledging",
  "sourceName": "contracts/NFTPledging.sol",
  "abi": [
    {
      "inputs": [],
      "name": "AlreadySupported",
      "type": "error"
    },
    {
      "inputs": [],
      "name": "InvalidNFT",
      "type": "error"
    },
    {
      "inputs": [],
      "name": "InvalidPrice",
      "type": "error"
    },
    {
      "inputs": [
        {
          "internalType": "enum Structs.TokenType",
          "name": "tokenType",
          "type": "uint8"
        }
      ],
      "name": "InvalidTokenType",
      "type": "error"
    },
    {
      "inputs": [],
      "name": "TokenNotSupported",
      "type": "error"
    },
    {
      "anonymous": false,
      "inputs": [
        {
          "indexed": false,
          "internalType": "address",
          "name": "token",
          "type": "address"
        },
        {
          "indexed": false,
          "internalType": "enum Structs.TokenType",
          "name": "tokenType",
          "type": "uint8"
        }
      ],
      "name": "AddSupportedToken",
      "type": "event"
    },
    {
      "inputs": [],
      "name": "BLOCKS_PER_YEAR",
      "outputs": [
        {
          "internalType": "uint256",
          "name": "",
          "type": "uint256"
        }
      ],
      "stateMutability": "view",
      "type": "function"
    },
    {
      "inputs": [],
      "name": "BPS",
      "outputs": [
        {
          "internalType": "uint256",
          "name": "",
          "type": "uint256"
        }
      ],
      "stateMutability": "view",
      "type": "function"
    },
    {
      "inputs": [],
      "name": "PRECISION",
      "outputs": [
        {
          "internalType": "uint256",
          "name": "",
          "type": "uint256"
        }
      ],
      "stateMutability": "view",
      "type": "function"
    },
    {
      "inputs": [
        {
          "internalType": "address",
          "name": "owner",
          "type": "address"
        },
        {
          "internalType": "address",
          "name": "nftAddress",
          "type": "address"
        }
      ],
      "name": "getDepositedNFT",
      "outputs": [
        {
          "internalType": "uint256[]",
          "name": "",
          "type": "uint256[]"
        }
      ],
      "stateMutability": "view",
      "type": "function"
    },
    {
      "inputs": [
        {
          "internalType": "address",
          "name": "owner",
          "type": "address"
        },
        {
          "internalType": "address",
          "name": "nftAddress",
          "type": "address"
        }
      ],
      "name": "getDepositedNFTCount",
      "outputs": [
        {
          "internalType": "uint256",
          "name": "",
          "type": "uint256"
        }
      ],
      "stateMutability": "view",
      "type": "function"
    },
    {
      "inputs": [
        {
          "internalType": "address",
          "name": "token",
          "type": "address"
        }
      ],
      "name": "getTokenPrice",
      "outputs": [
        {
          "internalType": "uint256",
          "name": "price",
          "type": "uint256"
        }
      ],
      "stateMutability": "view",
      "type": "function"
    },
    {
      "inputs": [
        {
          "internalType": "address",
          "name": "owner",
          "type": "address"
        },
        {
          "internalType": "address",
          "name": "nftAddress",
          "type": "address"
        },
        {
          "internalType": "uint256",
          "name": "tokenId",
          "type": "uint256"
        }
      ],
      "name": "hasDepositedNFT",
      "outputs": [
        {
          "internalType": "bool",
          "name": "",
          "type": "bool"
        }
      ],
      "stateMutability": "view",
      "type": "function"
    },
    {
      "inputs": [
        {
          "internalType": "address",
          "name": "",
          "type": "address"
        },
        {
          "internalType": "address",
          "name": "",
          "type": "address"
        },
        {
          "internalType": "uint256",
          "name": "",
          "type": "uint256"
        },
        {
          "internalType": "bytes",
          "name": "",
          "type": "bytes"
        }
      ],
      "name": "onERC721Received",
      "outputs": [
        {
          "internalType": "bytes4",
          "name": "",
          "type": "bytes4"
        }
      ],
      "stateMutability": "pure",
      "type": "function"
    }
  ],
  "bytecode": "0x608060405234801561001057600080fd5b506107aa806100206000396000f3fe608060405234801561001057600080fd5b50600436106100885760003560e01c8063b4240c991161005b578063b4240c9914610142578063d02641a014610155578063d37db1d214610168578063f6aa13f21461017257600080fd5b8063150b7a021461008d578063249d39e9146100fb578063351b14a014610113578063aaf5eb6814610133575b600080fd5b6100c561009b366004610458565b7f150b7a020000000000000000000000000000000000000000000000000000000095945050505050565b6040517fffffffff0000000000000000000000000000000000000000000000000000000090911681526020015b60405180910390f35b610105620186a081565b6040519081526020016100f2565b6101266101213660046104f3565b610195565b6040516100f29190610526565b610105670de0b6b3a764000081565b6101056101503660046104f3565b6101cf565b61010561016336600461056a565b6101ff565b6101056220148081565b610185610180366004610585565b61026b565b60405190151581526020016100f2565b6001600160a01b0380831660009081526003602090815260408083209385168352929052206060906101c6906102a4565b90505b92915050565b6001600160a01b03808316600090815260036020908152604080832093851683529290529081206101c6906102b1565b6001600160a01b0381166000908152600260205260408120547501000000000000000000000000000000000000000000900460ff1661024057506000919050565b6001600160a01b0380831660009081526002602052604090205416610264816102bb565b9392505050565b6001600160a01b038084166000908152600360209081526040808320938616835292905290812061029c90836103c8565b949350505050565b60606000610264836103e0565b60006101c9825490565b6000806000806000856001600160a01b031663feaf968c6040518163ffffffff1660e01b815260040160a060405180830381865afa158015610301573d6000803e3d6000fd5b505050506040513d601f19601f8201168201806040525081019061032591906105db565b94509450509350935060008313158061033c575081155b8061035e57508369ffffffffffffffffffff168169ffffffffffffffffffff16105b806103735750611c20610371834261065a565b115b156103a9576040517ebfc92100000000000000000000000000000000000000000000000000000000815260040160405180910390fd5b6103b4600a80610751565b6103be908461075d565b9695505050505050565b600081815260018301602052604081205415156101c6565b60608160000180548060200260200160405190810160405280929190818152602001828054801561043057602002820191906000526020600020905b81548152602001906001019080831161041c575b50505050509050919050565b80356001600160a01b038116811461045357600080fd5b919050565b60008060008060006080868803121561047057600080fd5b6104798661043c565b94506104876020870161043c565b935060408601359250606086013567ffffffffffffffff808211156104ab57600080fd5b818801915088601f8301126104bf57600080fd5b8135818111156104ce57600080fd5b8960208285010111156104e057600080fd5b9699959850939650602001949392505050565b6000806040838503121561050657600080fd5b61050f8361043c565b915061051d6020840161043c565b90509250929050565b6020808252825182820181905260009190848201906040850190845b8181101561055e57835183529284019291840191600101610542565b50909695505050505050565b60006020828403121561057c57600080fd5b6101c68261043c565b60008060006060848603121561059a57600080fd5b6105a38461043c565b92506105b16020850161043c565b9150604084013590509250925092565b805169ffffffffffffffffffff8116811461045357600080fd5b600080600080600060a086880312156105f357600080fd5b6105fc866105c1565b945060208601519350604086015192506060860151915061061f608087016105c1565b90509295509295909350565b7f4e487b7100000000000000000000000000000000000000000000000000000000600052601160045260246000fd5b818103818111156101c9576101c961062b565b600181815b808511156106a857816000190482111561068e5761068e61062b565b8085161561069b57918102915b93841c9390800290610672565b509250929050565b6000826106bf575060016101c9565b816106cc575060006101c9565b81600181146106e257600281146106ec57610708565b60019150506101c9565b60ff8411156106fd576106fd61062b565b50506001821b6101c9565b5060208310610133831016604e8410600b841016171561072b575081810a6101c9565b610735838361066d565b80600019048211156107495761074961062b565b029392505050565b60006101c683836106b0565b80820281158282048414176101c9576101c961062b56fea2646970667358221220cf007ae2f09425d03fc19a18ed411153b978cb0ad655fa7a170a44ee4952348e64736f6c63430008140033",
  "linkReferences": {},
  "deployedLinkReferences": {}
}