{
  "_format": "hh-sol-artifact-1",
  "contractName": "ChainlinkOracle",
  "sourceName": "libraries/ChainlinkOracle.sol",
  "abi": [
    {
      "inputs": [],
      "name": "InvalidPrice",
      "type": "error"
    },
    {
      "inputs": [
        {
          "internalType": "contract AggregatorV3Interface",
          "name": "",
          "type": "AggregatorV3Interface"
        }
      ],
      "name": "getTimeOut",
      "outputs": [
        {
          "internalType": "uint256",
          "name": "",
          "type": "uint256"
        }
      ],
      "stateMutability": "pure",
      "type": "function"
    }
  ],
  "bytecode": "0x610182610053600b82828239805160001a607314610046577f4e487b7100000000000000000000000000000000000000000000000000000000600052600060045260246000fd5b30600052607381538281f3fe73000000000000000000000000000000000000000030146080604052600436106100355760003560e01c8063c03e0fd71461003a575b600080fd5b610054600480360381019061004f91906100eb565b61006a565b6040516100619190610131565b60405180910390f35b6000611c209050919050565b600080fd5b600073ffffffffffffffffffffffffffffffffffffffff82169050919050565b60006100a68261007b565b9050919050565b60006100b88261009b565b9050919050565b6100c8816100ad565b81146100d357600080fd5b50565b6000813590506100e5816100bf565b92915050565b60006020828403121561010157610100610076565b5b600061010f848285016100d6565b91505092915050565b6000819050919050565b61012b81610118565b82525050565b60006020820190506101466000830184610122565b9291505056fea2646970667358221220ce816f01fec92fb892c7926420bbcea4edf274e1e5b9493e4fbf9d76f789604064736f6c63430008180033",
  "linkReferences": {},
  "deployedLinkReferences": {}
}