{"contracts/TokenSupporter.sol":{"TokenSupporter":{"abi":[{"inputs":[],"name":"AlreadySupported","type":"error"},{"inputs":[],"name":"InvalidPrice","type":"error"},{"inputs":[{"internalType":"enum Structs.TokenType","name":"tokenType","type":"uint8"}],"name":"InvalidTokenType","type":"error"},{"inputs":[],"name":"TokenNotSupported","type":"error"},{"anonymous":false,"inputs":[{"indexed":false,"internalType":"address","name":"token","type":"address"},{"indexed":false,"internalType":"enum Structs.TokenType","name":"tokenType","type":"uint8"}],"name":"AddSupportedToken","type":"event"},{"inputs":[],"name":"BLOCKS_PER_YEAR","outputs":[{"internalType":"uint256","name":"","type":"uint256"}],"stateMutability":"view","type":"function"},{"inputs":[],"name":"BPS","outputs":[{"internalType":"uint256","name":"","type":"uint256"}],"stateMutability":"view","type":"function"},{"inputs":[],"name":"PRECISION","outputs":[{"internalType":"uint256","name":"","type":"uint256"}],"stateMutability":"view","type":"function"},{"inputs":[{"internalType":"address","name":"token","type":"address"}],"name":"getTokenPrice","outputs":[{"internalType":"uint256","name":"price","type":"uint256"}],"stateMutability":"view","type":"function"}],"devdoc":{"kind":"dev","methods":{},"version":1},"evm":{"bytecode":{"linkReferences":{},"object":"608060405234801561001057600080fd5b50610463806100206000396000f3fe608060405234801561001057600080fd5b506004361061004c5760003560e01c8063249d39e914610051578063aaf5eb681461006d578063d02641a01461007c578063d37db1d21461008f575b600080fd5b61005b620186a081565b60405190815260200160405180910390f35b61005b670de0b6b3a764000081565b61005b61008a366004610239565b610099565b61005b6220148081565b73ffffffffffffffffffffffffffffffffffffffff81166000908152600260205260408120547501000000000000000000000000000000000000000000900460ff166100e757506000919050565b73ffffffffffffffffffffffffffffffffffffffff808316600090815260026020526040902054166101188161011f565b9392505050565b60008060008060008573ffffffffffffffffffffffffffffffffffffffff1663feaf968c6040518163ffffffff1660e01b815260040160a060405180830381865afa158015610172573d6000803e3d6000fd5b505050506040513d601f19601f82011682018060405250810190610196919061028e565b9450945050935093506000831315806101ad575081155b806101cf57508369ffffffffffffffffffff168169ffffffffffffffffffff16105b806101e45750611c206101e2834261030d565b115b1561021a576040517ebfc92100000000000000000000000000000000000000000000000000000000815260040160405180910390fd5b610225600a8061040a565b61022f9084610416565b9695505050505050565b60006020828403121561024b57600080fd5b813573ffffffffffffffffffffffffffffffffffffffff8116811461011857600080fd5b805169ffffffffffffffffffff8116811461028957600080fd5b919050565b600080600080600060a086880312156102a657600080fd5b6102af8661026f565b94506020860151935060408601519250606086015191506102d26080870161026f565b90509295509295909350565b7f4e487b7100000000000000000000000000000000000000000000000000000000600052601160045260246000fd5b81810381811115610320576103206102de565b92915050565b600181815b80851115610361578160001904821115610347576103476102de565b8085161561035457918102915b93841c939080029061032b565b509250929050565b60008261037857506001610320565b8161038557506000610320565b816001811461039b57600281146103a5576103c1565b6001915050610320565b60ff8411156103b6576103b66102de565b50506001821b610320565b5060208310610133831016604e8410600b84101617156103e4575081810a610320565b6103ee8383610326565b8060001904821115610402576104026102de565b029392505050565b60006101188383610369565b8082028115828204841417610320576103206102de56fea2646970667358221220ee16034ca18b41743f4da97d486da63c67a36d0b90ee93b9685b76c0738687a164736f6c63430008140033","opcodes":"PUSH1 0x80 PUSH1 0x40 MSTORE CALLVALUE DUP1 ISZERO PUSH2 0x10 JUMPI PUSH1 0x0 DUP1 REVERT JUMPDEST POP PUSH2 0x463 DUP1 PUSH2 0x20 PUSH1 0x0 CODECOPY PUSH1 0x0 RETURN INVALID PUSH1 0x80 PUSH1 0x40 MSTORE CALLVALUE DUP1 ISZERO PUSH2 0x10 JUMPI PUSH1 0x0 DUP1 REVERT JUMPDEST POP PUSH1 0x4 CALLDATASIZE LT PUSH2 0x4C JUMPI PUSH1 0x0 CALLDATALOAD PUSH1 0xE0 SHR DUP1 PUSH4 0x249D39E9 EQ PUSH2 0x51 JUMPI DUP1 PUSH4 0xAAF5EB68 EQ PUSH2 0x6D JUMPI DUP1 PUSH4 0xD02641A0 EQ PUSH2 0x7C JUMPI DUP1 PUSH4 0xD37DB1D2 EQ PUSH2 0x8F JUMPI JUMPDEST PUSH1 0x0 DUP1 REVERT JUMPDEST PUSH2 0x5B PUSH3 0x186A0 DUP2 JUMP JUMPDEST PUSH1 0x40 MLOAD SWAP1 DUP2 MSTORE PUSH1 0x20 ADD PUSH1 0x40 MLOAD DUP1 SWAP2 SUB SWAP1 RETURN JUMPDEST PUSH2 0x5B PUSH8 0xDE0B6B3A7640000 DUP2 JUMP JUMPDEST PUSH2 0x5B PUSH2 0x8A CALLDATASIZE PUSH1 0x4 PUSH2 0x239 JUMP JUMPDEST PUSH2 0x99 JUMP JUMPDEST PUSH2 0x5B PUSH3 0x201480 DUP2 JUMP JUMPDEST PUSH20 0xFFFFFFFFFFFFFFFFFFFFFFFFFFFFFFFFFFFFFFFF DUP2 AND PUSH1 0x0 SWAP1 DUP2 MSTORE PUSH1 0x2 PUSH1 0x20 MSTORE PUSH1 0x40 DUP2 KECCAK256 SLOAD PUSH22 0x1000000000000000000000000000000000000000000 SWAP1 DIV PUSH1 0xFF AND PUSH2 0xE7 JUMPI POP PUSH1 0x0 SWAP2 SWAP1 POP JUMP JUMPDEST PUSH20 0xFFFFFFFFFFFFFFFFFFFFFFFFFFFFFFFFFFFFFFFF DUP1 DUP4 AND PUSH1 0x0 SWAP1 DUP2 MSTORE PUSH1 0x2 PUSH1 0x20 MSTORE PUSH1 0x40 SWAP1 KECCAK256 SLOAD AND PUSH2 0x118 DUP2 PUSH2 0x11F JUMP JUMPDEST SWAP4 SWAP3 POP POP POP JUMP JUMPDEST PUSH1 0x0 DUP1 PUSH1 0x0 DUP1 PUSH1 0x0 DUP6 PUSH20 0xFFFFFFFFFFFFFFFFFFFFFFFFFFFFFFFFFFFFFFFF AND PUSH4 0xFEAF968C PUSH1 0x40 MLOAD DUP2 PUSH4 0xFFFFFFFF AND PUSH1 0xE0 SHL DUP2 MSTORE PUSH1 0x4 ADD PUSH1 0xA0 PUSH1 0x40 MLOAD DUP1 DUP4 SUB DUP2 DUP7 GAS STATICCALL ISZERO DUP1 ISZERO PUSH2 0x172 JUMPI RETURNDATASIZE PUSH1 0x0 DUP1 RETURNDATACOPY RETURNDATASIZE PUSH1 0x0 REVERT JUMPDEST POP POP POP POP PUSH1 0x40 MLOAD RETURNDATASIZE PUSH1 0x1F NOT PUSH1 0x1F DUP3 ADD AND DUP3 ADD DUP1 PUSH1 0x40 MSTORE POP DUP2 ADD SWAP1 PUSH2 0x196 SWAP2 SWAP1 PUSH2 0x28E JUMP JUMPDEST SWAP5 POP SWAP5 POP POP SWAP4 POP SWAP4 POP PUSH1 0x0 DUP4 SGT ISZERO DUP1 PUSH2 0x1AD JUMPI POP DUP2 ISZERO JUMPDEST DUP1 PUSH2 0x1CF JUMPI POP DUP4 PUSH10 0xFFFFFFFFFFFFFFFFFFFF AND DUP2 PUSH10 0xFFFFFFFFFFFFFFFFFFFF AND LT JUMPDEST DUP1 PUSH2 0x1E4 JUMPI POP PUSH2 0x1C20 PUSH2 0x1E2 DUP4 TIMESTAMP PUSH2 0x30D JUMP JUMPDEST GT JUMPDEST ISZERO PUSH2 0x21A JUMPI PUSH1 0x40 MLOAD PUSH31 0xBFC92100000000000000000000000000000000000000000000000000000000 DUP2 MSTORE PUSH1 0x4 ADD PUSH1 0x40 MLOAD DUP1 SWAP2 SUB SWAP1 REVERT JUMPDEST PUSH2 0x225 PUSH1 0xA DUP1 PUSH2 0x40A JUMP JUMPDEST PUSH2 0x22F SWAP1 DUP5 PUSH2 0x416 JUMP JUMPDEST SWAP7 SWAP6 POP POP POP POP POP POP JUMP JUMPDEST PUSH1 0x0 PUSH1 0x20 DUP3 DUP5 SUB SLT ISZERO PUSH2 0x24B JUMPI PUSH1 0x0 DUP1 REVERT JUMPDEST DUP2 CALLDATALOAD PUSH20 0xFFFFFFFFFFFFFFFFFFFFFFFFFFFFFFFFFFFFFFFF DUP2 AND DUP2 EQ PUSH2 0x118 JUMPI PUSH1 0x0 DUP1 REVERT JUMPDEST DUP1 MLOAD PUSH10 0xFFFFFFFFFFFFFFFFFFFF DUP2 AND DUP2 EQ PUSH2 0x289 JUMPI PUSH1 0x0 DUP1 REVERT JUMPDEST SWAP2 SWAP1 POP JUMP JUMPDEST PUSH1 0x0 DUP1 PUSH1 0x0 DUP1 PUSH1 0x0 PUSH1 0xA0 DUP7 DUP9 SUB SLT ISZERO PUSH2 0x2A6 JUMPI PUSH1 0x0 DUP1 REVERT JUMPDEST PUSH2 0x2AF DUP7 PUSH2 0x26F JUMP JUMPDEST SWAP5 POP PUSH1 0x20 DUP7 ADD MLOAD SWAP4 POP PUSH1 0x40 DUP7 ADD MLOAD SWAP3 POP PUSH1 0x60 DUP7 ADD MLOAD SWAP2 POP PUSH2 0x2D2 PUSH1 0x80 DUP8 ADD PUSH2 0x26F JUMP JUMPDEST SWAP1 POP SWAP3 SWAP6 POP SWAP3 SWAP6 SWAP1 SWAP4 POP JUMP JUMPDEST PUSH32 0x4E487B7100000000000000000000000000000000000000000000000000000000 PUSH1 0x0 MSTORE PUSH1 0x11 PUSH1 0x4 MSTORE PUSH1 0x24 PUSH1 0x0 REVERT JUMPDEST DUP2 DUP2 SUB DUP2 DUP2 GT ISZERO PUSH2 0x320 JUMPI PUSH2 0x320 PUSH2 0x2DE JUMP JUMPDEST SWAP3 SWAP2 POP POP JUMP JUMPDEST PUSH1 0x1 DUP2 DUP2 JUMPDEST DUP1 DUP6 GT ISZERO PUSH2 0x361 JUMPI DUP2 PUSH1 0x0 NOT DIV DUP3 GT ISZERO PUSH2 0x347 JUMPI PUSH2 0x347 PUSH2 0x2DE JUMP JUMPDEST DUP1 DUP6 AND ISZERO PUSH2 0x354 JUMPI SWAP2 DUP2 MUL SWAP2 JUMPDEST SWAP4 DUP5 SHR SWAP4 SWAP1 DUP1 MUL SWAP1 PUSH2 0x32B JUMP JUMPDEST POP SWAP3 POP SWAP3 SWAP1 POP JUMP JUMPDEST PUSH1 0x0 DUP3 PUSH2 0x378 JUMPI POP PUSH1 0x1 PUSH2 0x320 JUMP JUMPDEST DUP2 PUSH2 0x385 JUMPI POP PUSH1 0x0 PUSH2 0x320 JUMP JUMPDEST DUP2 PUSH1 0x1 DUP2 EQ PUSH2 0x39B JUMPI PUSH1 0x2 DUP2 EQ PUSH2 0x3A5 JUMPI PUSH2 0x3C1 JUMP JUMPDEST PUSH1 0x1 SWAP2 POP POP PUSH2 0x320 JUMP JUMPDEST PUSH1 0xFF DUP5 GT ISZERO PUSH2 0x3B6 JUMPI PUSH2 0x3B6 PUSH2 0x2DE JUMP JUMPDEST POP POP PUSH1 0x1 DUP3 SHL PUSH2 0x320 JUMP JUMPDEST POP PUSH1 0x20 DUP4 LT PUSH2 0x133 DUP4 LT AND PUSH1 0x4E DUP5 LT PUSH1 0xB DUP5 LT AND OR ISZERO PUSH2 0x3E4 JUMPI POP DUP2 DUP2 EXP PUSH2 0x320 JUMP JUMPDEST PUSH2 0x3EE DUP4 DUP4 PUSH2 0x326 JUMP JUMPDEST DUP1 PUSH1 0x0 NOT DIV DUP3 GT ISZERO PUSH2 0x402 JUMPI PUSH2 0x402 PUSH2 0x2DE JUMP JUMPDEST MUL SWAP4 SWAP3 POP POP POP JUMP JUMPDEST PUSH1 0x0 PUSH2 0x118 DUP4 DUP4 PUSH2 0x369 JUMP JUMPDEST DUP1 DUP3 MUL DUP2 ISZERO DUP3 DUP3 DIV DUP5 EQ OR PUSH2 0x320 JUMPI PUSH2 0x320 PUSH2 0x2DE JUMP INVALID LOG2 PUSH5 0x6970667358 0x22 SLT KECCAK256 0xEE AND SUB 0x4C LOG1 DUP12 COINBASE PUSH21 0x3F4DA97D486DA63C67A36D0B90EE93B9685B76C073 DUP7 DUP8 LOG1 PUSH5 0x736F6C6343 STOP ADDMOD EQ STOP CALLER "},"gasEstimates":{"creation":{"codeDepositCost":"224600","executionCost":"269","totalCost":"224869"},"external":{"BLOCKS_PER_YEAR()":"227","BPS()":"161","PRECISION()":"183","getTokenPrice(address)":"infinite"},"internal":{"addSupportedToken(address,address,enum Structs.TokenType)":"infinite","allowedToken(address)":"infinite"}},"methodIdentifiers":{"BLOCKS_PER_YEAR()":"d37db1d2","BPS()":"249d39e9","PRECISION()":"aaf5eb68","getTokenPrice(address)":"d02641a0"}},"storageLayout":{"storage":[{"astId":7224,"contract":"contracts/TokenSupporter.sol:TokenSupporter","label":"supportedERC20s","offset":0,"slot":"0","type":"t_array(t_address)dyn_storage"},{"astId":7227,"contract":"contracts/TokenSupporter.sol:TokenSupporter","label":"supportedNFTs","offset":0,"slot":"1","type":"t_array(t_address)dyn_storage"},{"astId":7232,"contract":"contracts/TokenSupporter.sol:TokenSupporter","label":"supportedToken","offset":0,"slot":"2","type":"t_mapping(t_address,t_struct(SupportedToken)7407_storage)"}],"types":{"t_address":{"encoding":"inplace","label":"address","numberOfBytes":"20"},"t_array(t_address)dyn_storage":{"base":"t_address","encoding":"dynamic_array","label":"address[]","numberOfBytes":"32"},"t_bool":{"encoding":"inplace","label":"bool","numberOfBytes":"1"},"t_enum(TokenType)7399":{"encoding":"inplace","label":"enum Structs.TokenType","numberOfBytes":"1"},"t_mapping(t_address,t_struct(SupportedToken)7407_storage)":{"encoding":"mapping","key":"t_address","label":"mapping(address => struct Structs.SupportedToken)","numberOfBytes":"32","value":"t_struct(SupportedToken)7407_storage"},"t_struct(SupportedToken)7407_storage":{"encoding":"inplace","label":"struct Structs.SupportedToken","members":[{"astId":7401,"contract":"contracts/TokenSupporter.sol:TokenSupporter","label":"usdPriceFeed","offset":0,"slot":"0","type":"t_address"},{"astId":7404,"contract":"contracts/TokenSupporter.sol:TokenSupporter","label":"tokenType","offset":20,"slot":"0","type":"t_enum(TokenType)7399"},{"astId":7406,"contract":"contracts/TokenSupporter.sol:TokenSupporter","label":"supported","offset":21,"slot":"0","type":"t_bool"}],"numberOfBytes":"32"}}},"userdoc":{"kind":"user","methods":{},"version":1}}}}