{"contracts/libraries/ChainlinkOracle.sol":{"ChainlinkOracle":{"abi":[{"inputs":[],"name":"InvalidPrice","type":"error"},{"inputs":[{"internalType":"contract AggregatorV3Interface","name":"","type":"AggregatorV3Interface"}],"name":"getTimeOut","outputs":[{"internalType":"uint256","name":"","type":"uint256"}],"stateMutability":"pure","type":"function"}],"devdoc":{"kind":"dev","methods":{},"version":1},"evm":{"bytecode":{"linkReferences":{},"object":"60cd610039600b82828239805160001a60731461002c57634e487b7160e01b600052600060045260246000fd5b30600052607381538281f3fe730000000000000000000000000000000000000000301460806040526004361060335760003560e01c8063c03e0fd7146038575b600080fd5b604a6043366004605c565b50611c2090565b60405190815260200160405180910390f35b600060208284031215606d57600080fd5b813573ffffffffffffffffffffffffffffffffffffffff81168114609057600080fd5b939250505056fea264697066735822122029685f7fde26e4006f0e953e76598ffd5affe9ce678b9a6dee46c54e71be879364736f6c63430008140033","opcodes":"PUSH1 0xCD PUSH2 0x39 PUSH1 0xB DUP3 DUP3 DUP3 CODECOPY DUP1 MLOAD PUSH1 0x0 BYTE PUSH1 0x73 EQ PUSH2 0x2C JUMPI PUSH4 0x4E487B71 PUSH1 0xE0 SHL PUSH1 0x0 MSTORE PUSH1 0x0 PUSH1 0x4 MSTORE PUSH1 0x24 PUSH1 0x0 REVERT JUMPDEST ADDRESS PUSH1 0x0 MSTORE PUSH1 0x73 DUP2 MSTORE8 DUP3 DUP2 RETURN INVALID PUSH20 0x0 ADDRESS EQ PUSH1 0x80 PUSH1 0x40 MSTORE PUSH1 0x4 CALLDATASIZE LT PUSH1 0x33 JUMPI PUSH1 0x0 CALLDATALOAD PUSH1 0xE0 SHR DUP1 PUSH4 0xC03E0FD7 EQ PUSH1 0x38 JUMPI JUMPDEST PUSH1 0x0 DUP1 REVERT JUMPDEST PUSH1 0x4A PUSH1 0x43 CALLDATASIZE PUSH1 0x4 PUSH1 0x5C JUMP JUMPDEST POP PUSH2 0x1C20 SWAP1 JUMP JUMPDEST PUSH1 0x40 MLOAD SWAP1 DUP2 MSTORE PUSH1 0x20 ADD PUSH1 0x40 MLOAD DUP1 SWAP2 SUB SWAP1 RETURN JUMPDEST PUSH1 0x0 PUSH1 0x20 DUP3 DUP5 SUB SLT ISZERO PUSH1 0x6D JUMPI PUSH1 0x0 DUP1 REVERT JUMPDEST DUP2 CALLDATALOAD PUSH20 0xFFFFFFFFFFFFFFFFFFFFFFFFFFFFFFFFFFFFFFFF DUP2 AND DUP2 EQ PUSH1 0x90 JUMPI PUSH1 0x0 DUP1 REVERT JUMPDEST SWAP4 SWAP3 POP POP POP JUMP INVALID LOG2 PUSH5 0x6970667358 0x22 SLT KECCAK256 0x29 PUSH9 0x5F7FDE26E4006F0E95 RETURNDATACOPY PUSH23 0x598FFD5AFFE9CE678B9A6DEE46C54E71BE879364736F6C PUSH4 0x43000814 STOP CALLER "},"gasEstimates":{"creation":{"codeDepositCost":"41000","executionCost":"124","totalCost":"41124"},"external":{"getTimeOut(AggregatorV3Interface)":"258"},"internal":{"getPrice(contract AggregatorV3Interface)":"infinite"}},"methodIdentifiers":{"getTimeOut(AggregatorV3Interface)":"c03e0fd7"}},"storageLayout":{"storage":[],"types":null},"userdoc":{"kind":"user","methods":{},"version":1}}}}