{"contracts/HydraPool.sol":{"HydraPool":{"abi":[{"inputs":[{"internalType":"address","name":"daiAddress","type":"address"},{"internalType":"address","name":"daiPriceFeed","type":"address"},{"components":[{"internalType":"uint64","name":"reserveRatio","type":"uint64"},{"internalType":"uint64","name":"feeToProtocolRate","type":"uint64"},{"internalType":"uint64","name":"flashFeeRate","type":"uint64"},{"internalType":"uint64","name":"baseRate","type":"uint64"},{"internalType":"uint64","name":"slope1","type":"uint64"},{"internalType":"uint64","name":"slope2","type":"uint64"},{"internalType":"uint256","name":"optimalUtilization","type":"uint256"}],"internalType":"struct Structs.VaultSetupParamemters","name":"daiVaultParams","type":"tuple"}],"stateMutability":"nonpayable","type":"constructor"},{"inputs":[],"name":"AlreadySupported","type":"error"},{"inputs":[],"name":"ArrayMismatch","type":"error"},{"inputs":[],"name":"BelowHealthFactor","type":"error"},{"inputs":[],"name":"BorrowerIsSolvant","type":"error"},{"inputs":[],"name":"EmptyArray","type":"error"},{"inputs":[],"name":"FlashloanFailed","type":"error"},{"inputs":[{"internalType":"address","name":"token","type":"address"}],"name":"FlashloanPaused","type":"error"},{"inputs":[],"name":"InsufficientBalance","type":"error"},{"inputs":[{"internalType":"uint256","name":"fee","type":"uint256"}],"name":"InvalidFeeRate","type":"error"},{"inputs":[],"name":"InvalidNFT","type":"error"},{"inputs":[{"internalType":"address","name":"borrower","type":"address"},{"internalType":"address","name":"nftAddress","type":"address"},{"internalType":"uint256","name":"tokenId","type":"uint256"}],"name":"InvalidNFTLiquidation","type":"error"},{"inputs":[],"name":"InvalidPrice","type":"error"},{"inputs":[{"internalType":"uint256","name":"ratio","type":"uint256"}],"name":"InvalidReserveRatio","type":"error"},{"inputs":[{"internalType":"enum Structs.TokenType","name":"tokenType","type":"uint8"}],"name":"InvalidTokenType","type":"error"},{"inputs":[],"name":"LiquidatorDelayHasNotPassed","type":"error"},{"inputs":[],"name":"MustPayMoreDebt","type":"error"},{"inputs":[],"name":"NoLiquidationWarning","type":"error"},{"inputs":[],"name":"SelfLiquidation","type":"error"},{"inputs":[],"name":"TokenNotSupported","type":"error"},{"inputs":[{"internalType":"uint256","name":"sharesOutOrAmountIn","type":"uint256"}],"name":"TooHighSlipage","type":"error"},{"inputs":[],"name":"TransferFailed","type":"error"},{"inputs":[],"name":"WarningDelayHasNotPassed","type":"error"},{"inputs":[],"name":"isNotPaused","type":"error"},{"inputs":[],"name":"isPaused","type":"error"},{"anonymous":false,"inputs":[{"indexed":false,"internalType":"uint64","name":"interestRatePerSec","type":"uint64"},{"indexed":false,"internalType":"uint256","name":"interestEarned","type":"uint256"},{"indexed":false,"internalType":"uint256","name":"feesAmount","type":"uint256"},{"indexed":false,"internalType":"uint256","name":"feesShare","type":"uint256"}],"name":"AccuredInterest","type":"event"},{"anonymous":false,"inputs":[{"indexed":false,"internalType":"address","name":"token","type":"address"},{"indexed":false,"internalType":"enum Structs.TokenType","name":"tokenType","type":"uint8"}],"name":"AddSupportedToken","type":"event"},{"anonymous":false,"inputs":[{"indexed":false,"internalType":"address","name":"user","type":"address"},{"indexed":false,"internalType":"address","name":"token","type":"address"},{"indexed":false,"internalType":"uint256","name":"amount","type":"uint256"},{"indexed":false,"internalType":"uint256","name":"shares","type":"uint256"}],"name":"Borrow","type":"event"},{"anonymous":false,"inputs":[{"indexed":false,"internalType":"address","name":"user","type":"address"},{"indexed":false,"internalType":"address","name":"token","type":"address"},{"indexed":false,"internalType":"uint256","name":"amount","type":"uint256"},{"indexed":false,"internalType":"uint256","name":"shares","type":"uint256"}],"name":"Deposit","type":"event"},{"anonymous":false,"inputs":[{"indexed":false,"internalType":"address","name":"user","type":"address"},{"indexed":false,"internalType":"address","name":"nftAddress","type":"address"},{"indexed":false,"internalType":"uint256","name":"tokenId","type":"uint256"}],"name":"DepositNFT","type":"event"},{"anonymous":false,"inputs":[{"indexed":false,"internalType":"address","name":"initiator","type":"address"},{"indexed":false,"internalType":"address[]","name":"token","type":"address[]"},{"indexed":false,"internalType":"uint256[]","name":"amount","type":"uint256[]"},{"indexed":false,"internalType":"uint256[]","name":"fees","type":"uint256[]"},{"indexed":false,"internalType":"bytes","name":"data","type":"bytes"}],"name":"FlashloanSuccess","type":"event"},{"anonymous":false,"inputs":[{"indexed":false,"internalType":"address","name":"borrower","type":"address"},{"indexed":false,"internalType":"address","name":"liquidator","type":"address"},{"indexed":false,"internalType":"uint256","name":"repaidAmount","type":"uint256"},{"indexed":false,"internalType":"uint256","name":"liquidatedCollateral","type":"uint256"},{"indexed":false,"internalType":"uint256","name":"reward","type":"uint256"}],"name":"Liquidated","type":"event"},{"anonymous":false,"inputs":[{"indexed":false,"internalType":"address","name":"borrower","type":"address"},{"indexed":false,"internalType":"address","name":"nftAddres","type":"address"},{"indexed":false,"internalType":"uint256","name":"tokenId","type":"uint256"}],"name":"LiquidatingNFTStopped","type":"event"},{"anonymous":false,"inputs":[{"indexed":false,"internalType":"address","name":"liquidator","type":"address"},{"indexed":false,"internalType":"address","name":"borrower","type":"address"},{"indexed":false,"internalType":"address","name":"nftAddress","type":"address"},{"indexed":false,"internalType":"uint256","name":"tokenId","type":"uint256"}],"name":"LiquidatingNFTWarning","type":"event"},{"anonymous":false,"inputs":[{"indexed":false,"internalType":"address","name":"liquidator","type":"address"},{"indexed":false,"internalType":"address","name":"borrower","type":"address"},{"indexed":false,"internalType":"address","name":"nftAddress","type":"address"},{"indexed":false,"internalType":"uint256","name":"tokenId","type":"uint256"},{"indexed":false,"internalType":"uint256","name":"totalRepayDebt","type":"uint256"},{"indexed":false,"internalType":"uint256","name":"nftBuyPrice","type":"uint256"}],"name":"NFTLiquidated","type":"event"},{"anonymous":false,"inputs":[{"indexed":false,"internalType":"address","name":"token","type":"address"},{"components":[{"internalType":"uint64","name":"reserveRatio","type":"uint64"},{"internalType":"uint64","name":"feeToProtocolRate","type":"uint64"},{"internalType":"uint64","name":"flashFeeRate","type":"uint64"},{"internalType":"uint64","name":"baseRate","type":"uint64"},{"internalType":"uint64","name":"slope1","type":"uint64"},{"internalType":"uint64","name":"slope2","type":"uint64"},{"internalType":"uint256","name":"optimalUtilization","type":"uint256"}],"indexed":false,"internalType":"struct Structs.VaultSetupParamemters","name":"params","type":"tuple"}],"name":"NewVaultSetup","type":"event"},{"anonymous":false,"inputs":[{"indexed":true,"internalType":"address","name":"previousOwner","type":"address"},{"indexed":true,"internalType":"address","name":"newOwner","type":"address"}],"name":"OwnershipTransferred","type":"event"},{"anonymous":false,"inputs":[{"indexed":false,"internalType":"address","name":"user","type":"address"},{"indexed":false,"internalType":"address","name":"token","type":"address"},{"indexed":false,"internalType":"uint256","name":"amount","type":"uint256"},{"indexed":false,"internalType":"uint256","name":"shares","type":"uint256"}],"name":"Repay","type":"event"},{"anonymous":false,"inputs":[{"indexed":false,"internalType":"bool","name":"state","type":"bool"}],"name":"SystemPaused","type":"event"},{"anonymous":false,"inputs":[{"indexed":false,"internalType":"uint256","name":"elapsedTime","type":"uint256"},{"indexed":false,"internalType":"uint64","name":"newInterestRate","type":"uint64"}],"name":"UpdateInterestRate","type":"event"},{"anonymous":false,"inputs":[{"indexed":false,"internalType":"address","name":"vault","type":"address"},{"indexed":false,"internalType":"bool","name":"state","type":"bool"}],"name":"VaultPaused","type":"event"},{"anonymous":false,"inputs":[{"indexed":false,"internalType":"address","name":"user","type":"address"},{"indexed":false,"internalType":"address","name":"token","type":"address"},{"indexed":false,"internalType":"uint256","name":"amount","type":"uint256"},{"indexed":false,"internalType":"uint256","name":"shares","type":"uint256"}],"name":"Withdraw","type":"event"},{"anonymous":false,"inputs":[{"indexed":false,"internalType":"address","name":"user","type":"address"},{"indexed":false,"internalType":"address","name":"recipient","type":"address"},{"indexed":false,"internalType":"address","name":"nftAddress","type":"address"},{"indexed":false,"internalType":"uint256","name":"tokenId","type":"uint256"}],"name":"WithdrawNFT","type":"event"},{"inputs":[],"name":"BLOCKS_PER_YEAR","outputs":[{"internalType":"uint256","name":"","type":"uint256"}],"stateMutability":"view","type":"function"},{"inputs":[],"name":"BPS","outputs":[{"internalType":"uint256","name":"","type":"uint256"}],"stateMutability":"view","type":"function"},{"inputs":[],"name":"PRECISION","outputs":[{"internalType":"uint256","name":"","type":"uint256"}],"stateMutability":"view","type":"function"},{"inputs":[{"internalType":"address","name":"token","type":"address"}],"name":"accureInterest","outputs":[{"internalType":"uint256","name":"_interestEarned","type":"uint256"},{"internalType":"uint256","name":"_feesAmount","type":"uint256"},{"internalType":"uint256","name":"_feesShare","type":"uint256"},{"internalType":"uint64","name":"_newRate","type":"uint64"}],"stateMutability":"nonpayable","type":"function"},{"inputs":[{"internalType":"address","name":"token","type":"address"},{"internalType":"uint256","name":"amount","type":"uint256"},{"internalType":"bool","name":"isAsset","type":"bool"}],"name":"amountToShares","outputs":[{"internalType":"uint256","name":"shares","type":"uint256"}],"stateMutability":"view","type":"function"},{"inputs":[{"internalType":"address","name":"token","type":"address"},{"internalType":"uint256","name":"amount","type":"uint256"}],"name":"borrow","outputs":[],"stateMutability":"nonpayable","type":"function"},{"inputs":[{"internalType":"address","name":"account","type":"address"},{"internalType":"address","name":"nftAddress","type":"address"},{"internalType":"uint256","name":"tokenId","type":"uint256"}],"name":"canLiquidateNFT","outputs":[],"stateMutability":"view","type":"function"},{"inputs":[{"internalType":"address","name":"recipient","type":"address"},{"internalType":"address","name":"nftAddress","type":"address"},{"internalType":"uint256","name":"tokenId","type":"uint256"}],"name":"depositNft","outputs":[],"stateMutability":"nonpayable","type":"function"},{"inputs":[{"internalType":"address","name":"account","type":"address"},{"internalType":"address","name":"nftAddress","type":"address"},{"internalType":"uint256","name":"tokenId","type":"uint256"},{"internalType":"address[]","name":"repayTokens","type":"address[]"},{"internalType":"uint256[]","name":"repayAmounts","type":"uint256[]"}],"name":"executeNFTLiquidation","outputs":[],"stateMutability":"nonpayable","type":"function"},{"inputs":[{"internalType":"address","name":"receiverAddress","type":"address"},{"internalType":"address[]","name":"tokens","type":"address[]"},{"internalType":"uint256[]","name":"amounts","type":"uint256[]"},{"internalType":"bytes","name":"data","type":"bytes"}],"name":"flashloan","outputs":[],"stateMutability":"nonpayable","type":"function"},{"inputs":[{"internalType":"address","name":"token","type":"address"},{"internalType":"uint256","name":"amount","type":"uint256"}],"name":"flashloanFee","outputs":[{"internalType":"uint256","name":"","type":"uint256"}],"stateMutability":"view","type":"function"},{"inputs":[{"internalType":"address","name":"token","type":"address"},{"internalType":"uint256","name":"amount","type":"uint256"}],"name":"getAmountInUSD","outputs":[{"internalType":"uint256","name":"value","type":"uint256"}],"stateMutability":"view","type":"function"},{"inputs":[{"internalType":"address","name":"owner","type":"address"},{"internalType":"address","name":"nftAddress","type":"address"}],"name":"getDepositedNFT","outputs":[{"internalType":"uint256[]","name":"","type":"uint256[]"}],"stateMutability":"view","type":"function"},{"inputs":[{"internalType":"address","name":"owner","type":"address"},{"internalType":"address","name":"nftAddress","type":"address"}],"name":"getDepositedNFTCount","outputs":[{"internalType":"uint256","name":"","type":"uint256"}],"stateMutability":"view","type":"function"},{"inputs":[{"internalType":"address","name":"account","type":"address"},{"internalType":"address","name":"nftAddress","type":"address"},{"internalType":"uint256","name":"tokenId","type":"uint256"}],"name":"getNFTLiquidationWarning","outputs":[{"components":[{"internalType":"address","name":"liquidator","type":"address"},{"internalType":"uint64","name":"liquidationTimestamp","type":"uint64"}],"internalType":"struct Structs.LiquidatedWarning","name":"","type":"tuple"}],"stateMutability":"view","type":"function"},{"inputs":[{"internalType":"address","name":"token","type":"address"}],"name":"getTokenPrice","outputs":[{"internalType":"uint256","name":"price","type":"uint256"}],"stateMutability":"view","type":"function"},{"inputs":[{"internalType":"address","name":"token","type":"address"}],"name":"getTokenVault","outputs":[{"components":[{"components":[{"internalType":"uint256","name":"amount","type":"uint256"},{"internalType":"uint256","name":"shares","type":"uint256"}],"internalType":"struct Structs.Vault","name":"totalAsset","type":"tuple"},{"components":[{"internalType":"uint256","name":"amount","type":"uint256"},{"internalType":"uint256","name":"shares","type":"uint256"}],"internalType":"struct Structs.Vault","name":"totalBorrow","type":"tuple"},{"components":[{"internalType":"uint256","name":"reserveRatio","type":"uint256"},{"internalType":"uint64","name":"feeToProtocolRate","type":"uint64"},{"internalType":"uint64","name":"flashFeeRate","type":"uint64"},{"internalType":"uint64","name":"ratePerSec","type":"uint64"},{"internalType":"uint64","name":"lastTimestamp","type":"uint64"},{"internalType":"uint64","name":"lastBlock","type":"uint64"},{"internalType":"uint64","name":"baseRate","type":"uint64"},{"internalType":"uint64","name":"slope1","type":"uint64"},{"internalType":"uint64","name":"slope2","type":"uint64"},{"internalType":"uint256","name":"optimalUtilization","type":"uint256"}],"internalType":"struct Structs.VaultInfo","name":"vaultInfo","type":"tuple"}],"internalType":"struct Structs.TokenVault","name":"vault","type":"tuple"}],"stateMutability":"view","type":"function"},{"inputs":[{"internalType":"address","name":"user","type":"address"}],"name":"getUserData","outputs":[{"internalType":"uint256","name":"totalTokenCollateral","type":"uint256"},{"internalType":"uint256","name":"totalNFTCollateral","type":"uint256"},{"internalType":"uint256","name":"totalBorrowValue","type":"uint256"}],"stateMutability":"view","type":"function"},{"inputs":[{"internalType":"address","name":"user","type":"address"}],"name":"getUserNFTCollateral","outputs":[{"internalType":"uint256","name":"totalValueInUSD","type":"uint256"}],"stateMutability":"view","type":"function"},{"inputs":[{"internalType":"address","name":"user","type":"address"},{"internalType":"address","name":"token","type":"address"}],"name":"getUserTokenCollateralAndBorrow","outputs":[{"internalType":"uint256","name":"tokenCollateralShare","type":"uint256"},{"internalType":"uint256","name":"tokenBorrowShare","type":"uint256"}],"stateMutability":"view","type":"function"},{"inputs":[{"internalType":"address","name":"user","type":"address"}],"name":"getUserTotalBorrow","outputs":[{"internalType":"uint256","name":"totalValueInUSD","type":"uint256"}],"stateMutability":"view","type":"function"},{"inputs":[{"internalType":"address","name":"user","type":"address"}],"name":"getUserTotalTokenCollateral","outputs":[{"internalType":"uint256","name":"totalValueInUSD","type":"uint256"}],"stateMutability":"view","type":"function"},{"inputs":[],"name":"globalPaused","outputs":[{"internalType":"bool","name":"","type":"bool"}],"stateMutability":"view","type":"function"},{"inputs":[{"internalType":"address","name":"owner","type":"address"},{"internalType":"address","name":"nftAddress","type":"address"},{"internalType":"uint256","name":"tokenId","type":"uint256"}],"name":"hasDepositedNFT","outputs":[{"internalType":"bool","name":"","type":"bool"}],"stateMutability":"view","type":"function"},{"inputs":[{"internalType":"address","name":"user","type":"address"}],"name":"healthFactor","outputs":[{"internalType":"uint256","name":"factor","type":"uint256"}],"stateMutability":"view","type":"function"},{"inputs":[{"internalType":"address","name":"account","type":"address"},{"internalType":"address","name":"collateral","type":"address"},{"internalType":"address","name":"userBorrowToken","type":"address"},{"internalType":"uint256","name":"amountToLiquidate","type":"uint256"}],"name":"liquidate","outputs":[],"stateMutability":"nonpayable","type":"function"},{"inputs":[{"internalType":"address","name":"token","type":"address"}],"name":"maxFlashloan","outputs":[{"internalType":"uint256","name":"maxFlashloanAmount","type":"uint256"}],"stateMutability":"view","type":"function"},{"inputs":[{"internalType":"address","name":"","type":"address"},{"internalType":"address","name":"","type":"address"},{"internalType":"uint256","name":"","type":"uint256"},{"internalType":"bytes","name":"","type":"bytes"}],"name":"onERC721Received","outputs":[{"internalType":"bytes4","name":"","type":"bytes4"}],"stateMutability":"pure","type":"function"},{"inputs":[],"name":"owner","outputs":[{"internalType":"address","name":"","type":"address"}],"stateMutability":"view","type":"function"},{"inputs":[{"internalType":"address","name":"vault","type":"address"}],"name":"pausedStatus","outputs":[{"internalType":"bool","name":"","type":"bool"}],"stateMutability":"view","type":"function"},{"inputs":[{"internalType":"address","name":"token","type":"address"},{"internalType":"uint256","name":"shares","type":"uint256"},{"internalType":"uint256","name":"minAmountOut","type":"uint256"}],"name":"redeem","outputs":[],"stateMutability":"nonpayable","type":"function"},{"inputs":[],"name":"renounceOwnership","outputs":[],"stateMutability":"nonpayable","type":"function"},{"inputs":[{"internalType":"address","name":"token","type":"address"},{"internalType":"uint256","name":"amount","type":"uint256"}],"name":"repay","outputs":[],"stateMutability":"nonpayable","type":"function"},{"inputs":[{"internalType":"address","name":"vault","type":"address"},{"internalType":"bool","name":"status","type":"bool"}],"name":"setPausedStatus","outputs":[],"stateMutability":"nonpayable","type":"function"},{"inputs":[{"internalType":"address","name":"token","type":"address"},{"internalType":"address","name":"priceFeed","type":"address"},{"internalType":"enum Structs.TokenType","name":"tokenType","type":"uint8"},{"components":[{"internalType":"uint64","name":"reserveRatio","type":"uint64"},{"internalType":"uint64","name":"feeToProtocolRate","type":"uint64"},{"internalType":"uint64","name":"flashFeeRate","type":"uint64"},{"internalType":"uint64","name":"baseRate","type":"uint64"},{"internalType":"uint64","name":"slope1","type":"uint64"},{"internalType":"uint64","name":"slope2","type":"uint64"},{"internalType":"uint256","name":"optimalUtilization","type":"uint256"}],"internalType":"struct Structs.VaultSetupParamemters","name":"params","type":"tuple"},{"internalType":"bool","name":"addToken","type":"bool"}],"name":"setupVault","outputs":[],"stateMutability":"nonpayable","type":"function"},{"inputs":[{"internalType":"address","name":"token","type":"address"},{"internalType":"uint256","name":"shares","type":"uint256"},{"internalType":"bool","name":"isAsset","type":"bool"}],"name":"sharesToAmount","outputs":[{"internalType":"uint256","name":"amount","type":"uint256"}],"stateMutability":"view","type":"function"},{"inputs":[{"internalType":"address","name":"account","type":"address"},{"internalType":"address","name":"nftAddress","type":"address"},{"internalType":"uint256","name":"tokenId","type":"uint256"}],"name":"stopNFTLiquidation","outputs":[],"stateMutability":"nonpayable","type":"function"},{"inputs":[{"internalType":"address","name":"token","type":"address"},{"internalType":"uint256","name":"amount","type":"uint256"},{"internalType":"uint256","name":"minSharesOut","type":"uint256"}],"name":"supply","outputs":[],"stateMutability":"nonpayable","type":"function"},{"inputs":[{"internalType":"address","name":"newOwner","type":"address"}],"name":"transferOwnership","outputs":[],"stateMutability":"nonpayable","type":"function"},{"inputs":[{"internalType":"address","name":"account","type":"address"},{"internalType":"address","name":"nftAddress","type":"address"},{"internalType":"uint256","name":"tokenId","type":"uint256"}],"name":"triggerNFTiquidation","outputs":[],"stateMutability":"nonpayable","type":"function"},{"inputs":[{"internalType":"address","name":"token","type":"address"},{"internalType":"uint256","name":"amount","type":"uint256"},{"internalType":"uint256","name":"maxShareIn","type":"uint256"}],"name":"withdraw","outputs":[],"stateMutability":"nonpayable","type":"function"}],"devdoc":{"kind":"dev","methods":{"owner()":{"details":"Returns the address of the current owner."},"renounceOwnership()":{"details":"Leaves the contract without owner. It will not be possible to call `onlyOwner` functions. Can only be called by the current owner. NOTE: Renouncing ownership will leave the contract without an owner, thereby disabling any functionality that is only available to the owner."},"transferOwnership(address)":{"details":"Transfers ownership of the contract to a new account (`newOwner`). Can only be called by the current owner."}},"version":1},"evm":{"bytecode":{"linkReferences":{},"object":"60806040526000805460ff60a01b1916600160a01b1790553480156200002457600080fd5b5060405162004f7d38038062004f7d8339810160408190526200004791620005d1565b62000052336200006c565b6200006383836000846001620000bc565b50505062000749565b600080546001600160a01b038381166001600160a01b0319831681178455604051919092169283917f8be0079c531659141344cd1fd0a4f28419497f9722a3daafe3b4186f6b6457e09190a35050565b8015620000d657620000d08585856200034d565b620000e1565b620000e18562000546565b6000836001811115620000f857620000f8620006d4565b036200034657620186a082600001516001600160401b0316111562000143578151604051635f7918ed60e01b81526001600160401b0390911660048201526024015b60405180910390fd5b61138882602001516001600160401b03161115620001865760208201516040516336e6824b60e21b81526001600160401b0390911660048201526024016200013a565b61138882604001516001600160401b03161115620001c95760408083015190516336e6824b60e21b81526001600160401b0390911660048201526024016200013a565b6001600160a01b03851660009081526006602081815260409283902085516001600160401b039081166004830190815592870151600583018054898801518416680100000000000000009081026001600160801b0319909216938516939093171790556060880151948301805460808a015160a08b01518516600160c01b026001600160c01b03918616600160801b02600160801b600160c01b03199990961690940297909716600160401b600160c01b03199091161792909217949094169390931790925560c085015160079092019190915590517f7e914af3d8d31ac64e6df6e8087ac12953b11a1bceebf2a80692aa35e6b0e6ff906200033c908890869060006101008201905060018060a01b038416825260018060401b038084511660208401528060208501511660408401528060408501511660608401528060608501511660808401528060808501511660a08401528060a08501511660c08401525060c083015160e08301529392505050565b60405180910390a1505b5050505050565b6001600160a01b038316600090815260046020526040902054600160a81b900460ff16156200038f57604051633706ba4960e01b815260040160405180910390fd5b6001816001811115620003a657620003a6620006d4565b1115620003ca5780604051630270056f60e51b81526004016200013a91906200070d565b6001600160a01b03808416600090815260046020526040902080549184166001600160a01b031983168117825583926001600160a81b03191617600160a01b8360018111156200041e576200041e620006d4565b02179055506001600160a01b0383166000908152600460205260409020805460ff60a81b1916600160a81b1790556001816001811115620004635762000463620006d4565b03620004ba57600380546001810182556000919091527fc2575a0e9e593c00f959f8c92f12db2869c3395a3b0502d05e2516446f71f85b0180546001600160a01b0319166001600160a01b03851617905562000506565b600280546001810182556000919091527f405787fa12a823e0f2b7631cc41b3ba8828b3321ca811111fa75cd3aa3bb5ace0180546001600160a01b0319166001600160a01b0385161790555b7f20ba3738d0f69ad18e0a9923005003b1434ffc62c40ad3332d30d2d42c49ef4283826040516200053992919062000723565b60405180910390a1505050565b600054600160a01b900460ff161580156200057a57506001600160a01b03811660009081526001602052604090205460ff16155b156200059957604051633d67a44960e11b815260040160405180910390fd5b50565b80516001600160a01b0381168114620005b457600080fd5b919050565b80516001600160401b0381168114620005b457600080fd5b6000806000838503610120811215620005e957600080fd5b620005f4856200059c565b935062000604602086016200059c565b925060e0603f19820112156200061957600080fd5b5060405160e081016001600160401b03811182821017156200064b57634e487b7160e01b600052604160045260246000fd5b80604052506200065e60408601620005b9565b81526200066e60608601620005b9565b60208201526200068160808601620005b9565b60408201526200069460a08601620005b9565b6060820152620006a760c08601620005b9565b6080820152620006ba60e08601620005b9565b60a0820152610100949094015160c0850152509093909250565b634e487b7160e01b600052602160045260246000fd5b600281106200070957634e487b7160e01b600052602160045260246000fd5b9052565b602081016200071d8284620006ea565b92915050565b6001600160a01b038316815260408101620007426020830184620006ea565b9392505050565b61482480620007596000396000f3fe608060405234801561001057600080fd5b50600436106102d35760003560e01c80637dbca35311610186578063b6812c99116100e3578063dbe7cc1711610097578063fdda829511610071578063fdda829514610694578063ff9b8bb8146106a7578063ffc9896b1461075257600080fd5b8063dbe7cc171461065b578063f2fde38b1461066e578063f6aa13f21461068157600080fd5b8063c223a9be116100c8578063c223a9be1461062b578063d02641a01461063e578063d37db1d21461065157600080fd5b8063b6812c9914610605578063bf3702991461061857600080fd5b8063a2d20cf21161013a578063aaf5eb681161011f578063aaf5eb68146105d0578063b4240c99146105df578063b5c5f672146105f257600080fd5b8063a2d20cf214610567578063aab3f868146105bd57600080fd5b806389a1e8031161016b57806389a1e803146105265780638da5cb5b1461053957806393f2d72e1461055457600080fd5b80637dbca3531461050057806382a5b1aa1461051357600080fd5b80632c895aff116102345780634cd5491c116101e85780636ad9f9df116101cd5780636ad9f9df146104d2578063715018a6146104e557806378767d70146104ed57600080fd5b80634cd5491c1461049b57806361a552dc146104ae57600080fd5b8063351b14a011610219578063351b14a014610455578063429e2c1a146104755780634b8a35291461048857600080fd5b80632c895aff1461042257806330941e621461043557600080fd5b80631d81944f1161028b578063249d39e911610270578063249d39e9146103f257806325d07a95146103fc5780632b83cccd1461040f57600080fd5b80631d81944f146103cc57806322867d78146103df57600080fd5b80630f342ee9116102bc5780630f342ee91461032f578063150b7a02146103505780631880b981146103b957600080fd5b80630d30320e146102d85780630d8459fe146102ed575b600080fd5b6102eb6102e6366004613d9f565b610780565b005b6103006102fb366004613ddb565b61084c565b6040805194855260208501939093529183015267ffffffffffffffff1660608201526080015b60405180910390f35b61034261033d366004613e0f565b61086b565b604051908152602001610326565b61038861035e366004613e98565b7f150b7a020000000000000000000000000000000000000000000000000000000095945050505050565b6040517fffffffff000000000000000000000000000000000000000000000000000000009091168152602001610326565b6102eb6103c7366004613f35565b610901565b6102eb6103da36600461404d565b61091d565b6102eb6103ed366004614084565b610a03565b610342620186a081565b61034261040a366004614084565b610b86565b6102eb61041d3660046140ae565b610bf5565b610342610430366004613ddb565b610c07565b610448610443366004613ddb565b610c8a565b60405161032691906140e1565b6104686104633660046141dc565b610d89565b604051610326919061424a565b6102eb610483366004613d9f565b610dc3565b6102eb610496366004614084565b610f4a565b6102eb6104a9366004613d9f565b61110d565b6000546104c290600160a01b900460ff1681565b6040519015158152602001610326565b6103426104e0366004613ddb565b611269565b6102eb6112ef565b6102eb6104fb3660046142a2565b611303565b6102eb61050e3660046140ae565b611704565b6102eb610521366004613d9f565b611890565b610342610534366004613ddb565b61191e565b6000546040516001600160a01b039091168152602001610326565b610342610562366004614084565b6119ce565b6105a86105753660046141dc565b6001600160a01b039182166000908152600760209081526040808320939094168252919091522080546001909101549091565b60408051928352602083019190915201610326565b6102eb6105cb36600461434d565b611a19565b610342670de0b6b3a764000081565b6103426105ed3660046141dc565b611fa0565b6102eb6106003660046140ae565b611fd0565b6104c2610613366004613ddb565b611fdd565b610342610626366004613ddb565b612010565b6102eb610639366004614398565b61202f565b61034261064c366004613ddb565b612465565b6103426220148081565b610342610669366004613ddb565b6124b8565b6102eb61067c366004613ddb565b612562565b6104c261068f366004613d9f565b6125f2565b6103426106a2366004613e0f565b612623565b6107246106b5366004613d9f565b6040805180820190915260008082526020820152506001600160a01b03928316600090815260086020908152604080832094861683529381528382209282529182528290208251808401909352549283168252600160a01b90920467ffffffffffffffff169181019190915290565b6040805182516001600160a01b0316815260209283015167ffffffffffffffff169281019290925201610326565b610765610760366004613ddb565b6126a8565b60408051938452602084019290925290820152606001610326565b670de0b6b3a764000061079284611269565b10156107b1576040516374fa216b60e01b815260040160405180910390fd5b6001600160a01b03838116600081815260086020908152604080832094871680845294825280832086845282529182902080547fffffffff0000000000000000000000000000000000000000000000000000000016905581519283528201929092529081018290527f077c7becfad752fe6ee0143187438b002e564c671aabfd4b3b3c4343a2e79524906060015b60405180910390a1505050565b60008060008061085b856126d4565b93509350935093505b9193509193565b600081156108b7576001600160a01b038416600090815260066020908152604080832081518083019092528054825260010154918101919091526108b0918590612bf5565b90506108fa565b6001600160a01b038416600090815260066020908152604080832081518083019092526002810154825260030154918101919091526108f7918590612bf5565b90505b9392505050565b610909612c5c565b6109168585858585612cb6565b5050505050565b610925612c5c565b6001600160a01b0382166109a75760008054821515600160a01b027fffffffffffffffffffffff00ffffffffffffffffffffffffffffffffffffffff9091161790556040517f59617e84cd4a4d47c34c76f190da73d3a6a0236e0770dcba41851db53f336f579061099b90831515815260200190565b60405180910390a15050565b6001600160a01b038216600081815260016020908152604091829020805460ff19168515159081179091558251938452908301527ff0158690f9b0f41fc31e96038d36f6b6517557ebe2d3202408966ef3c616f5b6910161099b565b610a0c826126d4565b50503360009081526007602090815260408083206001600160a01b03881684528252808320600190810154600684528285208351808501909452600281015484526003015493830193909352919450919250610a6a91908590612bf5565b9050600019831480610a7b57508181115b15610ac557506001600160a01b03831660009081526006602090815260409182902082518084019093526002810154835260030154908201528190610ac290826001612f98565b92505b610ada6001600160a01b038516333086612fe6565b6001600160a01b03841660008181526006602090815260408083206003810180546001600160801b03888116909103909155600290910180549189169091039055338084526007835281842085855283529281902085870360019190910155805192835290820192909252908101849052606081018290527fe4a1ae657f49cb1fb1c7d3a94ae6093565c4c8c0e03de488f79c377c3c3a24e0906080015b60405180910390a150505050565b600080610b9284612465565b90506000610ba8856001600160a01b0316613159565b90506000610bb7826012614436565b610bc290600a614533565b610bcc9086614542565b9050670de0b6b3a7640000610be18483614542565b610beb9190614559565b9695505050505050565b610c0283838360016131bd565b505050565b600354600090815b81811015610c8357600060038281548110610c2c57610c2c61457b565b60009182526020822001546001600160a01b03169150610c4c8683611fa0565b90508015610c79576000610c5f83612465565b9050610c6b8183614542565b610c759087614591565b9550505b5050600101610c0f565b5050919050565b610c92613cec565b506001600160a01b0316600090815260066020818152604092839020835160a0808201865282546060808401918252600185015460808086019190915291845287518089018952600286015481526003860154818801528487015287516101408101895260048601548152600586015467ffffffffffffffff80821698830198909852680100000000000000008082048916838c0152600160801b8083048a1694840194909452600160c01b918290048916948301949094529786015480881694820194909452918304861660c08301528204851660e0820152949004909216610100840152600701546101208301529182015290565b6001600160a01b038083166000908152600560209081526040808320938516835292905220606090610dba90613439565b90505b92915050565b610dce8383836125f2565b610deb5760405163079f151f60e11b815260040160405180910390fd5b6000610df6846124b8565b9050670de0b6b3a7640000610e0a85611269565b101580610e1657508015155b15610e6c576040517f6560982d0000000000000000000000000000000000000000000000000000000081526001600160a01b03808616600483015284166024820152604481018390526064015b60405180910390fd5b6001600160a01b038085166000908152600860209081526040808320938716835292815282822085835290522080546001600160a01b03191633178155610eb66201518042614591565b81547fffffffff0000000000000000ffffffffffffffffffffffffffffffffffffffff16600160a01b67ffffffffffffffff9290921691909102178155604080513381526001600160a01b0387811660208301528616818301526060810185905290517f2d2541220f1c874dae8d6fa2dc8987e584ca7efede079594de6066330745daa59181900360800190a15050505050565b610f5382613446565b610f5d8282613486565b610f7a57604051631e9acf1760e31b815260040160405180910390fd5b610f83826126d4565b505050506001600160a01b03821660009081526006602090815260408083208151808301909252600281015482526003015491810191909152610fc7908383612bf5565b6001600160a01b038416600090815260066020526040812060030180549293506001600160801b03841692909190611000908490614591565b90915550506001600160a01b038316600090815260066020526040812060020180546001600160801b0385169290611039908490614591565b90915550503360009081526007602090815260408083206001600160a01b038716845290915281206001018054839290611074908490614591565b9091555061108f90506001600160a01b038416303385612fe6565b670de0b6b3a76400006110a133611269565b10156110c0576040516374fa216b60e01b815260040160405180910390fd5b604080513381526001600160a01b0385166020820152908101839052606081018290527fc1561b330e73faa7d5d1ac03c968d8f359b0191ccdb9cc002cf7d8eb6ae038cb9060800161083f565b670de0b6b3a764000061111f84611269565b101561113e576040516330af2d6760e21b815260040160405180910390fd5b6001600160a01b03808416600090815260086020908152604080832086851684528252808320858452909152902080549091166111a7576040517f049c49b600000000000000000000000000000000000000000000000000000000815260040160405180910390fd5b8054600160a01b900467ffffffffffffffff164210156111f3576040517f606f9ea300000000000000000000000000000000000000000000000000000000815260040160405180910390fd5b80546112139061012c90600160a01b900467ffffffffffffffff16614591565b421115801561122c575080546001600160a01b03163314155b15611263576040517f728e956900000000000000000000000000000000000000000000000000000000815260040160405180910390fd5b50505050565b600080600080611278856126a8565b91945092509050600061128b8385614591565b9050816000036112a857610beb670de0b6b3a76400006064614542565b6000620186a06112bb6201388084614542565b6112c59190614559565b9050826112da670de0b6b3a764000083614542565b6112e49190614559565b979650505050505050565b6112f7612c5c565b6113016000613562565b565b60008590036113255760405163521299a960e01b815260040160405180910390fd5b8483146113455760405163b7c1140d60e01b815260040160405180910390fd5b8660008667ffffffffffffffff81111561136157611361613f07565b60405190808252806020026020018201604052801561138a578160200160208202803683370190505b50905060005b878110156114f2576113c28989838181106113ad576113ad61457b565b90506020020160208101906106269190613ddb565b60000361142e578888828181106113db576113db61457b565b90506020020160208101906113f09190613ddb565b6040517f7c154f890000000000000000000000000000000000000000000000000000000081526001600160a01b039091166004820152602401610e63565b6114768989838181106114435761144361457b565b90506020020160208101906114589190613ddb565b88888481811061146a5761146a61457b565b905060200201356119ce565b8282815181106114885761148861457b565b6020026020010181815250506114ea308b8989858181106114ab576114ab61457b565b905060200201358c8c868181106114c4576114c461457b565b90506020020160208101906114d99190613ddb565b6001600160a01b0316929190612fe6565b600101611390565b506040517f64573d020000000000000000000000000000000000000000000000000000000081526001600160a01b038316906364573d02906115469033908c908c908c908c9089908d908d906004016145cd565b6020604051808303816000875af1158015611565573d6000803e3d6000fd5b505050506040513d601f19601f82011682018060405250810190611589919061469f565b6115bf576040517ffd5ead8000000000000000000000000000000000000000000000000000000000815260040160405180910390fd5b6000805b888110156116b2578281815181106115dd576115dd61457b565b60200260200101518888838181106115f7576115f761457b565b905060200201356116089190614591565b91506116228b30848d8d868181106114c4576114c461457b565b8281815181106116345761163461457b565b60200260200101516001600160801b0316600660008c8c8581811061165b5761165b61457b565b90506020020160208101906116709190613ddb565b6001600160a01b03166001600160a01b0316815260200190815260200160002060000160000160008282546116a59190614591565b90915550506001016115c3565b507f76f226d30806b7b34cf90ae0330c53df665a4127510985a1a3958387039b9d75338a8a8a8a878b8b6040516116f09897969594939291906145cd565b60405180910390a150505050505050505050565b61170d83613446565b611716836135b2565b61171f836126d4565b50611739925050506001600160a01b038416333085612fe6565b6001600160a01b03831660009081526006602090815260408083208151808301909252805482526001015491810191909152611776908483612bf5565b90508181101561179c576040516328ac9b3f60e11b815260048101829052602401610e63565b6001600160a01b038416600090815260066020526040812060010180546001600160801b03841692906117d0908490614591565b90915550506001600160a01b038416600090815260066020526040812080546001600160801b0386169290611806908490614591565b90915550503360009081526007602090815260408083206001600160a01b03881684529091528120805483929061183e908490614591565b9091555050604080513381526001600160a01b0386166020820152908101849052606081018290527fdcbc1c05240f31ff3ad067ef1ee35ce4997762752e3a095284754544f4c709d790608001610b78565b61189c3384848461360b565b670de0b6b3a76400006118ae33611269565b10156118cd576040516374fa216b60e01b815260040160405180910390fd5b604080513381526001600160a01b038086166020830152841691810191909152606081018290527fa766742a23fe9ecbd32c553cd9ad3115b2d15c6b72cd5e95858f5a911d55cb459060800161083f565b600254600090815b81811015610c83576000600282815481106119435761194361457b565b60009182526020808320909101546001600160a01b038881168452600783526040808520919092168085529083528184206001015460068452828520835180850190945260028101548452600301549383019390935293506119a59183612f98565b905080156119c4576119b78282610b86565b6119c19086614591565b94505b5050600101611926565b6001600160a01b038216600090815260066020526040812060050154620186a090611a0f9068010000000000000000900467ffffffffffffffff1684614542565b610dba9190614559565b6001600160a01b0384163303611a5b576040517f44511af100000000000000000000000000000000000000000000000000000000815260040160405180910390fd5b6000611a6685611269565b9050670de0b6b3a76400008110611a90576040516330af2d6760e21b815260040160405180910390fd5b6001600160a01b0385811660009081526007602090815260408083208885168452909152808220549286168252902060010154811580611ace575080155b15611adb57505050611263565b6001600160a01b03851660009081526006602090815260408083208151808301909252600281015482526003015491810191909152611b1c90836001612f98565b90506000670c7d713b49da0000851015611b365781611b50565b620186a0611b4661c35084614542565b611b509190614559565b9050808611611b5f5785611b61565b805b6001600160a01b038916600090815260066020908152604080832081518083019092528054825260010154918101919091529197509250829150899088908a9089908590611bb0908a83612f98565b90506000611bbd84612465565b90506000611bca86612465565b90506000611be0866001600160a01b0316613159565b90506000611bf6886001600160a01b0316613159565b9050611c0381600a614533565b611c0d9085614542565b611c1883600a614533565b611c228589614542565b611c2c9190614542565b611c369190614559565b9a506000620186a0611c4a6113888e614542565b611c549190614559565b9050858c1115611cac57859b5082600a611c6e9190614533565b84611c7a84600a614533565b611c84888a614542565b611c8e9190614542565b611c989190614559565b611ca29190614542565b9a50869f50611ccd565b6000611cb88d886146bc565b9050808211611cc75781611cc9565b805b9b50505b6001600160a01b03891660009081526006602090815260408083208151808301909252600281015482526003015491810191909152611d0d908983612bf5565b6001600160a01b038b16600090815260066020526040812060030180549293506001600160801b03841692909190611d469084906146bc565b90915550506001600160a01b038a16600090815260066020526040812060020180546001600160801b038b169290611d7f9084906146bc565b925050819055506000611dd08d8f611d979190614591565b6001600160a01b038c16600090815260066020908152604080832081518083019092528054825260010154918101919091529190612bf5565b6001600160a01b038b16600090815260066020526040812060010180549293506001600160801b03841692909190611e099084906146bc565b90915550611e1990508d8f614591565b6001600160a01b038b16600090815260066020526040812080546001600160801b039390931692909190611e4e9084906146bc565b90915550506001600160a01b03808d166000908152600760209081526040808320938f16835292905290812060010180546001600160801b0385169290611e969084906146bc565b90915550506001600160a01b03808d166000908152600760209081526040808320938e16835292905290812080546001600160801b0384169290611edb9084906146bc565b92505081905550505050505050505050505050611f1130338385611eff9190614591565b6001600160a01b038b16929190612fe6565b611f323033611f208486614591565b6001600160a01b038c16929190612fe6565b7ffcbc974bf3a532baf2bb229db3c37fd58299b62d2d1db6a855dac5b693bb6ff3893388611f608587614591565b604080516001600160a01b0395861681529490931660208501529183015260608201526080810183905260a00160405180910390a1505050505050505050565b6001600160a01b0380831660009081526005602090815260408083209385168352929052908120610dba906136ea565b610c0283838360006131bd565b60008054600160a01b900460ff1680610dbd5750506001600160a01b031660009081526001602052604090205460ff1690565b600061201b82611fdd565b61202757600019610dbd565b600092915050565b60008390036120515760405163521299a960e01b815260040160405180910390fd5b8281146120715760405163b7c1140d60e01b815260040160405180910390fd5b61207c87878761110d565b60006120878861191e565b9050600061209488612465565b9050600089818080805b8a811015612226578b8b828181106120b8576120b861457b565b90506020020160208101906120cd9190613ddb565b93508989828181106120e1576120e161457b565b9050602002013592506120f3846126d4565b5050506001600160a01b03851660009081526006602090815260409182902082518084019093526002810154835260030154908201526121369150846001612bf5565b915061214d6001600160a01b038516333086612fe6565b6001600160a01b038416600090815260066020526040812060030180546001600160801b03851692906121819084906146bc565b90915550506001600160a01b038416600090815260066020526040812060020180546001600160801b03861692906121ba9084906146bc565b90915550506001600160a01b038086166000908152600760209081526040808320938816835292905290812060010180546001600160801b03851692906122029084906146bc565b9091555061221290508484610b86565b61221c9087614591565b955060010161209e565b50858711801561224e5750620186a061224161c35088614542565b61224b9190614559565b85105b15612285576040517ff67d9a2700000000000000000000000000000000000000000000000000000000815260040160405180910390fd5b50600092508c9150829050620186a06122a061271082614591565b6122aa9086614542565b6122b49190614559565b90506122c081866146bc565b9250600060026000815481106122d8576122d861457b565b6000918252602090912001546001600160a01b031690506122fb81333087612fe6565b6001600160a01b03811660009081526006602090815260408083208151808301909252805482526001015491810191909152612338908683612bf5565b6001600160a01b038316600090815260066020526040812060010180549293506001600160801b03841692909190612371908490614591565b90915550506001600160a01b038216600090815260066020526040812080546001600160801b03881692906123a7908490614591565b90915550506001600160a01b038085166000908152600760209081526040808320938616835292905290812080548392906123e3908490614591565b92505081905550505050506123fa8b338c8c61360b565b604080513381526001600160a01b038d811660208301528c1681830152606081018b90526080810184905260a0810183905290517f7cd35ff79d73d5af7cb402eaac9792d8b3d32b685b221cd81c3d5611c8327fd09181900360c00190a15050505050505050505050565b6001600160a01b038116600090815260046020526040812054600160a81b900460ff1661249457506000919050565b6001600160a01b03808316600090815260046020526040902054166108fa816136f4565b600254600090815b81811015610c83576000600282815481106124dd576124dd61457b565b60009182526020808320909101546001600160a01b038881168452600783526040808520919092168085529083528184205460068452828520835180850190945280548452600101549383019390935293506125399183612f98565b905080156125585761254b8282610b86565b6125559086614591565b94505b50506001016124c0565b61256a612c5c565b6001600160a01b0381166125e65760405162461bcd60e51b815260206004820152602660248201527f4f776e61626c653a206e6577206f776e657220697320746865207a65726f206160448201527f64647265737300000000000000000000000000000000000000000000000000006064820152608401610e63565b6125ef81613562565b50565b6001600160a01b03808416600090815260056020908152604080832093861683529290529081206108f790836137f7565b60008115612668576001600160a01b038416600090815260066020908152604080832081518083019092528054825260010154918101919091526108b0918590612f98565b6001600160a01b038416600090815260066020908152604080832081518083019092526002810154825260030154918101919091526108f7918590612f98565b60008060006126b6846124b8565b92506126c184610c07565b91506126cc8461191e565b929491935050565b6001600160a01b0381166000908152600660208181526040808420815160a0808201845282546060808401918252600185015460808086019190915291845285518087018752600286015481526003860154818901528488015285516101408101875260048601548152600586015467ffffffffffffffff80821699830199909952680100000000000000008082048a16838a0152600160801b8083048b1694840194909452600160c01b918290048a16948301949094529886015480891694820194909452918304871660c08301528204861660e0820152959004909316610100850152600701546101208401528101919091528051518291829182919082036127ed57600080600080945094509450945050610864565b604081015160808101514267ffffffffffffffff90911603612816576060015191506108649050565b6020808301510151158061282e575061282e87611fdd565b156128575767ffffffffffffffff4281166080830152431660a082015260408201819052612abf565b60008160a0015167ffffffffffffffff164361287391906146bc565b83515160208501515191925060009161289590670de0b6b3a764000090614542565b61289f9190614559565b905060006128ad848361380f565b67ffffffffffffffff8781166060870152428116608087015243811660a08701526040805186815291831660208301529192507fcff294bc3695620876ce22ec38b97aaa07675b271c26a784ebeba510e59b1f65910160405180910390a161292062201480670de0b6b3a7640000614542565b846060015167ffffffffffffffff16866020015160000151856129439190614542565b61294d9190614542565b6129579190614559565b9850886001600160801b031685602001516000018181516129789190614591565b905250845180516001600160801b038b169190612996908390614591565b90525060408501849052602084015167ffffffffffffffff1615612a6457620186a0846020015167ffffffffffffffff168a6129d29190614542565b6129dc9190614559565b8551519098506129ed9089906146bc565b8551602001516129fd908a614542565b612a079190614559565b9650866001600160801b03168560000151602001818151612a289190614591565b9052503060009081526007602090815260408083206001600160a01b038e16845290915281208054899290612a5e908490614591565b90915550505b6060808501516040805167ffffffffffffffff9092168252602082018c905281018a90529081018890527ff4fc4a63006144011c7214b4099772de96603a49b426f18267c33b3c1ec35bed9060800160405180910390a15050505b506001600160a01b039590951660009081526006602081815260409283902088518051825582015160018201558882015180516002830155820151600382015597830151805160048a015590810151600589018054948301516060840151608085015167ffffffffffffffff9485166fffffffffffffffffffffffffffffffff1998891617680100000000000000009386168402176001600160801b03908116600160801b938716840277ffffffffffffffffffffffffffffffffffffffffffffffff90811691909117600160c01b93881684021790955560a0870151978e01805460c089015160e08a01516101008b01519b8a1692909c169190911790881690950294909417169785169091029092169590951793909116029190911790915561012001516007909501949094559193909290565b82516000908103612c075750816108fa565b83516020850151612c189085614542565b612c229190614559565b9050818015612c4c575060208401518451849190612c409084614542565b612c4a9190614559565b105b156108fa576108f7816001614591565b6000546001600160a01b031633146113015760405162461bcd60e51b815260206004820181905260248201527f4f776e61626c653a2063616c6c6572206973206e6f7420746865206f776e65726044820152606401610e63565b8015612ccc57612cc78585856138ec565b612cd5565b612cd585613b2c565b6000836001811115612ce957612ce96146cf565b0361091657620186a0826000015167ffffffffffffffff161115612d485781516040517f5f7918ed00000000000000000000000000000000000000000000000000000000815267ffffffffffffffff9091166004820152602401610e63565b611388826020015167ffffffffffffffff161115612d8b5760208201516040516336e6824b60e21b815267ffffffffffffffff9091166004820152602401610e63565b611388826040015167ffffffffffffffff161115612dce5760408083015190516336e6824b60e21b815267ffffffffffffffff9091166004820152602401610e63565b6001600160a01b038516600090815260066020818152604092839020855167ffffffffffffffff9081166004830190815592870151600583018054898801518416680100000000000000009081026fffffffffffffffffffffffffffffffff19909216938516939093171790556060880151948301805460808a015160a08b01518516600160c01b0277ffffffffffffffffffffffffffffffffffffffffffffffff918616600160801b027fffffffffffffffff0000000000000000ffffffffffffffffffffffffffffffff99909616909402979097167fffffffffffffffff00000000000000000000000000000000ffffffffffffffff9091161792909217949094169390931790925560c085015160079092019190915590517f7e914af3d8d31ac64e6df6e8087ac12953b11a1bceebf2a80692aa35e6b0e6ff90612f8890889086906000610100820190506001600160a01b038416825267ffffffffffffffff8084511660208401528060208501511660408401528060408501511660608401528060608501511660808401528060808501511660a08401528060a08501511660c08401525060c083015160e08301529392505050565b60405180910390a1505050505050565b60008360200151600003612fad5750816108fa565b60208401518451612fbe9085614542565b612fc89190614559565b9050818015612c4c575083516020850151849190612c409084614542565b6000306001600160a01b0385160361308b576040517fa9059cbb0000000000000000000000000000000000000000000000000000000081526001600160a01b0384811660048301526024820184905286169063a9059cbb906044016020604051808303816000875af1158015613060573d6000803e3d6000fd5b505050506040513d601f19601f82011682018060405250810190613084919061469f565b9050613122565b6040517f23b872dd0000000000000000000000000000000000000000000000000000000081526001600160a01b0385811660048301528481166024830152604482018490528616906323b872dd906064016020604051808303816000875af11580156130fb573d6000803e3d6000fd5b505050506040513d601f19601f8201168201806040525081019061311f919061469f565b90505b80610916576040517f90b8ec1800000000000000000000000000000000000000000000000000000000815260040160405180910390fd5b6000816001600160a01b031663313ce5676040518163ffffffff1660e01b8152600401602060405180830381865afa158015613199573d6000803e3d6000fd5b505050506040513d601f19601f82011682018060405250810190610dbd91906146e5565b6131c6846126d4565b50503360009081526007602090815260408083206001600160a01b038a16845290915281205492509050821561326257506001600160a01b03851660009081526006602090815260408083208151808301909252805482526001015491810191909152859161323791908390612f98565b94508385101561325d576040516328ac9b3f60e11b815260048101869052602401610e63565b6132c5565b6001600160a01b0386166000908152600660209081526040808320815180830190925280548252600101549181019190915261329f918790612bf5565b9050838111156132c5576040516328ac9b3f60e11b815260048101829052602401610e63565b8082108061333a57506040516370a0823160e01b815230600482015285906001600160a01b038816906370a0823190602401602060405180830381865afa158015613314573d6000803e3d6000fd5b505050506040513d601f19601f820116820180604052508101906133389190614708565b105b1561335857604051631e9acf1760e31b815260040160405180910390fd5b6001600160a01b03861660008181526006602090815260408083206001810180546001600160801b038089169091039091558154908b16900390553380845260078352818420858552909252909120805484900390556133bb9190309088612fe6565b670de0b6b3a76400006133cd33611269565b10156133ec576040516374fa216b60e01b815260040160405180910390fd5b604080513381526001600160a01b0388166020820152908101869052606081018290527ff341246adaac6f497bc2a656f546ab9e182111d630394f0c57c710a59a2cb56790608001612f88565b606060006108fa83613b96565b61344f81611fdd565b156125ef576040517fb187bd2600000000000000000000000000000000000000000000000000000000815260040160405180910390fd5b6001600160a01b0382166000908152600660205260408120600481015490548291620186a0916134b69190614542565b6134c09190614559565b6001600160a01b0385166000908152600660205260409020549091501580159061355a57506134ef8382614591565b6040516370a0823160e01b81523060048201526001600160a01b038616906370a0823190602401602060405180830381865afa158015613533573d6000803e3d6000fd5b505050506040513d601f19601f820116820180604052508101906135579190614708565b10155b949350505050565b600080546001600160a01b038381166001600160a01b0319831681178455604051919092169283917f8be0079c531659141344cd1fd0a4f28419497f9722a3daafe3b4186f6b6457e09190a35050565b6001600160a01b038116600090815260046020526040902054600160a81b900460ff166125ef576040517f3dd1b30500000000000000000000000000000000000000000000000000000000815260040160405180910390fd5b6136168483836125f2565b6136335760405163079f151f60e11b815260040160405180910390fd5b6001600160a01b0380851660009081526005602090815260408083209386168352929052206136629082613bf2565b506040517f42842e0e0000000000000000000000000000000000000000000000000000000081523060048201526001600160a01b038481166024830152604482018390528316906342842e0e90606401600060405180830381600087803b1580156136cc57600080fd5b505af11580156136e0573d6000803e3d6000fd5b5050505050505050565b6000610dbd825490565b6000806000806000856001600160a01b031663feaf968c6040518163ffffffff1660e01b815260040160a060405180830381865afa15801561373a573d6000803e3d6000fd5b505050506040513d601f19601f8201168201806040525081019061375e919061473b565b945094505093509350600083131580613775575081155b8061379757508369ffffffffffffffffffff168169ffffffffffffffffffff16105b806137ac5750611c206137aa83426146bc565b115b156137e2576040517ebfc92100000000000000000000000000000000000000000000000000000000815260040160405180910390fd5b6137ed600a8061477f565b610beb9084614542565b60008181526001830160205260408120541515610dba565b61012082015160c083015160e08401516101008501516000939267ffffffffffffffff908116928116911683861161386c5760008461384e8489614542565b6138589190614559565b90506138648185614591565b9550506138e2565b600061387885886146bc565b9050600061388e86670de0b6b3a76400006146bc565b6138a0670de0b6b3a764000084614542565b6138aa9190614559565b9050670de0b6b3a76400006138bf8483614542565b6138c99190614559565b6138d38587614591565b6138dd9190614591565b965050505b5050505092915050565b6001600160a01b038316600090815260046020526040902054600160a81b900460ff1615613946576040517f3706ba4900000000000000000000000000000000000000000000000000000000815260040160405180910390fd5b600181600181111561395a5761395a6146cf565b111561399457806040517f4e00ade0000000000000000000000000000000000000000000000000000000008152600401610e6391906147ad565b6001600160a01b03808416600090815260046020526040902080549184166001600160a01b031983168117825583927fffffffffffffffffffffff0000000000000000000000000000000000000000001617600160a01b8360018111156139fd576139fd6146cf565b02179055506001600160a01b038316600090815260046020526040902080547fffffffffffffffffffff00ffffffffffffffffffffffffffffffffffffffffff16600160a81b1790556001816001811115613a5a57613a5a6146cf565b03613aaf57600380546001810182556000919091527fc2575a0e9e593c00f959f8c92f12db2869c3395a3b0502d05e2516446f71f85b0180546001600160a01b0319166001600160a01b038516179055613afb565b600280546001810182556000919091527f405787fa12a823e0f2b7631cc41b3ba8828b3321ca811111fa75cd3aa3bb5ace0180546001600160a01b0319166001600160a01b0385161790555b7f20ba3738d0f69ad18e0a9923005003b1434ffc62c40ad3332d30d2d42c49ef42838260405161083f9291906147bb565b600054600160a01b900460ff16158015613b5f57506001600160a01b03811660009081526001602052604090205460ff16155b156125ef576040517f7acf489200000000000000000000000000000000000000000000000000000000815260040160405180910390fd5b606081600001805480602002602001604051908101604052809291908181526020018280548015613be657602002820191906000526020600020905b815481526020019060010190808311613bd2575b50505050509050919050565b6000610dba838360008181526001830160205260408120548015613ce2576000613c1d6001836146bc565b8554909150600090613c31906001906146bc565b9050808214613c96576000866000018281548110613c5157613c5161457b565b9060005260206000200154905080876000018481548110613c7457613c7461457b565b6000918252602080832090910192909255918252600188019052604090208390555b8554869080613ca757613ca76147d8565b600190038181906000526020600020016000905590558560010160008681526020019081526020016000206000905560019350505050610dbd565b6000915050610dbd565b6040805160a08101909152600060608201818152608083019190915281908152602001613d2c604051806040016040528060008152602001600081525090565b8152604080516101408101825260008082526020828101829052928201819052606082018190526080820181905260a0820181905260c0820181905260e08201819052610100820181905261012082015291015290565b80356001600160a01b0381168114613d9a57600080fd5b919050565b600080600060608486031215613db457600080fd5b613dbd84613d83565b9250613dcb60208501613d83565b9150604084013590509250925092565b600060208284031215613ded57600080fd5b610dba82613d83565b80151581146125ef57600080fd5b8035613d9a81613df6565b600080600060608486031215613e2457600080fd5b613e2d84613d83565b9250602084013591506040840135613e4481613df6565b809150509250925092565b60008083601f840112613e6157600080fd5b50813567ffffffffffffffff811115613e7957600080fd5b602083019150836020828501011115613e9157600080fd5b9250929050565b600080600080600060808688031215613eb057600080fd5b613eb986613d83565b9450613ec760208701613d83565b935060408601359250606086013567ffffffffffffffff811115613eea57600080fd5b613ef688828901613e4f565b969995985093965092949392505050565b634e487b7160e01b600052604160045260246000fd5b803567ffffffffffffffff81168114613d9a57600080fd5b6000806000806000858703610160811215613f4f57600080fd5b613f5887613d83565b9550613f6660208801613d83565b9450604087013560028110613f7a57600080fd5b935060e0605f1982011215613f8e57600080fd5b5060405160e0810181811067ffffffffffffffff82111715613fc057634e487b7160e01b600052604160045260246000fd5b604052613fcf60608801613f1d565b8152613fdd60808801613f1d565b6020820152613fee60a08801613f1d565b6040820152613fff60c08801613f1d565b606082015261401060e08801613f1d565b60808201526140226101008801613f1d565b60a082015261012087013560c082015291506140416101408701613e04565b90509295509295909350565b6000806040838503121561406057600080fd5b61406983613d83565b9150602083013561407981613df6565b809150509250929050565b6000806040838503121561409757600080fd5b6140a083613d83565b946020939093013593505050565b6000806000606084860312156140c357600080fd5b6140cc84613d83565b95602085013595506040909401359392505050565b815180518252602090810151908201526101c081016020838101518051604085015290810151606084015250604083015180516080840152602081015167ffffffffffffffff811660a085015250604081015167ffffffffffffffff811660c085015250606081015167ffffffffffffffff811660e08501525060808101516101006141788186018367ffffffffffffffff169052565b60a083015191506101206141978187018467ffffffffffffffff169052565b60c084015167ffffffffffffffff90811661014088015260e0850151811661016088015291840151909116610180860152909101516101a09093019290925292915050565b600080604083850312156141ef57600080fd5b6141f883613d83565b915061420660208401613d83565b90509250929050565b600081518084526020808501945080840160005b8381101561423f57815187529582019590820190600101614223565b509495945050505050565b602081526000610dba602083018461420f565b60008083601f84011261426f57600080fd5b50813567ffffffffffffffff81111561428757600080fd5b6020830191508360208260051b8501011115613e9157600080fd5b60008060008060008060006080888a0312156142bd57600080fd5b6142c688613d83565b9650602088013567ffffffffffffffff808211156142e357600080fd5b6142ef8b838c0161425d565b909850965060408a013591508082111561430857600080fd5b6143148b838c0161425d565b909650945060608a013591508082111561432d57600080fd5b5061433a8a828b01613e4f565b989b979a50959850939692959293505050565b6000806000806080858703121561436357600080fd5b61436c85613d83565b935061437a60208601613d83565b925061438860408601613d83565b9396929550929360600135925050565b600080600080600080600060a0888a0312156143b357600080fd5b6143bc88613d83565b96506143ca60208901613d83565b955060408801359450606088013567ffffffffffffffff808211156143ee57600080fd5b6143fa8b838c0161425d565b909650945060808a013591508082111561441357600080fd5b5061433a8a828b0161425d565b634e487b7160e01b600052601160045260246000fd5b60ff8281168282160390811115610dbd57610dbd614420565b600181815b8085111561448a57816000190482111561447057614470614420565b8085161561447d57918102915b93841c9390800290614454565b509250929050565b6000826144a157506001610dbd565b816144ae57506000610dbd565b81600181146144c457600281146144ce576144ea565b6001915050610dbd565b60ff8411156144df576144df614420565b50506001821b610dbd565b5060208310610133831016604e8410600b841016171561450d575081810a610dbd565b614517838361444f565b806000190482111561452b5761452b614420565b029392505050565b6000610dba60ff841683614492565b8082028115828204841417610dbd57610dbd614420565b60008261457657634e487b7160e01b600052601260045260246000fd5b500490565b634e487b7160e01b600052603260045260246000fd5b80820180821115610dbd57610dbd614420565b81835281816020850137506000828201602090810191909152601f909101601f19169091010190565b6001600160a01b03898116825260a060208084018290529083018990526000918a9160c08501845b8c81101561461a578361460786613d83565b16825293820193908201906001016145f5565b5085810360408701528981527f07ffffffffffffffffffffffffffffffffffffffffffffffffffffffffffffff8a111561465357600080fd5b8960051b9350838b8383013790920184810383016060860152916146798184018961420f565b9250505082810360808401526146908185876145a4565b9b9a5050505050505050505050565b6000602082840312156146b157600080fd5b81516108fa81613df6565b81810381811115610dbd57610dbd614420565b634e487b7160e01b600052602160045260246000fd5b6000602082840312156146f757600080fd5b815160ff811681146108fa57600080fd5b60006020828403121561471a57600080fd5b5051919050565b805169ffffffffffffffffffff81168114613d9a57600080fd5b600080600080600060a0868803121561475357600080fd5b61475c86614721565b945060208601519350604086015192506060860151915061404160808701614721565b6000610dba8383614492565b600281106147a957634e487b7160e01b600052602160045260246000fd5b9052565b60208101610dbd828461478b565b6001600160a01b0383168152604081016108fa602083018461478b565b634e487b7160e01b600052603160045260246000fdfea2646970667358221220da72779ae6b3b2f594ccd7e9ee98e006b4480a146973f847464c2aabd490f3d464736f6c63430008140033","opcodes":"PUSH1 0x80 PUSH1 0x40 MSTORE PUSH1 0x0 DUP1 SLOAD PUSH1 0xFF PUSH1 0xA0 SHL NOT AND PUSH1 0x1 PUSH1 0xA0 SHL OR SWAP1 SSTORE CALLVALUE DUP1 ISZERO PUSH3 0x24 JUMPI PUSH1 0x0 DUP1 REVERT JUMPDEST POP PUSH1 0x40 MLOAD PUSH3 0x4F7D CODESIZE SUB DUP1 PUSH3 0x4F7D DUP4 CODECOPY DUP2 ADD PUSH1 0x40 DUP2 SWAP1 MSTORE PUSH3 0x47 SWAP2 PUSH3 0x5D1 JUMP JUMPDEST PUSH3 0x52 CALLER PUSH3 0x6C JUMP JUMPDEST PUSH3 0x63 DUP4 DUP4 PUSH1 0x0 DUP5 PUSH1 0x1 PUSH3 0xBC JUMP JUMPDEST POP POP POP PUSH3 0x749 JUMP JUMPDEST PUSH1 0x0 DUP1 SLOAD PUSH1 0x1 PUSH1 0x1 PUSH1 0xA0 SHL SUB DUP4 DUP2 AND PUSH1 0x1 PUSH1 0x1 PUSH1 0xA0 SHL SUB NOT DUP4 AND DUP2 OR DUP5 SSTORE PUSH1 0x40 MLOAD SWAP2 SWAP1 SWAP3 AND SWAP3 DUP4 SWAP2 PUSH32 0x8BE0079C531659141344CD1FD0A4F28419497F9722A3DAAFE3B4186F6B6457E0 SWAP2 SWAP1 LOG3 POP POP JUMP JUMPDEST DUP1 ISZERO PUSH3 0xD6 JUMPI PUSH3 0xD0 DUP6 DUP6 DUP6 PUSH3 0x34D JUMP JUMPDEST PUSH3 0xE1 JUMP JUMPDEST PUSH3 0xE1 DUP6 PUSH3 0x546 JUMP JUMPDEST PUSH1 0x0 DUP4 PUSH1 0x1 DUP2 GT ISZERO PUSH3 0xF8 JUMPI PUSH3 0xF8 PUSH3 0x6D4 JUMP JUMPDEST SUB PUSH3 0x346 JUMPI PUSH3 0x186A0 DUP3 PUSH1 0x0 ADD MLOAD PUSH1 0x1 PUSH1 0x1 PUSH1 0x40 SHL SUB AND GT ISZERO PUSH3 0x143 JUMPI DUP2 MLOAD PUSH1 0x40 MLOAD PUSH4 0x5F7918ED PUSH1 0xE0 SHL DUP2 MSTORE PUSH1 0x1 PUSH1 0x1 PUSH1 0x40 SHL SUB SWAP1 SWAP2 AND PUSH1 0x4 DUP3 ADD MSTORE PUSH1 0x24 ADD JUMPDEST PUSH1 0x40 MLOAD DUP1 SWAP2 SUB SWAP1 REVERT JUMPDEST PUSH2 0x1388 DUP3 PUSH1 0x20 ADD MLOAD PUSH1 0x1 PUSH1 0x1 PUSH1 0x40 SHL SUB AND GT ISZERO PUSH3 0x186 JUMPI PUSH1 0x20 DUP3 ADD MLOAD PUSH1 0x40 MLOAD PUSH4 0x36E6824B PUSH1 0xE2 SHL DUP2 MSTORE PUSH1 0x1 PUSH1 0x1 PUSH1 0x40 SHL SUB SWAP1 SWAP2 AND PUSH1 0x4 DUP3 ADD MSTORE PUSH1 0x24 ADD PUSH3 0x13A JUMP JUMPDEST PUSH2 0x1388 DUP3 PUSH1 0x40 ADD MLOAD PUSH1 0x1 PUSH1 0x1 PUSH1 0x40 SHL SUB AND GT ISZERO PUSH3 0x1C9 JUMPI PUSH1 0x40 DUP1 DUP4 ADD MLOAD SWAP1 MLOAD PUSH4 0x36E6824B PUSH1 0xE2 SHL DUP2 MSTORE PUSH1 0x1 PUSH1 0x1 PUSH1 0x40 SHL SUB SWAP1 SWAP2 AND PUSH1 0x4 DUP3 ADD MSTORE PUSH1 0x24 ADD PUSH3 0x13A JUMP JUMPDEST PUSH1 0x1 PUSH1 0x1 PUSH1 0xA0 SHL SUB DUP6 AND PUSH1 0x0 SWAP1 DUP2 MSTORE PUSH1 0x6 PUSH1 0x20 DUP2 DUP2 MSTORE PUSH1 0x40 SWAP3 DUP4 SWAP1 KECCAK256 DUP6 MLOAD PUSH1 0x1 PUSH1 0x1 PUSH1 0x40 SHL SUB SWAP1 DUP2 AND PUSH1 0x4 DUP4 ADD SWAP1 DUP2 SSTORE SWAP3 DUP8 ADD MLOAD PUSH1 0x5 DUP4 ADD DUP1 SLOAD DUP10 DUP9 ADD MLOAD DUP5 AND PUSH9 0x10000000000000000 SWAP1 DUP2 MUL PUSH1 0x1 PUSH1 0x1 PUSH1 0x80 SHL SUB NOT SWAP1 SWAP3 AND SWAP4 DUP6 AND SWAP4 SWAP1 SWAP4 OR OR SWAP1 SSTORE PUSH1 0x60 DUP9 ADD MLOAD SWAP5 DUP4 ADD DUP1 SLOAD PUSH1 0x80 DUP11 ADD MLOAD PUSH1 0xA0 DUP12 ADD MLOAD DUP6 AND PUSH1 0x1 PUSH1 0xC0 SHL MUL PUSH1 0x1 PUSH1 0x1 PUSH1 0xC0 SHL SUB SWAP2 DUP7 AND PUSH1 0x1 PUSH1 0x80 SHL MUL PUSH1 0x1 PUSH1 0x80 SHL PUSH1 0x1 PUSH1 0xC0 SHL SUB NOT SWAP10 SWAP1 SWAP7 AND SWAP1 SWAP5 MUL SWAP8 SWAP1 SWAP8 AND PUSH1 0x1 PUSH1 0x40 SHL PUSH1 0x1 PUSH1 0xC0 SHL SUB NOT SWAP1 SWAP2 AND OR SWAP3 SWAP1 SWAP3 OR SWAP5 SWAP1 SWAP5 AND SWAP4 SWAP1 SWAP4 OR SWAP1 SWAP3 SSTORE PUSH1 0xC0 DUP6 ADD MLOAD PUSH1 0x7 SWAP1 SWAP3 ADD SWAP2 SWAP1 SWAP2 SSTORE SWAP1 MLOAD PUSH32 0x7E914AF3D8D31AC64E6DF6E8087AC12953B11A1BCEEBF2A80692AA35E6B0E6FF SWAP1 PUSH3 0x33C SWAP1 DUP9 SWAP1 DUP7 SWAP1 PUSH1 0x0 PUSH2 0x100 DUP3 ADD SWAP1 POP PUSH1 0x1 DUP1 PUSH1 0xA0 SHL SUB DUP5 AND DUP3 MSTORE PUSH1 0x1 DUP1 PUSH1 0x40 SHL SUB DUP1 DUP5 MLOAD AND PUSH1 0x20 DUP5 ADD MSTORE DUP1 PUSH1 0x20 DUP6 ADD MLOAD AND PUSH1 0x40 DUP5 ADD MSTORE DUP1 PUSH1 0x40 DUP6 ADD MLOAD AND PUSH1 0x60 DUP5 ADD MSTORE DUP1 PUSH1 0x60 DUP6 ADD MLOAD AND PUSH1 0x80 DUP5 ADD MSTORE DUP1 PUSH1 0x80 DUP6 ADD MLOAD AND PUSH1 0xA0 DUP5 ADD MSTORE DUP1 PUSH1 0xA0 DUP6 ADD MLOAD AND PUSH1 0xC0 DUP5 ADD MSTORE POP PUSH1 0xC0 DUP4 ADD MLOAD PUSH1 0xE0 DUP4 ADD MSTORE SWAP4 SWAP3 POP POP POP JUMP JUMPDEST PUSH1 0x40 MLOAD DUP1 SWAP2 SUB SWAP1 LOG1 POP JUMPDEST POP POP POP POP POP JUMP JUMPDEST PUSH1 0x1 PUSH1 0x1 PUSH1 0xA0 SHL SUB DUP4 AND PUSH1 0x0 SWAP1 DUP2 MSTORE PUSH1 0x4 PUSH1 0x20 MSTORE PUSH1 0x40 SWAP1 KECCAK256 SLOAD PUSH1 0x1 PUSH1 0xA8 SHL SWAP1 DIV PUSH1 0xFF AND ISZERO PUSH3 0x38F JUMPI PUSH1 0x40 MLOAD PUSH4 0x3706BA49 PUSH1 0xE0 SHL DUP2 MSTORE PUSH1 0x4 ADD PUSH1 0x40 MLOAD DUP1 SWAP2 SUB SWAP1 REVERT JUMPDEST PUSH1 0x1 DUP2 PUSH1 0x1 DUP2 GT ISZERO PUSH3 0x3A6 JUMPI PUSH3 0x3A6 PUSH3 0x6D4 JUMP JUMPDEST GT ISZERO PUSH3 0x3CA JUMPI DUP1 PUSH1 0x40 MLOAD PUSH4 0x270056F PUSH1 0xE5 SHL DUP2 MSTORE PUSH1 0x4 ADD PUSH3 0x13A SWAP2 SWAP1 PUSH3 0x70D JUMP JUMPDEST PUSH1 0x1 PUSH1 0x1 PUSH1 0xA0 SHL SUB DUP1 DUP5 AND PUSH1 0x0 SWAP1 DUP2 MSTORE PUSH1 0x4 PUSH1 0x20 MSTORE PUSH1 0x40 SWAP1 KECCAK256 DUP1 SLOAD SWAP2 DUP5 AND PUSH1 0x1 PUSH1 0x1 PUSH1 0xA0 SHL SUB NOT DUP4 AND DUP2 OR DUP3 SSTORE DUP4 SWAP3 PUSH1 0x1 PUSH1 0x1 PUSH1 0xA8 SHL SUB NOT AND OR PUSH1 0x1 PUSH1 0xA0 SHL DUP4 PUSH1 0x1 DUP2 GT ISZERO PUSH3 0x41E JUMPI PUSH3 0x41E PUSH3 0x6D4 JUMP JUMPDEST MUL OR SWAP1 SSTORE POP PUSH1 0x1 PUSH1 0x1 PUSH1 0xA0 SHL SUB DUP4 AND PUSH1 0x0 SWAP1 DUP2 MSTORE PUSH1 0x4 PUSH1 0x20 MSTORE PUSH1 0x40 SWAP1 KECCAK256 DUP1 SLOAD PUSH1 0xFF PUSH1 0xA8 SHL NOT AND PUSH1 0x1 PUSH1 0xA8 SHL OR SWAP1 SSTORE PUSH1 0x1 DUP2 PUSH1 0x1 DUP2 GT ISZERO PUSH3 0x463 JUMPI PUSH3 0x463 PUSH3 0x6D4 JUMP JUMPDEST SUB PUSH3 0x4BA JUMPI PUSH1 0x3 DUP1 SLOAD PUSH1 0x1 DUP2 ADD DUP3 SSTORE PUSH1 0x0 SWAP2 SWAP1 SWAP2 MSTORE PUSH32 0xC2575A0E9E593C00F959F8C92F12DB2869C3395A3B0502D05E2516446F71F85B ADD DUP1 SLOAD PUSH1 0x1 PUSH1 0x1 PUSH1 0xA0 SHL SUB NOT AND PUSH1 0x1 PUSH1 0x1 PUSH1 0xA0 SHL SUB DUP6 AND OR SWAP1 SSTORE PUSH3 0x506 JUMP JUMPDEST PUSH1 0x2 DUP1 SLOAD PUSH1 0x1 DUP2 ADD DUP3 SSTORE PUSH1 0x0 SWAP2 SWAP1 SWAP2 MSTORE PUSH32 0x405787FA12A823E0F2B7631CC41B3BA8828B3321CA811111FA75CD3AA3BB5ACE ADD DUP1 SLOAD PUSH1 0x1 PUSH1 0x1 PUSH1 0xA0 SHL SUB NOT AND PUSH1 0x1 PUSH1 0x1 PUSH1 0xA0 SHL SUB DUP6 AND OR SWAP1 SSTORE JUMPDEST PUSH32 0x20BA3738D0F69AD18E0A9923005003B1434FFC62C40AD3332D30D2D42C49EF42 DUP4 DUP3 PUSH1 0x40 MLOAD PUSH3 0x539 SWAP3 SWAP2 SWAP1 PUSH3 0x723 JUMP JUMPDEST PUSH1 0x40 MLOAD DUP1 SWAP2 SUB SWAP1 LOG1 POP POP POP JUMP JUMPDEST PUSH1 0x0 SLOAD PUSH1 0x1 PUSH1 0xA0 SHL SWAP1 DIV PUSH1 0xFF AND ISZERO DUP1 ISZERO PUSH3 0x57A JUMPI POP PUSH1 0x1 PUSH1 0x1 PUSH1 0xA0 SHL SUB DUP2 AND PUSH1 0x0 SWAP1 DUP2 MSTORE PUSH1 0x1 PUSH1 0x20 MSTORE PUSH1 0x40 SWAP1 KECCAK256 SLOAD PUSH1 0xFF AND ISZERO JUMPDEST ISZERO PUSH3 0x599 JUMPI PUSH1 0x40 MLOAD PUSH4 0x3D67A449 PUSH1 0xE1 SHL DUP2 MSTORE PUSH1 0x4 ADD PUSH1 0x40 MLOAD DUP1 SWAP2 SUB SWAP1 REVERT JUMPDEST POP JUMP JUMPDEST DUP1 MLOAD PUSH1 0x1 PUSH1 0x1 PUSH1 0xA0 SHL SUB DUP2 AND DUP2 EQ PUSH3 0x5B4 JUMPI PUSH1 0x0 DUP1 REVERT JUMPDEST SWAP2 SWAP1 POP JUMP JUMPDEST DUP1 MLOAD PUSH1 0x1 PUSH1 0x1 PUSH1 0x40 SHL SUB DUP2 AND DUP2 EQ PUSH3 0x5B4 JUMPI PUSH1 0x0 DUP1 REVERT JUMPDEST PUSH1 0x0 DUP1 PUSH1 0x0 DUP4 DUP6 SUB PUSH2 0x120 DUP2 SLT ISZERO PUSH3 0x5E9 JUMPI PUSH1 0x0 DUP1 REVERT JUMPDEST PUSH3 0x5F4 DUP6 PUSH3 0x59C JUMP JUMPDEST SWAP4 POP PUSH3 0x604 PUSH1 0x20 DUP7 ADD PUSH3 0x59C JUMP JUMPDEST SWAP3 POP PUSH1 0xE0 PUSH1 0x3F NOT DUP3 ADD SLT ISZERO PUSH3 0x619 JUMPI PUSH1 0x0 DUP1 REVERT JUMPDEST POP PUSH1 0x40 MLOAD PUSH1 0xE0 DUP2 ADD PUSH1 0x1 PUSH1 0x1 PUSH1 0x40 SHL SUB DUP2 GT DUP3 DUP3 LT OR ISZERO PUSH3 0x64B JUMPI PUSH4 0x4E487B71 PUSH1 0xE0 SHL PUSH1 0x0 MSTORE PUSH1 0x41 PUSH1 0x4 MSTORE PUSH1 0x24 PUSH1 0x0 REVERT JUMPDEST DUP1 PUSH1 0x40 MSTORE POP PUSH3 0x65E PUSH1 0x40 DUP7 ADD PUSH3 0x5B9 JUMP JUMPDEST DUP2 MSTORE PUSH3 0x66E PUSH1 0x60 DUP7 ADD PUSH3 0x5B9 JUMP JUMPDEST PUSH1 0x20 DUP3 ADD MSTORE PUSH3 0x681 PUSH1 0x80 DUP7 ADD PUSH3 0x5B9 JUMP JUMPDEST PUSH1 0x40 DUP3 ADD MSTORE PUSH3 0x694 PUSH1 0xA0 DUP7 ADD PUSH3 0x5B9 JUMP JUMPDEST PUSH1 0x60 DUP3 ADD MSTORE PUSH3 0x6A7 PUSH1 0xC0 DUP7 ADD PUSH3 0x5B9 JUMP JUMPDEST PUSH1 0x80 DUP3 ADD MSTORE PUSH3 0x6BA PUSH1 0xE0 DUP7 ADD PUSH3 0x5B9 JUMP JUMPDEST PUSH1 0xA0 DUP3 ADD MSTORE PUSH2 0x100 SWAP5 SWAP1 SWAP5 ADD MLOAD PUSH1 0xC0 DUP6 ADD MSTORE POP SWAP1 SWAP4 SWAP1 SWAP3 POP JUMP JUMPDEST PUSH4 0x4E487B71 PUSH1 0xE0 SHL PUSH1 0x0 MSTORE PUSH1 0x21 PUSH1 0x4 MSTORE PUSH1 0x24 PUSH1 0x0 REVERT JUMPDEST PUSH1 0x2 DUP2 LT PUSH3 0x709 JUMPI PUSH4 0x4E487B71 PUSH1 0xE0 SHL PUSH1 0x0 MSTORE PUSH1 0x21 PUSH1 0x4 MSTORE PUSH1 0x24 PUSH1 0x0 REVERT JUMPDEST SWAP1 MSTORE JUMP JUMPDEST PUSH1 0x20 DUP2 ADD PUSH3 0x71D DUP3 DUP5 PUSH3 0x6EA JUMP JUMPDEST SWAP3 SWAP2 POP POP JUMP JUMPDEST PUSH1 0x1 PUSH1 0x1 PUSH1 0xA0 SHL SUB DUP4 AND DUP2 MSTORE PUSH1 0x40 DUP2 ADD PUSH3 0x742 PUSH1 0x20 DUP4 ADD DUP5 PUSH3 0x6EA JUMP JUMPDEST SWAP4 SWAP3 POP POP POP JUMP JUMPDEST PUSH2 0x4824 DUP1 PUSH3 0x759 PUSH1 0x0 CODECOPY PUSH1 0x0 RETURN INVALID PUSH1 0x80 PUSH1 0x40 MSTORE CALLVALUE DUP1 ISZERO PUSH2 0x10 JUMPI PUSH1 0x0 DUP1 REVERT JUMPDEST POP PUSH1 0x4 CALLDATASIZE LT PUSH2 0x2D3 JUMPI PUSH1 0x0 CALLDATALOAD PUSH1 0xE0 SHR DUP1 PUSH4 0x7DBCA353 GT PUSH2 0x186 JUMPI DUP1 PUSH4 0xB6812C99 GT PUSH2 0xE3 JUMPI DUP1 PUSH4 0xDBE7CC17 GT PUSH2 0x97 JUMPI DUP1 PUSH4 0xFDDA8295 GT PUSH2 0x71 JUMPI DUP1 PUSH4 0xFDDA8295 EQ PUSH2 0x694 JUMPI DUP1 PUSH4 0xFF9B8BB8 EQ PUSH2 0x6A7 JUMPI DUP1 PUSH4 0xFFC9896B EQ PUSH2 0x752 JUMPI PUSH1 0x0 DUP1 REVERT JUMPDEST DUP1 PUSH4 0xDBE7CC17 EQ PUSH2 0x65B JUMPI DUP1 PUSH4 0xF2FDE38B EQ PUSH2 0x66E JUMPI DUP1 PUSH4 0xF6AA13F2 EQ PUSH2 0x681 JUMPI PUSH1 0x0 DUP1 REVERT JUMPDEST DUP1 PUSH4 0xC223A9BE GT PUSH2 0xC8 JUMPI DUP1 PUSH4 0xC223A9BE EQ PUSH2 0x62B JUMPI DUP1 PUSH4 0xD02641A0 EQ PUSH2 0x63E JUMPI DUP1 PUSH4 0xD37DB1D2 EQ PUSH2 0x651 JUMPI PUSH1 0x0 DUP1 REVERT JUMPDEST DUP1 PUSH4 0xB6812C99 EQ PUSH2 0x605 JUMPI DUP1 PUSH4 0xBF370299 EQ PUSH2 0x618 JUMPI PUSH1 0x0 DUP1 REVERT JUMPDEST DUP1 PUSH4 0xA2D20CF2 GT PUSH2 0x13A JUMPI DUP1 PUSH4 0xAAF5EB68 GT PUSH2 0x11F JUMPI DUP1 PUSH4 0xAAF5EB68 EQ PUSH2 0x5D0 JUMPI DUP1 PUSH4 0xB4240C99 EQ PUSH2 0x5DF JUMPI DUP1 PUSH4 0xB5C5F672 EQ PUSH2 0x5F2 JUMPI PUSH1 0x0 DUP1 REVERT JUMPDEST DUP1 PUSH4 0xA2D20CF2 EQ PUSH2 0x567 JUMPI DUP1 PUSH4 0xAAB3F868 EQ PUSH2 0x5BD JUMPI PUSH1 0x0 DUP1 REVERT JUMPDEST DUP1 PUSH4 0x89A1E803 GT PUSH2 0x16B JUMPI DUP1 PUSH4 0x89A1E803 EQ PUSH2 0x526 JUMPI DUP1 PUSH4 0x8DA5CB5B EQ PUSH2 0x539 JUMPI DUP1 PUSH4 0x93F2D72E EQ PUSH2 0x554 JUMPI PUSH1 0x0 DUP1 REVERT JUMPDEST DUP1 PUSH4 0x7DBCA353 EQ PUSH2 0x500 JUMPI DUP1 PUSH4 0x82A5B1AA EQ PUSH2 0x513 JUMPI PUSH1 0x0 DUP1 REVERT JUMPDEST DUP1 PUSH4 0x2C895AFF GT PUSH2 0x234 JUMPI DUP1 PUSH4 0x4CD5491C GT PUSH2 0x1E8 JUMPI DUP1 PUSH4 0x6AD9F9DF GT PUSH2 0x1CD JUMPI DUP1 PUSH4 0x6AD9F9DF EQ PUSH2 0x4D2 JUMPI DUP1 PUSH4 0x715018A6 EQ PUSH2 0x4E5 JUMPI DUP1 PUSH4 0x78767D70 EQ PUSH2 0x4ED JUMPI PUSH1 0x0 DUP1 REVERT JUMPDEST DUP1 PUSH4 0x4CD5491C EQ PUSH2 0x49B JUMPI DUP1 PUSH4 0x61A552DC EQ PUSH2 0x4AE JUMPI PUSH1 0x0 DUP1 REVERT JUMPDEST DUP1 PUSH4 0x351B14A0 GT PUSH2 0x219 JUMPI DUP1 PUSH4 0x351B14A0 EQ PUSH2 0x455 JUMPI DUP1 PUSH4 0x429E2C1A EQ PUSH2 0x475 JUMPI DUP1 PUSH4 0x4B8A3529 EQ PUSH2 0x488 JUMPI PUSH1 0x0 DUP1 REVERT JUMPDEST DUP1 PUSH4 0x2C895AFF EQ PUSH2 0x422 JUMPI DUP1 PUSH4 0x30941E62 EQ PUSH2 0x435 JUMPI PUSH1 0x0 DUP1 REVERT JUMPDEST DUP1 PUSH4 0x1D81944F GT PUSH2 0x28B JUMPI DUP1 PUSH4 0x249D39E9 GT PUSH2 0x270 JUMPI DUP1 PUSH4 0x249D39E9 EQ PUSH2 0x3F2 JUMPI DUP1 PUSH4 0x25D07A95 EQ PUSH2 0x3FC JUMPI DUP1 PUSH4 0x2B83CCCD EQ PUSH2 0x40F JUMPI PUSH1 0x0 DUP1 REVERT JUMPDEST DUP1 PUSH4 0x1D81944F EQ PUSH2 0x3CC JUMPI DUP1 PUSH4 0x22867D78 EQ PUSH2 0x3DF JUMPI PUSH1 0x0 DUP1 REVERT JUMPDEST DUP1 PUSH4 0xF342EE9 GT PUSH2 0x2BC JUMPI DUP1 PUSH4 0xF342EE9 EQ PUSH2 0x32F JUMPI DUP1 PUSH4 0x150B7A02 EQ PUSH2 0x350 JUMPI DUP1 PUSH4 0x1880B981 EQ PUSH2 0x3B9 JUMPI PUSH1 0x0 DUP1 REVERT JUMPDEST DUP1 PUSH4 0xD30320E EQ PUSH2 0x2D8 JUMPI DUP1 PUSH4 0xD8459FE EQ PUSH2 0x2ED JUMPI JUMPDEST PUSH1 0x0 DUP1 REVERT JUMPDEST PUSH2 0x2EB PUSH2 0x2E6 CALLDATASIZE PUSH1 0x4 PUSH2 0x3D9F JUMP JUMPDEST PUSH2 0x780 JUMP JUMPDEST STOP JUMPDEST PUSH2 0x300 PUSH2 0x2FB CALLDATASIZE PUSH1 0x4 PUSH2 0x3DDB JUMP JUMPDEST PUSH2 0x84C JUMP JUMPDEST PUSH1 0x40 DUP1 MLOAD SWAP5 DUP6 MSTORE PUSH1 0x20 DUP6 ADD SWAP4 SWAP1 SWAP4 MSTORE SWAP2 DUP4 ADD MSTORE PUSH8 0xFFFFFFFFFFFFFFFF AND PUSH1 0x60 DUP3 ADD MSTORE PUSH1 0x80 ADD JUMPDEST PUSH1 0x40 MLOAD DUP1 SWAP2 SUB SWAP1 RETURN JUMPDEST PUSH2 0x342 PUSH2 0x33D CALLDATASIZE PUSH1 0x4 PUSH2 0x3E0F JUMP JUMPDEST PUSH2 0x86B JUMP JUMPDEST PUSH1 0x40 MLOAD SWAP1 DUP2 MSTORE PUSH1 0x20 ADD PUSH2 0x326 JUMP JUMPDEST PUSH2 0x388 PUSH2 0x35E CALLDATASIZE PUSH1 0x4 PUSH2 0x3E98 JUMP JUMPDEST PUSH32 0x150B7A0200000000000000000000000000000000000000000000000000000000 SWAP6 SWAP5 POP POP POP POP POP JUMP JUMPDEST PUSH1 0x40 MLOAD PUSH32 0xFFFFFFFF00000000000000000000000000000000000000000000000000000000 SWAP1 SWAP2 AND DUP2 MSTORE PUSH1 0x20 ADD PUSH2 0x326 JUMP JUMPDEST PUSH2 0x2EB PUSH2 0x3C7 CALLDATASIZE PUSH1 0x4 PUSH2 0x3F35 JUMP JUMPDEST PUSH2 0x901 JUMP JUMPDEST PUSH2 0x2EB PUSH2 0x3DA CALLDATASIZE PUSH1 0x4 PUSH2 0x404D JUMP JUMPDEST PUSH2 0x91D JUMP JUMPDEST PUSH2 0x2EB PUSH2 0x3ED CALLDATASIZE PUSH1 0x4 PUSH2 0x4084 JUMP JUMPDEST PUSH2 0xA03 JUMP JUMPDEST PUSH2 0x342 PUSH3 0x186A0 DUP2 JUMP JUMPDEST PUSH2 0x342 PUSH2 0x40A CALLDATASIZE PUSH1 0x4 PUSH2 0x4084 JUMP JUMPDEST PUSH2 0xB86 JUMP JUMPDEST PUSH2 0x2EB PUSH2 0x41D CALLDATASIZE PUSH1 0x4 PUSH2 0x40AE JUMP JUMPDEST PUSH2 0xBF5 JUMP JUMPDEST PUSH2 0x342 PUSH2 0x430 CALLDATASIZE PUSH1 0x4 PUSH2 0x3DDB JUMP JUMPDEST PUSH2 0xC07 JUMP JUMPDEST PUSH2 0x448 PUSH2 0x443 CALLDATASIZE PUSH1 0x4 PUSH2 0x3DDB JUMP JUMPDEST PUSH2 0xC8A JUMP JUMPDEST PUSH1 0x40 MLOAD PUSH2 0x326 SWAP2 SWAP1 PUSH2 0x40E1 JUMP JUMPDEST PUSH2 0x468 PUSH2 0x463 CALLDATASIZE PUSH1 0x4 PUSH2 0x41DC JUMP JUMPDEST PUSH2 0xD89 JUMP JUMPDEST PUSH1 0x40 MLOAD PUSH2 0x326 SWAP2 SWAP1 PUSH2 0x424A JUMP JUMPDEST PUSH2 0x2EB PUSH2 0x483 CALLDATASIZE PUSH1 0x4 PUSH2 0x3D9F JUMP JUMPDEST PUSH2 0xDC3 JUMP JUMPDEST PUSH2 0x2EB PUSH2 0x496 CALLDATASIZE PUSH1 0x4 PUSH2 0x4084 JUMP JUMPDEST PUSH2 0xF4A JUMP JUMPDEST PUSH2 0x2EB PUSH2 0x4A9 CALLDATASIZE PUSH1 0x4 PUSH2 0x3D9F JUMP JUMPDEST PUSH2 0x110D JUMP JUMPDEST PUSH1 0x0 SLOAD PUSH2 0x4C2 SWAP1 PUSH1 0x1 PUSH1 0xA0 SHL SWAP1 DIV PUSH1 0xFF AND DUP2 JUMP JUMPDEST PUSH1 0x40 MLOAD SWAP1 ISZERO ISZERO DUP2 MSTORE PUSH1 0x20 ADD PUSH2 0x326 JUMP JUMPDEST PUSH2 0x342 PUSH2 0x4E0 CALLDATASIZE PUSH1 0x4 PUSH2 0x3DDB JUMP JUMPDEST PUSH2 0x1269 JUMP JUMPDEST PUSH2 0x2EB PUSH2 0x12EF JUMP JUMPDEST PUSH2 0x2EB PUSH2 0x4FB CALLDATASIZE PUSH1 0x4 PUSH2 0x42A2 JUMP JUMPDEST PUSH2 0x1303 JUMP JUMPDEST PUSH2 0x2EB PUSH2 0x50E CALLDATASIZE PUSH1 0x4 PUSH2 0x40AE JUMP JUMPDEST PUSH2 0x1704 JUMP JUMPDEST PUSH2 0x2EB PUSH2 0x521 CALLDATASIZE PUSH1 0x4 PUSH2 0x3D9F JUMP JUMPDEST PUSH2 0x1890 JUMP JUMPDEST PUSH2 0x342 PUSH2 0x534 CALLDATASIZE PUSH1 0x4 PUSH2 0x3DDB JUMP JUMPDEST PUSH2 0x191E JUMP JUMPDEST PUSH1 0x0 SLOAD PUSH1 0x40 MLOAD PUSH1 0x1 PUSH1 0x1 PUSH1 0xA0 SHL SUB SWAP1 SWAP2 AND DUP2 MSTORE PUSH1 0x20 ADD PUSH2 0x326 JUMP JUMPDEST PUSH2 0x342 PUSH2 0x562 CALLDATASIZE PUSH1 0x4 PUSH2 0x4084 JUMP JUMPDEST PUSH2 0x19CE JUMP JUMPDEST PUSH2 0x5A8 PUSH2 0x575 CALLDATASIZE PUSH1 0x4 PUSH2 0x41DC JUMP JUMPDEST PUSH1 0x1 PUSH1 0x1 PUSH1 0xA0 SHL SUB SWAP2 DUP3 AND PUSH1 0x0 SWAP1 DUP2 MSTORE PUSH1 0x7 PUSH1 0x20 SWAP1 DUP2 MSTORE PUSH1 0x40 DUP1 DUP4 KECCAK256 SWAP4 SWAP1 SWAP5 AND DUP3 MSTORE SWAP2 SWAP1 SWAP2 MSTORE KECCAK256 DUP1 SLOAD PUSH1 0x1 SWAP1 SWAP2 ADD SLOAD SWAP1 SWAP2 JUMP JUMPDEST PUSH1 0x40 DUP1 MLOAD SWAP3 DUP4 MSTORE PUSH1 0x20 DUP4 ADD SWAP2 SWAP1 SWAP2 MSTORE ADD PUSH2 0x326 JUMP JUMPDEST PUSH2 0x2EB PUSH2 0x5CB CALLDATASIZE PUSH1 0x4 PUSH2 0x434D JUMP JUMPDEST PUSH2 0x1A19 JUMP JUMPDEST PUSH2 0x342 PUSH8 0xDE0B6B3A7640000 DUP2 JUMP JUMPDEST PUSH2 0x342 PUSH2 0x5ED CALLDATASIZE PUSH1 0x4 PUSH2 0x41DC JUMP JUMPDEST PUSH2 0x1FA0 JUMP JUMPDEST PUSH2 0x2EB PUSH2 0x600 CALLDATASIZE PUSH1 0x4 PUSH2 0x40AE JUMP JUMPDEST PUSH2 0x1FD0 JUMP JUMPDEST PUSH2 0x4C2 PUSH2 0x613 CALLDATASIZE PUSH1 0x4 PUSH2 0x3DDB JUMP JUMPDEST PUSH2 0x1FDD JUMP JUMPDEST PUSH2 0x342 PUSH2 0x626 CALLDATASIZE PUSH1 0x4 PUSH2 0x3DDB JUMP JUMPDEST PUSH2 0x2010 JUMP JUMPDEST PUSH2 0x2EB PUSH2 0x639 CALLDATASIZE PUSH1 0x4 PUSH2 0x4398 JUMP JUMPDEST PUSH2 0x202F JUMP JUMPDEST PUSH2 0x342 PUSH2 0x64C CALLDATASIZE PUSH1 0x4 PUSH2 0x3DDB JUMP JUMPDEST PUSH2 0x2465 JUMP JUMPDEST PUSH2 0x342 PUSH3 0x201480 DUP2 JUMP JUMPDEST PUSH2 0x342 PUSH2 0x669 CALLDATASIZE PUSH1 0x4 PUSH2 0x3DDB JUMP JUMPDEST PUSH2 0x24B8 JUMP JUMPDEST PUSH2 0x2EB PUSH2 0x67C CALLDATASIZE PUSH1 0x4 PUSH2 0x3DDB JUMP JUMPDEST PUSH2 0x2562 JUMP JUMPDEST PUSH2 0x4C2 PUSH2 0x68F CALLDATASIZE PUSH1 0x4 PUSH2 0x3D9F JUMP JUMPDEST PUSH2 0x25F2 JUMP JUMPDEST PUSH2 0x342 PUSH2 0x6A2 CALLDATASIZE PUSH1 0x4 PUSH2 0x3E0F JUMP JUMPDEST PUSH2 0x2623 JUMP JUMPDEST PUSH2 0x724 PUSH2 0x6B5 CALLDATASIZE PUSH1 0x4 PUSH2 0x3D9F JUMP JUMPDEST PUSH1 0x40 DUP1 MLOAD DUP1 DUP3 ADD SWAP1 SWAP2 MSTORE PUSH1 0x0 DUP1 DUP3 MSTORE PUSH1 0x20 DUP3 ADD MSTORE POP PUSH1 0x1 PUSH1 0x1 PUSH1 0xA0 SHL SUB SWAP3 DUP4 AND PUSH1 0x0 SWAP1 DUP2 MSTORE PUSH1 0x8 PUSH1 0x20 SWAP1 DUP2 MSTORE PUSH1 0x40 DUP1 DUP4 KECCAK256 SWAP5 DUP7 AND DUP4 MSTORE SWAP4 DUP2 MSTORE DUP4 DUP3 KECCAK256 SWAP3 DUP3 MSTORE SWAP2 DUP3 MSTORE DUP3 SWAP1 KECCAK256 DUP3 MLOAD DUP1 DUP5 ADD SWAP1 SWAP4 MSTORE SLOAD SWAP3 DUP4 AND DUP3 MSTORE PUSH1 0x1 PUSH1 0xA0 SHL SWAP1 SWAP3 DIV PUSH8 0xFFFFFFFFFFFFFFFF AND SWAP2 DUP2 ADD SWAP2 SWAP1 SWAP2 MSTORE SWAP1 JUMP JUMPDEST PUSH1 0x40 DUP1 MLOAD DUP3 MLOAD PUSH1 0x1 PUSH1 0x1 PUSH1 0xA0 SHL SUB AND DUP2 MSTORE PUSH1 0x20 SWAP3 DUP4 ADD MLOAD PUSH8 0xFFFFFFFFFFFFFFFF AND SWAP3 DUP2 ADD SWAP3 SWAP1 SWAP3 MSTORE ADD PUSH2 0x326 JUMP JUMPDEST PUSH2 0x765 PUSH2 0x760 CALLDATASIZE PUSH1 0x4 PUSH2 0x3DDB JUMP JUMPDEST PUSH2 0x26A8 JUMP JUMPDEST PUSH1 0x40 DUP1 MLOAD SWAP4 DUP5 MSTORE PUSH1 0x20 DUP5 ADD SWAP3 SWAP1 SWAP3 MSTORE SWAP1 DUP3 ADD MSTORE PUSH1 0x60 ADD PUSH2 0x326 JUMP JUMPDEST PUSH8 0xDE0B6B3A7640000 PUSH2 0x792 DUP5 PUSH2 0x1269 JUMP JUMPDEST LT ISZERO PUSH2 0x7B1 JUMPI PUSH1 0x40 MLOAD PUSH4 0x74FA216B PUSH1 0xE0 SHL DUP2 MSTORE PUSH1 0x4 ADD PUSH1 0x40 MLOAD DUP1 SWAP2 SUB SWAP1 REVERT JUMPDEST PUSH1 0x1 PUSH1 0x1 PUSH1 0xA0 SHL SUB DUP4 DUP2 AND PUSH1 0x0 DUP2 DUP2 MSTORE PUSH1 0x8 PUSH1 0x20 SWAP1 DUP2 MSTORE PUSH1 0x40 DUP1 DUP4 KECCAK256 SWAP5 DUP8 AND DUP1 DUP5 MSTORE SWAP5 DUP3 MSTORE DUP1 DUP4 KECCAK256 DUP7 DUP5 MSTORE DUP3 MSTORE SWAP2 DUP3 SWAP1 KECCAK256 DUP1 SLOAD PUSH32 0xFFFFFFFF00000000000000000000000000000000000000000000000000000000 AND SWAP1 SSTORE DUP2 MLOAD SWAP3 DUP4 MSTORE DUP3 ADD SWAP3 SWAP1 SWAP3 MSTORE SWAP1 DUP2 ADD DUP3 SWAP1 MSTORE PUSH32 0x77C7BECFAD752FE6EE0143187438B002E564C671AABFD4B3B3C4343A2E79524 SWAP1 PUSH1 0x60 ADD JUMPDEST PUSH1 0x40 MLOAD DUP1 SWAP2 SUB SWAP1 LOG1 POP POP POP JUMP JUMPDEST PUSH1 0x0 DUP1 PUSH1 0x0 DUP1 PUSH2 0x85B DUP6 PUSH2 0x26D4 JUMP JUMPDEST SWAP4 POP SWAP4 POP SWAP4 POP SWAP4 POP JUMPDEST SWAP2 SWAP4 POP SWAP2 SWAP4 JUMP JUMPDEST PUSH1 0x0 DUP2 ISZERO PUSH2 0x8B7 JUMPI PUSH1 0x1 PUSH1 0x1 PUSH1 0xA0 SHL SUB DUP5 AND PUSH1 0x0 SWAP1 DUP2 MSTORE PUSH1 0x6 PUSH1 0x20 SWAP1 DUP2 MSTORE PUSH1 0x40 DUP1 DUP4 KECCAK256 DUP2 MLOAD DUP1 DUP4 ADD SWAP1 SWAP3 MSTORE DUP1 SLOAD DUP3 MSTORE PUSH1 0x1 ADD SLOAD SWAP2 DUP2 ADD SWAP2 SWAP1 SWAP2 MSTORE PUSH2 0x8B0 SWAP2 DUP6 SWAP1 PUSH2 0x2BF5 JUMP JUMPDEST SWAP1 POP PUSH2 0x8FA JUMP JUMPDEST PUSH1 0x1 PUSH1 0x1 PUSH1 0xA0 SHL SUB DUP5 AND PUSH1 0x0 SWAP1 DUP2 MSTORE PUSH1 0x6 PUSH1 0x20 SWAP1 DUP2 MSTORE PUSH1 0x40 DUP1 DUP4 KECCAK256 DUP2 MLOAD DUP1 DUP4 ADD SWAP1 SWAP3 MSTORE PUSH1 0x2 DUP2 ADD SLOAD DUP3 MSTORE PUSH1 0x3 ADD SLOAD SWAP2 DUP2 ADD SWAP2 SWAP1 SWAP2 MSTORE PUSH2 0x8F7 SWAP2 DUP6 SWAP1 PUSH2 0x2BF5 JUMP JUMPDEST SWAP1 POP JUMPDEST SWAP4 SWAP3 POP POP POP JUMP JUMPDEST PUSH2 0x909 PUSH2 0x2C5C JUMP JUMPDEST PUSH2 0x916 DUP6 DUP6 DUP6 DUP6 DUP6 PUSH2 0x2CB6 JUMP JUMPDEST POP POP POP POP POP JUMP JUMPDEST PUSH2 0x925 PUSH2 0x2C5C JUMP JUMPDEST PUSH1 0x1 PUSH1 0x1 PUSH1 0xA0 SHL SUB DUP3 AND PUSH2 0x9A7 JUMPI PUSH1 0x0 DUP1 SLOAD DUP3 ISZERO ISZERO PUSH1 0x1 PUSH1 0xA0 SHL MUL PUSH32 0xFFFFFFFFFFFFFFFFFFFFFF00FFFFFFFFFFFFFFFFFFFFFFFFFFFFFFFFFFFFFFFF SWAP1 SWAP2 AND OR SWAP1 SSTORE PUSH1 0x40 MLOAD PUSH32 0x59617E84CD4A4D47C34C76F190DA73D3A6A0236E0770DCBA41851DB53F336F57 SWAP1 PUSH2 0x99B SWAP1 DUP4 ISZERO ISZERO DUP2 MSTORE PUSH1 0x20 ADD SWAP1 JUMP JUMPDEST PUSH1 0x40 MLOAD DUP1 SWAP2 SUB SWAP1 LOG1 POP POP JUMP JUMPDEST PUSH1 0x1 PUSH1 0x1 PUSH1 0xA0 SHL SUB DUP3 AND PUSH1 0x0 DUP2 DUP2 MSTORE PUSH1 0x1 PUSH1 0x20 SWAP1 DUP2 MSTORE PUSH1 0x40 SWAP2 DUP3 SWAP1 KECCAK256 DUP1 SLOAD PUSH1 0xFF NOT AND DUP6 ISZERO ISZERO SWAP1 DUP2 OR SWAP1 SWAP2 SSTORE DUP3 MLOAD SWAP4 DUP5 MSTORE SWAP1 DUP4 ADD MSTORE PUSH32 0xF0158690F9B0F41FC31E96038D36F6B6517557EBE2D3202408966EF3C616F5B6 SWAP2 ADD PUSH2 0x99B JUMP JUMPDEST PUSH2 0xA0C DUP3 PUSH2 0x26D4 JUMP JUMPDEST POP POP CALLER PUSH1 0x0 SWAP1 DUP2 MSTORE PUSH1 0x7 PUSH1 0x20 SWAP1 DUP2 MSTORE PUSH1 0x40 DUP1 DUP4 KECCAK256 PUSH1 0x1 PUSH1 0x1 PUSH1 0xA0 SHL SUB DUP9 AND DUP5 MSTORE DUP3 MSTORE DUP1 DUP4 KECCAK256 PUSH1 0x1 SWAP1 DUP2 ADD SLOAD PUSH1 0x6 DUP5 MSTORE DUP3 DUP6 KECCAK256 DUP4 MLOAD DUP1 DUP6 ADD SWAP1 SWAP5 MSTORE PUSH1 0x2 DUP2 ADD SLOAD DUP5 MSTORE PUSH1 0x3 ADD SLOAD SWAP4 DUP4 ADD SWAP4 SWAP1 SWAP4 MSTORE SWAP2 SWAP5 POP SWAP2 SWAP3 POP PUSH2 0xA6A SWAP2 SWAP1 DUP6 SWAP1 PUSH2 0x2BF5 JUMP JUMPDEST SWAP1 POP PUSH1 0x0 NOT DUP4 EQ DUP1 PUSH2 0xA7B JUMPI POP DUP2 DUP2 GT JUMPDEST ISZERO PUSH2 0xAC5 JUMPI POP PUSH1 0x1 PUSH1 0x1 PUSH1 0xA0 SHL SUB DUP4 AND PUSH1 0x0 SWAP1 DUP2 MSTORE PUSH1 0x6 PUSH1 0x20 SWAP1 DUP2 MSTORE PUSH1 0x40 SWAP2 DUP3 SWAP1 KECCAK256 DUP3 MLOAD DUP1 DUP5 ADD SWAP1 SWAP4 MSTORE PUSH1 0x2 DUP2 ADD SLOAD DUP4 MSTORE PUSH1 0x3 ADD SLOAD SWAP1 DUP3 ADD MSTORE DUP2 SWAP1 PUSH2 0xAC2 SWAP1 DUP3 PUSH1 0x1 PUSH2 0x2F98 JUMP JUMPDEST SWAP3 POP JUMPDEST PUSH2 0xADA PUSH1 0x1 PUSH1 0x1 PUSH1 0xA0 SHL SUB DUP6 AND CALLER ADDRESS DUP7 PUSH2 0x2FE6 JUMP JUMPDEST PUSH1 0x1 PUSH1 0x1 PUSH1 0xA0 SHL SUB DUP5 AND PUSH1 0x0 DUP2 DUP2 MSTORE PUSH1 0x6 PUSH1 0x20 SWAP1 DUP2 MSTORE PUSH1 0x40 DUP1 DUP4 KECCAK256 PUSH1 0x3 DUP2 ADD DUP1 SLOAD PUSH1 0x1 PUSH1 0x1 PUSH1 0x80 SHL SUB DUP9 DUP2 AND SWAP1 SWAP2 SUB SWAP1 SWAP2 SSTORE PUSH1 0x2 SWAP1 SWAP2 ADD DUP1 SLOAD SWAP2 DUP10 AND SWAP1 SWAP2 SUB SWAP1 SSTORE CALLER DUP1 DUP5 MSTORE PUSH1 0x7 DUP4 MSTORE DUP2 DUP5 KECCAK256 DUP6 DUP6 MSTORE DUP4 MSTORE SWAP3 DUP2 SWAP1 KECCAK256 DUP6 DUP8 SUB PUSH1 0x1 SWAP2 SWAP1 SWAP2 ADD SSTORE DUP1 MLOAD SWAP3 DUP4 MSTORE SWAP1 DUP3 ADD SWAP3 SWAP1 SWAP3 MSTORE SWAP1 DUP2 ADD DUP5 SWAP1 MSTORE PUSH1 0x60 DUP2 ADD DUP3 SWAP1 MSTORE PUSH32 0xE4A1AE657F49CB1FB1C7D3A94AE6093565C4C8C0E03DE488F79C377C3C3A24E0 SWAP1 PUSH1 0x80 ADD JUMPDEST PUSH1 0x40 MLOAD DUP1 SWAP2 SUB SWAP1 LOG1 POP POP POP POP JUMP JUMPDEST PUSH1 0x0 DUP1 PUSH2 0xB92 DUP5 PUSH2 0x2465 JUMP JUMPDEST SWAP1 POP PUSH1 0x0 PUSH2 0xBA8 DUP6 PUSH1 0x1 PUSH1 0x1 PUSH1 0xA0 SHL SUB AND PUSH2 0x3159 JUMP JUMPDEST SWAP1 POP PUSH1 0x0 PUSH2 0xBB7 DUP3 PUSH1 0x12 PUSH2 0x4436 JUMP JUMPDEST PUSH2 0xBC2 SWAP1 PUSH1 0xA PUSH2 0x4533 JUMP JUMPDEST PUSH2 0xBCC SWAP1 DUP7 PUSH2 0x4542 JUMP JUMPDEST SWAP1 POP PUSH8 0xDE0B6B3A7640000 PUSH2 0xBE1 DUP5 DUP4 PUSH2 0x4542 JUMP JUMPDEST PUSH2 0xBEB SWAP2 SWAP1 PUSH2 0x4559 JUMP JUMPDEST SWAP7 SWAP6 POP POP POP POP POP POP JUMP JUMPDEST PUSH2 0xC02 DUP4 DUP4 DUP4 PUSH1 0x1 PUSH2 0x31BD JUMP JUMPDEST POP POP POP JUMP JUMPDEST PUSH1 0x3 SLOAD PUSH1 0x0 SWAP1 DUP2 JUMPDEST DUP2 DUP2 LT ISZERO PUSH2 0xC83 JUMPI PUSH1 0x0 PUSH1 0x3 DUP3 DUP2 SLOAD DUP2 LT PUSH2 0xC2C JUMPI PUSH2 0xC2C PUSH2 0x457B JUMP JUMPDEST PUSH1 0x0 SWAP2 DUP3 MSTORE PUSH1 0x20 DUP3 KECCAK256 ADD SLOAD PUSH1 0x1 PUSH1 0x1 PUSH1 0xA0 SHL SUB AND SWAP2 POP PUSH2 0xC4C DUP7 DUP4 PUSH2 0x1FA0 JUMP JUMPDEST SWAP1 POP DUP1 ISZERO PUSH2 0xC79 JUMPI PUSH1 0x0 PUSH2 0xC5F DUP4 PUSH2 0x2465 JUMP JUMPDEST SWAP1 POP PUSH2 0xC6B DUP2 DUP4 PUSH2 0x4542 JUMP JUMPDEST PUSH2 0xC75 SWAP1 DUP8 PUSH2 0x4591 JUMP JUMPDEST SWAP6 POP POP JUMPDEST POP POP PUSH1 0x1 ADD PUSH2 0xC0F JUMP JUMPDEST POP POP SWAP2 SWAP1 POP JUMP JUMPDEST PUSH2 0xC92 PUSH2 0x3CEC JUMP JUMPDEST POP PUSH1 0x1 PUSH1 0x1 PUSH1 0xA0 SHL SUB AND PUSH1 0x0 SWAP1 DUP2 MSTORE PUSH1 0x6 PUSH1 0x20 DUP2 DUP2 MSTORE PUSH1 0x40 SWAP3 DUP4 SWAP1 KECCAK256 DUP4 MLOAD PUSH1 0xA0 DUP1 DUP3 ADD DUP7 MSTORE DUP3 SLOAD PUSH1 0x60 DUP1 DUP5 ADD SWAP2 DUP3 MSTORE PUSH1 0x1 DUP6 ADD SLOAD PUSH1 0x80 DUP1 DUP7 ADD SWAP2 SWAP1 SWAP2 MSTORE SWAP2 DUP5 MSTORE DUP8 MLOAD DUP1 DUP10 ADD DUP10 MSTORE PUSH1 0x2 DUP7 ADD SLOAD DUP2 MSTORE PUSH1 0x3 DUP7 ADD SLOAD DUP2 DUP9 ADD MSTORE DUP5 DUP8 ADD MSTORE DUP8 MLOAD PUSH2 0x140 DUP2 ADD DUP10 MSTORE PUSH1 0x4 DUP7 ADD SLOAD DUP2 MSTORE PUSH1 0x5 DUP7 ADD SLOAD PUSH8 0xFFFFFFFFFFFFFFFF DUP1 DUP3 AND SWAP9 DUP4 ADD SWAP9 SWAP1 SWAP9 MSTORE PUSH9 0x10000000000000000 DUP1 DUP3 DIV DUP10 AND DUP4 DUP13 ADD MSTORE PUSH1 0x1 PUSH1 0x80 SHL DUP1 DUP4 DIV DUP11 AND SWAP5 DUP5 ADD SWAP5 SWAP1 SWAP5 MSTORE PUSH1 0x1 PUSH1 0xC0 SHL SWAP2 DUP3 SWAP1 DIV DUP10 AND SWAP5 DUP4 ADD SWAP5 SWAP1 SWAP5 MSTORE SWAP8 DUP7 ADD SLOAD DUP1 DUP9 AND SWAP5 DUP3 ADD SWAP5 SWAP1 SWAP5 MSTORE SWAP2 DUP4 DIV DUP7 AND PUSH1 0xC0 DUP4 ADD MSTORE DUP3 DIV DUP6 AND PUSH1 0xE0 DUP3 ADD MSTORE SWAP5 SWAP1 DIV SWAP1 SWAP3 AND PUSH2 0x100 DUP5 ADD MSTORE PUSH1 0x7 ADD SLOAD PUSH2 0x120 DUP4 ADD MSTORE SWAP2 DUP3 ADD MSTORE SWAP1 JUMP JUMPDEST PUSH1 0x1 PUSH1 0x1 PUSH1 0xA0 SHL SUB DUP1 DUP4 AND PUSH1 0x0 SWAP1 DUP2 MSTORE PUSH1 0x5 PUSH1 0x20 SWAP1 DUP2 MSTORE PUSH1 0x40 DUP1 DUP4 KECCAK256 SWAP4 DUP6 AND DUP4 MSTORE SWAP3 SWAP1 MSTORE KECCAK256 PUSH1 0x60 SWAP1 PUSH2 0xDBA SWAP1 PUSH2 0x3439 JUMP JUMPDEST SWAP1 POP JUMPDEST SWAP3 SWAP2 POP POP JUMP JUMPDEST PUSH2 0xDCE DUP4 DUP4 DUP4 PUSH2 0x25F2 JUMP JUMPDEST PUSH2 0xDEB JUMPI PUSH1 0x40 MLOAD PUSH4 0x79F151F PUSH1 0xE1 SHL DUP2 MSTORE PUSH1 0x4 ADD PUSH1 0x40 MLOAD DUP1 SWAP2 SUB SWAP1 REVERT JUMPDEST PUSH1 0x0 PUSH2 0xDF6 DUP5 PUSH2 0x24B8 JUMP JUMPDEST SWAP1 POP PUSH8 0xDE0B6B3A7640000 PUSH2 0xE0A DUP6 PUSH2 0x1269 JUMP JUMPDEST LT ISZERO DUP1 PUSH2 0xE16 JUMPI POP DUP1 ISZERO ISZERO JUMPDEST ISZERO PUSH2 0xE6C JUMPI PUSH1 0x40 MLOAD PUSH32 0x6560982D00000000000000000000000000000000000000000000000000000000 DUP2 MSTORE PUSH1 0x1 PUSH1 0x1 PUSH1 0xA0 SHL SUB DUP1 DUP7 AND PUSH1 0x4 DUP4 ADD MSTORE DUP5 AND PUSH1 0x24 DUP3 ADD MSTORE PUSH1 0x44 DUP2 ADD DUP4 SWAP1 MSTORE PUSH1 0x64 ADD JUMPDEST PUSH1 0x40 MLOAD DUP1 SWAP2 SUB SWAP1 REVERT JUMPDEST PUSH1 0x1 PUSH1 0x1 PUSH1 0xA0 SHL SUB DUP1 DUP6 AND PUSH1 0x0 SWAP1 DUP2 MSTORE PUSH1 0x8 PUSH1 0x20 SWAP1 DUP2 MSTORE PUSH1 0x40 DUP1 DUP4 KECCAK256 SWAP4 DUP8 AND DUP4 MSTORE SWAP3 DUP2 MSTORE DUP3 DUP3 KECCAK256 DUP6 DUP4 MSTORE SWAP1 MSTORE KECCAK256 DUP1 SLOAD PUSH1 0x1 PUSH1 0x1 PUSH1 0xA0 SHL SUB NOT AND CALLER OR DUP2 SSTORE PUSH2 0xEB6 PUSH3 0x15180 TIMESTAMP PUSH2 0x4591 JUMP JUMPDEST DUP2 SLOAD PUSH32 0xFFFFFFFF0000000000000000FFFFFFFFFFFFFFFFFFFFFFFFFFFFFFFFFFFFFFFF AND PUSH1 0x1 PUSH1 0xA0 SHL PUSH8 0xFFFFFFFFFFFFFFFF SWAP3 SWAP1 SWAP3 AND SWAP2 SWAP1 SWAP2 MUL OR DUP2 SSTORE PUSH1 0x40 DUP1 MLOAD CALLER DUP2 MSTORE PUSH1 0x1 PUSH1 0x1 PUSH1 0xA0 SHL SUB DUP8 DUP2 AND PUSH1 0x20 DUP4 ADD MSTORE DUP7 AND DUP2 DUP4 ADD MSTORE PUSH1 0x60 DUP2 ADD DUP6 SWAP1 MSTORE SWAP1 MLOAD PUSH32 0x2D2541220F1C874DAE8D6FA2DC8987E584CA7EFEDE079594DE6066330745DAA5 SWAP2 DUP2 SWAP1 SUB PUSH1 0x80 ADD SWAP1 LOG1 POP POP POP POP POP JUMP JUMPDEST PUSH2 0xF53 DUP3 PUSH2 0x3446 JUMP JUMPDEST PUSH2 0xF5D DUP3 DUP3 PUSH2 0x3486 JUMP JUMPDEST PUSH2 0xF7A JUMPI PUSH1 0x40 MLOAD PUSH4 0x1E9ACF17 PUSH1 0xE3 SHL DUP2 MSTORE PUSH1 0x4 ADD PUSH1 0x40 MLOAD DUP1 SWAP2 SUB SWAP1 REVERT JUMPDEST PUSH2 0xF83 DUP3 PUSH2 0x26D4 JUMP JUMPDEST POP POP POP POP PUSH1 0x1 PUSH1 0x1 PUSH1 0xA0 SHL SUB DUP3 AND PUSH1 0x0 SWAP1 DUP2 MSTORE PUSH1 0x6 PUSH1 0x20 SWAP1 DUP2 MSTORE PUSH1 0x40 DUP1 DUP4 KECCAK256 DUP2 MLOAD DUP1 DUP4 ADD SWAP1 SWAP3 MSTORE PUSH1 0x2 DUP2 ADD SLOAD DUP3 MSTORE PUSH1 0x3 ADD SLOAD SWAP2 DUP2 ADD SWAP2 SWAP1 SWAP2 MSTORE PUSH2 0xFC7 SWAP1 DUP4 DUP4 PUSH2 0x2BF5 JUMP JUMPDEST PUSH1 0x1 PUSH1 0x1 PUSH1 0xA0 SHL SUB DUP5 AND PUSH1 0x0 SWAP1 DUP2 MSTORE PUSH1 0x6 PUSH1 0x20 MSTORE PUSH1 0x40 DUP2 KECCAK256 PUSH1 0x3 ADD DUP1 SLOAD SWAP3 SWAP4 POP PUSH1 0x1 PUSH1 0x1 PUSH1 0x80 SHL SUB DUP5 AND SWAP3 SWAP1 SWAP2 SWAP1 PUSH2 0x1000 SWAP1 DUP5 SWAP1 PUSH2 0x4591 JUMP JUMPDEST SWAP1 SWAP2 SSTORE POP POP PUSH1 0x1 PUSH1 0x1 PUSH1 0xA0 SHL SUB DUP4 AND PUSH1 0x0 SWAP1 DUP2 MSTORE PUSH1 0x6 PUSH1 0x20 MSTORE PUSH1 0x40 DUP2 KECCAK256 PUSH1 0x2 ADD DUP1 SLOAD PUSH1 0x1 PUSH1 0x1 PUSH1 0x80 SHL SUB DUP6 AND SWAP3 SWAP1 PUSH2 0x1039 SWAP1 DUP5 SWAP1 PUSH2 0x4591 JUMP JUMPDEST SWAP1 SWAP2 SSTORE POP POP CALLER PUSH1 0x0 SWAP1 DUP2 MSTORE PUSH1 0x7 PUSH1 0x20 SWAP1 DUP2 MSTORE PUSH1 0x40 DUP1 DUP4 KECCAK256 PUSH1 0x1 PUSH1 0x1 PUSH1 0xA0 SHL SUB DUP8 AND DUP5 MSTORE SWAP1 SWAP2 MSTORE DUP2 KECCAK256 PUSH1 0x1 ADD DUP1 SLOAD DUP4 SWAP3 SWAP1 PUSH2 0x1074 SWAP1 DUP5 SWAP1 PUSH2 0x4591 JUMP JUMPDEST SWAP1 SWAP2 SSTORE POP PUSH2 0x108F SWAP1 POP PUSH1 0x1 PUSH1 0x1 PUSH1 0xA0 SHL SUB DUP5 AND ADDRESS CALLER DUP6 PUSH2 0x2FE6 JUMP JUMPDEST PUSH8 0xDE0B6B3A7640000 PUSH2 0x10A1 CALLER PUSH2 0x1269 JUMP JUMPDEST LT ISZERO PUSH2 0x10C0 JUMPI PUSH1 0x40 MLOAD PUSH4 0x74FA216B PUSH1 0xE0 SHL DUP2 MSTORE PUSH1 0x4 ADD PUSH1 0x40 MLOAD DUP1 SWAP2 SUB SWAP1 REVERT JUMPDEST PUSH1 0x40 DUP1 MLOAD CALLER DUP2 MSTORE PUSH1 0x1 PUSH1 0x1 PUSH1 0xA0 SHL SUB DUP6 AND PUSH1 0x20 DUP3 ADD MSTORE SWAP1 DUP2 ADD DUP4 SWAP1 MSTORE PUSH1 0x60 DUP2 ADD DUP3 SWAP1 MSTORE PUSH32 0xC1561B330E73FAA7D5D1AC03C968D8F359B0191CCDB9CC002CF7D8EB6AE038CB SWAP1 PUSH1 0x80 ADD PUSH2 0x83F JUMP JUMPDEST PUSH8 0xDE0B6B3A7640000 PUSH2 0x111F DUP5 PUSH2 0x1269 JUMP JUMPDEST LT ISZERO PUSH2 0x113E JUMPI PUSH1 0x40 MLOAD PUSH4 0x30AF2D67 PUSH1 0xE2 SHL DUP2 MSTORE PUSH1 0x4 ADD PUSH1 0x40 MLOAD DUP1 SWAP2 SUB SWAP1 REVERT JUMPDEST PUSH1 0x1 PUSH1 0x1 PUSH1 0xA0 SHL SUB DUP1 DUP5 AND PUSH1 0x0 SWAP1 DUP2 MSTORE PUSH1 0x8 PUSH1 0x20 SWAP1 DUP2 MSTORE PUSH1 0x40 DUP1 DUP4 KECCAK256 DUP7 DUP6 AND DUP5 MSTORE DUP3 MSTORE DUP1 DUP4 KECCAK256 DUP6 DUP5 MSTORE SWAP1 SWAP2 MSTORE SWAP1 KECCAK256 DUP1 SLOAD SWAP1 SWAP2 AND PUSH2 0x11A7 JUMPI PUSH1 0x40 MLOAD PUSH32 0x49C49B600000000000000000000000000000000000000000000000000000000 DUP2 MSTORE PUSH1 0x4 ADD PUSH1 0x40 MLOAD DUP1 SWAP2 SUB SWAP1 REVERT JUMPDEST DUP1 SLOAD PUSH1 0x1 PUSH1 0xA0 SHL SWAP1 DIV PUSH8 0xFFFFFFFFFFFFFFFF AND TIMESTAMP LT ISZERO PUSH2 0x11F3 JUMPI PUSH1 0x40 MLOAD PUSH32 0x606F9EA300000000000000000000000000000000000000000000000000000000 DUP2 MSTORE PUSH1 0x4 ADD PUSH1 0x40 MLOAD DUP1 SWAP2 SUB SWAP1 REVERT JUMPDEST DUP1 SLOAD PUSH2 0x1213 SWAP1 PUSH2 0x12C SWAP1 PUSH1 0x1 PUSH1 0xA0 SHL SWAP1 DIV PUSH8 0xFFFFFFFFFFFFFFFF AND PUSH2 0x4591 JUMP JUMPDEST TIMESTAMP GT ISZERO DUP1 ISZERO PUSH2 0x122C JUMPI POP DUP1 SLOAD PUSH1 0x1 PUSH1 0x1 PUSH1 0xA0 SHL SUB AND CALLER EQ ISZERO JUMPDEST ISZERO PUSH2 0x1263 JUMPI PUSH1 0x40 MLOAD PUSH32 0x728E956900000000000000000000000000000000000000000000000000000000 DUP2 MSTORE PUSH1 0x4 ADD PUSH1 0x40 MLOAD DUP1 SWAP2 SUB SWAP1 REVERT JUMPDEST POP POP POP POP JUMP JUMPDEST PUSH1 0x0 DUP1 PUSH1 0x0 DUP1 PUSH2 0x1278 DUP6 PUSH2 0x26A8 JUMP JUMPDEST SWAP2 SWAP5 POP SWAP3 POP SWAP1 POP PUSH1 0x0 PUSH2 0x128B DUP4 DUP6 PUSH2 0x4591 JUMP JUMPDEST SWAP1 POP DUP2 PUSH1 0x0 SUB PUSH2 0x12A8 JUMPI PUSH2 0xBEB PUSH8 0xDE0B6B3A7640000 PUSH1 0x64 PUSH2 0x4542 JUMP JUMPDEST PUSH1 0x0 PUSH3 0x186A0 PUSH2 0x12BB PUSH3 0x13880 DUP5 PUSH2 0x4542 JUMP JUMPDEST PUSH2 0x12C5 SWAP2 SWAP1 PUSH2 0x4559 JUMP JUMPDEST SWAP1 POP DUP3 PUSH2 0x12DA PUSH8 0xDE0B6B3A7640000 DUP4 PUSH2 0x4542 JUMP JUMPDEST PUSH2 0x12E4 SWAP2 SWAP1 PUSH2 0x4559 JUMP JUMPDEST SWAP8 SWAP7 POP POP POP POP POP POP POP JUMP JUMPDEST PUSH2 0x12F7 PUSH2 0x2C5C JUMP JUMPDEST PUSH2 0x1301 PUSH1 0x0 PUSH2 0x3562 JUMP JUMPDEST JUMP JUMPDEST PUSH1 0x0 DUP6 SWAP1 SUB PUSH2 0x1325 JUMPI PUSH1 0x40 MLOAD PUSH4 0x521299A9 PUSH1 0xE0 SHL DUP2 MSTORE PUSH1 0x4 ADD PUSH1 0x40 MLOAD DUP1 SWAP2 SUB SWAP1 REVERT JUMPDEST DUP5 DUP4 EQ PUSH2 0x1345 JUMPI PUSH1 0x40 MLOAD PUSH4 0xB7C1140D PUSH1 0xE0 SHL DUP2 MSTORE PUSH1 0x4 ADD PUSH1 0x40 MLOAD DUP1 SWAP2 SUB SWAP1 REVERT JUMPDEST DUP7 PUSH1 0x0 DUP7 PUSH8 0xFFFFFFFFFFFFFFFF DUP2 GT ISZERO PUSH2 0x1361 JUMPI PUSH2 0x1361 PUSH2 0x3F07 JUMP JUMPDEST PUSH1 0x40 MLOAD SWAP1 DUP1 DUP3 MSTORE DUP1 PUSH1 0x20 MUL PUSH1 0x20 ADD DUP3 ADD PUSH1 0x40 MSTORE DUP1 ISZERO PUSH2 0x138A JUMPI DUP2 PUSH1 0x20 ADD PUSH1 0x20 DUP3 MUL DUP1 CALLDATASIZE DUP4 CALLDATACOPY ADD SWAP1 POP JUMPDEST POP SWAP1 POP PUSH1 0x0 JUMPDEST DUP8 DUP2 LT ISZERO PUSH2 0x14F2 JUMPI PUSH2 0x13C2 DUP10 DUP10 DUP4 DUP2 DUP2 LT PUSH2 0x13AD JUMPI PUSH2 0x13AD PUSH2 0x457B JUMP JUMPDEST SWAP1 POP PUSH1 0x20 MUL ADD PUSH1 0x20 DUP2 ADD SWAP1 PUSH2 0x626 SWAP2 SWAP1 PUSH2 0x3DDB JUMP JUMPDEST PUSH1 0x0 SUB PUSH2 0x142E JUMPI DUP9 DUP9 DUP3 DUP2 DUP2 LT PUSH2 0x13DB JUMPI PUSH2 0x13DB PUSH2 0x457B JUMP JUMPDEST SWAP1 POP PUSH1 0x20 MUL ADD PUSH1 0x20 DUP2 ADD SWAP1 PUSH2 0x13F0 SWAP2 SWAP1 PUSH2 0x3DDB JUMP JUMPDEST PUSH1 0x40 MLOAD PUSH32 0x7C154F8900000000000000000000000000000000000000000000000000000000 DUP2 MSTORE PUSH1 0x1 PUSH1 0x1 PUSH1 0xA0 SHL SUB SWAP1 SWAP2 AND PUSH1 0x4 DUP3 ADD MSTORE PUSH1 0x24 ADD PUSH2 0xE63 JUMP JUMPDEST PUSH2 0x1476 DUP10 DUP10 DUP4 DUP2 DUP2 LT PUSH2 0x1443 JUMPI PUSH2 0x1443 PUSH2 0x457B JUMP JUMPDEST SWAP1 POP PUSH1 0x20 MUL ADD PUSH1 0x20 DUP2 ADD SWAP1 PUSH2 0x1458 SWAP2 SWAP1 PUSH2 0x3DDB JUMP JUMPDEST DUP9 DUP9 DUP5 DUP2 DUP2 LT PUSH2 0x146A JUMPI PUSH2 0x146A PUSH2 0x457B JUMP JUMPDEST SWAP1 POP PUSH1 0x20 MUL ADD CALLDATALOAD PUSH2 0x19CE JUMP JUMPDEST DUP3 DUP3 DUP2 MLOAD DUP2 LT PUSH2 0x1488 JUMPI PUSH2 0x1488 PUSH2 0x457B JUMP JUMPDEST PUSH1 0x20 MUL PUSH1 0x20 ADD ADD DUP2 DUP2 MSTORE POP POP PUSH2 0x14EA ADDRESS DUP12 DUP10 DUP10 DUP6 DUP2 DUP2 LT PUSH2 0x14AB JUMPI PUSH2 0x14AB PUSH2 0x457B JUMP JUMPDEST SWAP1 POP PUSH1 0x20 MUL ADD CALLDATALOAD DUP13 DUP13 DUP7 DUP2 DUP2 LT PUSH2 0x14C4 JUMPI PUSH2 0x14C4 PUSH2 0x457B JUMP JUMPDEST SWAP1 POP PUSH1 0x20 MUL ADD PUSH1 0x20 DUP2 ADD SWAP1 PUSH2 0x14D9 SWAP2 SWAP1 PUSH2 0x3DDB JUMP JUMPDEST PUSH1 0x1 PUSH1 0x1 PUSH1 0xA0 SHL SUB AND SWAP3 SWAP2 SWAP1 PUSH2 0x2FE6 JUMP JUMPDEST PUSH1 0x1 ADD PUSH2 0x1390 JUMP JUMPDEST POP PUSH1 0x40 MLOAD PUSH32 0x64573D0200000000000000000000000000000000000000000000000000000000 DUP2 MSTORE PUSH1 0x1 PUSH1 0x1 PUSH1 0xA0 SHL SUB DUP4 AND SWAP1 PUSH4 0x64573D02 SWAP1 PUSH2 0x1546 SWAP1 CALLER SWAP1 DUP13 SWAP1 DUP13 SWAP1 DUP13 SWAP1 DUP13 SWAP1 DUP10 SWAP1 DUP14 SWAP1 DUP14 SWAP1 PUSH1 0x4 ADD PUSH2 0x45CD JUMP JUMPDEST PUSH1 0x20 PUSH1 0x40 MLOAD DUP1 DUP4 SUB DUP2 PUSH1 0x0 DUP8 GAS CALL ISZERO DUP1 ISZERO PUSH2 0x1565 JUMPI RETURNDATASIZE PUSH1 0x0 DUP1 RETURNDATACOPY RETURNDATASIZE PUSH1 0x0 REVERT JUMPDEST POP POP POP POP PUSH1 0x40 MLOAD RETURNDATASIZE PUSH1 0x1F NOT PUSH1 0x1F DUP3 ADD AND DUP3 ADD DUP1 PUSH1 0x40 MSTORE POP DUP2 ADD SWAP1 PUSH2 0x1589 SWAP2 SWAP1 PUSH2 0x469F JUMP JUMPDEST PUSH2 0x15BF JUMPI PUSH1 0x40 MLOAD PUSH32 0xFD5EAD8000000000000000000000000000000000000000000000000000000000 DUP2 MSTORE PUSH1 0x4 ADD PUSH1 0x40 MLOAD DUP1 SWAP2 SUB SWAP1 REVERT JUMPDEST PUSH1 0x0 DUP1 JUMPDEST DUP9 DUP2 LT ISZERO PUSH2 0x16B2 JUMPI DUP3 DUP2 DUP2 MLOAD DUP2 LT PUSH2 0x15DD JUMPI PUSH2 0x15DD PUSH2 0x457B JUMP JUMPDEST PUSH1 0x20 MUL PUSH1 0x20 ADD ADD MLOAD DUP9 DUP9 DUP4 DUP2 DUP2 LT PUSH2 0x15F7 JUMPI PUSH2 0x15F7 PUSH2 0x457B JUMP JUMPDEST SWAP1 POP PUSH1 0x20 MUL ADD CALLDATALOAD PUSH2 0x1608 SWAP2 SWAP1 PUSH2 0x4591 JUMP JUMPDEST SWAP2 POP PUSH2 0x1622 DUP12 ADDRESS DUP5 DUP14 DUP14 DUP7 DUP2 DUP2 LT PUSH2 0x14C4 JUMPI PUSH2 0x14C4 PUSH2 0x457B JUMP JUMPDEST DUP3 DUP2 DUP2 MLOAD DUP2 LT PUSH2 0x1634 JUMPI PUSH2 0x1634 PUSH2 0x457B JUMP JUMPDEST PUSH1 0x20 MUL PUSH1 0x20 ADD ADD MLOAD PUSH1 0x1 PUSH1 0x1 PUSH1 0x80 SHL SUB AND PUSH1 0x6 PUSH1 0x0 DUP13 DUP13 DUP6 DUP2 DUP2 LT PUSH2 0x165B JUMPI PUSH2 0x165B PUSH2 0x457B JUMP JUMPDEST SWAP1 POP PUSH1 0x20 MUL ADD PUSH1 0x20 DUP2 ADD SWAP1 PUSH2 0x1670 SWAP2 SWAP1 PUSH2 0x3DDB JUMP JUMPDEST PUSH1 0x1 PUSH1 0x1 PUSH1 0xA0 SHL SUB AND PUSH1 0x1 PUSH1 0x1 PUSH1 0xA0 SHL SUB AND DUP2 MSTORE PUSH1 0x20 ADD SWAP1 DUP2 MSTORE PUSH1 0x20 ADD PUSH1 0x0 KECCAK256 PUSH1 0x0 ADD PUSH1 0x0 ADD PUSH1 0x0 DUP3 DUP3 SLOAD PUSH2 0x16A5 SWAP2 SWAP1 PUSH2 0x4591 JUMP JUMPDEST SWAP1 SWAP2 SSTORE POP POP PUSH1 0x1 ADD PUSH2 0x15C3 JUMP JUMPDEST POP PUSH32 0x76F226D30806B7B34CF90AE0330C53DF665A4127510985A1A3958387039B9D75 CALLER DUP11 DUP11 DUP11 DUP11 DUP8 DUP12 DUP12 PUSH1 0x40 MLOAD PUSH2 0x16F0 SWAP9 SWAP8 SWAP7 SWAP6 SWAP5 SWAP4 SWAP3 SWAP2 SWAP1 PUSH2 0x45CD JUMP JUMPDEST PUSH1 0x40 MLOAD DUP1 SWAP2 SUB SWAP1 LOG1 POP POP POP POP POP POP POP POP POP POP JUMP JUMPDEST PUSH2 0x170D DUP4 PUSH2 0x3446 JUMP JUMPDEST PUSH2 0x1716 DUP4 PUSH2 0x35B2 JUMP JUMPDEST PUSH2 0x171F DUP4 PUSH2 0x26D4 JUMP JUMPDEST POP PUSH2 0x1739 SWAP3 POP POP POP PUSH1 0x1 PUSH1 0x1 PUSH1 0xA0 SHL SUB DUP5 AND CALLER ADDRESS DUP6 PUSH2 0x2FE6 JUMP JUMPDEST PUSH1 0x1 PUSH1 0x1 PUSH1 0xA0 SHL SUB DUP4 AND PUSH1 0x0 SWAP1 DUP2 MSTORE PUSH1 0x6 PUSH1 0x20 SWAP1 DUP2 MSTORE PUSH1 0x40 DUP1 DUP4 KECCAK256 DUP2 MLOAD DUP1 DUP4 ADD SWAP1 SWAP3 MSTORE DUP1 SLOAD DUP3 MSTORE PUSH1 0x1 ADD SLOAD SWAP2 DUP2 ADD SWAP2 SWAP1 SWAP2 MSTORE PUSH2 0x1776 SWAP1 DUP5 DUP4 PUSH2 0x2BF5 JUMP JUMPDEST SWAP1 POP DUP2 DUP2 LT ISZERO PUSH2 0x179C JUMPI PUSH1 0x40 MLOAD PUSH4 0x28AC9B3F PUSH1 0xE1 SHL DUP2 MSTORE PUSH1 0x4 DUP2 ADD DUP3 SWAP1 MSTORE PUSH1 0x24 ADD PUSH2 0xE63 JUMP JUMPDEST PUSH1 0x1 PUSH1 0x1 PUSH1 0xA0 SHL SUB DUP5 AND PUSH1 0x0 SWAP1 DUP2 MSTORE PUSH1 0x6 PUSH1 0x20 MSTORE PUSH1 0x40 DUP2 KECCAK256 PUSH1 0x1 ADD DUP1 SLOAD PUSH1 0x1 PUSH1 0x1 PUSH1 0x80 SHL SUB DUP5 AND SWAP3 SWAP1 PUSH2 0x17D0 SWAP1 DUP5 SWAP1 PUSH2 0x4591 JUMP JUMPDEST SWAP1 SWAP2 SSTORE POP POP PUSH1 0x1 PUSH1 0x1 PUSH1 0xA0 SHL SUB DUP5 AND PUSH1 0x0 SWAP1 DUP2 MSTORE PUSH1 0x6 PUSH1 0x20 MSTORE PUSH1 0x40 DUP2 KECCAK256 DUP1 SLOAD PUSH1 0x1 PUSH1 0x1 PUSH1 0x80 SHL SUB DUP7 AND SWAP3 SWAP1 PUSH2 0x1806 SWAP1 DUP5 SWAP1 PUSH2 0x4591 JUMP JUMPDEST SWAP1 SWAP2 SSTORE POP POP CALLER PUSH1 0x0 SWAP1 DUP2 MSTORE PUSH1 0x7 PUSH1 0x20 SWAP1 DUP2 MSTORE PUSH1 0x40 DUP1 DUP4 KECCAK256 PUSH1 0x1 PUSH1 0x1 PUSH1 0xA0 SHL SUB DUP9 AND DUP5 MSTORE SWAP1 SWAP2 MSTORE DUP2 KECCAK256 DUP1 SLOAD DUP4 SWAP3 SWAP1 PUSH2 0x183E SWAP1 DUP5 SWAP1 PUSH2 0x4591 JUMP JUMPDEST SWAP1 SWAP2 SSTORE POP POP PUSH1 0x40 DUP1 MLOAD CALLER DUP2 MSTORE PUSH1 0x1 PUSH1 0x1 PUSH1 0xA0 SHL SUB DUP7 AND PUSH1 0x20 DUP3 ADD MSTORE SWAP1 DUP2 ADD DUP5 SWAP1 MSTORE PUSH1 0x60 DUP2 ADD DUP3 SWAP1 MSTORE PUSH32 0xDCBC1C05240F31FF3AD067EF1EE35CE4997762752E3A095284754544F4C709D7 SWAP1 PUSH1 0x80 ADD PUSH2 0xB78 JUMP JUMPDEST PUSH2 0x189C CALLER DUP5 DUP5 DUP5 PUSH2 0x360B JUMP JUMPDEST PUSH8 0xDE0B6B3A7640000 PUSH2 0x18AE CALLER PUSH2 0x1269 JUMP JUMPDEST LT ISZERO PUSH2 0x18CD JUMPI PUSH1 0x40 MLOAD PUSH4 0x74FA216B PUSH1 0xE0 SHL DUP2 MSTORE PUSH1 0x4 ADD PUSH1 0x40 MLOAD DUP1 SWAP2 SUB SWAP1 REVERT JUMPDEST PUSH1 0x40 DUP1 MLOAD CALLER DUP2 MSTORE PUSH1 0x1 PUSH1 0x1 PUSH1 0xA0 SHL SUB DUP1 DUP7 AND PUSH1 0x20 DUP4 ADD MSTORE DUP5 AND SWAP2 DUP2 ADD SWAP2 SWAP1 SWAP2 MSTORE PUSH1 0x60 DUP2 ADD DUP3 SWAP1 MSTORE PUSH32 0xA766742A23FE9ECBD32C553CD9AD3115B2D15C6B72CD5E95858F5A911D55CB45 SWAP1 PUSH1 0x80 ADD PUSH2 0x83F JUMP JUMPDEST PUSH1 0x2 SLOAD PUSH1 0x0 SWAP1 DUP2 JUMPDEST DUP2 DUP2 LT ISZERO PUSH2 0xC83 JUMPI PUSH1 0x0 PUSH1 0x2 DUP3 DUP2 SLOAD DUP2 LT PUSH2 0x1943 JUMPI PUSH2 0x1943 PUSH2 0x457B JUMP JUMPDEST PUSH1 0x0 SWAP2 DUP3 MSTORE PUSH1 0x20 DUP1 DUP4 KECCAK256 SWAP1 SWAP2 ADD SLOAD PUSH1 0x1 PUSH1 0x1 PUSH1 0xA0 SHL SUB DUP9 DUP2 AND DUP5 MSTORE PUSH1 0x7 DUP4 MSTORE PUSH1 0x40 DUP1 DUP6 KECCAK256 SWAP2 SWAP1 SWAP3 AND DUP1 DUP6 MSTORE SWAP1 DUP4 MSTORE DUP2 DUP5 KECCAK256 PUSH1 0x1 ADD SLOAD PUSH1 0x6 DUP5 MSTORE DUP3 DUP6 KECCAK256 DUP4 MLOAD DUP1 DUP6 ADD SWAP1 SWAP5 MSTORE PUSH1 0x2 DUP2 ADD SLOAD DUP5 MSTORE PUSH1 0x3 ADD SLOAD SWAP4 DUP4 ADD SWAP4 SWAP1 SWAP4 MSTORE SWAP4 POP PUSH2 0x19A5 SWAP2 DUP4 PUSH2 0x2F98 JUMP JUMPDEST SWAP1 POP DUP1 ISZERO PUSH2 0x19C4 JUMPI PUSH2 0x19B7 DUP3 DUP3 PUSH2 0xB86 JUMP JUMPDEST PUSH2 0x19C1 SWAP1 DUP7 PUSH2 0x4591 JUMP JUMPDEST SWAP5 POP JUMPDEST POP POP PUSH1 0x1 ADD PUSH2 0x1926 JUMP JUMPDEST PUSH1 0x1 PUSH1 0x1 PUSH1 0xA0 SHL SUB DUP3 AND PUSH1 0x0 SWAP1 DUP2 MSTORE PUSH1 0x6 PUSH1 0x20 MSTORE PUSH1 0x40 DUP2 KECCAK256 PUSH1 0x5 ADD SLOAD PUSH3 0x186A0 SWAP1 PUSH2 0x1A0F SWAP1 PUSH9 0x10000000000000000 SWAP1 DIV PUSH8 0xFFFFFFFFFFFFFFFF AND DUP5 PUSH2 0x4542 JUMP JUMPDEST PUSH2 0xDBA SWAP2 SWAP1 PUSH2 0x4559 JUMP JUMPDEST PUSH1 0x1 PUSH1 0x1 PUSH1 0xA0 SHL SUB DUP5 AND CALLER SUB PUSH2 0x1A5B JUMPI PUSH1 0x40 MLOAD PUSH32 0x44511AF100000000000000000000000000000000000000000000000000000000 DUP2 MSTORE PUSH1 0x4 ADD PUSH1 0x40 MLOAD DUP1 SWAP2 SUB SWAP1 REVERT JUMPDEST PUSH1 0x0 PUSH2 0x1A66 DUP6 PUSH2 0x1269 JUMP JUMPDEST SWAP1 POP PUSH8 0xDE0B6B3A7640000 DUP2 LT PUSH2 0x1A90 JUMPI PUSH1 0x40 MLOAD PUSH4 0x30AF2D67 PUSH1 0xE2 SHL DUP2 MSTORE PUSH1 0x4 ADD PUSH1 0x40 MLOAD DUP1 SWAP2 SUB SWAP1 REVERT JUMPDEST PUSH1 0x1 PUSH1 0x1 PUSH1 0xA0 SHL SUB DUP6 DUP2 AND PUSH1 0x0 SWAP1 DUP2 MSTORE PUSH1 0x7 PUSH1 0x20 SWAP1 DUP2 MSTORE PUSH1 0x40 DUP1 DUP4 KECCAK256 DUP9 DUP6 AND DUP5 MSTORE SWAP1 SWAP2 MSTORE DUP1 DUP3 KECCAK256 SLOAD SWAP3 DUP7 AND DUP3 MSTORE SWAP1 KECCAK256 PUSH1 0x1 ADD SLOAD DUP2 ISZERO DUP1 PUSH2 0x1ACE JUMPI POP DUP1 ISZERO JUMPDEST ISZERO PUSH2 0x1ADB JUMPI POP POP POP PUSH2 0x1263 JUMP JUMPDEST PUSH1 0x1 PUSH1 0x1 PUSH1 0xA0 SHL SUB DUP6 AND PUSH1 0x0 SWAP1 DUP2 MSTORE PUSH1 0x6 PUSH1 0x20 SWAP1 DUP2 MSTORE PUSH1 0x40 DUP1 DUP4 KECCAK256 DUP2 MLOAD DUP1 DUP4 ADD SWAP1 SWAP3 MSTORE PUSH1 0x2 DUP2 ADD SLOAD DUP3 MSTORE PUSH1 0x3 ADD SLOAD SWAP2 DUP2 ADD SWAP2 SWAP1 SWAP2 MSTORE PUSH2 0x1B1C SWAP1 DUP4 PUSH1 0x1 PUSH2 0x2F98 JUMP JUMPDEST SWAP1 POP PUSH1 0x0 PUSH8 0xC7D713B49DA0000 DUP6 LT ISZERO PUSH2 0x1B36 JUMPI DUP2 PUSH2 0x1B50 JUMP JUMPDEST PUSH3 0x186A0 PUSH2 0x1B46 PUSH2 0xC350 DUP5 PUSH2 0x4542 JUMP JUMPDEST PUSH2 0x1B50 SWAP2 SWAP1 PUSH2 0x4559 JUMP JUMPDEST SWAP1 POP DUP1 DUP7 GT PUSH2 0x1B5F JUMPI DUP6 PUSH2 0x1B61 JUMP JUMPDEST DUP1 JUMPDEST PUSH1 0x1 PUSH1 0x1 PUSH1 0xA0 SHL SUB DUP10 AND PUSH1 0x0 SWAP1 DUP2 MSTORE PUSH1 0x6 PUSH1 0x20 SWAP1 DUP2 MSTORE PUSH1 0x40 DUP1 DUP4 KECCAK256 DUP2 MLOAD DUP1 DUP4 ADD SWAP1 SWAP3 MSTORE DUP1 SLOAD DUP3 MSTORE PUSH1 0x1 ADD SLOAD SWAP2 DUP2 ADD SWAP2 SWAP1 SWAP2 MSTORE SWAP2 SWAP8 POP SWAP3 POP DUP3 SWAP2 POP DUP10 SWAP1 DUP9 SWAP1 DUP11 SWAP1 DUP10 SWAP1 DUP6 SWAP1 PUSH2 0x1BB0 SWAP1 DUP11 DUP4 PUSH2 0x2F98 JUMP JUMPDEST SWAP1 POP PUSH1 0x0 PUSH2 0x1BBD DUP5 PUSH2 0x2465 JUMP JUMPDEST SWAP1 POP PUSH1 0x0 PUSH2 0x1BCA DUP7 PUSH2 0x2465 JUMP JUMPDEST SWAP1 POP PUSH1 0x0 PUSH2 0x1BE0 DUP7 PUSH1 0x1 PUSH1 0x1 PUSH1 0xA0 SHL SUB AND PUSH2 0x3159 JUMP JUMPDEST SWAP1 POP PUSH1 0x0 PUSH2 0x1BF6 DUP9 PUSH1 0x1 PUSH1 0x1 PUSH1 0xA0 SHL SUB AND PUSH2 0x3159 JUMP JUMPDEST SWAP1 POP PUSH2 0x1C03 DUP2 PUSH1 0xA PUSH2 0x4533 JUMP JUMPDEST PUSH2 0x1C0D SWAP1 DUP6 PUSH2 0x4542 JUMP JUMPDEST PUSH2 0x1C18 DUP4 PUSH1 0xA PUSH2 0x4533 JUMP JUMPDEST PUSH2 0x1C22 DUP6 DUP10 PUSH2 0x4542 JUMP JUMPDEST PUSH2 0x1C2C SWAP2 SWAP1 PUSH2 0x4542 JUMP JUMPDEST PUSH2 0x1C36 SWAP2 SWAP1 PUSH2 0x4559 JUMP JUMPDEST SWAP11 POP PUSH1 0x0 PUSH3 0x186A0 PUSH2 0x1C4A PUSH2 0x1388 DUP15 PUSH2 0x4542 JUMP JUMPDEST PUSH2 0x1C54 SWAP2 SWAP1 PUSH2 0x4559 JUMP JUMPDEST SWAP1 POP DUP6 DUP13 GT ISZERO PUSH2 0x1CAC JUMPI DUP6 SWAP12 POP DUP3 PUSH1 0xA PUSH2 0x1C6E SWAP2 SWAP1 PUSH2 0x4533 JUMP JUMPDEST DUP5 PUSH2 0x1C7A DUP5 PUSH1 0xA PUSH2 0x4533 JUMP JUMPDEST PUSH2 0x1C84 DUP9 DUP11 PUSH2 0x4542 JUMP JUMPDEST PUSH2 0x1C8E SWAP2 SWAP1 PUSH2 0x4542 JUMP JUMPDEST PUSH2 0x1C98 SWAP2 SWAP1 PUSH2 0x4559 JUMP JUMPDEST PUSH2 0x1CA2 SWAP2 SWAP1 PUSH2 0x4542 JUMP JUMPDEST SWAP11 POP DUP7 SWAP16 POP PUSH2 0x1CCD JUMP JUMPDEST PUSH1 0x0 PUSH2 0x1CB8 DUP14 DUP9 PUSH2 0x46BC JUMP JUMPDEST SWAP1 POP DUP1 DUP3 GT PUSH2 0x1CC7 JUMPI DUP2 PUSH2 0x1CC9 JUMP JUMPDEST DUP1 JUMPDEST SWAP12 POP POP JUMPDEST PUSH1 0x1 PUSH1 0x1 PUSH1 0xA0 SHL SUB DUP10 AND PUSH1 0x0 SWAP1 DUP2 MSTORE PUSH1 0x6 PUSH1 0x20 SWAP1 DUP2 MSTORE PUSH1 0x40 DUP1 DUP4 KECCAK256 DUP2 MLOAD DUP1 DUP4 ADD SWAP1 SWAP3 MSTORE PUSH1 0x2 DUP2 ADD SLOAD DUP3 MSTORE PUSH1 0x3 ADD SLOAD SWAP2 DUP2 ADD SWAP2 SWAP1 SWAP2 MSTORE PUSH2 0x1D0D SWAP1 DUP10 DUP4 PUSH2 0x2BF5 JUMP JUMPDEST PUSH1 0x1 PUSH1 0x1 PUSH1 0xA0 SHL SUB DUP12 AND PUSH1 0x0 SWAP1 DUP2 MSTORE PUSH1 0x6 PUSH1 0x20 MSTORE PUSH1 0x40 DUP2 KECCAK256 PUSH1 0x3 ADD DUP1 SLOAD SWAP3 SWAP4 POP PUSH1 0x1 PUSH1 0x1 PUSH1 0x80 SHL SUB DUP5 AND SWAP3 SWAP1 SWAP2 SWAP1 PUSH2 0x1D46 SWAP1 DUP5 SWAP1 PUSH2 0x46BC JUMP JUMPDEST SWAP1 SWAP2 SSTORE POP POP PUSH1 0x1 PUSH1 0x1 PUSH1 0xA0 SHL SUB DUP11 AND PUSH1 0x0 SWAP1 DUP2 MSTORE PUSH1 0x6 PUSH1 0x20 MSTORE PUSH1 0x40 DUP2 KECCAK256 PUSH1 0x2 ADD DUP1 SLOAD PUSH1 0x1 PUSH1 0x1 PUSH1 0x80 SHL SUB DUP12 AND SWAP3 SWAP1 PUSH2 0x1D7F SWAP1 DUP5 SWAP1 PUSH2 0x46BC JUMP JUMPDEST SWAP3 POP POP DUP2 SWAP1 SSTORE POP PUSH1 0x0 PUSH2 0x1DD0 DUP14 DUP16 PUSH2 0x1D97 SWAP2 SWAP1 PUSH2 0x4591 JUMP JUMPDEST PUSH1 0x1 PUSH1 0x1 PUSH1 0xA0 SHL SUB DUP13 AND PUSH1 0x0 SWAP1 DUP2 MSTORE PUSH1 0x6 PUSH1 0x20 SWAP1 DUP2 MSTORE PUSH1 0x40 DUP1 DUP4 KECCAK256 DUP2 MLOAD DUP1 DUP4 ADD SWAP1 SWAP3 MSTORE DUP1 SLOAD DUP3 MSTORE PUSH1 0x1 ADD SLOAD SWAP2 DUP2 ADD SWAP2 SWAP1 SWAP2 MSTORE SWAP2 SWAP1 PUSH2 0x2BF5 JUMP JUMPDEST PUSH1 0x1 PUSH1 0x1 PUSH1 0xA0 SHL SUB DUP12 AND PUSH1 0x0 SWAP1 DUP2 MSTORE PUSH1 0x6 PUSH1 0x20 MSTORE PUSH1 0x40 DUP2 KECCAK256 PUSH1 0x1 ADD DUP1 SLOAD SWAP3 SWAP4 POP PUSH1 0x1 PUSH1 0x1 PUSH1 0x80 SHL SUB DUP5 AND SWAP3 SWAP1 SWAP2 SWAP1 PUSH2 0x1E09 SWAP1 DUP5 SWAP1 PUSH2 0x46BC JUMP JUMPDEST SWAP1 SWAP2 SSTORE POP PUSH2 0x1E19 SWAP1 POP DUP14 DUP16 PUSH2 0x4591 JUMP JUMPDEST PUSH1 0x1 PUSH1 0x1 PUSH1 0xA0 SHL SUB DUP12 AND PUSH1 0x0 SWAP1 DUP2 MSTORE PUSH1 0x6 PUSH1 0x20 MSTORE PUSH1 0x40 DUP2 KECCAK256 DUP1 SLOAD PUSH1 0x1 PUSH1 0x1 PUSH1 0x80 SHL SUB SWAP4 SWAP1 SWAP4 AND SWAP3 SWAP1 SWAP2 SWAP1 PUSH2 0x1E4E SWAP1 DUP5 SWAP1 PUSH2 0x46BC JUMP JUMPDEST SWAP1 SWAP2 SSTORE POP POP PUSH1 0x1 PUSH1 0x1 PUSH1 0xA0 SHL SUB DUP1 DUP14 AND PUSH1 0x0 SWAP1 DUP2 MSTORE PUSH1 0x7 PUSH1 0x20 SWAP1 DUP2 MSTORE PUSH1 0x40 DUP1 DUP4 KECCAK256 SWAP4 DUP16 AND DUP4 MSTORE SWAP3 SWAP1 MSTORE SWAP1 DUP2 KECCAK256 PUSH1 0x1 ADD DUP1 SLOAD PUSH1 0x1 PUSH1 0x1 PUSH1 0x80 SHL SUB DUP6 AND SWAP3 SWAP1 PUSH2 0x1E96 SWAP1 DUP5 SWAP1 PUSH2 0x46BC JUMP JUMPDEST SWAP1 SWAP2 SSTORE POP POP PUSH1 0x1 PUSH1 0x1 PUSH1 0xA0 SHL SUB DUP1 DUP14 AND PUSH1 0x0 SWAP1 DUP2 MSTORE PUSH1 0x7 PUSH1 0x20 SWAP1 DUP2 MSTORE PUSH1 0x40 DUP1 DUP4 KECCAK256 SWAP4 DUP15 AND DUP4 MSTORE SWAP3 SWAP1 MSTORE SWAP1 DUP2 KECCAK256 DUP1 SLOAD PUSH1 0x1 PUSH1 0x1 PUSH1 0x80 SHL SUB DUP5 AND SWAP3 SWAP1 PUSH2 0x1EDB SWAP1 DUP5 SWAP1 PUSH2 0x46BC JUMP JUMPDEST SWAP3 POP POP DUP2 SWAP1 SSTORE POP POP POP POP POP POP POP POP POP POP POP POP POP PUSH2 0x1F11 ADDRESS CALLER DUP4 DUP6 PUSH2 0x1EFF SWAP2 SWAP1 PUSH2 0x4591 JUMP JUMPDEST PUSH1 0x1 PUSH1 0x1 PUSH1 0xA0 SHL SUB DUP12 AND SWAP3 SWAP2 SWAP1 PUSH2 0x2FE6 JUMP JUMPDEST PUSH2 0x1F32 ADDRESS CALLER PUSH2 0x1F20 DUP5 DUP7 PUSH2 0x4591 JUMP JUMPDEST PUSH1 0x1 PUSH1 0x1 PUSH1 0xA0 SHL SUB DUP13 AND SWAP3 SWAP2 SWAP1 PUSH2 0x2FE6 JUMP JUMPDEST PUSH32 0xFCBC974BF3A532BAF2BB229DB3C37FD58299B62D2D1DB6A855DAC5B693BB6FF3 DUP10 CALLER DUP9 PUSH2 0x1F60 DUP6 DUP8 PUSH2 0x4591 JUMP JUMPDEST PUSH1 0x40 DUP1 MLOAD PUSH1 0x1 PUSH1 0x1 PUSH1 0xA0 SHL SUB SWAP6 DUP7 AND DUP2 MSTORE SWAP5 SWAP1 SWAP4 AND PUSH1 0x20 DUP6 ADD MSTORE SWAP2 DUP4 ADD MSTORE PUSH1 0x60 DUP3 ADD MSTORE PUSH1 0x80 DUP2 ADD DUP4 SWAP1 MSTORE PUSH1 0xA0 ADD PUSH1 0x40 MLOAD DUP1 SWAP2 SUB SWAP1 LOG1 POP POP POP POP POP POP POP POP POP JUMP JUMPDEST PUSH1 0x1 PUSH1 0x1 PUSH1 0xA0 SHL SUB DUP1 DUP4 AND PUSH1 0x0 SWAP1 DUP2 MSTORE PUSH1 0x5 PUSH1 0x20 SWAP1 DUP2 MSTORE PUSH1 0x40 DUP1 DUP4 KECCAK256 SWAP4 DUP6 AND DUP4 MSTORE SWAP3 SWAP1 MSTORE SWAP1 DUP2 KECCAK256 PUSH2 0xDBA SWAP1 PUSH2 0x36EA JUMP JUMPDEST PUSH2 0xC02 DUP4 DUP4 DUP4 PUSH1 0x0 PUSH2 0x31BD JUMP JUMPDEST PUSH1 0x0 DUP1 SLOAD PUSH1 0x1 PUSH1 0xA0 SHL SWAP1 DIV PUSH1 0xFF AND DUP1 PUSH2 0xDBD JUMPI POP POP PUSH1 0x1 PUSH1 0x1 PUSH1 0xA0 SHL SUB AND PUSH1 0x0 SWAP1 DUP2 MSTORE PUSH1 0x1 PUSH1 0x20 MSTORE PUSH1 0x40 SWAP1 KECCAK256 SLOAD PUSH1 0xFF AND SWAP1 JUMP JUMPDEST PUSH1 0x0 PUSH2 0x201B DUP3 PUSH2 0x1FDD JUMP JUMPDEST PUSH2 0x2027 JUMPI PUSH1 0x0 NOT PUSH2 0xDBD JUMP JUMPDEST PUSH1 0x0 SWAP3 SWAP2 POP POP JUMP JUMPDEST PUSH1 0x0 DUP4 SWAP1 SUB PUSH2 0x2051 JUMPI PUSH1 0x40 MLOAD PUSH4 0x521299A9 PUSH1 0xE0 SHL DUP2 MSTORE PUSH1 0x4 ADD PUSH1 0x40 MLOAD DUP1 SWAP2 SUB SWAP1 REVERT JUMPDEST DUP3 DUP2 EQ PUSH2 0x2071 JUMPI PUSH1 0x40 MLOAD PUSH4 0xB7C1140D PUSH1 0xE0 SHL DUP2 MSTORE PUSH1 0x4 ADD PUSH1 0x40 MLOAD DUP1 SWAP2 SUB SWAP1 REVERT JUMPDEST PUSH2 0x207C DUP8 DUP8 DUP8 PUSH2 0x110D JUMP JUMPDEST PUSH1 0x0 PUSH2 0x2087 DUP9 PUSH2 0x191E JUMP JUMPDEST SWAP1 POP PUSH1 0x0 PUSH2 0x2094 DUP9 PUSH2 0x2465 JUMP JUMPDEST SWAP1 POP PUSH1 0x0 DUP10 DUP2 DUP1 DUP1 DUP1 JUMPDEST DUP11 DUP2 LT ISZERO PUSH2 0x2226 JUMPI DUP12 DUP12 DUP3 DUP2 DUP2 LT PUSH2 0x20B8 JUMPI PUSH2 0x20B8 PUSH2 0x457B JUMP JUMPDEST SWAP1 POP PUSH1 0x20 MUL ADD PUSH1 0x20 DUP2 ADD SWAP1 PUSH2 0x20CD SWAP2 SWAP1 PUSH2 0x3DDB JUMP JUMPDEST SWAP4 POP DUP10 DUP10 DUP3 DUP2 DUP2 LT PUSH2 0x20E1 JUMPI PUSH2 0x20E1 PUSH2 0x457B JUMP JUMPDEST SWAP1 POP PUSH1 0x20 MUL ADD CALLDATALOAD SWAP3 POP PUSH2 0x20F3 DUP5 PUSH2 0x26D4 JUMP JUMPDEST POP POP POP PUSH1 0x1 PUSH1 0x1 PUSH1 0xA0 SHL SUB DUP6 AND PUSH1 0x0 SWAP1 DUP2 MSTORE PUSH1 0x6 PUSH1 0x20 SWAP1 DUP2 MSTORE PUSH1 0x40 SWAP2 DUP3 SWAP1 KECCAK256 DUP3 MLOAD DUP1 DUP5 ADD SWAP1 SWAP4 MSTORE PUSH1 0x2 DUP2 ADD SLOAD DUP4 MSTORE PUSH1 0x3 ADD SLOAD SWAP1 DUP3 ADD MSTORE PUSH2 0x2136 SWAP2 POP DUP5 PUSH1 0x1 PUSH2 0x2BF5 JUMP JUMPDEST SWAP2 POP PUSH2 0x214D PUSH1 0x1 PUSH1 0x1 PUSH1 0xA0 SHL SUB DUP6 AND CALLER ADDRESS DUP7 PUSH2 0x2FE6 JUMP JUMPDEST PUSH1 0x1 PUSH1 0x1 PUSH1 0xA0 SHL SUB DUP5 AND PUSH1 0x0 SWAP1 DUP2 MSTORE PUSH1 0x6 PUSH1 0x20 MSTORE PUSH1 0x40 DUP2 KECCAK256 PUSH1 0x3 ADD DUP1 SLOAD PUSH1 0x1 PUSH1 0x1 PUSH1 0x80 SHL SUB DUP6 AND SWAP3 SWAP1 PUSH2 0x2181 SWAP1 DUP5 SWAP1 PUSH2 0x46BC JUMP JUMPDEST SWAP1 SWAP2 SSTORE POP POP PUSH1 0x1 PUSH1 0x1 PUSH1 0xA0 SHL SUB DUP5 AND PUSH1 0x0 SWAP1 DUP2 MSTORE PUSH1 0x6 PUSH1 0x20 MSTORE PUSH1 0x40 DUP2 KECCAK256 PUSH1 0x2 ADD DUP1 SLOAD PUSH1 0x1 PUSH1 0x1 PUSH1 0x80 SHL SUB DUP7 AND SWAP3 SWAP1 PUSH2 0x21BA SWAP1 DUP5 SWAP1 PUSH2 0x46BC JUMP JUMPDEST SWAP1 SWAP2 SSTORE POP POP PUSH1 0x1 PUSH1 0x1 PUSH1 0xA0 SHL SUB DUP1 DUP7 AND PUSH1 0x0 SWAP1 DUP2 MSTORE PUSH1 0x7 PUSH1 0x20 SWAP1 DUP2 MSTORE PUSH1 0x40 DUP1 DUP4 KECCAK256 SWAP4 DUP9 AND DUP4 MSTORE SWAP3 SWAP1 MSTORE SWAP1 DUP2 KECCAK256 PUSH1 0x1 ADD DUP1 SLOAD PUSH1 0x1 PUSH1 0x1 PUSH1 0x80 SHL SUB DUP6 AND SWAP3 SWAP1 PUSH2 0x2202 SWAP1 DUP5 SWAP1 PUSH2 0x46BC JUMP JUMPDEST SWAP1 SWAP2 SSTORE POP PUSH2 0x2212 SWAP1 POP DUP5 DUP5 PUSH2 0xB86 JUMP JUMPDEST PUSH2 0x221C SWAP1 DUP8 PUSH2 0x4591 JUMP JUMPDEST SWAP6 POP PUSH1 0x1 ADD PUSH2 0x209E JUMP JUMPDEST POP DUP6 DUP8 GT DUP1 ISZERO PUSH2 0x224E JUMPI POP PUSH3 0x186A0 PUSH2 0x2241 PUSH2 0xC350 DUP9 PUSH2 0x4542 JUMP JUMPDEST PUSH2 0x224B SWAP2 SWAP1 PUSH2 0x4559 JUMP JUMPDEST DUP6 LT JUMPDEST ISZERO PUSH2 0x2285 JUMPI PUSH1 0x40 MLOAD PUSH32 0xF67D9A2700000000000000000000000000000000000000000000000000000000 DUP2 MSTORE PUSH1 0x4 ADD PUSH1 0x40 MLOAD DUP1 SWAP2 SUB SWAP1 REVERT JUMPDEST POP PUSH1 0x0 SWAP3 POP DUP13 SWAP2 POP DUP3 SWAP1 POP PUSH3 0x186A0 PUSH2 0x22A0 PUSH2 0x2710 DUP3 PUSH2 0x4591 JUMP JUMPDEST PUSH2 0x22AA SWAP1 DUP7 PUSH2 0x4542 JUMP JUMPDEST PUSH2 0x22B4 SWAP2 SWAP1 PUSH2 0x4559 JUMP JUMPDEST SWAP1 POP PUSH2 0x22C0 DUP2 DUP7 PUSH2 0x46BC JUMP JUMPDEST SWAP3 POP PUSH1 0x0 PUSH1 0x2 PUSH1 0x0 DUP2 SLOAD DUP2 LT PUSH2 0x22D8 JUMPI PUSH2 0x22D8 PUSH2 0x457B JUMP JUMPDEST PUSH1 0x0 SWAP2 DUP3 MSTORE PUSH1 0x20 SWAP1 SWAP2 KECCAK256 ADD SLOAD PUSH1 0x1 PUSH1 0x1 PUSH1 0xA0 SHL SUB AND SWAP1 POP PUSH2 0x22FB DUP2 CALLER ADDRESS DUP8 PUSH2 0x2FE6 JUMP JUMPDEST PUSH1 0x1 PUSH1 0x1 PUSH1 0xA0 SHL SUB DUP2 AND PUSH1 0x0 SWAP1 DUP2 MSTORE PUSH1 0x6 PUSH1 0x20 SWAP1 DUP2 MSTORE PUSH1 0x40 DUP1 DUP4 KECCAK256 DUP2 MLOAD DUP1 DUP4 ADD SWAP1 SWAP3 MSTORE DUP1 SLOAD DUP3 MSTORE PUSH1 0x1 ADD SLOAD SWAP2 DUP2 ADD SWAP2 SWAP1 SWAP2 MSTORE PUSH2 0x2338 SWAP1 DUP7 DUP4 PUSH2 0x2BF5 JUMP JUMPDEST PUSH1 0x1 PUSH1 0x1 PUSH1 0xA0 SHL SUB DUP4 AND PUSH1 0x0 SWAP1 DUP2 MSTORE PUSH1 0x6 PUSH1 0x20 MSTORE PUSH1 0x40 DUP2 KECCAK256 PUSH1 0x1 ADD DUP1 SLOAD SWAP3 SWAP4 POP PUSH1 0x1 PUSH1 0x1 PUSH1 0x80 SHL SUB DUP5 AND SWAP3 SWAP1 SWAP2 SWAP1 PUSH2 0x2371 SWAP1 DUP5 SWAP1 PUSH2 0x4591 JUMP JUMPDEST SWAP1 SWAP2 SSTORE POP POP PUSH1 0x1 PUSH1 0x1 PUSH1 0xA0 SHL SUB DUP3 AND PUSH1 0x0 SWAP1 DUP2 MSTORE PUSH1 0x6 PUSH1 0x20 MSTORE PUSH1 0x40 DUP2 KECCAK256 DUP1 SLOAD PUSH1 0x1 PUSH1 0x1 PUSH1 0x80 SHL SUB DUP9 AND SWAP3 SWAP1 PUSH2 0x23A7 SWAP1 DUP5 SWAP1 PUSH2 0x4591 JUMP JUMPDEST SWAP1 SWAP2 SSTORE POP POP PUSH1 0x1 PUSH1 0x1 PUSH1 0xA0 SHL SUB DUP1 DUP6 AND PUSH1 0x0 SWAP1 DUP2 MSTORE PUSH1 0x7 PUSH1 0x20 SWAP1 DUP2 MSTORE PUSH1 0x40 DUP1 DUP4 KECCAK256 SWAP4 DUP7 AND DUP4 MSTORE SWAP3 SWAP1 MSTORE SWAP1 DUP2 KECCAK256 DUP1 SLOAD DUP4 SWAP3 SWAP1 PUSH2 0x23E3 SWAP1 DUP5 SWAP1 PUSH2 0x4591 JUMP JUMPDEST SWAP3 POP POP DUP2 SWAP1 SSTORE POP POP POP POP POP PUSH2 0x23FA DUP12 CALLER DUP13 DUP13 PUSH2 0x360B JUMP JUMPDEST PUSH1 0x40 DUP1 MLOAD CALLER DUP2 MSTORE PUSH1 0x1 PUSH1 0x1 PUSH1 0xA0 SHL SUB DUP14 DUP2 AND PUSH1 0x20 DUP4 ADD MSTORE DUP13 AND DUP2 DUP4 ADD MSTORE PUSH1 0x60 DUP2 ADD DUP12 SWAP1 MSTORE PUSH1 0x80 DUP2 ADD DUP5 SWAP1 MSTORE PUSH1 0xA0 DUP2 ADD DUP4 SWAP1 MSTORE SWAP1 MLOAD PUSH32 0x7CD35FF79D73D5AF7CB402EAAC9792D8B3D32B685B221CD81C3D5611C8327FD0 SWAP2 DUP2 SWAP1 SUB PUSH1 0xC0 ADD SWAP1 LOG1 POP POP POP POP POP POP POP POP POP POP POP JUMP JUMPDEST PUSH1 0x1 PUSH1 0x1 PUSH1 0xA0 SHL SUB DUP2 AND PUSH1 0x0 SWAP1 DUP2 MSTORE PUSH1 0x4 PUSH1 0x20 MSTORE PUSH1 0x40 DUP2 KECCAK256 SLOAD PUSH1 0x1 PUSH1 0xA8 SHL SWAP1 DIV PUSH1 0xFF AND PUSH2 0x2494 JUMPI POP PUSH1 0x0 SWAP2 SWAP1 POP JUMP JUMPDEST PUSH1 0x1 PUSH1 0x1 PUSH1 0xA0 SHL SUB DUP1 DUP4 AND PUSH1 0x0 SWAP1 DUP2 MSTORE PUSH1 0x4 PUSH1 0x20 MSTORE PUSH1 0x40 SWAP1 KECCAK256 SLOAD AND PUSH2 0x8FA DUP2 PUSH2 0x36F4 JUMP JUMPDEST PUSH1 0x2 SLOAD PUSH1 0x0 SWAP1 DUP2 JUMPDEST DUP2 DUP2 LT ISZERO PUSH2 0xC83 JUMPI PUSH1 0x0 PUSH1 0x2 DUP3 DUP2 SLOAD DUP2 LT PUSH2 0x24DD JUMPI PUSH2 0x24DD PUSH2 0x457B JUMP JUMPDEST PUSH1 0x0 SWAP2 DUP3 MSTORE PUSH1 0x20 DUP1 DUP4 KECCAK256 SWAP1 SWAP2 ADD SLOAD PUSH1 0x1 PUSH1 0x1 PUSH1 0xA0 SHL SUB DUP9 DUP2 AND DUP5 MSTORE PUSH1 0x7 DUP4 MSTORE PUSH1 0x40 DUP1 DUP6 KECCAK256 SWAP2 SWAP1 SWAP3 AND DUP1 DUP6 MSTORE SWAP1 DUP4 MSTORE DUP2 DUP5 KECCAK256 SLOAD PUSH1 0x6 DUP5 MSTORE DUP3 DUP6 KECCAK256 DUP4 MLOAD DUP1 DUP6 ADD SWAP1 SWAP5 MSTORE DUP1 SLOAD DUP5 MSTORE PUSH1 0x1 ADD SLOAD SWAP4 DUP4 ADD SWAP4 SWAP1 SWAP4 MSTORE SWAP4 POP PUSH2 0x2539 SWAP2 DUP4 PUSH2 0x2F98 JUMP JUMPDEST SWAP1 POP DUP1 ISZERO PUSH2 0x2558 JUMPI PUSH2 0x254B DUP3 DUP3 PUSH2 0xB86 JUMP JUMPDEST PUSH2 0x2555 SWAP1 DUP7 PUSH2 0x4591 JUMP JUMPDEST SWAP5 POP JUMPDEST POP POP PUSH1 0x1 ADD PUSH2 0x24C0 JUMP JUMPDEST PUSH2 0x256A PUSH2 0x2C5C JUMP JUMPDEST PUSH1 0x1 PUSH1 0x1 PUSH1 0xA0 SHL SUB DUP2 AND PUSH2 0x25E6 JUMPI PUSH1 0x40 MLOAD PUSH3 0x461BCD PUSH1 0xE5 SHL DUP2 MSTORE PUSH1 0x20 PUSH1 0x4 DUP3 ADD MSTORE PUSH1 0x26 PUSH1 0x24 DUP3 ADD MSTORE PUSH32 0x4F776E61626C653A206E6577206F776E657220697320746865207A65726F2061 PUSH1 0x44 DUP3 ADD MSTORE PUSH32 0x6464726573730000000000000000000000000000000000000000000000000000 PUSH1 0x64 DUP3 ADD MSTORE PUSH1 0x84 ADD PUSH2 0xE63 JUMP JUMPDEST PUSH2 0x25EF DUP2 PUSH2 0x3562 JUMP JUMPDEST POP JUMP JUMPDEST PUSH1 0x1 PUSH1 0x1 PUSH1 0xA0 SHL SUB DUP1 DUP5 AND PUSH1 0x0 SWAP1 DUP2 MSTORE PUSH1 0x5 PUSH1 0x20 SWAP1 DUP2 MSTORE PUSH1 0x40 DUP1 DUP4 KECCAK256 SWAP4 DUP7 AND DUP4 MSTORE SWAP3 SWAP1 MSTORE SWAP1 DUP2 KECCAK256 PUSH2 0x8F7 SWAP1 DUP4 PUSH2 0x37F7 JUMP JUMPDEST PUSH1 0x0 DUP2 ISZERO PUSH2 0x2668 JUMPI PUSH1 0x1 PUSH1 0x1 PUSH1 0xA0 SHL SUB DUP5 AND PUSH1 0x0 SWAP1 DUP2 MSTORE PUSH1 0x6 PUSH1 0x20 SWAP1 DUP2 MSTORE PUSH1 0x40 DUP1 DUP4 KECCAK256 DUP2 MLOAD DUP1 DUP4 ADD SWAP1 SWAP3 MSTORE DUP1 SLOAD DUP3 MSTORE PUSH1 0x1 ADD SLOAD SWAP2 DUP2 ADD SWAP2 SWAP1 SWAP2 MSTORE PUSH2 0x8B0 SWAP2 DUP6 SWAP1 PUSH2 0x2F98 JUMP JUMPDEST PUSH1 0x1 PUSH1 0x1 PUSH1 0xA0 SHL SUB DUP5 AND PUSH1 0x0 SWAP1 DUP2 MSTORE PUSH1 0x6 PUSH1 0x20 SWAP1 DUP2 MSTORE PUSH1 0x40 DUP1 DUP4 KECCAK256 DUP2 MLOAD DUP1 DUP4 ADD SWAP1 SWAP3 MSTORE PUSH1 0x2 DUP2 ADD SLOAD DUP3 MSTORE PUSH1 0x3 ADD SLOAD SWAP2 DUP2 ADD SWAP2 SWAP1 SWAP2 MSTORE PUSH2 0x8F7 SWAP2 DUP6 SWAP1 PUSH2 0x2F98 JUMP JUMPDEST PUSH1 0x0 DUP1 PUSH1 0x0 PUSH2 0x26B6 DUP5 PUSH2 0x24B8 JUMP JUMPDEST SWAP3 POP PUSH2 0x26C1 DUP5 PUSH2 0xC07 JUMP JUMPDEST SWAP2 POP PUSH2 0x26CC DUP5 PUSH2 0x191E JUMP JUMPDEST SWAP3 SWAP5 SWAP2 SWAP4 POP POP JUMP JUMPDEST PUSH1 0x1 PUSH1 0x1 PUSH1 0xA0 SHL SUB DUP2 AND PUSH1 0x0 SWAP1 DUP2 MSTORE PUSH1 0x6 PUSH1 0x20 DUP2 DUP2 MSTORE PUSH1 0x40 DUP1 DUP5 KECCAK256 DUP2 MLOAD PUSH1 0xA0 DUP1 DUP3 ADD DUP5 MSTORE DUP3 SLOAD PUSH1 0x60 DUP1 DUP5 ADD SWAP2 DUP3 MSTORE PUSH1 0x1 DUP6 ADD SLOAD PUSH1 0x80 DUP1 DUP7 ADD SWAP2 SWAP1 SWAP2 MSTORE SWAP2 DUP5 MSTORE DUP6 MLOAD DUP1 DUP8 ADD DUP8 MSTORE PUSH1 0x2 DUP7 ADD SLOAD DUP2 MSTORE PUSH1 0x3 DUP7 ADD SLOAD DUP2 DUP10 ADD MSTORE DUP5 DUP9 ADD MSTORE DUP6 MLOAD PUSH2 0x140 DUP2 ADD DUP8 MSTORE PUSH1 0x4 DUP7 ADD SLOAD DUP2 MSTORE PUSH1 0x5 DUP7 ADD SLOAD PUSH8 0xFFFFFFFFFFFFFFFF DUP1 DUP3 AND SWAP10 DUP4 ADD SWAP10 SWAP1 SWAP10 MSTORE PUSH9 0x10000000000000000 DUP1 DUP3 DIV DUP11 AND DUP4 DUP11 ADD MSTORE PUSH1 0x1 PUSH1 0x80 SHL DUP1 DUP4 DIV DUP12 AND SWAP5 DUP5 ADD SWAP5 SWAP1 SWAP5 MSTORE PUSH1 0x1 PUSH1 0xC0 SHL SWAP2 DUP3 SWAP1 DIV DUP11 AND SWAP5 DUP4 ADD SWAP5 SWAP1 SWAP5 MSTORE SWAP9 DUP7 ADD SLOAD DUP1 DUP10 AND SWAP5 DUP3 ADD SWAP5 SWAP1 SWAP5 MSTORE SWAP2 DUP4 DIV DUP8 AND PUSH1 0xC0 DUP4 ADD MSTORE DUP3 DIV DUP7 AND PUSH1 0xE0 DUP3 ADD MSTORE SWAP6 SWAP1 DIV SWAP1 SWAP4 AND PUSH2 0x100 DUP6 ADD MSTORE PUSH1 0x7 ADD SLOAD PUSH2 0x120 DUP5 ADD MSTORE DUP2 ADD SWAP2 SWAP1 SWAP2 MSTORE DUP1 MLOAD MLOAD DUP3 SWAP2 DUP3 SWAP2 DUP3 SWAP2 SWAP1 DUP3 SUB PUSH2 0x27ED JUMPI PUSH1 0x0 DUP1 PUSH1 0x0 DUP1 SWAP5 POP SWAP5 POP SWAP5 POP SWAP5 POP POP PUSH2 0x864 JUMP JUMPDEST PUSH1 0x40 DUP2 ADD MLOAD PUSH1 0x80 DUP2 ADD MLOAD TIMESTAMP PUSH8 0xFFFFFFFFFFFFFFFF SWAP1 SWAP2 AND SUB PUSH2 0x2816 JUMPI PUSH1 0x60 ADD MLOAD SWAP2 POP PUSH2 0x864 SWAP1 POP JUMP JUMPDEST PUSH1 0x20 DUP1 DUP4 ADD MLOAD ADD MLOAD ISZERO DUP1 PUSH2 0x282E JUMPI POP PUSH2 0x282E DUP8 PUSH2 0x1FDD JUMP JUMPDEST ISZERO PUSH2 0x2857 JUMPI PUSH8 0xFFFFFFFFFFFFFFFF TIMESTAMP DUP2 AND PUSH1 0x80 DUP4 ADD MSTORE NUMBER AND PUSH1 0xA0 DUP3 ADD MSTORE PUSH1 0x40 DUP3 ADD DUP2 SWAP1 MSTORE PUSH2 0x2ABF JUMP JUMPDEST PUSH1 0x0 DUP2 PUSH1 0xA0 ADD MLOAD PUSH8 0xFFFFFFFFFFFFFFFF AND NUMBER PUSH2 0x2873 SWAP2 SWAP1 PUSH2 0x46BC JUMP JUMPDEST DUP4 MLOAD MLOAD PUSH1 0x20 DUP6 ADD MLOAD MLOAD SWAP2 SWAP3 POP PUSH1 0x0 SWAP2 PUSH2 0x2895 SWAP1 PUSH8 0xDE0B6B3A7640000 SWAP1 PUSH2 0x4542 JUMP JUMPDEST PUSH2 0x289F SWAP2 SWAP1 PUSH2 0x4559 JUMP JUMPDEST SWAP1 POP PUSH1 0x0 PUSH2 0x28AD DUP5 DUP4 PUSH2 0x380F JUMP JUMPDEST PUSH8 0xFFFFFFFFFFFFFFFF DUP8 DUP2 AND PUSH1 0x60 DUP8 ADD MSTORE TIMESTAMP DUP2 AND PUSH1 0x80 DUP8 ADD MSTORE NUMBER DUP2 AND PUSH1 0xA0 DUP8 ADD MSTORE PUSH1 0x40 DUP1 MLOAD DUP7 DUP2 MSTORE SWAP2 DUP4 AND PUSH1 0x20 DUP4 ADD MSTORE SWAP2 SWAP3 POP PUSH32 0xCFF294BC3695620876CE22EC38B97AAA07675B271C26A784EBEBA510E59B1F65 SWAP2 ADD PUSH1 0x40 MLOAD DUP1 SWAP2 SUB SWAP1 LOG1 PUSH2 0x2920 PUSH3 0x201480 PUSH8 0xDE0B6B3A7640000 PUSH2 0x4542 JUMP JUMPDEST DUP5 PUSH1 0x60 ADD MLOAD PUSH8 0xFFFFFFFFFFFFFFFF AND DUP7 PUSH1 0x20 ADD MLOAD PUSH1 0x0 ADD MLOAD DUP6 PUSH2 0x2943 SWAP2 SWAP1 PUSH2 0x4542 JUMP JUMPDEST PUSH2 0x294D SWAP2 SWAP1 PUSH2 0x4542 JUMP JUMPDEST PUSH2 0x2957 SWAP2 SWAP1 PUSH2 0x4559 JUMP JUMPDEST SWAP9 POP DUP9 PUSH1 0x1 PUSH1 0x1 PUSH1 0x80 SHL SUB AND DUP6 PUSH1 0x20 ADD MLOAD PUSH1 0x0 ADD DUP2 DUP2 MLOAD PUSH2 0x2978 SWAP2 SWAP1 PUSH2 0x4591 JUMP JUMPDEST SWAP1 MSTORE POP DUP5 MLOAD DUP1 MLOAD PUSH1 0x1 PUSH1 0x1 PUSH1 0x80 SHL SUB DUP12 AND SWAP2 SWAP1 PUSH2 0x2996 SWAP1 DUP4 SWAP1 PUSH2 0x4591 JUMP JUMPDEST SWAP1 MSTORE POP PUSH1 0x40 DUP6 ADD DUP5 SWAP1 MSTORE PUSH1 0x20 DUP5 ADD MLOAD PUSH8 0xFFFFFFFFFFFFFFFF AND ISZERO PUSH2 0x2A64 JUMPI PUSH3 0x186A0 DUP5 PUSH1 0x20 ADD MLOAD PUSH8 0xFFFFFFFFFFFFFFFF AND DUP11 PUSH2 0x29D2 SWAP2 SWAP1 PUSH2 0x4542 JUMP JUMPDEST PUSH2 0x29DC SWAP2 SWAP1 PUSH2 0x4559 JUMP JUMPDEST DUP6 MLOAD MLOAD SWAP1 SWAP9 POP PUSH2 0x29ED SWAP1 DUP10 SWAP1 PUSH2 0x46BC JUMP JUMPDEST DUP6 MLOAD PUSH1 0x20 ADD MLOAD PUSH2 0x29FD SWAP1 DUP11 PUSH2 0x4542 JUMP JUMPDEST PUSH2 0x2A07 SWAP2 SWAP1 PUSH2 0x4559 JUMP JUMPDEST SWAP7 POP DUP7 PUSH1 0x1 PUSH1 0x1 PUSH1 0x80 SHL SUB AND DUP6 PUSH1 0x0 ADD MLOAD PUSH1 0x20 ADD DUP2 DUP2 MLOAD PUSH2 0x2A28 SWAP2 SWAP1 PUSH2 0x4591 JUMP JUMPDEST SWAP1 MSTORE POP ADDRESS PUSH1 0x0 SWAP1 DUP2 MSTORE PUSH1 0x7 PUSH1 0x20 SWAP1 DUP2 MSTORE PUSH1 0x40 DUP1 DUP4 KECCAK256 PUSH1 0x1 PUSH1 0x1 PUSH1 0xA0 SHL SUB DUP15 AND DUP5 MSTORE SWAP1 SWAP2 MSTORE DUP2 KECCAK256 DUP1 SLOAD DUP10 SWAP3 SWAP1 PUSH2 0x2A5E SWAP1 DUP5 SWAP1 PUSH2 0x4591 JUMP JUMPDEST SWAP1 SWAP2 SSTORE POP POP JUMPDEST PUSH1 0x60 DUP1 DUP6 ADD MLOAD PUSH1 0x40 DUP1 MLOAD PUSH8 0xFFFFFFFFFFFFFFFF SWAP1 SWAP3 AND DUP3 MSTORE PUSH1 0x20 DUP3 ADD DUP13 SWAP1 MSTORE DUP2 ADD DUP11 SWAP1 MSTORE SWAP1 DUP2 ADD DUP9 SWAP1 MSTORE PUSH32 0xF4FC4A63006144011C7214B4099772DE96603A49B426F18267C33B3C1EC35BED SWAP1 PUSH1 0x80 ADD PUSH1 0x40 MLOAD DUP1 SWAP2 SUB SWAP1 LOG1 POP POP POP JUMPDEST POP PUSH1 0x1 PUSH1 0x1 PUSH1 0xA0 SHL SUB SWAP6 SWAP1 SWAP6 AND PUSH1 0x0 SWAP1 DUP2 MSTORE PUSH1 0x6 PUSH1 0x20 DUP2 DUP2 MSTORE PUSH1 0x40 SWAP3 DUP4 SWAP1 KECCAK256 DUP9 MLOAD DUP1 MLOAD DUP3 SSTORE DUP3 ADD MLOAD PUSH1 0x1 DUP3 ADD SSTORE DUP9 DUP3 ADD MLOAD DUP1 MLOAD PUSH1 0x2 DUP4 ADD SSTORE DUP3 ADD MLOAD PUSH1 0x3 DUP3 ADD SSTORE SWAP8 DUP4 ADD MLOAD DUP1 MLOAD PUSH1 0x4 DUP11 ADD SSTORE SWAP1 DUP2 ADD MLOAD PUSH1 0x5 DUP10 ADD DUP1 SLOAD SWAP5 DUP4 ADD MLOAD PUSH1 0x60 DUP5 ADD MLOAD PUSH1 0x80 DUP6 ADD MLOAD PUSH8 0xFFFFFFFFFFFFFFFF SWAP5 DUP6 AND PUSH16 0xFFFFFFFFFFFFFFFFFFFFFFFFFFFFFFFF NOT SWAP9 DUP10 AND OR PUSH9 0x10000000000000000 SWAP4 DUP7 AND DUP5 MUL OR PUSH1 0x1 PUSH1 0x1 PUSH1 0x80 SHL SUB SWAP1 DUP2 AND PUSH1 0x1 PUSH1 0x80 SHL SWAP4 DUP8 AND DUP5 MUL PUSH24 0xFFFFFFFFFFFFFFFFFFFFFFFFFFFFFFFFFFFFFFFFFFFFFFFF SWAP1 DUP2 AND SWAP2 SWAP1 SWAP2 OR PUSH1 0x1 PUSH1 0xC0 SHL SWAP4 DUP9 AND DUP5 MUL OR SWAP1 SWAP6 SSTORE PUSH1 0xA0 DUP8 ADD MLOAD SWAP8 DUP15 ADD DUP1 SLOAD PUSH1 0xC0 DUP10 ADD MLOAD PUSH1 0xE0 DUP11 ADD MLOAD PUSH2 0x100 DUP12 ADD MLOAD SWAP12 DUP11 AND SWAP3 SWAP1 SWAP13 AND SWAP2 SWAP1 SWAP2 OR SWAP1 DUP9 AND SWAP1 SWAP6 MUL SWAP5 SWAP1 SWAP5 OR AND SWAP8 DUP6 AND SWAP1 SWAP2 MUL SWAP1 SWAP3 AND SWAP6 SWAP1 SWAP6 OR SWAP4 SWAP1 SWAP2 AND MUL SWAP2 SWAP1 SWAP2 OR SWAP1 SWAP2 SSTORE PUSH2 0x120 ADD MLOAD PUSH1 0x7 SWAP1 SWAP6 ADD SWAP5 SWAP1 SWAP5 SSTORE SWAP2 SWAP4 SWAP1 SWAP3 SWAP1 JUMP JUMPDEST DUP3 MLOAD PUSH1 0x0 SWAP1 DUP2 SUB PUSH2 0x2C07 JUMPI POP DUP2 PUSH2 0x8FA JUMP JUMPDEST DUP4 MLOAD PUSH1 0x20 DUP6 ADD MLOAD PUSH2 0x2C18 SWAP1 DUP6 PUSH2 0x4542 JUMP JUMPDEST PUSH2 0x2C22 SWAP2 SWAP1 PUSH2 0x4559 JUMP JUMPDEST SWAP1 POP DUP2 DUP1 ISZERO PUSH2 0x2C4C JUMPI POP PUSH1 0x20 DUP5 ADD MLOAD DUP5 MLOAD DUP5 SWAP2 SWAP1 PUSH2 0x2C40 SWAP1 DUP5 PUSH2 0x4542 JUMP JUMPDEST PUSH2 0x2C4A SWAP2 SWAP1 PUSH2 0x4559 JUMP JUMPDEST LT JUMPDEST ISZERO PUSH2 0x8FA JUMPI PUSH2 0x8F7 DUP2 PUSH1 0x1 PUSH2 0x4591 JUMP JUMPDEST PUSH1 0x0 SLOAD PUSH1 0x1 PUSH1 0x1 PUSH1 0xA0 SHL SUB AND CALLER EQ PUSH2 0x1301 JUMPI PUSH1 0x40 MLOAD PUSH3 0x461BCD PUSH1 0xE5 SHL DUP2 MSTORE PUSH1 0x20 PUSH1 0x4 DUP3 ADD DUP2 SWAP1 MSTORE PUSH1 0x24 DUP3 ADD MSTORE PUSH32 0x4F776E61626C653A2063616C6C6572206973206E6F7420746865206F776E6572 PUSH1 0x44 DUP3 ADD MSTORE PUSH1 0x64 ADD PUSH2 0xE63 JUMP JUMPDEST DUP1 ISZERO PUSH2 0x2CCC JUMPI PUSH2 0x2CC7 DUP6 DUP6 DUP6 PUSH2 0x38EC JUMP JUMPDEST PUSH2 0x2CD5 JUMP JUMPDEST PUSH2 0x2CD5 DUP6 PUSH2 0x3B2C JUMP JUMPDEST PUSH1 0x0 DUP4 PUSH1 0x1 DUP2 GT ISZERO PUSH2 0x2CE9 JUMPI PUSH2 0x2CE9 PUSH2 0x46CF JUMP JUMPDEST SUB PUSH2 0x916 JUMPI PUSH3 0x186A0 DUP3 PUSH1 0x0 ADD MLOAD PUSH8 0xFFFFFFFFFFFFFFFF AND GT ISZERO PUSH2 0x2D48 JUMPI DUP2 MLOAD PUSH1 0x40 MLOAD PUSH32 0x5F7918ED00000000000000000000000000000000000000000000000000000000 DUP2 MSTORE PUSH8 0xFFFFFFFFFFFFFFFF SWAP1 SWAP2 AND PUSH1 0x4 DUP3 ADD MSTORE PUSH1 0x24 ADD PUSH2 0xE63 JUMP JUMPDEST PUSH2 0x1388 DUP3 PUSH1 0x20 ADD MLOAD PUSH8 0xFFFFFFFFFFFFFFFF AND GT ISZERO PUSH2 0x2D8B JUMPI PUSH1 0x20 DUP3 ADD MLOAD PUSH1 0x40 MLOAD PUSH4 0x36E6824B PUSH1 0xE2 SHL DUP2 MSTORE PUSH8 0xFFFFFFFFFFFFFFFF SWAP1 SWAP2 AND PUSH1 0x4 DUP3 ADD MSTORE PUSH1 0x24 ADD PUSH2 0xE63 JUMP JUMPDEST PUSH2 0x1388 DUP3 PUSH1 0x40 ADD MLOAD PUSH8 0xFFFFFFFFFFFFFFFF AND GT ISZERO PUSH2 0x2DCE JUMPI PUSH1 0x40 DUP1 DUP4 ADD MLOAD SWAP1 MLOAD PUSH4 0x36E6824B PUSH1 0xE2 SHL DUP2 MSTORE PUSH8 0xFFFFFFFFFFFFFFFF SWAP1 SWAP2 AND PUSH1 0x4 DUP3 ADD MSTORE PUSH1 0x24 ADD PUSH2 0xE63 JUMP JUMPDEST PUSH1 0x1 PUSH1 0x1 PUSH1 0xA0 SHL SUB DUP6 AND PUSH1 0x0 SWAP1 DUP2 MSTORE PUSH1 0x6 PUSH1 0x20 DUP2 DUP2 MSTORE PUSH1 0x40 SWAP3 DUP4 SWAP1 KECCAK256 DUP6 MLOAD PUSH8 0xFFFFFFFFFFFFFFFF SWAP1 DUP2 AND PUSH1 0x4 DUP4 ADD SWAP1 DUP2 SSTORE SWAP3 DUP8 ADD MLOAD PUSH1 0x5 DUP4 ADD DUP1 SLOAD DUP10 DUP9 ADD MLOAD DUP5 AND PUSH9 0x10000000000000000 SWAP1 DUP2 MUL PUSH16 0xFFFFFFFFFFFFFFFFFFFFFFFFFFFFFFFF NOT SWAP1 SWAP3 AND SWAP4 DUP6 AND SWAP4 SWAP1 SWAP4 OR OR SWAP1 SSTORE PUSH1 0x60 DUP9 ADD MLOAD SWAP5 DUP4 ADD DUP1 SLOAD PUSH1 0x80 DUP11 ADD MLOAD PUSH1 0xA0 DUP12 ADD MLOAD DUP6 AND PUSH1 0x1 PUSH1 0xC0 SHL MUL PUSH24 0xFFFFFFFFFFFFFFFFFFFFFFFFFFFFFFFFFFFFFFFFFFFFFFFF SWAP2 DUP7 AND PUSH1 0x1 PUSH1 0x80 SHL MUL PUSH32 0xFFFFFFFFFFFFFFFF0000000000000000FFFFFFFFFFFFFFFFFFFFFFFFFFFFFFFF SWAP10 SWAP1 SWAP7 AND SWAP1 SWAP5 MUL SWAP8 SWAP1 SWAP8 AND PUSH32 0xFFFFFFFFFFFFFFFF00000000000000000000000000000000FFFFFFFFFFFFFFFF SWAP1 SWAP2 AND OR SWAP3 SWAP1 SWAP3 OR SWAP5 SWAP1 SWAP5 AND SWAP4 SWAP1 SWAP4 OR SWAP1 SWAP3 SSTORE PUSH1 0xC0 DUP6 ADD MLOAD PUSH1 0x7 SWAP1 SWAP3 ADD SWAP2 SWAP1 SWAP2 SSTORE SWAP1 MLOAD PUSH32 0x7E914AF3D8D31AC64E6DF6E8087AC12953B11A1BCEEBF2A80692AA35E6B0E6FF SWAP1 PUSH2 0x2F88 SWAP1 DUP9 SWAP1 DUP7 SWAP1 PUSH1 0x0 PUSH2 0x100 DUP3 ADD SWAP1 POP PUSH1 0x1 PUSH1 0x1 PUSH1 0xA0 SHL SUB DUP5 AND DUP3 MSTORE PUSH8 0xFFFFFFFFFFFFFFFF DUP1 DUP5 MLOAD AND PUSH1 0x20 DUP5 ADD MSTORE DUP1 PUSH1 0x20 DUP6 ADD MLOAD AND PUSH1 0x40 DUP5 ADD MSTORE DUP1 PUSH1 0x40 DUP6 ADD MLOAD AND PUSH1 0x60 DUP5 ADD MSTORE DUP1 PUSH1 0x60 DUP6 ADD MLOAD AND PUSH1 0x80 DUP5 ADD MSTORE DUP1 PUSH1 0x80 DUP6 ADD MLOAD AND PUSH1 0xA0 DUP5 ADD MSTORE DUP1 PUSH1 0xA0 DUP6 ADD MLOAD AND PUSH1 0xC0 DUP5 ADD MSTORE POP PUSH1 0xC0 DUP4 ADD MLOAD PUSH1 0xE0 DUP4 ADD MSTORE SWAP4 SWAP3 POP POP POP JUMP JUMPDEST PUSH1 0x40 MLOAD DUP1 SWAP2 SUB SWAP1 LOG1 POP POP POP POP POP POP JUMP JUMPDEST PUSH1 0x0 DUP4 PUSH1 0x20 ADD MLOAD PUSH1 0x0 SUB PUSH2 0x2FAD JUMPI POP DUP2 PUSH2 0x8FA JUMP JUMPDEST PUSH1 0x20 DUP5 ADD MLOAD DUP5 MLOAD PUSH2 0x2FBE SWAP1 DUP6 PUSH2 0x4542 JUMP JUMPDEST PUSH2 0x2FC8 SWAP2 SWAP1 PUSH2 0x4559 JUMP JUMPDEST SWAP1 POP DUP2 DUP1 ISZERO PUSH2 0x2C4C JUMPI POP DUP4 MLOAD PUSH1 0x20 DUP6 ADD MLOAD DUP5 SWAP2 SWAP1 PUSH2 0x2C40 SWAP1 DUP5 PUSH2 0x4542 JUMP JUMPDEST PUSH1 0x0 ADDRESS PUSH1 0x1 PUSH1 0x1 PUSH1 0xA0 SHL SUB DUP6 AND SUB PUSH2 0x308B JUMPI PUSH1 0x40 MLOAD PUSH32 0xA9059CBB00000000000000000000000000000000000000000000000000000000 DUP2 MSTORE PUSH1 0x1 PUSH1 0x1 PUSH1 0xA0 SHL SUB DUP5 DUP2 AND PUSH1 0x4 DUP4 ADD MSTORE PUSH1 0x24 DUP3 ADD DUP5 SWAP1 MSTORE DUP7 AND SWAP1 PUSH4 0xA9059CBB SWAP1 PUSH1 0x44 ADD PUSH1 0x20 PUSH1 0x40 MLOAD DUP1 DUP4 SUB DUP2 PUSH1 0x0 DUP8 GAS CALL ISZERO DUP1 ISZERO PUSH2 0x3060 JUMPI RETURNDATASIZE PUSH1 0x0 DUP1 RETURNDATACOPY RETURNDATASIZE PUSH1 0x0 REVERT JUMPDEST POP POP POP POP PUSH1 0x40 MLOAD RETURNDATASIZE PUSH1 0x1F NOT PUSH1 0x1F DUP3 ADD AND DUP3 ADD DUP1 PUSH1 0x40 MSTORE POP DUP2 ADD SWAP1 PUSH2 0x3084 SWAP2 SWAP1 PUSH2 0x469F JUMP JUMPDEST SWAP1 POP PUSH2 0x3122 JUMP JUMPDEST PUSH1 0x40 MLOAD PUSH32 0x23B872DD00000000000000000000000000000000000000000000000000000000 DUP2 MSTORE PUSH1 0x1 PUSH1 0x1 PUSH1 0xA0 SHL SUB DUP6 DUP2 AND PUSH1 0x4 DUP4 ADD MSTORE DUP5 DUP2 AND PUSH1 0x24 DUP4 ADD MSTORE PUSH1 0x44 DUP3 ADD DUP5 SWAP1 MSTORE DUP7 AND SWAP1 PUSH4 0x23B872DD SWAP1 PUSH1 0x64 ADD PUSH1 0x20 PUSH1 0x40 MLOAD DUP1 DUP4 SUB DUP2 PUSH1 0x0 DUP8 GAS CALL ISZERO DUP1 ISZERO PUSH2 0x30FB JUMPI RETURNDATASIZE PUSH1 0x0 DUP1 RETURNDATACOPY RETURNDATASIZE PUSH1 0x0 REVERT JUMPDEST POP POP POP POP PUSH1 0x40 MLOAD RETURNDATASIZE PUSH1 0x1F NOT PUSH1 0x1F DUP3 ADD AND DUP3 ADD DUP1 PUSH1 0x40 MSTORE POP DUP2 ADD SWAP1 PUSH2 0x311F SWAP2 SWAP1 PUSH2 0x469F JUMP JUMPDEST SWAP1 POP JUMPDEST DUP1 PUSH2 0x916 JUMPI PUSH1 0x40 MLOAD PUSH32 0x90B8EC1800000000000000000000000000000000000000000000000000000000 DUP2 MSTORE PUSH1 0x4 ADD PUSH1 0x40 MLOAD DUP1 SWAP2 SUB SWAP1 REVERT JUMPDEST PUSH1 0x0 DUP2 PUSH1 0x1 PUSH1 0x1 PUSH1 0xA0 SHL SUB AND PUSH4 0x313CE567 PUSH1 0x40 MLOAD DUP2 PUSH4 0xFFFFFFFF AND PUSH1 0xE0 SHL DUP2 MSTORE PUSH1 0x4 ADD PUSH1 0x20 PUSH1 0x40 MLOAD DUP1 DUP4 SUB DUP2 DUP7 GAS STATICCALL ISZERO DUP1 ISZERO PUSH2 0x3199 JUMPI RETURNDATASIZE PUSH1 0x0 DUP1 RETURNDATACOPY RETURNDATASIZE PUSH1 0x0 REVERT JUMPDEST POP POP POP POP PUSH1 0x40 MLOAD RETURNDATASIZE PUSH1 0x1F NOT PUSH1 0x1F DUP3 ADD AND DUP3 ADD DUP1 PUSH1 0x40 MSTORE POP DUP2 ADD SWAP1 PUSH2 0xDBD SWAP2 SWAP1 PUSH2 0x46E5 JUMP JUMPDEST PUSH2 0x31C6 DUP5 PUSH2 0x26D4 JUMP JUMPDEST POP POP CALLER PUSH1 0x0 SWAP1 DUP2 MSTORE PUSH1 0x7 PUSH1 0x20 SWAP1 DUP2 MSTORE PUSH1 0x40 DUP1 DUP4 KECCAK256 PUSH1 0x1 PUSH1 0x1 PUSH1 0xA0 SHL SUB DUP11 AND DUP5 MSTORE SWAP1 SWAP2 MSTORE DUP2 KECCAK256 SLOAD SWAP3 POP SWAP1 POP DUP3 ISZERO PUSH2 0x3262 JUMPI POP PUSH1 0x1 PUSH1 0x1 PUSH1 0xA0 SHL SUB DUP6 AND PUSH1 0x0 SWAP1 DUP2 MSTORE PUSH1 0x6 PUSH1 0x20 SWAP1 DUP2 MSTORE PUSH1 0x40 DUP1 DUP4 KECCAK256 DUP2 MLOAD DUP1 DUP4 ADD SWAP1 SWAP3 MSTORE DUP1 SLOAD DUP3 MSTORE PUSH1 0x1 ADD SLOAD SWAP2 DUP2 ADD SWAP2 SWAP1 SWAP2 MSTORE DUP6 SWAP2 PUSH2 0x3237 SWAP2 SWAP1 DUP4 SWAP1 PUSH2 0x2F98 JUMP JUMPDEST SWAP5 POP DUP4 DUP6 LT ISZERO PUSH2 0x325D JUMPI PUSH1 0x40 MLOAD PUSH4 0x28AC9B3F PUSH1 0xE1 SHL DUP2 MSTORE PUSH1 0x4 DUP2 ADD DUP7 SWAP1 MSTORE PUSH1 0x24 ADD PUSH2 0xE63 JUMP JUMPDEST PUSH2 0x32C5 JUMP JUMPDEST PUSH1 0x1 PUSH1 0x1 PUSH1 0xA0 SHL SUB DUP7 AND PUSH1 0x0 SWAP1 DUP2 MSTORE PUSH1 0x6 PUSH1 0x20 SWAP1 DUP2 MSTORE PUSH1 0x40 DUP1 DUP4 KECCAK256 DUP2 MLOAD DUP1 DUP4 ADD SWAP1 SWAP3 MSTORE DUP1 SLOAD DUP3 MSTORE PUSH1 0x1 ADD SLOAD SWAP2 DUP2 ADD SWAP2 SWAP1 SWAP2 MSTORE PUSH2 0x329F SWAP2 DUP8 SWAP1 PUSH2 0x2BF5 JUMP JUMPDEST SWAP1 POP DUP4 DUP2 GT ISZERO PUSH2 0x32C5 JUMPI PUSH1 0x40 MLOAD PUSH4 0x28AC9B3F PUSH1 0xE1 SHL DUP2 MSTORE PUSH1 0x4 DUP2 ADD DUP3 SWAP1 MSTORE PUSH1 0x24 ADD PUSH2 0xE63 JUMP JUMPDEST DUP1 DUP3 LT DUP1 PUSH2 0x333A JUMPI POP PUSH1 0x40 MLOAD PUSH4 0x70A08231 PUSH1 0xE0 SHL DUP2 MSTORE ADDRESS PUSH1 0x4 DUP3 ADD MSTORE DUP6 SWAP1 PUSH1 0x1 PUSH1 0x1 PUSH1 0xA0 SHL SUB DUP9 AND SWAP1 PUSH4 0x70A08231 SWAP1 PUSH1 0x24 ADD PUSH1 0x20 PUSH1 0x40 MLOAD DUP1 DUP4 SUB DUP2 DUP7 GAS STATICCALL ISZERO DUP1 ISZERO PUSH2 0x3314 JUMPI RETURNDATASIZE PUSH1 0x0 DUP1 RETURNDATACOPY RETURNDATASIZE PUSH1 0x0 REVERT JUMPDEST POP POP POP POP PUSH1 0x40 MLOAD RETURNDATASIZE PUSH1 0x1F NOT PUSH1 0x1F DUP3 ADD AND DUP3 ADD DUP1 PUSH1 0x40 MSTORE POP DUP2 ADD SWAP1 PUSH2 0x3338 SWAP2 SWAP1 PUSH2 0x4708 JUMP JUMPDEST LT JUMPDEST ISZERO PUSH2 0x3358 JUMPI PUSH1 0x40 MLOAD PUSH4 0x1E9ACF17 PUSH1 0xE3 SHL DUP2 MSTORE PUSH1 0x4 ADD PUSH1 0x40 MLOAD DUP1 SWAP2 SUB SWAP1 REVERT JUMPDEST PUSH1 0x1 PUSH1 0x1 PUSH1 0xA0 SHL SUB DUP7 AND PUSH1 0x0 DUP2 DUP2 MSTORE PUSH1 0x6 PUSH1 0x20 SWAP1 DUP2 MSTORE PUSH1 0x40 DUP1 DUP4 KECCAK256 PUSH1 0x1 DUP2 ADD DUP1 SLOAD PUSH1 0x1 PUSH1 0x1 PUSH1 0x80 SHL SUB DUP1 DUP10 AND SWAP1 SWAP2 SUB SWAP1 SWAP2 SSTORE DUP2 SLOAD SWAP1 DUP12 AND SWAP1 SUB SWAP1 SSTORE CALLER DUP1 DUP5 MSTORE PUSH1 0x7 DUP4 MSTORE DUP2 DUP5 KECCAK256 DUP6 DUP6 MSTORE SWAP1 SWAP3 MSTORE SWAP1 SWAP2 KECCAK256 DUP1 SLOAD DUP5 SWAP1 SUB SWAP1 SSTORE PUSH2 0x33BB SWAP2 SWAP1 ADDRESS SWAP1 DUP9 PUSH2 0x2FE6 JUMP JUMPDEST PUSH8 0xDE0B6B3A7640000 PUSH2 0x33CD CALLER PUSH2 0x1269 JUMP JUMPDEST LT ISZERO PUSH2 0x33EC JUMPI PUSH1 0x40 MLOAD PUSH4 0x74FA216B PUSH1 0xE0 SHL DUP2 MSTORE PUSH1 0x4 ADD PUSH1 0x40 MLOAD DUP1 SWAP2 SUB SWAP1 REVERT JUMPDEST PUSH1 0x40 DUP1 MLOAD CALLER DUP2 MSTORE PUSH1 0x1 PUSH1 0x1 PUSH1 0xA0 SHL SUB DUP9 AND PUSH1 0x20 DUP3 ADD MSTORE SWAP1 DUP2 ADD DUP7 SWAP1 MSTORE PUSH1 0x60 DUP2 ADD DUP3 SWAP1 MSTORE PUSH32 0xF341246ADAAC6F497BC2A656F546AB9E182111D630394F0C57C710A59A2CB567 SWAP1 PUSH1 0x80 ADD PUSH2 0x2F88 JUMP JUMPDEST PUSH1 0x60 PUSH1 0x0 PUSH2 0x8FA DUP4 PUSH2 0x3B96 JUMP JUMPDEST PUSH2 0x344F DUP2 PUSH2 0x1FDD JUMP JUMPDEST ISZERO PUSH2 0x25EF JUMPI PUSH1 0x40 MLOAD PUSH32 0xB187BD2600000000000000000000000000000000000000000000000000000000 DUP2 MSTORE PUSH1 0x4 ADD PUSH1 0x40 MLOAD DUP1 SWAP2 SUB SWAP1 REVERT JUMPDEST PUSH1 0x1 PUSH1 0x1 PUSH1 0xA0 SHL SUB DUP3 AND PUSH1 0x0 SWAP1 DUP2 MSTORE PUSH1 0x6 PUSH1 0x20 MSTORE PUSH1 0x40 DUP2 KECCAK256 PUSH1 0x4 DUP2 ADD SLOAD SWAP1 SLOAD DUP3 SWAP2 PUSH3 0x186A0 SWAP2 PUSH2 0x34B6 SWAP2 SWAP1 PUSH2 0x4542 JUMP JUMPDEST PUSH2 0x34C0 SWAP2 SWAP1 PUSH2 0x4559 JUMP JUMPDEST PUSH1 0x1 PUSH1 0x1 PUSH1 0xA0 SHL SUB DUP6 AND PUSH1 0x0 SWAP1 DUP2 MSTORE PUSH1 0x6 PUSH1 0x20 MSTORE PUSH1 0x40 SWAP1 KECCAK256 SLOAD SWAP1 SWAP2 POP ISZERO DUP1 ISZERO SWAP1 PUSH2 0x355A JUMPI POP PUSH2 0x34EF DUP4 DUP3 PUSH2 0x4591 JUMP JUMPDEST PUSH1 0x40 MLOAD PUSH4 0x70A08231 PUSH1 0xE0 SHL DUP2 MSTORE ADDRESS PUSH1 0x4 DUP3 ADD MSTORE PUSH1 0x1 PUSH1 0x1 PUSH1 0xA0 SHL SUB DUP7 AND SWAP1 PUSH4 0x70A08231 SWAP1 PUSH1 0x24 ADD PUSH1 0x20 PUSH1 0x40 MLOAD DUP1 DUP4 SUB DUP2 DUP7 GAS STATICCALL ISZERO DUP1 ISZERO PUSH2 0x3533 JUMPI RETURNDATASIZE PUSH1 0x0 DUP1 RETURNDATACOPY RETURNDATASIZE PUSH1 0x0 REVERT JUMPDEST POP POP POP POP PUSH1 0x40 MLOAD RETURNDATASIZE PUSH1 0x1F NOT PUSH1 0x1F DUP3 ADD AND DUP3 ADD DUP1 PUSH1 0x40 MSTORE POP DUP2 ADD SWAP1 PUSH2 0x3557 SWAP2 SWAP1 PUSH2 0x4708 JUMP JUMPDEST LT ISZERO JUMPDEST SWAP5 SWAP4 POP POP POP POP JUMP JUMPDEST PUSH1 0x0 DUP1 SLOAD PUSH1 0x1 PUSH1 0x1 PUSH1 0xA0 SHL SUB DUP4 DUP2 AND PUSH1 0x1 PUSH1 0x1 PUSH1 0xA0 SHL SUB NOT DUP4 AND DUP2 OR DUP5 SSTORE PUSH1 0x40 MLOAD SWAP2 SWAP1 SWAP3 AND SWAP3 DUP4 SWAP2 PUSH32 0x8BE0079C531659141344CD1FD0A4F28419497F9722A3DAAFE3B4186F6B6457E0 SWAP2 SWAP1 LOG3 POP POP JUMP JUMPDEST PUSH1 0x1 PUSH1 0x1 PUSH1 0xA0 SHL SUB DUP2 AND PUSH1 0x0 SWAP1 DUP2 MSTORE PUSH1 0x4 PUSH1 0x20 MSTORE PUSH1 0x40 SWAP1 KECCAK256 SLOAD PUSH1 0x1 PUSH1 0xA8 SHL SWAP1 DIV PUSH1 0xFF AND PUSH2 0x25EF JUMPI PUSH1 0x40 MLOAD PUSH32 0x3DD1B30500000000000000000000000000000000000000000000000000000000 DUP2 MSTORE PUSH1 0x4 ADD PUSH1 0x40 MLOAD DUP1 SWAP2 SUB SWAP1 REVERT JUMPDEST PUSH2 0x3616 DUP5 DUP4 DUP4 PUSH2 0x25F2 JUMP JUMPDEST PUSH2 0x3633 JUMPI PUSH1 0x40 MLOAD PUSH4 0x79F151F PUSH1 0xE1 SHL DUP2 MSTORE PUSH1 0x4 ADD PUSH1 0x40 MLOAD DUP1 SWAP2 SUB SWAP1 REVERT JUMPDEST PUSH1 0x1 PUSH1 0x1 PUSH1 0xA0 SHL SUB DUP1 DUP6 AND PUSH1 0x0 SWAP1 DUP2 MSTORE PUSH1 0x5 PUSH1 0x20 SWAP1 DUP2 MSTORE PUSH1 0x40 DUP1 DUP4 KECCAK256 SWAP4 DUP7 AND DUP4 MSTORE SWAP3 SWAP1 MSTORE KECCAK256 PUSH2 0x3662 SWAP1 DUP3 PUSH2 0x3BF2 JUMP JUMPDEST POP PUSH1 0x40 MLOAD PUSH32 0x42842E0E00000000000000000000000000000000000000000000000000000000 DUP2 MSTORE ADDRESS PUSH1 0x4 DUP3 ADD MSTORE PUSH1 0x1 PUSH1 0x1 PUSH1 0xA0 SHL SUB DUP5 DUP2 AND PUSH1 0x24 DUP4 ADD MSTORE PUSH1 0x44 DUP3 ADD DUP4 SWAP1 MSTORE DUP4 AND SWAP1 PUSH4 0x42842E0E SWAP1 PUSH1 0x64 ADD PUSH1 0x0 PUSH1 0x40 MLOAD DUP1 DUP4 SUB DUP2 PUSH1 0x0 DUP8 DUP1 EXTCODESIZE ISZERO DUP1 ISZERO PUSH2 0x36CC JUMPI PUSH1 0x0 DUP1 REVERT JUMPDEST POP GAS CALL ISZERO DUP1 ISZERO PUSH2 0x36E0 JUMPI RETURNDATASIZE PUSH1 0x0 DUP1 RETURNDATACOPY RETURNDATASIZE PUSH1 0x0 REVERT JUMPDEST POP POP POP POP POP POP POP POP JUMP JUMPDEST PUSH1 0x0 PUSH2 0xDBD DUP3 SLOAD SWAP1 JUMP JUMPDEST PUSH1 0x0 DUP1 PUSH1 0x0 DUP1 PUSH1 0x0 DUP6 PUSH1 0x1 PUSH1 0x1 PUSH1 0xA0 SHL SUB AND PUSH4 0xFEAF968C PUSH1 0x40 MLOAD DUP2 PUSH4 0xFFFFFFFF AND PUSH1 0xE0 SHL DUP2 MSTORE PUSH1 0x4 ADD PUSH1 0xA0 PUSH1 0x40 MLOAD DUP1 DUP4 SUB DUP2 DUP7 GAS STATICCALL ISZERO DUP1 ISZERO PUSH2 0x373A JUMPI RETURNDATASIZE PUSH1 0x0 DUP1 RETURNDATACOPY RETURNDATASIZE PUSH1 0x0 REVERT JUMPDEST POP POP POP POP PUSH1 0x40 MLOAD RETURNDATASIZE PUSH1 0x1F NOT PUSH1 0x1F DUP3 ADD AND DUP3 ADD DUP1 PUSH1 0x40 MSTORE POP DUP2 ADD SWAP1 PUSH2 0x375E SWAP2 SWAP1 PUSH2 0x473B JUMP JUMPDEST SWAP5 POP SWAP5 POP POP SWAP4 POP SWAP4 POP PUSH1 0x0 DUP4 SGT ISZERO DUP1 PUSH2 0x3775 JUMPI POP DUP2 ISZERO JUMPDEST DUP1 PUSH2 0x3797 JUMPI POP DUP4 PUSH10 0xFFFFFFFFFFFFFFFFFFFF AND DUP2 PUSH10 0xFFFFFFFFFFFFFFFFFFFF AND LT JUMPDEST DUP1 PUSH2 0x37AC JUMPI POP PUSH2 0x1C20 PUSH2 0x37AA DUP4 TIMESTAMP PUSH2 0x46BC JUMP JUMPDEST GT JUMPDEST ISZERO PUSH2 0x37E2 JUMPI PUSH1 0x40 MLOAD PUSH31 0xBFC92100000000000000000000000000000000000000000000000000000000 DUP2 MSTORE PUSH1 0x4 ADD PUSH1 0x40 MLOAD DUP1 SWAP2 SUB SWAP1 REVERT JUMPDEST PUSH2 0x37ED PUSH1 0xA DUP1 PUSH2 0x477F JUMP JUMPDEST PUSH2 0xBEB SWAP1 DUP5 PUSH2 0x4542 JUMP JUMPDEST PUSH1 0x0 DUP2 DUP2 MSTORE PUSH1 0x1 DUP4 ADD PUSH1 0x20 MSTORE PUSH1 0x40 DUP2 KECCAK256 SLOAD ISZERO ISZERO PUSH2 0xDBA JUMP JUMPDEST PUSH2 0x120 DUP3 ADD MLOAD PUSH1 0xC0 DUP4 ADD MLOAD PUSH1 0xE0 DUP5 ADD MLOAD PUSH2 0x100 DUP6 ADD MLOAD PUSH1 0x0 SWAP4 SWAP3 PUSH8 0xFFFFFFFFFFFFFFFF SWAP1 DUP2 AND SWAP3 DUP2 AND SWAP2 AND DUP4 DUP7 GT PUSH2 0x386C JUMPI PUSH1 0x0 DUP5 PUSH2 0x384E DUP5 DUP10 PUSH2 0x4542 JUMP JUMPDEST PUSH2 0x3858 SWAP2 SWAP1 PUSH2 0x4559 JUMP JUMPDEST SWAP1 POP PUSH2 0x3864 DUP2 DUP6 PUSH2 0x4591 JUMP JUMPDEST SWAP6 POP POP PUSH2 0x38E2 JUMP JUMPDEST PUSH1 0x0 PUSH2 0x3878 DUP6 DUP9 PUSH2 0x46BC JUMP JUMPDEST SWAP1 POP PUSH1 0x0 PUSH2 0x388E DUP7 PUSH8 0xDE0B6B3A7640000 PUSH2 0x46BC JUMP JUMPDEST PUSH2 0x38A0 PUSH8 0xDE0B6B3A7640000 DUP5 PUSH2 0x4542 JUMP JUMPDEST PUSH2 0x38AA SWAP2 SWAP1 PUSH2 0x4559 JUMP JUMPDEST SWAP1 POP PUSH8 0xDE0B6B3A7640000 PUSH2 0x38BF DUP5 DUP4 PUSH2 0x4542 JUMP JUMPDEST PUSH2 0x38C9 SWAP2 SWAP1 PUSH2 0x4559 JUMP JUMPDEST PUSH2 0x38D3 DUP6 DUP8 PUSH2 0x4591 JUMP JUMPDEST PUSH2 0x38DD SWAP2 SWAP1 PUSH2 0x4591 JUMP JUMPDEST SWAP7 POP POP POP JUMPDEST POP POP POP POP SWAP3 SWAP2 POP POP JUMP JUMPDEST PUSH1 0x1 PUSH1 0x1 PUSH1 0xA0 SHL SUB DUP4 AND PUSH1 0x0 SWAP1 DUP2 MSTORE PUSH1 0x4 PUSH1 0x20 MSTORE PUSH1 0x40 SWAP1 KECCAK256 SLOAD PUSH1 0x1 PUSH1 0xA8 SHL SWAP1 DIV PUSH1 0xFF AND ISZERO PUSH2 0x3946 JUMPI PUSH1 0x40 MLOAD PUSH32 0x3706BA4900000000000000000000000000000000000000000000000000000000 DUP2 MSTORE PUSH1 0x4 ADD PUSH1 0x40 MLOAD DUP1 SWAP2 SUB SWAP1 REVERT JUMPDEST PUSH1 0x1 DUP2 PUSH1 0x1 DUP2 GT ISZERO PUSH2 0x395A JUMPI PUSH2 0x395A PUSH2 0x46CF JUMP JUMPDEST GT ISZERO PUSH2 0x3994 JUMPI DUP1 PUSH1 0x40 MLOAD PUSH32 0x4E00ADE000000000000000000000000000000000000000000000000000000000 DUP2 MSTORE PUSH1 0x4 ADD PUSH2 0xE63 SWAP2 SWAP1 PUSH2 0x47AD JUMP JUMPDEST PUSH1 0x1 PUSH1 0x1 PUSH1 0xA0 SHL SUB DUP1 DUP5 AND PUSH1 0x0 SWAP1 DUP2 MSTORE PUSH1 0x4 PUSH1 0x20 MSTORE PUSH1 0x40 SWAP1 KECCAK256 DUP1 SLOAD SWAP2 DUP5 AND PUSH1 0x1 PUSH1 0x1 PUSH1 0xA0 SHL SUB NOT DUP4 AND DUP2 OR DUP3 SSTORE DUP4 SWAP3 PUSH32 0xFFFFFFFFFFFFFFFFFFFFFF000000000000000000000000000000000000000000 AND OR PUSH1 0x1 PUSH1 0xA0 SHL DUP4 PUSH1 0x1 DUP2 GT ISZERO PUSH2 0x39FD JUMPI PUSH2 0x39FD PUSH2 0x46CF JUMP JUMPDEST MUL OR SWAP1 SSTORE POP PUSH1 0x1 PUSH1 0x1 PUSH1 0xA0 SHL SUB DUP4 AND PUSH1 0x0 SWAP1 DUP2 MSTORE PUSH1 0x4 PUSH1 0x20 MSTORE PUSH1 0x40 SWAP1 KECCAK256 DUP1 SLOAD PUSH32 0xFFFFFFFFFFFFFFFFFFFF00FFFFFFFFFFFFFFFFFFFFFFFFFFFFFFFFFFFFFFFFFF AND PUSH1 0x1 PUSH1 0xA8 SHL OR SWAP1 SSTORE PUSH1 0x1 DUP2 PUSH1 0x1 DUP2 GT ISZERO PUSH2 0x3A5A JUMPI PUSH2 0x3A5A PUSH2 0x46CF JUMP JUMPDEST SUB PUSH2 0x3AAF JUMPI PUSH1 0x3 DUP1 SLOAD PUSH1 0x1 DUP2 ADD DUP3 SSTORE PUSH1 0x0 SWAP2 SWAP1 SWAP2 MSTORE PUSH32 0xC2575A0E9E593C00F959F8C92F12DB2869C3395A3B0502D05E2516446F71F85B ADD DUP1 SLOAD PUSH1 0x1 PUSH1 0x1 PUSH1 0xA0 SHL SUB NOT AND PUSH1 0x1 PUSH1 0x1 PUSH1 0xA0 SHL SUB DUP6 AND OR SWAP1 SSTORE PUSH2 0x3AFB JUMP JUMPDEST PUSH1 0x2 DUP1 SLOAD PUSH1 0x1 DUP2 ADD DUP3 SSTORE PUSH1 0x0 SWAP2 SWAP1 SWAP2 MSTORE PUSH32 0x405787FA12A823E0F2B7631CC41B3BA8828B3321CA811111FA75CD3AA3BB5ACE ADD DUP1 SLOAD PUSH1 0x1 PUSH1 0x1 PUSH1 0xA0 SHL SUB NOT AND PUSH1 0x1 PUSH1 0x1 PUSH1 0xA0 SHL SUB DUP6 AND OR SWAP1 SSTORE JUMPDEST PUSH32 0x20BA3738D0F69AD18E0A9923005003B1434FFC62C40AD3332D30D2D42C49EF42 DUP4 DUP3 PUSH1 0x40 MLOAD PUSH2 0x83F SWAP3 SWAP2 SWAP1 PUSH2 0x47BB JUMP JUMPDEST PUSH1 0x0 SLOAD PUSH1 0x1 PUSH1 0xA0 SHL SWAP1 DIV PUSH1 0xFF AND ISZERO DUP1 ISZERO PUSH2 0x3B5F JUMPI POP PUSH1 0x1 PUSH1 0x1 PUSH1 0xA0 SHL SUB DUP2 AND PUSH1 0x0 SWAP1 DUP2 MSTORE PUSH1 0x1 PUSH1 0x20 MSTORE PUSH1 0x40 SWAP1 KECCAK256 SLOAD PUSH1 0xFF AND ISZERO JUMPDEST ISZERO PUSH2 0x25EF JUMPI PUSH1 0x40 MLOAD PUSH32 0x7ACF489200000000000000000000000000000000000000000000000000000000 DUP2 MSTORE PUSH1 0x4 ADD PUSH1 0x40 MLOAD DUP1 SWAP2 SUB SWAP1 REVERT JUMPDEST PUSH1 0x60 DUP2 PUSH1 0x0 ADD DUP1 SLOAD DUP1 PUSH1 0x20 MUL PUSH1 0x20 ADD PUSH1 0x40 MLOAD SWAP1 DUP2 ADD PUSH1 0x40 MSTORE DUP1 SWAP3 SWAP2 SWAP1 DUP2 DUP2 MSTORE PUSH1 0x20 ADD DUP3 DUP1 SLOAD DUP1 ISZERO PUSH2 0x3BE6 JUMPI PUSH1 0x20 MUL DUP3 ADD SWAP2 SWAP1 PUSH1 0x0 MSTORE PUSH1 0x20 PUSH1 0x0 KECCAK256 SWAP1 JUMPDEST DUP2 SLOAD DUP2 MSTORE PUSH1 0x20 ADD SWAP1 PUSH1 0x1 ADD SWAP1 DUP1 DUP4 GT PUSH2 0x3BD2 JUMPI JUMPDEST POP POP POP POP POP SWAP1 POP SWAP2 SWAP1 POP JUMP JUMPDEST PUSH1 0x0 PUSH2 0xDBA DUP4 DUP4 PUSH1 0x0 DUP2 DUP2 MSTORE PUSH1 0x1 DUP4 ADD PUSH1 0x20 MSTORE PUSH1 0x40 DUP2 KECCAK256 SLOAD DUP1 ISZERO PUSH2 0x3CE2 JUMPI PUSH1 0x0 PUSH2 0x3C1D PUSH1 0x1 DUP4 PUSH2 0x46BC JUMP JUMPDEST DUP6 SLOAD SWAP1 SWAP2 POP PUSH1 0x0 SWAP1 PUSH2 0x3C31 SWAP1 PUSH1 0x1 SWAP1 PUSH2 0x46BC JUMP JUMPDEST SWAP1 POP DUP1 DUP3 EQ PUSH2 0x3C96 JUMPI PUSH1 0x0 DUP7 PUSH1 0x0 ADD DUP3 DUP2 SLOAD DUP2 LT PUSH2 0x3C51 JUMPI PUSH2 0x3C51 PUSH2 0x457B JUMP JUMPDEST SWAP1 PUSH1 0x0 MSTORE PUSH1 0x20 PUSH1 0x0 KECCAK256 ADD SLOAD SWAP1 POP DUP1 DUP8 PUSH1 0x0 ADD DUP5 DUP2 SLOAD DUP2 LT PUSH2 0x3C74 JUMPI PUSH2 0x3C74 PUSH2 0x457B JUMP JUMPDEST PUSH1 0x0 SWAP2 DUP3 MSTORE PUSH1 0x20 DUP1 DUP4 KECCAK256 SWAP1 SWAP2 ADD SWAP3 SWAP1 SWAP3 SSTORE SWAP2 DUP3 MSTORE PUSH1 0x1 DUP9 ADD SWAP1 MSTORE PUSH1 0x40 SWAP1 KECCAK256 DUP4 SWAP1 SSTORE JUMPDEST DUP6 SLOAD DUP7 SWAP1 DUP1 PUSH2 0x3CA7 JUMPI PUSH2 0x3CA7 PUSH2 0x47D8 JUMP JUMPDEST PUSH1 0x1 SWAP1 SUB DUP2 DUP2 SWAP1 PUSH1 0x0 MSTORE PUSH1 0x20 PUSH1 0x0 KECCAK256 ADD PUSH1 0x0 SWAP1 SSTORE SWAP1 SSTORE DUP6 PUSH1 0x1 ADD PUSH1 0x0 DUP7 DUP2 MSTORE PUSH1 0x20 ADD SWAP1 DUP2 MSTORE PUSH1 0x20 ADD PUSH1 0x0 KECCAK256 PUSH1 0x0 SWAP1 SSTORE PUSH1 0x1 SWAP4 POP POP POP POP PUSH2 0xDBD JUMP JUMPDEST PUSH1 0x0 SWAP2 POP POP PUSH2 0xDBD JUMP JUMPDEST PUSH1 0x40 DUP1 MLOAD PUSH1 0xA0 DUP2 ADD SWAP1 SWAP2 MSTORE PUSH1 0x0 PUSH1 0x60 DUP3 ADD DUP2 DUP2 MSTORE PUSH1 0x80 DUP4 ADD SWAP2 SWAP1 SWAP2 MSTORE DUP2 SWAP1 DUP2 MSTORE PUSH1 0x20 ADD PUSH2 0x3D2C PUSH1 0x40 MLOAD DUP1 PUSH1 0x40 ADD PUSH1 0x40 MSTORE DUP1 PUSH1 0x0 DUP2 MSTORE PUSH1 0x20 ADD PUSH1 0x0 DUP2 MSTORE POP SWAP1 JUMP JUMPDEST DUP2 MSTORE PUSH1 0x40 DUP1 MLOAD PUSH2 0x140 DUP2 ADD DUP3 MSTORE PUSH1 0x0 DUP1 DUP3 MSTORE PUSH1 0x20 DUP3 DUP2 ADD DUP3 SWAP1 MSTORE SWAP3 DUP3 ADD DUP2 SWAP1 MSTORE PUSH1 0x60 DUP3 ADD DUP2 SWAP1 MSTORE PUSH1 0x80 DUP3 ADD DUP2 SWAP1 MSTORE PUSH1 0xA0 DUP3 ADD DUP2 SWAP1 MSTORE PUSH1 0xC0 DUP3 ADD DUP2 SWAP1 MSTORE PUSH1 0xE0 DUP3 ADD DUP2 SWAP1 MSTORE PUSH2 0x100 DUP3 ADD DUP2 SWAP1 MSTORE PUSH2 0x120 DUP3 ADD MSTORE SWAP2 ADD MSTORE SWAP1 JUMP JUMPDEST DUP1 CALLDATALOAD PUSH1 0x1 PUSH1 0x1 PUSH1 0xA0 SHL SUB DUP2 AND DUP2 EQ PUSH2 0x3D9A JUMPI PUSH1 0x0 DUP1 REVERT JUMPDEST SWAP2 SWAP1 POP JUMP JUMPDEST PUSH1 0x0 DUP1 PUSH1 0x0 PUSH1 0x60 DUP5 DUP7 SUB SLT ISZERO PUSH2 0x3DB4 JUMPI PUSH1 0x0 DUP1 REVERT JUMPDEST PUSH2 0x3DBD DUP5 PUSH2 0x3D83 JUMP JUMPDEST SWAP3 POP PUSH2 0x3DCB PUSH1 0x20 DUP6 ADD PUSH2 0x3D83 JUMP JUMPDEST SWAP2 POP PUSH1 0x40 DUP5 ADD CALLDATALOAD SWAP1 POP SWAP3 POP SWAP3 POP SWAP3 JUMP JUMPDEST PUSH1 0x0 PUSH1 0x20 DUP3 DUP5 SUB SLT ISZERO PUSH2 0x3DED JUMPI PUSH1 0x0 DUP1 REVERT JUMPDEST PUSH2 0xDBA DUP3 PUSH2 0x3D83 JUMP JUMPDEST DUP1 ISZERO ISZERO DUP2 EQ PUSH2 0x25EF JUMPI PUSH1 0x0 DUP1 REVERT JUMPDEST DUP1 CALLDATALOAD PUSH2 0x3D9A DUP2 PUSH2 0x3DF6 JUMP JUMPDEST PUSH1 0x0 DUP1 PUSH1 0x0 PUSH1 0x60 DUP5 DUP7 SUB SLT ISZERO PUSH2 0x3E24 JUMPI PUSH1 0x0 DUP1 REVERT JUMPDEST PUSH2 0x3E2D DUP5 PUSH2 0x3D83 JUMP JUMPDEST SWAP3 POP PUSH1 0x20 DUP5 ADD CALLDATALOAD SWAP2 POP PUSH1 0x40 DUP5 ADD CALLDATALOAD PUSH2 0x3E44 DUP2 PUSH2 0x3DF6 JUMP JUMPDEST DUP1 SWAP2 POP POP SWAP3 POP SWAP3 POP SWAP3 JUMP JUMPDEST PUSH1 0x0 DUP1 DUP4 PUSH1 0x1F DUP5 ADD SLT PUSH2 0x3E61 JUMPI PUSH1 0x0 DUP1 REVERT JUMPDEST POP DUP2 CALLDATALOAD PUSH8 0xFFFFFFFFFFFFFFFF DUP2 GT ISZERO PUSH2 0x3E79 JUMPI PUSH1 0x0 DUP1 REVERT JUMPDEST PUSH1 0x20 DUP4 ADD SWAP2 POP DUP4 PUSH1 0x20 DUP3 DUP6 ADD ADD GT ISZERO PUSH2 0x3E91 JUMPI PUSH1 0x0 DUP1 REVERT JUMPDEST SWAP3 POP SWAP3 SWAP1 POP JUMP JUMPDEST PUSH1 0x0 DUP1 PUSH1 0x0 DUP1 PUSH1 0x0 PUSH1 0x80 DUP7 DUP9 SUB SLT ISZERO PUSH2 0x3EB0 JUMPI PUSH1 0x0 DUP1 REVERT JUMPDEST PUSH2 0x3EB9 DUP7 PUSH2 0x3D83 JUMP JUMPDEST SWAP5 POP PUSH2 0x3EC7 PUSH1 0x20 DUP8 ADD PUSH2 0x3D83 JUMP JUMPDEST SWAP4 POP PUSH1 0x40 DUP7 ADD CALLDATALOAD SWAP3 POP PUSH1 0x60 DUP7 ADD CALLDATALOAD PUSH8 0xFFFFFFFFFFFFFFFF DUP2 GT ISZERO PUSH2 0x3EEA JUMPI PUSH1 0x0 DUP1 REVERT JUMPDEST PUSH2 0x3EF6 DUP9 DUP3 DUP10 ADD PUSH2 0x3E4F JUMP JUMPDEST SWAP7 SWAP10 SWAP6 SWAP9 POP SWAP4 SWAP7 POP SWAP3 SWAP5 SWAP4 SWAP3 POP POP POP JUMP JUMPDEST PUSH4 0x4E487B71 PUSH1 0xE0 SHL PUSH1 0x0 MSTORE PUSH1 0x41 PUSH1 0x4 MSTORE PUSH1 0x24 PUSH1 0x0 REVERT JUMPDEST DUP1 CALLDATALOAD PUSH8 0xFFFFFFFFFFFFFFFF DUP2 AND DUP2 EQ PUSH2 0x3D9A JUMPI PUSH1 0x0 DUP1 REVERT JUMPDEST PUSH1 0x0 DUP1 PUSH1 0x0 DUP1 PUSH1 0x0 DUP6 DUP8 SUB PUSH2 0x160 DUP2 SLT ISZERO PUSH2 0x3F4F JUMPI PUSH1 0x0 DUP1 REVERT JUMPDEST PUSH2 0x3F58 DUP8 PUSH2 0x3D83 JUMP JUMPDEST SWAP6 POP PUSH2 0x3F66 PUSH1 0x20 DUP9 ADD PUSH2 0x3D83 JUMP JUMPDEST SWAP5 POP PUSH1 0x40 DUP8 ADD CALLDATALOAD PUSH1 0x2 DUP2 LT PUSH2 0x3F7A JUMPI PUSH1 0x0 DUP1 REVERT JUMPDEST SWAP4 POP PUSH1 0xE0 PUSH1 0x5F NOT DUP3 ADD SLT ISZERO PUSH2 0x3F8E JUMPI PUSH1 0x0 DUP1 REVERT JUMPDEST POP PUSH1 0x40 MLOAD PUSH1 0xE0 DUP2 ADD DUP2 DUP2 LT PUSH8 0xFFFFFFFFFFFFFFFF DUP3 GT OR ISZERO PUSH2 0x3FC0 JUMPI PUSH4 0x4E487B71 PUSH1 0xE0 SHL PUSH1 0x0 MSTORE PUSH1 0x41 PUSH1 0x4 MSTORE PUSH1 0x24 PUSH1 0x0 REVERT JUMPDEST PUSH1 0x40 MSTORE PUSH2 0x3FCF PUSH1 0x60 DUP9 ADD PUSH2 0x3F1D JUMP JUMPDEST DUP2 MSTORE PUSH2 0x3FDD PUSH1 0x80 DUP9 ADD PUSH2 0x3F1D JUMP JUMPDEST PUSH1 0x20 DUP3 ADD MSTORE PUSH2 0x3FEE PUSH1 0xA0 DUP9 ADD PUSH2 0x3F1D JUMP JUMPDEST PUSH1 0x40 DUP3 ADD MSTORE PUSH2 0x3FFF PUSH1 0xC0 DUP9 ADD PUSH2 0x3F1D JUMP JUMPDEST PUSH1 0x60 DUP3 ADD MSTORE PUSH2 0x4010 PUSH1 0xE0 DUP9 ADD PUSH2 0x3F1D JUMP JUMPDEST PUSH1 0x80 DUP3 ADD MSTORE PUSH2 0x4022 PUSH2 0x100 DUP9 ADD PUSH2 0x3F1D JUMP JUMPDEST PUSH1 0xA0 DUP3 ADD MSTORE PUSH2 0x120 DUP8 ADD CALLDATALOAD PUSH1 0xC0 DUP3 ADD MSTORE SWAP2 POP PUSH2 0x4041 PUSH2 0x140 DUP8 ADD PUSH2 0x3E04 JUMP JUMPDEST SWAP1 POP SWAP3 SWAP6 POP SWAP3 SWAP6 SWAP1 SWAP4 POP JUMP JUMPDEST PUSH1 0x0 DUP1 PUSH1 0x40 DUP4 DUP6 SUB SLT ISZERO PUSH2 0x4060 JUMPI PUSH1 0x0 DUP1 REVERT JUMPDEST PUSH2 0x4069 DUP4 PUSH2 0x3D83 JUMP JUMPDEST SWAP2 POP PUSH1 0x20 DUP4 ADD CALLDATALOAD PUSH2 0x4079 DUP2 PUSH2 0x3DF6 JUMP JUMPDEST DUP1 SWAP2 POP POP SWAP3 POP SWAP3 SWAP1 POP JUMP JUMPDEST PUSH1 0x0 DUP1 PUSH1 0x40 DUP4 DUP6 SUB SLT ISZERO PUSH2 0x4097 JUMPI PUSH1 0x0 DUP1 REVERT JUMPDEST PUSH2 0x40A0 DUP4 PUSH2 0x3D83 JUMP JUMPDEST SWAP5 PUSH1 0x20 SWAP4 SWAP1 SWAP4 ADD CALLDATALOAD SWAP4 POP POP POP JUMP JUMPDEST PUSH1 0x0 DUP1 PUSH1 0x0 PUSH1 0x60 DUP5 DUP7 SUB SLT ISZERO PUSH2 0x40C3 JUMPI PUSH1 0x0 DUP1 REVERT JUMPDEST PUSH2 0x40CC DUP5 PUSH2 0x3D83 JUMP JUMPDEST SWAP6 PUSH1 0x20 DUP6 ADD CALLDATALOAD SWAP6 POP PUSH1 0x40 SWAP1 SWAP5 ADD CALLDATALOAD SWAP4 SWAP3 POP POP POP JUMP JUMPDEST DUP2 MLOAD DUP1 MLOAD DUP3 MSTORE PUSH1 0x20 SWAP1 DUP2 ADD MLOAD SWAP1 DUP3 ADD MSTORE PUSH2 0x1C0 DUP2 ADD PUSH1 0x20 DUP4 DUP2 ADD MLOAD DUP1 MLOAD PUSH1 0x40 DUP6 ADD MSTORE SWAP1 DUP2 ADD MLOAD PUSH1 0x60 DUP5 ADD MSTORE POP PUSH1 0x40 DUP4 ADD MLOAD DUP1 MLOAD PUSH1 0x80 DUP5 ADD MSTORE PUSH1 0x20 DUP2 ADD MLOAD PUSH8 0xFFFFFFFFFFFFFFFF DUP2 AND PUSH1 0xA0 DUP6 ADD MSTORE POP PUSH1 0x40 DUP2 ADD MLOAD PUSH8 0xFFFFFFFFFFFFFFFF DUP2 AND PUSH1 0xC0 DUP6 ADD MSTORE POP PUSH1 0x60 DUP2 ADD MLOAD PUSH8 0xFFFFFFFFFFFFFFFF DUP2 AND PUSH1 0xE0 DUP6 ADD MSTORE POP PUSH1 0x80 DUP2 ADD MLOAD PUSH2 0x100 PUSH2 0x4178 DUP2 DUP7 ADD DUP4 PUSH8 0xFFFFFFFFFFFFFFFF AND SWAP1 MSTORE JUMP JUMPDEST PUSH1 0xA0 DUP4 ADD MLOAD SWAP2 POP PUSH2 0x120 PUSH2 0x4197 DUP2 DUP8 ADD DUP5 PUSH8 0xFFFFFFFFFFFFFFFF AND SWAP1 MSTORE JUMP JUMPDEST PUSH1 0xC0 DUP5 ADD MLOAD PUSH8 0xFFFFFFFFFFFFFFFF SWAP1 DUP2 AND PUSH2 0x140 DUP9 ADD MSTORE PUSH1 0xE0 DUP6 ADD MLOAD DUP2 AND PUSH2 0x160 DUP9 ADD MSTORE SWAP2 DUP5 ADD MLOAD SWAP1 SWAP2 AND PUSH2 0x180 DUP7 ADD MSTORE SWAP1 SWAP2 ADD MLOAD PUSH2 0x1A0 SWAP1 SWAP4 ADD SWAP3 SWAP1 SWAP3 MSTORE SWAP3 SWAP2 POP POP JUMP JUMPDEST PUSH1 0x0 DUP1 PUSH1 0x40 DUP4 DUP6 SUB SLT ISZERO PUSH2 0x41EF JUMPI PUSH1 0x0 DUP1 REVERT JUMPDEST PUSH2 0x41F8 DUP4 PUSH2 0x3D83 JUMP JUMPDEST SWAP2 POP PUSH2 0x4206 PUSH1 0x20 DUP5 ADD PUSH2 0x3D83 JUMP JUMPDEST SWAP1 POP SWAP3 POP SWAP3 SWAP1 POP JUMP JUMPDEST PUSH1 0x0 DUP2 MLOAD DUP1 DUP5 MSTORE PUSH1 0x20 DUP1 DUP6 ADD SWAP5 POP DUP1 DUP5 ADD PUSH1 0x0 JUMPDEST DUP4 DUP2 LT ISZERO PUSH2 0x423F JUMPI DUP2 MLOAD DUP8 MSTORE SWAP6 DUP3 ADD SWAP6 SWAP1 DUP3 ADD SWAP1 PUSH1 0x1 ADD PUSH2 0x4223 JUMP JUMPDEST POP SWAP5 SWAP6 SWAP5 POP POP POP POP POP JUMP JUMPDEST PUSH1 0x20 DUP2 MSTORE PUSH1 0x0 PUSH2 0xDBA PUSH1 0x20 DUP4 ADD DUP5 PUSH2 0x420F JUMP JUMPDEST PUSH1 0x0 DUP1 DUP4 PUSH1 0x1F DUP5 ADD SLT PUSH2 0x426F JUMPI PUSH1 0x0 DUP1 REVERT JUMPDEST POP DUP2 CALLDATALOAD PUSH8 0xFFFFFFFFFFFFFFFF DUP2 GT ISZERO PUSH2 0x4287 JUMPI PUSH1 0x0 DUP1 REVERT JUMPDEST PUSH1 0x20 DUP4 ADD SWAP2 POP DUP4 PUSH1 0x20 DUP3 PUSH1 0x5 SHL DUP6 ADD ADD GT ISZERO PUSH2 0x3E91 JUMPI PUSH1 0x0 DUP1 REVERT JUMPDEST PUSH1 0x0 DUP1 PUSH1 0x0 DUP1 PUSH1 0x0 DUP1 PUSH1 0x0 PUSH1 0x80 DUP9 DUP11 SUB SLT ISZERO PUSH2 0x42BD JUMPI PUSH1 0x0 DUP1 REVERT JUMPDEST PUSH2 0x42C6 DUP9 PUSH2 0x3D83 JUMP JUMPDEST SWAP7 POP PUSH1 0x20 DUP9 ADD CALLDATALOAD PUSH8 0xFFFFFFFFFFFFFFFF DUP1 DUP3 GT ISZERO PUSH2 0x42E3 JUMPI PUSH1 0x0 DUP1 REVERT JUMPDEST PUSH2 0x42EF DUP12 DUP4 DUP13 ADD PUSH2 0x425D JUMP JUMPDEST SWAP1 SWAP9 POP SWAP7 POP PUSH1 0x40 DUP11 ADD CALLDATALOAD SWAP2 POP DUP1 DUP3 GT ISZERO PUSH2 0x4308 JUMPI PUSH1 0x0 DUP1 REVERT JUMPDEST PUSH2 0x4314 DUP12 DUP4 DUP13 ADD PUSH2 0x425D JUMP JUMPDEST SWAP1 SWAP7 POP SWAP5 POP PUSH1 0x60 DUP11 ADD CALLDATALOAD SWAP2 POP DUP1 DUP3 GT ISZERO PUSH2 0x432D JUMPI PUSH1 0x0 DUP1 REVERT JUMPDEST POP PUSH2 0x433A DUP11 DUP3 DUP12 ADD PUSH2 0x3E4F JUMP JUMPDEST SWAP9 SWAP12 SWAP8 SWAP11 POP SWAP6 SWAP9 POP SWAP4 SWAP7 SWAP3 SWAP6 SWAP3 SWAP4 POP POP POP JUMP JUMPDEST PUSH1 0x0 DUP1 PUSH1 0x0 DUP1 PUSH1 0x80 DUP6 DUP8 SUB SLT ISZERO PUSH2 0x4363 JUMPI PUSH1 0x0 DUP1 REVERT JUMPDEST PUSH2 0x436C DUP6 PUSH2 0x3D83 JUMP JUMPDEST SWAP4 POP PUSH2 0x437A PUSH1 0x20 DUP7 ADD PUSH2 0x3D83 JUMP JUMPDEST SWAP3 POP PUSH2 0x4388 PUSH1 0x40 DUP7 ADD PUSH2 0x3D83 JUMP JUMPDEST SWAP4 SWAP7 SWAP3 SWAP6 POP SWAP3 SWAP4 PUSH1 0x60 ADD CALLDATALOAD SWAP3 POP POP JUMP JUMPDEST PUSH1 0x0 DUP1 PUSH1 0x0 DUP1 PUSH1 0x0 DUP1 PUSH1 0x0 PUSH1 0xA0 DUP9 DUP11 SUB SLT ISZERO PUSH2 0x43B3 JUMPI PUSH1 0x0 DUP1 REVERT JUMPDEST PUSH2 0x43BC DUP9 PUSH2 0x3D83 JUMP JUMPDEST SWAP7 POP PUSH2 0x43CA PUSH1 0x20 DUP10 ADD PUSH2 0x3D83 JUMP JUMPDEST SWAP6 POP PUSH1 0x40 DUP9 ADD CALLDATALOAD SWAP5 POP PUSH1 0x60 DUP9 ADD CALLDATALOAD PUSH8 0xFFFFFFFFFFFFFFFF DUP1 DUP3 GT ISZERO PUSH2 0x43EE JUMPI PUSH1 0x0 DUP1 REVERT JUMPDEST PUSH2 0x43FA DUP12 DUP4 DUP13 ADD PUSH2 0x425D JUMP JUMPDEST SWAP1 SWAP7 POP SWAP5 POP PUSH1 0x80 DUP11 ADD CALLDATALOAD SWAP2 POP DUP1 DUP3 GT ISZERO PUSH2 0x4413 JUMPI PUSH1 0x0 DUP1 REVERT JUMPDEST POP PUSH2 0x433A DUP11 DUP3 DUP12 ADD PUSH2 0x425D JUMP JUMPDEST PUSH4 0x4E487B71 PUSH1 0xE0 SHL PUSH1 0x0 MSTORE PUSH1 0x11 PUSH1 0x4 MSTORE PUSH1 0x24 PUSH1 0x0 REVERT JUMPDEST PUSH1 0xFF DUP3 DUP2 AND DUP3 DUP3 AND SUB SWAP1 DUP2 GT ISZERO PUSH2 0xDBD JUMPI PUSH2 0xDBD PUSH2 0x4420 JUMP JUMPDEST PUSH1 0x1 DUP2 DUP2 JUMPDEST DUP1 DUP6 GT ISZERO PUSH2 0x448A JUMPI DUP2 PUSH1 0x0 NOT DIV DUP3 GT ISZERO PUSH2 0x4470 JUMPI PUSH2 0x4470 PUSH2 0x4420 JUMP JUMPDEST DUP1 DUP6 AND ISZERO PUSH2 0x447D JUMPI SWAP2 DUP2 MUL SWAP2 JUMPDEST SWAP4 DUP5 SHR SWAP4 SWAP1 DUP1 MUL SWAP1 PUSH2 0x4454 JUMP JUMPDEST POP SWAP3 POP SWAP3 SWAP1 POP JUMP JUMPDEST PUSH1 0x0 DUP3 PUSH2 0x44A1 JUMPI POP PUSH1 0x1 PUSH2 0xDBD JUMP JUMPDEST DUP2 PUSH2 0x44AE JUMPI POP PUSH1 0x0 PUSH2 0xDBD JUMP JUMPDEST DUP2 PUSH1 0x1 DUP2 EQ PUSH2 0x44C4 JUMPI PUSH1 0x2 DUP2 EQ PUSH2 0x44CE JUMPI PUSH2 0x44EA JUMP JUMPDEST PUSH1 0x1 SWAP2 POP POP PUSH2 0xDBD JUMP JUMPDEST PUSH1 0xFF DUP5 GT ISZERO PUSH2 0x44DF JUMPI PUSH2 0x44DF PUSH2 0x4420 JUMP JUMPDEST POP POP PUSH1 0x1 DUP3 SHL PUSH2 0xDBD JUMP JUMPDEST POP PUSH1 0x20 DUP4 LT PUSH2 0x133 DUP4 LT AND PUSH1 0x4E DUP5 LT PUSH1 0xB DUP5 LT AND OR ISZERO PUSH2 0x450D JUMPI POP DUP2 DUP2 EXP PUSH2 0xDBD JUMP JUMPDEST PUSH2 0x4517 DUP4 DUP4 PUSH2 0x444F JUMP JUMPDEST DUP1 PUSH1 0x0 NOT DIV DUP3 GT ISZERO PUSH2 0x452B JUMPI PUSH2 0x452B PUSH2 0x4420 JUMP JUMPDEST MUL SWAP4 SWAP3 POP POP POP JUMP JUMPDEST PUSH1 0x0 PUSH2 0xDBA PUSH1 0xFF DUP5 AND DUP4 PUSH2 0x4492 JUMP JUMPDEST DUP1 DUP3 MUL DUP2 ISZERO DUP3 DUP3 DIV DUP5 EQ OR PUSH2 0xDBD JUMPI PUSH2 0xDBD PUSH2 0x4420 JUMP JUMPDEST PUSH1 0x0 DUP3 PUSH2 0x4576 JUMPI PUSH4 0x4E487B71 PUSH1 0xE0 SHL PUSH1 0x0 MSTORE PUSH1 0x12 PUSH1 0x4 MSTORE PUSH1 0x24 PUSH1 0x0 REVERT JUMPDEST POP DIV SWAP1 JUMP JUMPDEST PUSH4 0x4E487B71 PUSH1 0xE0 SHL PUSH1 0x0 MSTORE PUSH1 0x32 PUSH1 0x4 MSTORE PUSH1 0x24 PUSH1 0x0 REVERT JUMPDEST DUP1 DUP3 ADD DUP1 DUP3 GT ISZERO PUSH2 0xDBD JUMPI PUSH2 0xDBD PUSH2 0x4420 JUMP JUMPDEST DUP2 DUP4 MSTORE DUP2 DUP2 PUSH1 0x20 DUP6 ADD CALLDATACOPY POP PUSH1 0x0 DUP3 DUP3 ADD PUSH1 0x20 SWAP1 DUP2 ADD SWAP2 SWAP1 SWAP2 MSTORE PUSH1 0x1F SWAP1 SWAP2 ADD PUSH1 0x1F NOT AND SWAP1 SWAP2 ADD ADD SWAP1 JUMP JUMPDEST PUSH1 0x1 PUSH1 0x1 PUSH1 0xA0 SHL SUB DUP10 DUP2 AND DUP3 MSTORE PUSH1 0xA0 PUSH1 0x20 DUP1 DUP5 ADD DUP3 SWAP1 MSTORE SWAP1 DUP4 ADD DUP10 SWAP1 MSTORE PUSH1 0x0 SWAP2 DUP11 SWAP2 PUSH1 0xC0 DUP6 ADD DUP5 JUMPDEST DUP13 DUP2 LT ISZERO PUSH2 0x461A JUMPI DUP4 PUSH2 0x4607 DUP7 PUSH2 0x3D83 JUMP JUMPDEST AND DUP3 MSTORE SWAP4 DUP3 ADD SWAP4 SWAP1 DUP3 ADD SWAP1 PUSH1 0x1 ADD PUSH2 0x45F5 JUMP JUMPDEST POP DUP6 DUP2 SUB PUSH1 0x40 DUP8 ADD MSTORE DUP10 DUP2 MSTORE PUSH32 0x7FFFFFFFFFFFFFFFFFFFFFFFFFFFFFFFFFFFFFFFFFFFFFFFFFFFFFFFFFFFFFF DUP11 GT ISZERO PUSH2 0x4653 JUMPI PUSH1 0x0 DUP1 REVERT JUMPDEST DUP10 PUSH1 0x5 SHL SWAP4 POP DUP4 DUP12 DUP4 DUP4 ADD CALLDATACOPY SWAP1 SWAP3 ADD DUP5 DUP2 SUB DUP4 ADD PUSH1 0x60 DUP7 ADD MSTORE SWAP2 PUSH2 0x4679 DUP2 DUP5 ADD DUP10 PUSH2 0x420F JUMP JUMPDEST SWAP3 POP POP POP DUP3 DUP2 SUB PUSH1 0x80 DUP5 ADD MSTORE PUSH2 0x4690 DUP2 DUP6 DUP8 PUSH2 0x45A4 JUMP JUMPDEST SWAP12 SWAP11 POP POP POP POP POP POP POP POP POP POP POP JUMP JUMPDEST PUSH1 0x0 PUSH1 0x20 DUP3 DUP5 SUB SLT ISZERO PUSH2 0x46B1 JUMPI PUSH1 0x0 DUP1 REVERT JUMPDEST DUP2 MLOAD PUSH2 0x8FA DUP2 PUSH2 0x3DF6 JUMP JUMPDEST DUP2 DUP2 SUB DUP2 DUP2 GT ISZERO PUSH2 0xDBD JUMPI PUSH2 0xDBD PUSH2 0x4420 JUMP JUMPDEST PUSH4 0x4E487B71 PUSH1 0xE0 SHL PUSH1 0x0 MSTORE PUSH1 0x21 PUSH1 0x4 MSTORE PUSH1 0x24 PUSH1 0x0 REVERT JUMPDEST PUSH1 0x0 PUSH1 0x20 DUP3 DUP5 SUB SLT ISZERO PUSH2 0x46F7 JUMPI PUSH1 0x0 DUP1 REVERT JUMPDEST DUP2 MLOAD PUSH1 0xFF DUP2 AND DUP2 EQ PUSH2 0x8FA JUMPI PUSH1 0x0 DUP1 REVERT JUMPDEST PUSH1 0x0 PUSH1 0x20 DUP3 DUP5 SUB SLT ISZERO PUSH2 0x471A JUMPI PUSH1 0x0 DUP1 REVERT JUMPDEST POP MLOAD SWAP2 SWAP1 POP JUMP JUMPDEST DUP1 MLOAD PUSH10 0xFFFFFFFFFFFFFFFFFFFF DUP2 AND DUP2 EQ PUSH2 0x3D9A JUMPI PUSH1 0x0 DUP1 REVERT JUMPDEST PUSH1 0x0 DUP1 PUSH1 0x0 DUP1 PUSH1 0x0 PUSH1 0xA0 DUP7 DUP9 SUB SLT ISZERO PUSH2 0x4753 JUMPI PUSH1 0x0 DUP1 REVERT JUMPDEST PUSH2 0x475C DUP7 PUSH2 0x4721 JUMP JUMPDEST SWAP5 POP PUSH1 0x20 DUP7 ADD MLOAD SWAP4 POP PUSH1 0x40 DUP7 ADD MLOAD SWAP3 POP PUSH1 0x60 DUP7 ADD MLOAD SWAP2 POP PUSH2 0x4041 PUSH1 0x80 DUP8 ADD PUSH2 0x4721 JUMP JUMPDEST PUSH1 0x0 PUSH2 0xDBA DUP4 DUP4 PUSH2 0x4492 JUMP JUMPDEST PUSH1 0x2 DUP2 LT PUSH2 0x47A9 JUMPI PUSH4 0x4E487B71 PUSH1 0xE0 SHL PUSH1 0x0 MSTORE PUSH1 0x21 PUSH1 0x4 MSTORE PUSH1 0x24 PUSH1 0x0 REVERT JUMPDEST SWAP1 MSTORE JUMP JUMPDEST PUSH1 0x20 DUP2 ADD PUSH2 0xDBD DUP3 DUP5 PUSH2 0x478B JUMP JUMPDEST PUSH1 0x1 PUSH1 0x1 PUSH1 0xA0 SHL SUB DUP4 AND DUP2 MSTORE PUSH1 0x40 DUP2 ADD PUSH2 0x8FA PUSH1 0x20 DUP4 ADD DUP5 PUSH2 0x478B JUMP JUMPDEST PUSH4 0x4E487B71 PUSH1 0xE0 SHL PUSH1 0x0 MSTORE PUSH1 0x31 PUSH1 0x4 MSTORE PUSH1 0x24 PUSH1 0x0 REVERT INVALID LOG2 PUSH5 0x6970667358 0x22 SLT KECCAK256 0xDA PUSH19 0x779AE6B3B2F594CCD7E9EE98E006B4480A1469 PUSH20 0xF847464C2AABD490F3D464736F6C634300081400 CALLER "},"gasEstimates":{"creation":{"codeDepositCost":"3693600","executionCost":"infinite","totalCost":"infinite"},"external":{"BLOCKS_PER_YEAR()":"306","BPS()":"263","PRECISION()":"262","accureInterest(address)":"infinite","amountToShares(address,uint256,bool)":"infinite","borrow(address,uint256)":"infinite","canLiquidateNFT(address,address,uint256)":"infinite","depositNft(address,address,uint256)":"infinite","executeNFTLiquidation(address,address,uint256,address[],uint256[])":"infinite","flashloan(address,address[],uint256[],bytes)":"infinite","flashloanFee(address,uint256)":"infinite","getAmountInUSD(address,uint256)":"infinite","getDepositedNFT(address,address)":"infinite","getDepositedNFTCount(address,address)":"infinite","getNFTLiquidationWarning(address,address,uint256)":"infinite","getTokenPrice(address)":"infinite","getTokenVault(address)":"18918","getUserData(address)":"infinite","getUserNFTCollateral(address)":"infinite","getUserTokenCollateralAndBorrow(address,address)":"infinite","getUserTotalBorrow(address)":"infinite","getUserTotalTokenCollateral(address)":"infinite","globalPaused()":"2417","hasDepositedNFT(address,address,uint256)":"infinite","healthFactor(address)":"infinite","liquidate(address,address,address,uint256)":"infinite","maxFlashloan(address)":"infinite","onERC721Received(address,address,uint256,bytes)":"infinite","owner()":"2391","pausedStatus(address)":"infinite","redeem(address,uint256,uint256)":"infinite","renounceOwnership()":"infinite","repay(address,uint256)":"infinite","setPausedStatus(address,bool)":"28338","setupVault(address,address,uint8,(uint64,uint64,uint64,uint64,uint64,uint64,uint256),bool)":"infinite","sharesToAmount(address,uint256,bool)":"infinite","stopNFTLiquidation(address,address,uint256)":"infinite","supply(address,uint256,uint256)":"infinite","transferOwnership(address)":"28426","triggerNFTiquidation(address,address,uint256)":"infinite","withdraw(address,uint256,uint256)":"infinite"},"internal":{"_accuredInterest(address)":"infinite","_setupVault(address,address,enum Structs.TokenType,struct Structs.VaultSetupParamemters memory,bool)":"infinite","_withdraw(address,uint256,uint256,bool)":"infinite","vaultAboveReserveRatio(address,uint256)":"infinite"}},"methodIdentifiers":{"BLOCKS_PER_YEAR()":"d37db1d2","BPS()":"249d39e9","PRECISION()":"aaf5eb68","accureInterest(address)":"0d8459fe","amountToShares(address,uint256,bool)":"0f342ee9","borrow(address,uint256)":"4b8a3529","canLiquidateNFT(address,address,uint256)":"4cd5491c","depositNft(address,address,uint256)":"82a5b1aa","executeNFTLiquidation(address,address,uint256,address[],uint256[])":"c223a9be","flashloan(address,address[],uint256[],bytes)":"78767d70","flashloanFee(address,uint256)":"93f2d72e","getAmountInUSD(address,uint256)":"25d07a95","getDepositedNFT(address,address)":"351b14a0","getDepositedNFTCount(address,address)":"b4240c99","getNFTLiquidationWarning(address,address,uint256)":"ff9b8bb8","getTokenPrice(address)":"d02641a0","getTokenVault(address)":"30941e62","getUserData(address)":"ffc9896b","getUserNFTCollateral(address)":"2c895aff","getUserTokenCollateralAndBorrow(address,address)":"a2d20cf2","getUserTotalBorrow(address)":"89a1e803","getUserTotalTokenCollateral(address)":"dbe7cc17","globalPaused()":"61a552dc","hasDepositedNFT(address,address,uint256)":"f6aa13f2","healthFactor(address)":"6ad9f9df","liquidate(address,address,address,uint256)":"aab3f868","maxFlashloan(address)":"bf370299","onERC721Received(address,address,uint256,bytes)":"150b7a02","owner()":"8da5cb5b","pausedStatus(address)":"b6812c99","redeem(address,uint256,uint256)":"2b83cccd","renounceOwnership()":"715018a6","repay(address,uint256)":"22867d78","setPausedStatus(address,bool)":"1d81944f","setupVault(address,address,uint8,(uint64,uint64,uint64,uint64,uint64,uint64,uint256),bool)":"1880b981","sharesToAmount(address,uint256,bool)":"fdda8295","stopNFTLiquidation(address,address,uint256)":"0d30320e","supply(address,uint256,uint256)":"7dbca353","transferOwnership(address)":"f2fde38b","triggerNFTiquidation(address,address,uint256)":"429e2c1a","withdraw(address,uint256,uint256)":"b5c5f672"}},"storageLayout":{"storage":[{"astId":110,"contract":"contracts/HydraPool.sol:HydraPool","label":"_owner","offset":0,"slot":"0","type":"t_address"},{"astId":8364,"contract":"contracts/HydraPool.sol:HydraPool","label":"globalPaused","offset":20,"slot":"0","type":"t_bool"},{"astId":8368,"contract":"contracts/HydraPool.sol:HydraPool","label":"vaultPaused","offset":0,"slot":"1","type":"t_mapping(t_address,t_bool)"},{"astId":7224,"contract":"contracts/HydraPool.sol:HydraPool","label":"supportedERC20s","offset":0,"slot":"2","type":"t_array(t_address)dyn_storage"},{"astId":7227,"contract":"contracts/HydraPool.sol:HydraPool","label":"supportedNFTs","offset":0,"slot":"3","type":"t_array(t_address)dyn_storage"},{"astId":7232,"contract":"contracts/HydraPool.sol:HydraPool","label":"supportedToken","offset":0,"slot":"4","type":"t_mapping(t_address,t_struct(SupportedToken)7407_storage)"},{"astId":7053,"contract":"contracts/HydraPool.sol:HydraPool","label":"depositedNFTs","offset":0,"slot":"5","type":"t_mapping(t_address,t_mapping(t_address,t_struct(UintSet)4106_storage))"},{"astId":4274,"contract":"contracts/HydraPool.sol:HydraPool","label":"vaults","offset":0,"slot":"6","type":"t_mapping(t_address,t_struct(TokenVault)7427_storage)"},{"astId":4281,"contract":"contracts/HydraPool.sol:HydraPool","label":"userShares","offset":0,"slot":"7","type":"t_mapping(t_address,t_mapping(t_address,t_struct(AccountShares)7412_storage))"},{"astId":4290,"contract":"contracts/HydraPool.sol:HydraPool","label":"nftLiquidationWarning","offset":0,"slot":"8","type":"t_mapping(t_address,t_mapping(t_address,t_mapping(t_uint256,t_struct(LiquidatedWarning)7453_storage)))"}],"types":{"t_address":{"encoding":"inplace","label":"address","numberOfBytes":"20"},"t_array(t_address)dyn_storage":{"base":"t_address","encoding":"dynamic_array","label":"address[]","numberOfBytes":"32"},"t_array(t_bytes32)dyn_storage":{"base":"t_bytes32","encoding":"dynamic_array","label":"bytes32[]","numberOfBytes":"32"},"t_bool":{"encoding":"inplace","label":"bool","numberOfBytes":"1"},"t_bytes32":{"encoding":"inplace","label":"bytes32","numberOfBytes":"32"},"t_enum(TokenType)7399":{"encoding":"inplace","label":"enum Structs.TokenType","numberOfBytes":"1"},"t_mapping(t_address,t_bool)":{"encoding":"mapping","key":"t_address","label":"mapping(address => bool)","numberOfBytes":"32","value":"t_bool"},"t_mapping(t_address,t_mapping(t_address,t_mapping(t_uint256,t_struct(LiquidatedWarning)7453_storage)))":{"encoding":"mapping","key":"t_address","label":"mapping(address => mapping(address => mapping(uint256 => struct Structs.LiquidatedWarning)))","numberOfBytes":"32","value":"t_mapping(t_address,t_mapping(t_uint256,t_struct(LiquidatedWarning)7453_storage))"},"t_mapping(t_address,t_mapping(t_address,t_struct(AccountShares)7412_storage))":{"encoding":"mapping","key":"t_address","label":"mapping(address => mapping(address => struct Structs.AccountShares))","numberOfBytes":"32","value":"t_mapping(t_address,t_struct(AccountShares)7412_storage)"},"t_mapping(t_address,t_mapping(t_address,t_struct(UintSet)4106_storage))":{"encoding":"mapping","key":"t_address","label":"mapping(address => mapping(address => struct EnumerableSet.UintSet))","numberOfBytes":"32","value":"t_mapping(t_address,t_struct(UintSet)4106_storage)"},"t_mapping(t_address,t_mapping(t_uint256,t_struct(LiquidatedWarning)7453_storage))":{"encoding":"mapping","key":"t_address","label":"mapping(address => mapping(uint256 => struct Structs.LiquidatedWarning))","numberOfBytes":"32","value":"t_mapping(t_uint256,t_struct(LiquidatedWarning)7453_storage)"},"t_mapping(t_address,t_struct(AccountShares)7412_storage)":{"encoding":"mapping","key":"t_address","label":"mapping(address => struct Structs.AccountShares)","numberOfBytes":"32","value":"t_struct(AccountShares)7412_storage"},"t_mapping(t_address,t_struct(SupportedToken)7407_storage)":{"encoding":"mapping","key":"t_address","label":"mapping(address => struct Structs.SupportedToken)","numberOfBytes":"32","value":"t_struct(SupportedToken)7407_storage"},"t_mapping(t_address,t_struct(TokenVault)7427_storage)":{"encoding":"mapping","key":"t_address","label":"mapping(address => struct Structs.TokenVault)","numberOfBytes":"32","value":"t_struct(TokenVault)7427_storage"},"t_mapping(t_address,t_struct(UintSet)4106_storage)":{"encoding":"mapping","key":"t_address","label":"mapping(address => struct EnumerableSet.UintSet)","numberOfBytes":"32","value":"t_struct(UintSet)4106_storage"},"t_mapping(t_bytes32,t_uint256)":{"encoding":"mapping","key":"t_bytes32","label":"mapping(bytes32 => uint256)","numberOfBytes":"32","value":"t_uint256"},"t_mapping(t_uint256,t_struct(LiquidatedWarning)7453_storage)":{"encoding":"mapping","key":"t_uint256","label":"mapping(uint256 => struct Structs.LiquidatedWarning)","numberOfBytes":"32","value":"t_struct(LiquidatedWarning)7453_storage"},"t_struct(AccountShares)7412_storage":{"encoding":"inplace","label":"struct Structs.AccountShares","members":[{"astId":7409,"contract":"contracts/HydraPool.sol:HydraPool","label":"collateral","offset":0,"slot":"0","type":"t_uint256"},{"astId":7411,"contract":"contracts/HydraPool.sol:HydraPool","label":"borrow","offset":0,"slot":"1","type":"t_uint256"}],"numberOfBytes":"64"},"t_struct(LiquidatedWarning)7453_storage":{"encoding":"inplace","label":"struct Structs.LiquidatedWarning","members":[{"astId":7450,"contract":"contracts/HydraPool.sol:HydraPool","label":"liquidator","offset":0,"slot":"0","type":"t_address"},{"astId":7452,"contract":"contracts/HydraPool.sol:HydraPool","label":"liquidationTimestamp","offset":20,"slot":"0","type":"t_uint64"}],"numberOfBytes":"32"},"t_struct(Set)3634_storage":{"encoding":"inplace","label":"struct EnumerableSet.Set","members":[{"astId":3629,"contract":"contracts/HydraPool.sol:HydraPool","label":"_values","offset":0,"slot":"0","type":"t_array(t_bytes32)dyn_storage"},{"astId":3633,"contract":"contracts/HydraPool.sol:HydraPool","label":"_positions","offset":0,"slot":"1","type":"t_mapping(t_bytes32,t_uint256)"}],"numberOfBytes":"64"},"t_struct(SupportedToken)7407_storage":{"encoding":"inplace","label":"struct Structs.SupportedToken","members":[{"astId":7401,"contract":"contracts/HydraPool.sol:HydraPool","label":"usdPriceFeed","offset":0,"slot":"0","type":"t_address"},{"astId":7404,"contract":"contracts/HydraPool.sol:HydraPool","label":"tokenType","offset":20,"slot":"0","type":"t_enum(TokenType)7399"},{"astId":7406,"contract":"contracts/HydraPool.sol:HydraPool","label":"supported","offset":21,"slot":"0","type":"t_bool"}],"numberOfBytes":"32"},"t_struct(TokenVault)7427_storage":{"encoding":"inplace","label":"struct Structs.TokenVault","members":[{"astId":7420,"contract":"contracts/HydraPool.sol:HydraPool","label":"totalAsset","offset":0,"slot":"0","type":"t_struct(Vault)7417_storage"},{"astId":7423,"contract":"contracts/HydraPool.sol:HydraPool","label":"totalBorrow","offset":0,"slot":"2","type":"t_struct(Vault)7417_storage"},{"astId":7426,"contract":"contracts/HydraPool.sol:HydraPool","label":"vaultInfo","offset":0,"slot":"4","type":"t_struct(VaultInfo)7448_storage"}],"numberOfBytes":"256"},"t_struct(UintSet)4106_storage":{"encoding":"inplace","label":"struct EnumerableSet.UintSet","members":[{"astId":4105,"contract":"contracts/HydraPool.sol:HydraPool","label":"_inner","offset":0,"slot":"0","type":"t_struct(Set)3634_storage"}],"numberOfBytes":"64"},"t_struct(Vault)7417_storage":{"encoding":"inplace","label":"struct Structs.Vault","members":[{"astId":7414,"contract":"contracts/HydraPool.sol:HydraPool","label":"amount","offset":0,"slot":"0","type":"t_uint256"},{"astId":7416,"contract":"contracts/HydraPool.sol:HydraPool","label":"shares","offset":0,"slot":"1","type":"t_uint256"}],"numberOfBytes":"64"},"t_struct(VaultInfo)7448_storage":{"encoding":"inplace","label":"struct Structs.VaultInfo","members":[{"astId":7429,"contract":"contracts/HydraPool.sol:HydraPool","label":"reserveRatio","offset":0,"slot":"0","type":"t_uint256"},{"astId":7431,"contract":"contracts/HydraPool.sol:HydraPool","label":"feeToProtocolRate","offset":0,"slot":"1","type":"t_uint64"},{"astId":7433,"contract":"contracts/HydraPool.sol:HydraPool","label":"flashFeeRate","offset":8,"slot":"1","type":"t_uint64"},{"astId":7435,"contract":"contracts/HydraPool.sol:HydraPool","label":"ratePerSec","offset":16,"slot":"1","type":"t_uint64"},{"astId":7437,"contract":"contracts/HydraPool.sol:HydraPool","label":"lastTimestamp","offset":24,"slot":"1","type":"t_uint64"},{"astId":7439,"contract":"contracts/HydraPool.sol:HydraPool","label":"lastBlock","offset":0,"slot":"2","type":"t_uint64"},{"astId":7441,"contract":"contracts/HydraPool.sol:HydraPool","label":"baseRate","offset":8,"slot":"2","type":"t_uint64"},{"astId":7443,"contract":"contracts/HydraPool.sol:HydraPool","label":"slope1","offset":16,"slot":"2","type":"t_uint64"},{"astId":7445,"contract":"contracts/HydraPool.sol:HydraPool","label":"slope2","offset":24,"slot":"2","type":"t_uint64"},{"astId":7447,"contract":"contracts/HydraPool.sol:HydraPool","label":"optimalUtilization","offset":0,"slot":"3","type":"t_uint256"}],"numberOfBytes":"128"},"t_uint256":{"encoding":"inplace","label":"uint256","numberOfBytes":"32"},"t_uint64":{"encoding":"inplace","label":"uint64","numberOfBytes":"8"}}},"userdoc":{"kind":"user","methods":{},"version":1}}}}