{"contracts/mocks/MockV3Aggregator.sol":{"MockV3Aggregator":{"abi":[{"inputs":[{"internalType":"uint8","name":"_decimals","type":"uint8"},{"internalType":"int256","name":"_initialAnswer","type":"int256"}],"stateMutability":"nonpayable","type":"constructor"},{"anonymous":false,"inputs":[{"indexed":true,"internalType":"int256","name":"current","type":"int256"},{"indexed":true,"internalType":"uint256","name":"roundId","type":"uint256"},{"indexed":false,"internalType":"uint256","name":"updatedAt","type":"uint256"}],"name":"AnswerUpdated","type":"event"},{"anonymous":false,"inputs":[{"indexed":true,"internalType":"uint256","name":"roundId","type":"uint256"},{"indexed":true,"internalType":"address","name":"startedBy","type":"address"},{"indexed":false,"internalType":"uint256","name":"startedAt","type":"uint256"}],"name":"NewRound","type":"event"},{"inputs":[],"name":"decimals","outputs":[{"internalType":"uint8","name":"","type":"uint8"}],"stateMutability":"view","type":"function"},{"inputs":[],"name":"description","outputs":[{"internalType":"string","name":"","type":"string"}],"stateMutability":"pure","type":"function"},{"inputs":[{"internalType":"uint256","name":"","type":"uint256"}],"name":"getAnswer","outputs":[{"internalType":"int256","name":"","type":"int256"}],"stateMutability":"view","type":"function"},{"inputs":[{"internalType":"uint80","name":"_roundId","type":"uint80"}],"name":"getRoundData","outputs":[{"internalType":"uint80","name":"roundId","type":"uint80"},{"internalType":"int256","name":"answer","type":"int256"},{"internalType":"uint256","name":"startedAt","type":"uint256"},{"internalType":"uint256","name":"updatedAt","type":"uint256"},{"internalType":"uint80","name":"answeredInRound","type":"uint80"}],"stateMutability":"view","type":"function"},{"inputs":[{"internalType":"uint256","name":"","type":"uint256"}],"name":"getTimestamp","outputs":[{"internalType":"uint256","name":"","type":"uint256"}],"stateMutability":"view","type":"function"},{"inputs":[],"name":"latestAnswer","outputs":[{"internalType":"int256","name":"","type":"int256"}],"stateMutability":"view","type":"function"},{"inputs":[],"name":"latestRound","outputs":[{"internalType":"uint256","name":"","type":"uint256"}],"stateMutability":"view","type":"function"},{"inputs":[],"name":"latestRoundData","outputs":[{"internalType":"uint80","name":"roundId","type":"uint80"},{"internalType":"int256","name":"answer","type":"int256"},{"internalType":"uint256","name":"startedAt","type":"uint256"},{"internalType":"uint256","name":"updatedAt","type":"uint256"},{"internalType":"uint80","name":"answeredInRound","type":"uint80"}],"stateMutability":"view","type":"function"},{"inputs":[],"name":"latestTimestamp","outputs":[{"internalType":"uint256","name":"","type":"uint256"}],"stateMutability":"view","type":"function"},{"inputs":[{"internalType":"int256","name":"_answer","type":"int256"}],"name":"updateAnswer","outputs":[],"stateMutability":"nonpayable","type":"function"},{"inputs":[{"internalType":"uint80","name":"_roundId","type":"uint80"},{"internalType":"int256","name":"_answer","type":"int256"},{"internalType":"uint256","name":"_timestamp","type":"uint256"},{"internalType":"uint256","name":"_startedAt","type":"uint256"}],"name":"updateRoundData","outputs":[],"stateMutability":"nonpayable","type":"function"},{"inputs":[],"name":"version","outputs":[{"internalType":"uint256","name":"","type":"uint256"}],"stateMutability":"view","type":"function"}],"devdoc":{"kind":"dev","methods":{},"title":"MockV3Aggregator","version":1},"evm":{"bytecode":{"linkReferences":{},"object":"608060405234801561001057600080fd5b5060405161058138038061058183398101604081905261002f916100a4565b6000805460ff191660ff84161790556100478161004e565b50506100ff565b60018190554260025560038054906000610067836100d8565b9091555050600380546000908152600460209081526040808320949094558254825260058152838220429081905592548252600690529190912055565b600080604083850312156100b757600080fd5b825160ff811681146100c857600080fd5b6020939093015192949293505050565b6000600182016100f857634e487b7160e01b600052601160045260246000fd5b5060010190565b6104738061010e6000396000f3fe608060405234801561001057600080fd5b50600436106100d45760003560e01c80638205bf6a11610081578063b5ab58dc1161005b578063b5ab58dc1461025b578063b633620c1461027b578063feaf968c1461029b57600080fd5b80638205bf6a146101c15780639a6fc8f5146101ca578063a87a20ce1461024857600080fd5b806354fd4d50116100b257806354fd4d5014610171578063668a0f02146101795780637284e4161461018257600080fd5b8063313ce567146100d95780634aa2011f146100fd57806350d25bcd1461015a575b600080fd5b6000546100e69060ff1681565b60405160ff90911681526020015b60405180910390f35b61015861010b36600461033b565b69ffffffffffffffffffff90931660038181556001849055600283905560009182526004602090815260408084209590955581548352600581528483209390935554815260069091522055565b005b61016360015481565b6040519081526020016100f4565b610163600081565b61016360035481565b604080518082018252601f81527f76302e382f74657374732f4d6f636b563341676772656761746f722e736f6c00602082015290516100f49190610374565b61016360025481565b6102116101d83660046103c2565b69ffffffffffffffffffff8116600090815260046020908152604080832054600683528184205460059093529220549293919290918490565b6040805169ffffffffffffffffffff968716815260208101959095528401929092526060830152909116608082015260a0016100f4565b6101586102563660046103e4565b6102c6565b6101636102693660046103e4565b60046020526000908152604090205481565b6101636102893660046103e4565b60056020526000908152604090205481565b6003546000818152600460209081526040808320546006835281842054600590935292205483610211565b600181905542600255600380549060006102df836103fd565b9091555050600380546000908152600460209081526040808320949094558254825260058152838220429081905592548252600690529190912055565b803569ffffffffffffffffffff8116811461033657600080fd5b919050565b6000806000806080858703121561035157600080fd5b61035a8561031c565b966020860135965060408601359560600135945092505050565b600060208083528351808285015260005b818110156103a157858101830151858201604001528201610385565b506000604082860101526040601f19601f8301168501019250505092915050565b6000602082840312156103d457600080fd5b6103dd8261031c565b9392505050565b6000602082840312156103f657600080fd5b5035919050565b600060018201610436577f4e487b7100000000000000000000000000000000000000000000000000000000600052601160045260246000fd5b506001019056fea264697066735822122029317b4e57c0bcc8686110ada84cc4abe13ab3e63bc21720579e98e47b8ee3ce64736f6c63430008140033","opcodes":"PUSH1 0x80 PUSH1 0x40 MSTORE CALLVALUE DUP1 ISZERO PUSH2 0x10 JUMPI PUSH1 0x0 DUP1 REVERT JUMPDEST POP PUSH1 0x40 MLOAD PUSH2 0x581 CODESIZE SUB DUP1 PUSH2 0x581 DUP4 CODECOPY DUP2 ADD PUSH1 0x40 DUP2 SWAP1 MSTORE PUSH2 0x2F SWAP2 PUSH2 0xA4 JUMP JUMPDEST PUSH1 0x0 DUP1 SLOAD PUSH1 0xFF NOT AND PUSH1 0xFF DUP5 AND OR SWAP1 SSTORE PUSH2 0x47 DUP2 PUSH2 0x4E JUMP JUMPDEST POP POP PUSH2 0xFF JUMP JUMPDEST PUSH1 0x1 DUP2 SWAP1 SSTORE TIMESTAMP PUSH1 0x2 SSTORE PUSH1 0x3 DUP1 SLOAD SWAP1 PUSH1 0x0 PUSH2 0x67 DUP4 PUSH2 0xD8 JUMP JUMPDEST SWAP1 SWAP2 SSTORE POP POP PUSH1 0x3 DUP1 SLOAD PUSH1 0x0 SWAP1 DUP2 MSTORE PUSH1 0x4 PUSH1 0x20 SWAP1 DUP2 MSTORE PUSH1 0x40 DUP1 DUP4 KECCAK256 SWAP5 SWAP1 SWAP5 SSTORE DUP3 SLOAD DUP3 MSTORE PUSH1 0x5 DUP2 MSTORE DUP4 DUP3 KECCAK256 TIMESTAMP SWAP1 DUP2 SWAP1 SSTORE SWAP3 SLOAD DUP3 MSTORE PUSH1 0x6 SWAP1 MSTORE SWAP2 SWAP1 SWAP2 KECCAK256 SSTORE JUMP JUMPDEST PUSH1 0x0 DUP1 PUSH1 0x40 DUP4 DUP6 SUB SLT ISZERO PUSH2 0xB7 JUMPI PUSH1 0x0 DUP1 REVERT JUMPDEST DUP3 MLOAD PUSH1 0xFF DUP2 AND DUP2 EQ PUSH2 0xC8 JUMPI PUSH1 0x0 DUP1 REVERT JUMPDEST PUSH1 0x20 SWAP4 SWAP1 SWAP4 ADD MLOAD SWAP3 SWAP5 SWAP3 SWAP4 POP POP POP JUMP JUMPDEST PUSH1 0x0 PUSH1 0x1 DUP3 ADD PUSH2 0xF8 JUMPI PUSH4 0x4E487B71 PUSH1 0xE0 SHL PUSH1 0x0 MSTORE PUSH1 0x11 PUSH1 0x4 MSTORE PUSH1 0x24 PUSH1 0x0 REVERT JUMPDEST POP PUSH1 0x1 ADD SWAP1 JUMP JUMPDEST PUSH2 0x473 DUP1 PUSH2 0x10E PUSH1 0x0 CODECOPY PUSH1 0x0 RETURN INVALID PUSH1 0x80 PUSH1 0x40 MSTORE CALLVALUE DUP1 ISZERO PUSH2 0x10 JUMPI PUSH1 0x0 DUP1 REVERT JUMPDEST POP PUSH1 0x4 CALLDATASIZE LT PUSH2 0xD4 JUMPI PUSH1 0x0 CALLDATALOAD PUSH1 0xE0 SHR DUP1 PUSH4 0x8205BF6A GT PUSH2 0x81 JUMPI DUP1 PUSH4 0xB5AB58DC GT PUSH2 0x5B JUMPI DUP1 PUSH4 0xB5AB58DC EQ PUSH2 0x25B JUMPI DUP1 PUSH4 0xB633620C EQ PUSH2 0x27B JUMPI DUP1 PUSH4 0xFEAF968C EQ PUSH2 0x29B JUMPI PUSH1 0x0 DUP1 REVERT JUMPDEST DUP1 PUSH4 0x8205BF6A EQ PUSH2 0x1C1 JUMPI DUP1 PUSH4 0x9A6FC8F5 EQ PUSH2 0x1CA JUMPI DUP1 PUSH4 0xA87A20CE EQ PUSH2 0x248 JUMPI PUSH1 0x0 DUP1 REVERT JUMPDEST DUP1 PUSH4 0x54FD4D50 GT PUSH2 0xB2 JUMPI DUP1 PUSH4 0x54FD4D50 EQ PUSH2 0x171 JUMPI DUP1 PUSH4 0x668A0F02 EQ PUSH2 0x179 JUMPI DUP1 PUSH4 0x7284E416 EQ PUSH2 0x182 JUMPI PUSH1 0x0 DUP1 REVERT JUMPDEST DUP1 PUSH4 0x313CE567 EQ PUSH2 0xD9 JUMPI DUP1 PUSH4 0x4AA2011F EQ PUSH2 0xFD JUMPI DUP1 PUSH4 0x50D25BCD EQ PUSH2 0x15A JUMPI JUMPDEST PUSH1 0x0 DUP1 REVERT JUMPDEST PUSH1 0x0 SLOAD PUSH2 0xE6 SWAP1 PUSH1 0xFF AND DUP2 JUMP JUMPDEST PUSH1 0x40 MLOAD PUSH1 0xFF SWAP1 SWAP2 AND DUP2 MSTORE PUSH1 0x20 ADD JUMPDEST PUSH1 0x40 MLOAD DUP1 SWAP2 SUB SWAP1 RETURN JUMPDEST PUSH2 0x158 PUSH2 0x10B CALLDATASIZE PUSH1 0x4 PUSH2 0x33B JUMP JUMPDEST PUSH10 0xFFFFFFFFFFFFFFFFFFFF SWAP1 SWAP4 AND PUSH1 0x3 DUP2 DUP2 SSTORE PUSH1 0x1 DUP5 SWAP1 SSTORE PUSH1 0x2 DUP4 SWAP1 SSTORE PUSH1 0x0 SWAP2 DUP3 MSTORE PUSH1 0x4 PUSH1 0x20 SWAP1 DUP2 MSTORE PUSH1 0x40 DUP1 DUP5 KECCAK256 SWAP6 SWAP1 SWAP6 SSTORE DUP2 SLOAD DUP4 MSTORE PUSH1 0x5 DUP2 MSTORE DUP5 DUP4 KECCAK256 SWAP4 SWAP1 SWAP4 SSTORE SLOAD DUP2 MSTORE PUSH1 0x6 SWAP1 SWAP2 MSTORE KECCAK256 SSTORE JUMP JUMPDEST STOP JUMPDEST PUSH2 0x163 PUSH1 0x1 SLOAD DUP2 JUMP JUMPDEST PUSH1 0x40 MLOAD SWAP1 DUP2 MSTORE PUSH1 0x20 ADD PUSH2 0xF4 JUMP JUMPDEST PUSH2 0x163 PUSH1 0x0 DUP2 JUMP JUMPDEST PUSH2 0x163 PUSH1 0x3 SLOAD DUP2 JUMP JUMPDEST PUSH1 0x40 DUP1 MLOAD DUP1 DUP3 ADD DUP3 MSTORE PUSH1 0x1F DUP2 MSTORE PUSH32 0x76302E382F74657374732F4D6F636B563341676772656761746F722E736F6C00 PUSH1 0x20 DUP3 ADD MSTORE SWAP1 MLOAD PUSH2 0xF4 SWAP2 SWAP1 PUSH2 0x374 JUMP JUMPDEST PUSH2 0x163 PUSH1 0x2 SLOAD DUP2 JUMP JUMPDEST PUSH2 0x211 PUSH2 0x1D8 CALLDATASIZE PUSH1 0x4 PUSH2 0x3C2 JUMP JUMPDEST PUSH10 0xFFFFFFFFFFFFFFFFFFFF DUP2 AND PUSH1 0x0 SWAP1 DUP2 MSTORE PUSH1 0x4 PUSH1 0x20 SWAP1 DUP2 MSTORE PUSH1 0x40 DUP1 DUP4 KECCAK256 SLOAD PUSH1 0x6 DUP4 MSTORE DUP2 DUP5 KECCAK256 SLOAD PUSH1 0x5 SWAP1 SWAP4 MSTORE SWAP3 KECCAK256 SLOAD SWAP3 SWAP4 SWAP2 SWAP3 SWAP1 SWAP2 DUP5 SWAP1 JUMP JUMPDEST PUSH1 0x40 DUP1 MLOAD PUSH10 0xFFFFFFFFFFFFFFFFFFFF SWAP7 DUP8 AND DUP2 MSTORE PUSH1 0x20 DUP2 ADD SWAP6 SWAP1 SWAP6 MSTORE DUP5 ADD SWAP3 SWAP1 SWAP3 MSTORE PUSH1 0x60 DUP4 ADD MSTORE SWAP1 SWAP2 AND PUSH1 0x80 DUP3 ADD MSTORE PUSH1 0xA0 ADD PUSH2 0xF4 JUMP JUMPDEST PUSH2 0x158 PUSH2 0x256 CALLDATASIZE PUSH1 0x4 PUSH2 0x3E4 JUMP JUMPDEST PUSH2 0x2C6 JUMP JUMPDEST PUSH2 0x163 PUSH2 0x269 CALLDATASIZE PUSH1 0x4 PUSH2 0x3E4 JUMP JUMPDEST PUSH1 0x4 PUSH1 0x20 MSTORE PUSH1 0x0 SWAP1 DUP2 MSTORE PUSH1 0x40 SWAP1 KECCAK256 SLOAD DUP2 JUMP JUMPDEST PUSH2 0x163 PUSH2 0x289 CALLDATASIZE PUSH1 0x4 PUSH2 0x3E4 JUMP JUMPDEST PUSH1 0x5 PUSH1 0x20 MSTORE PUSH1 0x0 SWAP1 DUP2 MSTORE PUSH1 0x40 SWAP1 KECCAK256 SLOAD DUP2 JUMP JUMPDEST PUSH1 0x3 SLOAD PUSH1 0x0 DUP2 DUP2 MSTORE PUSH1 0x4 PUSH1 0x20 SWAP1 DUP2 MSTORE PUSH1 0x40 DUP1 DUP4 KECCAK256 SLOAD PUSH1 0x6 DUP4 MSTORE DUP2 DUP5 KECCAK256 SLOAD PUSH1 0x5 SWAP1 SWAP4 MSTORE SWAP3 KECCAK256 SLOAD DUP4 PUSH2 0x211 JUMP JUMPDEST PUSH1 0x1 DUP2 SWAP1 SSTORE TIMESTAMP PUSH1 0x2 SSTORE PUSH1 0x3 DUP1 SLOAD SWAP1 PUSH1 0x0 PUSH2 0x2DF DUP4 PUSH2 0x3FD JUMP JUMPDEST SWAP1 SWAP2 SSTORE POP POP PUSH1 0x3 DUP1 SLOAD PUSH1 0x0 SWAP1 DUP2 MSTORE PUSH1 0x4 PUSH1 0x20 SWAP1 DUP2 MSTORE PUSH1 0x40 DUP1 DUP4 KECCAK256 SWAP5 SWAP1 SWAP5 SSTORE DUP3 SLOAD DUP3 MSTORE PUSH1 0x5 DUP2 MSTORE DUP4 DUP3 KECCAK256 TIMESTAMP SWAP1 DUP2 SWAP1 SSTORE SWAP3 SLOAD DUP3 MSTORE PUSH1 0x6 SWAP1 MSTORE SWAP2 SWAP1 SWAP2 KECCAK256 SSTORE JUMP JUMPDEST DUP1 CALLDATALOAD PUSH10 0xFFFFFFFFFFFFFFFFFFFF DUP2 AND DUP2 EQ PUSH2 0x336 JUMPI PUSH1 0x0 DUP1 REVERT JUMPDEST SWAP2 SWAP1 POP JUMP JUMPDEST PUSH1 0x0 DUP1 PUSH1 0x0 DUP1 PUSH1 0x80 DUP6 DUP8 SUB SLT ISZERO PUSH2 0x351 JUMPI PUSH1 0x0 DUP1 REVERT JUMPDEST PUSH2 0x35A DUP6 PUSH2 0x31C JUMP JUMPDEST SWAP7 PUSH1 0x20 DUP7 ADD CALLDATALOAD SWAP7 POP PUSH1 0x40 DUP7 ADD CALLDATALOAD SWAP6 PUSH1 0x60 ADD CALLDATALOAD SWAP5 POP SWAP3 POP POP POP JUMP JUMPDEST PUSH1 0x0 PUSH1 0x20 DUP1 DUP4 MSTORE DUP4 MLOAD DUP1 DUP3 DUP6 ADD MSTORE PUSH1 0x0 JUMPDEST DUP2 DUP2 LT ISZERO PUSH2 0x3A1 JUMPI DUP6 DUP2 ADD DUP4 ADD MLOAD DUP6 DUP3 ADD PUSH1 0x40 ADD MSTORE DUP3 ADD PUSH2 0x385 JUMP JUMPDEST POP PUSH1 0x0 PUSH1 0x40 DUP3 DUP7 ADD ADD MSTORE PUSH1 0x40 PUSH1 0x1F NOT PUSH1 0x1F DUP4 ADD AND DUP6 ADD ADD SWAP3 POP POP POP SWAP3 SWAP2 POP POP JUMP JUMPDEST PUSH1 0x0 PUSH1 0x20 DUP3 DUP5 SUB SLT ISZERO PUSH2 0x3D4 JUMPI PUSH1 0x0 DUP1 REVERT JUMPDEST PUSH2 0x3DD DUP3 PUSH2 0x31C JUMP JUMPDEST SWAP4 SWAP3 POP POP POP JUMP JUMPDEST PUSH1 0x0 PUSH1 0x20 DUP3 DUP5 SUB SLT ISZERO PUSH2 0x3F6 JUMPI PUSH1 0x0 DUP1 REVERT JUMPDEST POP CALLDATALOAD SWAP2 SWAP1 POP JUMP JUMPDEST PUSH1 0x0 PUSH1 0x1 DUP3 ADD PUSH2 0x436 JUMPI PUSH32 0x4E487B7100000000000000000000000000000000000000000000000000000000 PUSH1 0x0 MSTORE PUSH1 0x11 PUSH1 0x4 MSTORE PUSH1 0x24 PUSH1 0x0 REVERT JUMPDEST POP PUSH1 0x1 ADD SWAP1 JUMP INVALID LOG2 PUSH5 0x6970667358 0x22 SLT KECCAK256 0x29 BALANCE PUSH28 0x4E57C0BCC8686110ADA84CC4ABE13AB3E63BC21720579E98E47B8EE3 0xCE PUSH5 0x736F6C6343 STOP ADDMOD EQ STOP CALLER "},"gasEstimates":{"creation":{"codeDepositCost":"227800","executionCost":"infinite","totalCost":"infinite"},"external":{"decimals()":"2326","description()":"infinite","getAnswer(uint256)":"2460","getRoundData(uint80)":"7001","getTimestamp(uint256)":"2482","latestAnswer()":"2363","latestRound()":"2340","latestRoundData()":"8949","latestTimestamp()":"2318","updateAnswer(int256)":"141627","updateRoundData(uint80,int256,uint256,uint256)":"137440","version()":"218"}},"methodIdentifiers":{"decimals()":"313ce567","description()":"7284e416","getAnswer(uint256)":"b5ab58dc","getRoundData(uint80)":"9a6fc8f5","getTimestamp(uint256)":"b633620c","latestAnswer()":"50d25bcd","latestRound()":"668a0f02","latestRoundData()":"feaf968c","latestTimestamp()":"8205bf6a","updateAnswer(int256)":"a87a20ce","updateRoundData(uint80,int256,uint256,uint256)":"4aa2011f","version()":"54fd4d50"}},"storageLayout":{"storage":[{"astId":8121,"contract":"contracts/mocks/MockV3Aggregator.sol:MockV3Aggregator","label":"decimals","offset":0,"slot":"0","type":"t_uint8"},{"astId":8124,"contract":"contracts/mocks/MockV3Aggregator.sol:MockV3Aggregator","label":"latestAnswer","offset":0,"slot":"1","type":"t_int256"},{"astId":8127,"contract":"contracts/mocks/MockV3Aggregator.sol:MockV3Aggregator","label":"latestTimestamp","offset":0,"slot":"2","type":"t_uint256"},{"astId":8130,"contract":"contracts/mocks/MockV3Aggregator.sol:MockV3Aggregator","label":"latestRound","offset":0,"slot":"3","type":"t_uint256"},{"astId":8135,"contract":"contracts/mocks/MockV3Aggregator.sol:MockV3Aggregator","label":"getAnswer","offset":0,"slot":"4","type":"t_mapping(t_uint256,t_int256)"},{"astId":8140,"contract":"contracts/mocks/MockV3Aggregator.sol:MockV3Aggregator","label":"getTimestamp","offset":0,"slot":"5","type":"t_mapping(t_uint256,t_uint256)"},{"astId":8144,"contract":"contracts/mocks/MockV3Aggregator.sol:MockV3Aggregator","label":"getStartedAt","offset":0,"slot":"6","type":"t_mapping(t_uint256,t_uint256)"}],"types":{"t_int256":{"encoding":"inplace","label":"int256","numberOfBytes":"32"},"t_mapping(t_uint256,t_int256)":{"encoding":"mapping","key":"t_uint256","label":"mapping(uint256 => int256)","numberOfBytes":"32","value":"t_int256"},"t_mapping(t_uint256,t_uint256)":{"encoding":"mapping","key":"t_uint256","label":"mapping(uint256 => uint256)","numberOfBytes":"32","value":"t_uint256"},"t_uint256":{"encoding":"inplace","label":"uint256","numberOfBytes":"32"},"t_uint8":{"encoding":"inplace","label":"uint8","numberOfBytes":"1"}}},"userdoc":{"kind":"user","methods":{},"notice":"Based on the FluxAggregator contractUse this contract when you need to test other contract's ability to read data from an aggregator contract, but how the aggregator got its answer is unimportant","version":1}}}}