{"contracts/NFTPledging.sol":{"NFTPledging":{"abi":[{"inputs":[],"name":"AlreadySupported","type":"error"},{"inputs":[],"name":"InvalidNFT","type":"error"},{"inputs":[],"name":"InvalidPrice","type":"error"},{"inputs":[{"internalType":"enum Structs.TokenType","name":"tokenType","type":"uint8"}],"name":"InvalidTokenType","type":"error"},{"inputs":[],"name":"TokenNotSupported","type":"error"},{"anonymous":false,"inputs":[{"indexed":false,"internalType":"address","name":"token","type":"address"},{"indexed":false,"internalType":"enum Structs.TokenType","name":"tokenType","type":"uint8"}],"name":"AddSupportedToken","type":"event"},{"inputs":[],"name":"BLOCKS_PER_YEAR","outputs":[{"internalType":"uint256","name":"","type":"uint256"}],"stateMutability":"view","type":"function"},{"inputs":[],"name":"BPS","outputs":[{"internalType":"uint256","name":"","type":"uint256"}],"stateMutability":"view","type":"function"},{"inputs":[],"name":"PRECISION","outputs":[{"internalType":"uint256","name":"","type":"uint256"}],"stateMutability":"view","type":"function"},{"inputs":[{"internalType":"address","name":"owner","type":"address"},{"internalType":"address","name":"nftAddress","type":"address"}],"name":"getDepositedNFT","outputs":[{"internalType":"uint256[]","name":"","type":"uint256[]"}],"stateMutability":"view","type":"function"},{"inputs":[{"internalType":"address","name":"owner","type":"address"},{"internalType":"address","name":"nftAddress","type":"address"}],"name":"getDepositedNFTCount","outputs":[{"internalType":"uint256","name":"","type":"uint256"}],"stateMutability":"view","type":"function"},{"inputs":[{"internalType":"address","name":"token","type":"address"}],"name":"getTokenPrice","outputs":[{"internalType":"uint256","name":"price","type":"uint256"}],"stateMutability":"view","type":"function"},{"inputs":[{"internalType":"address","name":"owner","type":"address"},{"internalType":"address","name":"nftAddress","type":"address"},{"internalType":"uint256","name":"tokenId","type":"uint256"}],"name":"hasDepositedNFT","outputs":[{"internalType":"bool","name":"","type":"bool"}],"stateMutability":"view","type":"function"},{"inputs":[{"internalType":"address","name":"","type":"address"},{"internalType":"address","name":"","type":"address"},{"internalType":"uint256","name":"","type":"uint256"},{"internalType":"bytes","name":"","type":"bytes"}],"name":"onERC721Received","outputs":[{"internalType":"bytes4","name":"","type":"bytes4"}],"stateMutability":"pure","type":"function"}],"evm":{"bytecode":{"linkReferences":{},"object":"608060405234801561001057600080fd5b50610ded806100206000396000f3fe608060405234801561001057600080fd5b50600436106100885760003560e01c8063b4240c991161005b578063b4240c9914610129578063d02641a014610159578063d37db1d214610189578063f6aa13f2146101a757610088565b8063150b7a021461008d578063249d39e9146100bd578063351b14a0146100db578063aaf5eb681461010b575b600080fd5b6100a760048036038101906100a291906107ae565b6101d7565b6040516100b49190610871565b60405180910390f35b6100c56101ec565b6040516100d2919061089b565b60405180910390f35b6100f560048036038101906100f091906108b6565b6101f3565b60405161010291906109b4565b60405180910390f35b610113610281565b604051610120919061089b565b60405180910390f35b610143600480360381019061013e91906108b6565b61028d565b604051610150919061089b565b60405180910390f35b610173600480360381019061016e91906109d6565b61031b565b604051610180919061089b565b60405180910390f35b610191610409565b60405161019e919061089b565b60405180910390f35b6101c160048036038101906101bc9190610a03565b610410565b6040516101ce9190610a71565b60405180910390f35b600063150b7a0260e01b905095945050505050565b620186a081565b6060610279600360008573ffffffffffffffffffffffffffffffffffffffff1673ffffffffffffffffffffffffffffffffffffffff16815260200190815260200160002060008473ffffffffffffffffffffffffffffffffffffffff1673ffffffffffffffffffffffffffffffffffffffff1681526020019081526020016000206104a9565b905092915050565b670de0b6b3a764000081565b6000610313600360008573ffffffffffffffffffffffffffffffffffffffff1673ffffffffffffffffffffffffffffffffffffffff16815260200190815260200160002060008473ffffffffffffffffffffffffffffffffffffffff1673ffffffffffffffffffffffffffffffffffffffff1681526020019081526020016000206104ca565b905092915050565b6000600260008373ffffffffffffffffffffffffffffffffffffffff1673ffffffffffffffffffffffffffffffffffffffff16815260200190815260200160002060000160159054906101000a900460ff1661037a5760009050610404565b6000600260008473ffffffffffffffffffffffffffffffffffffffff1673ffffffffffffffffffffffffffffffffffffffff16815260200190815260200160002060000160009054906101000a900473ffffffffffffffffffffffffffffffffffffffff1690506104008173ffffffffffffffffffffffffffffffffffffffff166104df565b9150505b919050565b6220148081565b60006104a082600360008773ffffffffffffffffffffffffffffffffffffffff1673ffffffffffffffffffffffffffffffffffffffff16815260200190815260200160002060008673ffffffffffffffffffffffffffffffffffffffff1673ffffffffffffffffffffffffffffffffffffffff16815260200190815260200160002061060190919063ffffffff16565b90509392505050565b606060006104b98360000161061b565b905060608190508092505050919050565b60006104d882600001610677565b9050919050565b60008060008060008573ffffffffffffffffffffffffffffffffffffffff1663feaf968c6040518163ffffffff1660e01b815260040160a060405180830381865afa158015610532573d6000803e3d6000fd5b505050506040513d601f19601f820116820180604052508101906105569190610b19565b94509450509350935060008313158061056f5750600082145b8061059157508369ffffffffffffffffffff168169ffffffffffffffffffff16105b806105a85750611c2082426105a69190610bc3565b115b156105de576040517ebfc92100000000000000000000000000000000000000000000000000000000815260040160405180910390fd5b600a806105eb9190610d2a565b836105f69190610d75565b945050505050919050565b6000610613836000018360001b610688565b905092915050565b60608160000180548060200260200160405190810160405280929190818152602001828054801561066b57602002820191906000526020600020905b815481526020019060010190808311610657575b50505050509050919050565b600081600001805490509050919050565b600080836001016000848152602001908152602001600020541415905092915050565b600080fd5b600080fd5b600073ffffffffffffffffffffffffffffffffffffffff82169050919050565b60006106e0826106b5565b9050919050565b6106f0816106d5565b81146106fb57600080fd5b50565b60008135905061070d816106e7565b92915050565b6000819050919050565b61072681610713565b811461073157600080fd5b50565b6000813590506107438161071d565b92915050565b600080fd5b600080fd5b600080fd5b60008083601f84011261076e5761076d610749565b5b8235905067ffffffffffffffff81111561078b5761078a61074e565b5b6020830191508360018202830111156107a7576107a6610753565b5b9250929050565b6000806000806000608086880312156107ca576107c96106ab565b5b60006107d8888289016106fe565b95505060206107e9888289016106fe565b94505060406107fa88828901610734565b935050606086013567ffffffffffffffff81111561081b5761081a6106b0565b5b61082788828901610758565b92509250509295509295909350565b60007fffffffff0000000000000000000000000000000000000000000000000000000082169050919050565b61086b81610836565b82525050565b60006020820190506108866000830184610862565b92915050565b61089581610713565b82525050565b60006020820190506108b0600083018461088c565b92915050565b600080604083850312156108cd576108cc6106ab565b5b60006108db858286016106fe565b92505060206108ec858286016106fe565b9150509250929050565b600081519050919050565b600082825260208201905092915050565b6000819050602082019050919050565b61092b81610713565b82525050565b600061093d8383610922565b60208301905092915050565b6000602082019050919050565b6000610961826108f6565b61096b8185610901565b935061097683610912565b8060005b838110156109a757815161098e8882610931565b975061099983610949565b92505060018101905061097a565b5085935050505092915050565b600060208201905081810360008301526109ce8184610956565b905092915050565b6000602082840312156109ec576109eb6106ab565b5b60006109fa848285016106fe565b91505092915050565b600080600060608486031215610a1c57610a1b6106ab565b5b6000610a2a868287016106fe565b9350506020610a3b868287016106fe565b9250506040610a4c86828701610734565b9150509250925092565b60008115159050919050565b610a6b81610a56565b82525050565b6000602082019050610a866000830184610a62565b92915050565b600069ffffffffffffffffffff82169050919050565b610aab81610a8c565b8114610ab657600080fd5b50565b600081519050610ac881610aa2565b92915050565b6000819050919050565b610ae181610ace565b8114610aec57600080fd5b50565b600081519050610afe81610ad8565b92915050565b600081519050610b138161071d565b92915050565b600080600080600060a08688031215610b3557610b346106ab565b5b6000610b4388828901610ab9565b9550506020610b5488828901610aef565b9450506040610b6588828901610b04565b9350506060610b7688828901610b04565b9250506080610b8788828901610ab9565b9150509295509295909350565b7f4e487b7100000000000000000000000000000000000000000000000000000000600052601160045260246000fd5b6000610bce82610713565b9150610bd983610713565b9250828203905081811115610bf157610bf0610b94565b5b92915050565b60008160011c9050919050565b6000808291508390505b6001851115610c4e57808604811115610c2a57610c29610b94565b5b6001851615610c395780820291505b8081029050610c4785610bf7565b9450610c0e565b94509492505050565b600082610c675760019050610d23565b81610c755760009050610d23565b8160018114610c8b5760028114610c9557610cc4565b6001915050610d23565b60ff841115610ca757610ca6610b94565b5b8360020a915084821115610cbe57610cbd610b94565b5b50610d23565b5060208310610133831016604e8410600b8410161715610cf95782820a905083811115610cf457610cf3610b94565b5b610d23565b610d068484846001610c04565b92509050818404811115610d1d57610d1c610b94565b5b81810290505b9392505050565b6000610d3582610713565b9150610d4083610713565b9250610d6d7fffffffffffffffffffffffffffffffffffffffffffffffffffffffffffffffff8484610c57565b905092915050565b6000610d8082610713565b9150610d8b83610713565b9250828202610d9981610713565b91508282048414831517610db057610daf610b94565b5b509291505056fea2646970667358221220b2dc66dc4b325f2fad78c14fc594e87d6beb3d804dd3ce1340d93a44cb73301264736f6c63430008180033","opcodes":"PUSH1 0x80 PUSH1 0x40 MSTORE CALLVALUE DUP1 ISZERO PUSH2 0x10 JUMPI PUSH1 0x0 DUP1 REVERT JUMPDEST POP PUSH2 0xDED DUP1 PUSH2 0x20 PUSH1 0x0 CODECOPY PUSH1 0x0 RETURN INVALID PUSH1 0x80 PUSH1 0x40 MSTORE CALLVALUE DUP1 ISZERO PUSH2 0x10 JUMPI PUSH1 0x0 DUP1 REVERT JUMPDEST POP PUSH1 0x4 CALLDATASIZE LT PUSH2 0x88 JUMPI PUSH1 0x0 CALLDATALOAD PUSH1 0xE0 SHR DUP1 PUSH4 0xB4240C99 GT PUSH2 0x5B JUMPI DUP1 PUSH4 0xB4240C99 EQ PUSH2 0x129 JUMPI DUP1 PUSH4 0xD02641A0 EQ PUSH2 0x159 JUMPI DUP1 PUSH4 0xD37DB1D2 EQ PUSH2 0x189 JUMPI DUP1 PUSH4 0xF6AA13F2 EQ PUSH2 0x1A7 JUMPI PUSH2 0x88 JUMP JUMPDEST DUP1 PUSH4 0x150B7A02 EQ PUSH2 0x8D JUMPI DUP1 PUSH4 0x249D39E9 EQ PUSH2 0xBD JUMPI DUP1 PUSH4 0x351B14A0 EQ PUSH2 0xDB JUMPI DUP1 PUSH4 0xAAF5EB68 EQ PUSH2 0x10B JUMPI JUMPDEST PUSH1 0x0 DUP1 REVERT JUMPDEST PUSH2 0xA7 PUSH1 0x4 DUP1 CALLDATASIZE SUB DUP2 ADD SWAP1 PUSH2 0xA2 SWAP2 SWAP1 PUSH2 0x7AE JUMP JUMPDEST PUSH2 0x1D7 JUMP JUMPDEST PUSH1 0x40 MLOAD PUSH2 0xB4 SWAP2 SWAP1 PUSH2 0x871 JUMP JUMPDEST PUSH1 0x40 MLOAD DUP1 SWAP2 SUB SWAP1 RETURN JUMPDEST PUSH2 0xC5 PUSH2 0x1EC JUMP JUMPDEST PUSH1 0x40 MLOAD PUSH2 0xD2 SWAP2 SWAP1 PUSH2 0x89B JUMP JUMPDEST PUSH1 0x40 MLOAD DUP1 SWAP2 SUB SWAP1 RETURN JUMPDEST PUSH2 0xF5 PUSH1 0x4 DUP1 CALLDATASIZE SUB DUP2 ADD SWAP1 PUSH2 0xF0 SWAP2 SWAP1 PUSH2 0x8B6 JUMP JUMPDEST PUSH2 0x1F3 JUMP JUMPDEST PUSH1 0x40 MLOAD PUSH2 0x102 SWAP2 SWAP1 PUSH2 0x9B4 JUMP JUMPDEST PUSH1 0x40 MLOAD DUP1 SWAP2 SUB SWAP1 RETURN JUMPDEST PUSH2 0x113 PUSH2 0x281 JUMP JUMPDEST PUSH1 0x40 MLOAD PUSH2 0x120 SWAP2 SWAP1 PUSH2 0x89B JUMP JUMPDEST PUSH1 0x40 MLOAD DUP1 SWAP2 SUB SWAP1 RETURN JUMPDEST PUSH2 0x143 PUSH1 0x4 DUP1 CALLDATASIZE SUB DUP2 ADD SWAP1 PUSH2 0x13E SWAP2 SWAP1 PUSH2 0x8B6 JUMP JUMPDEST PUSH2 0x28D JUMP JUMPDEST PUSH1 0x40 MLOAD PUSH2 0x150 SWAP2 SWAP1 PUSH2 0x89B JUMP JUMPDEST PUSH1 0x40 MLOAD DUP1 SWAP2 SUB SWAP1 RETURN JUMPDEST PUSH2 0x173 PUSH1 0x4 DUP1 CALLDATASIZE SUB DUP2 ADD SWAP1 PUSH2 0x16E SWAP2 SWAP1 PUSH2 0x9D6 JUMP JUMPDEST PUSH2 0x31B JUMP JUMPDEST PUSH1 0x40 MLOAD PUSH2 0x180 SWAP2 SWAP1 PUSH2 0x89B JUMP JUMPDEST PUSH1 0x40 MLOAD DUP1 SWAP2 SUB SWAP1 RETURN JUMPDEST PUSH2 0x191 PUSH2 0x409 JUMP JUMPDEST PUSH1 0x40 MLOAD PUSH2 0x19E SWAP2 SWAP1 PUSH2 0x89B JUMP JUMPDEST PUSH1 0x40 MLOAD DUP1 SWAP2 SUB SWAP1 RETURN JUMPDEST PUSH2 0x1C1 PUSH1 0x4 DUP1 CALLDATASIZE SUB DUP2 ADD SWAP1 PUSH2 0x1BC SWAP2 SWAP1 PUSH2 0xA03 JUMP JUMPDEST PUSH2 0x410 JUMP JUMPDEST PUSH1 0x40 MLOAD PUSH2 0x1CE SWAP2 SWAP1 PUSH2 0xA71 JUMP JUMPDEST PUSH1 0x40 MLOAD DUP1 SWAP2 SUB SWAP1 RETURN JUMPDEST PUSH1 0x0 PUSH4 0x150B7A02 PUSH1 0xE0 SHL SWAP1 POP SWAP6 SWAP5 POP POP POP POP POP JUMP JUMPDEST PUSH3 0x186A0 DUP2 JUMP JUMPDEST PUSH1 0x60 PUSH2 0x279 PUSH1 0x3 PUSH1 0x0 DUP6 PUSH20 0xFFFFFFFFFFFFFFFFFFFFFFFFFFFFFFFFFFFFFFFF AND PUSH20 0xFFFFFFFFFFFFFFFFFFFFFFFFFFFFFFFFFFFFFFFF AND DUP2 MSTORE PUSH1 0x20 ADD SWAP1 DUP2 MSTORE PUSH1 0x20 ADD PUSH1 0x0 KECCAK256 PUSH1 0x0 DUP5 PUSH20 0xFFFFFFFFFFFFFFFFFFFFFFFFFFFFFFFFFFFFFFFF AND PUSH20 0xFFFFFFFFFFFFFFFFFFFFFFFFFFFFFFFFFFFFFFFF AND DUP2 MSTORE PUSH1 0x20 ADD SWAP1 DUP2 MSTORE PUSH1 0x20 ADD PUSH1 0x0 KECCAK256 PUSH2 0x4A9 JUMP JUMPDEST SWAP1 POP SWAP3 SWAP2 POP POP JUMP JUMPDEST PUSH8 0xDE0B6B3A7640000 DUP2 JUMP JUMPDEST PUSH1 0x0 PUSH2 0x313 PUSH1 0x3 PUSH1 0x0 DUP6 PUSH20 0xFFFFFFFFFFFFFFFFFFFFFFFFFFFFFFFFFFFFFFFF AND PUSH20 0xFFFFFFFFFFFFFFFFFFFFFFFFFFFFFFFFFFFFFFFF AND DUP2 MSTORE PUSH1 0x20 ADD SWAP1 DUP2 MSTORE PUSH1 0x20 ADD PUSH1 0x0 KECCAK256 PUSH1 0x0 DUP5 PUSH20 0xFFFFFFFFFFFFFFFFFFFFFFFFFFFFFFFFFFFFFFFF AND PUSH20 0xFFFFFFFFFFFFFFFFFFFFFFFFFFFFFFFFFFFFFFFF AND DUP2 MSTORE PUSH1 0x20 ADD SWAP1 DUP2 MSTORE PUSH1 0x20 ADD PUSH1 0x0 KECCAK256 PUSH2 0x4CA JUMP JUMPDEST SWAP1 POP SWAP3 SWAP2 POP POP JUMP JUMPDEST PUSH1 0x0 PUSH1 0x2 PUSH1 0x0 DUP4 PUSH20 0xFFFFFFFFFFFFFFFFFFFFFFFFFFFFFFFFFFFFFFFF AND PUSH20 0xFFFFFFFFFFFFFFFFFFFFFFFFFFFFFFFFFFFFFFFF AND DUP2 MSTORE PUSH1 0x20 ADD SWAP1 DUP2 MSTORE PUSH1 0x20 ADD PUSH1 0x0 KECCAK256 PUSH1 0x0 ADD PUSH1 0x15 SWAP1 SLOAD SWAP1 PUSH2 0x100 EXP SWAP1 DIV PUSH1 0xFF AND PUSH2 0x37A JUMPI PUSH1 0x0 SWAP1 POP PUSH2 0x404 JUMP JUMPDEST PUSH1 0x0 PUSH1 0x2 PUSH1 0x0 DUP5 PUSH20 0xFFFFFFFFFFFFFFFFFFFFFFFFFFFFFFFFFFFFFFFF AND PUSH20 0xFFFFFFFFFFFFFFFFFFFFFFFFFFFFFFFFFFFFFFFF AND DUP2 MSTORE PUSH1 0x20 ADD SWAP1 DUP2 MSTORE PUSH1 0x20 ADD PUSH1 0x0 KECCAK256 PUSH1 0x0 ADD PUSH1 0x0 SWAP1 SLOAD SWAP1 PUSH2 0x100 EXP SWAP1 DIV PUSH20 0xFFFFFFFFFFFFFFFFFFFFFFFFFFFFFFFFFFFFFFFF AND SWAP1 POP PUSH2 0x400 DUP2 PUSH20 0xFFFFFFFFFFFFFFFFFFFFFFFFFFFFFFFFFFFFFFFF AND PUSH2 0x4DF JUMP JUMPDEST SWAP2 POP POP JUMPDEST SWAP2 SWAP1 POP JUMP JUMPDEST PUSH3 0x201480 DUP2 JUMP JUMPDEST PUSH1 0x0 PUSH2 0x4A0 DUP3 PUSH1 0x3 PUSH1 0x0 DUP8 PUSH20 0xFFFFFFFFFFFFFFFFFFFFFFFFFFFFFFFFFFFFFFFF AND PUSH20 0xFFFFFFFFFFFFFFFFFFFFFFFFFFFFFFFFFFFFFFFF AND DUP2 MSTORE PUSH1 0x20 ADD SWAP1 DUP2 MSTORE PUSH1 0x20 ADD PUSH1 0x0 KECCAK256 PUSH1 0x0 DUP7 PUSH20 0xFFFFFFFFFFFFFFFFFFFFFFFFFFFFFFFFFFFFFFFF AND PUSH20 0xFFFFFFFFFFFFFFFFFFFFFFFFFFFFFFFFFFFFFFFF AND DUP2 MSTORE PUSH1 0x20 ADD SWAP1 DUP2 MSTORE PUSH1 0x20 ADD PUSH1 0x0 KECCAK256 PUSH2 0x601 SWAP1 SWAP2 SWAP1 PUSH4 0xFFFFFFFF AND JUMP JUMPDEST SWAP1 POP SWAP4 SWAP3 POP POP POP JUMP JUMPDEST PUSH1 0x60 PUSH1 0x0 PUSH2 0x4B9 DUP4 PUSH1 0x0 ADD PUSH2 0x61B JUMP JUMPDEST SWAP1 POP PUSH1 0x60 DUP2 SWAP1 POP DUP1 SWAP3 POP POP POP SWAP2 SWAP1 POP JUMP JUMPDEST PUSH1 0x0 PUSH2 0x4D8 DUP3 PUSH1 0x0 ADD PUSH2 0x677 JUMP JUMPDEST SWAP1 POP SWAP2 SWAP1 POP JUMP JUMPDEST PUSH1 0x0 DUP1 PUSH1 0x0 DUP1 PUSH1 0x0 DUP6 PUSH20 0xFFFFFFFFFFFFFFFFFFFFFFFFFFFFFFFFFFFFFFFF AND PUSH4 0xFEAF968C PUSH1 0x40 MLOAD DUP2 PUSH4 0xFFFFFFFF AND PUSH1 0xE0 SHL DUP2 MSTORE PUSH1 0x4 ADD PUSH1 0xA0 PUSH1 0x40 MLOAD DUP1 DUP4 SUB DUP2 DUP7 GAS STATICCALL ISZERO DUP1 ISZERO PUSH2 0x532 JUMPI RETURNDATASIZE PUSH1 0x0 DUP1 RETURNDATACOPY RETURNDATASIZE PUSH1 0x0 REVERT JUMPDEST POP POP POP POP PUSH1 0x40 MLOAD RETURNDATASIZE PUSH1 0x1F NOT PUSH1 0x1F DUP3 ADD AND DUP3 ADD DUP1 PUSH1 0x40 MSTORE POP DUP2 ADD SWAP1 PUSH2 0x556 SWAP2 SWAP1 PUSH2 0xB19 JUMP JUMPDEST SWAP5 POP SWAP5 POP POP SWAP4 POP SWAP4 POP PUSH1 0x0 DUP4 SGT ISZERO DUP1 PUSH2 0x56F JUMPI POP PUSH1 0x0 DUP3 EQ JUMPDEST DUP1 PUSH2 0x591 JUMPI POP DUP4 PUSH10 0xFFFFFFFFFFFFFFFFFFFF AND DUP2 PUSH10 0xFFFFFFFFFFFFFFFFFFFF AND LT JUMPDEST DUP1 PUSH2 0x5A8 JUMPI POP PUSH2 0x1C20 DUP3 TIMESTAMP PUSH2 0x5A6 SWAP2 SWAP1 PUSH2 0xBC3 JUMP JUMPDEST GT JUMPDEST ISZERO PUSH2 0x5DE JUMPI PUSH1 0x40 MLOAD PUSH31 0xBFC92100000000000000000000000000000000000000000000000000000000 DUP2 MSTORE PUSH1 0x4 ADD PUSH1 0x40 MLOAD DUP1 SWAP2 SUB SWAP1 REVERT JUMPDEST PUSH1 0xA DUP1 PUSH2 0x5EB SWAP2 SWAP1 PUSH2 0xD2A JUMP JUMPDEST DUP4 PUSH2 0x5F6 SWAP2 SWAP1 PUSH2 0xD75 JUMP JUMPDEST SWAP5 POP POP POP POP POP SWAP2 SWAP1 POP JUMP JUMPDEST PUSH1 0x0 PUSH2 0x613 DUP4 PUSH1 0x0 ADD DUP4 PUSH1 0x0 SHL PUSH2 0x688 JUMP JUMPDEST SWAP1 POP SWAP3 SWAP2 POP POP JUMP JUMPDEST PUSH1 0x60 DUP2 PUSH1 0x0 ADD DUP1 SLOAD DUP1 PUSH1 0x20 MUL PUSH1 0x20 ADD PUSH1 0x40 MLOAD SWAP1 DUP2 ADD PUSH1 0x40 MSTORE DUP1 SWAP3 SWAP2 SWAP1 DUP2 DUP2 MSTORE PUSH1 0x20 ADD DUP3 DUP1 SLOAD DUP1 ISZERO PUSH2 0x66B JUMPI PUSH1 0x20 MUL DUP3 ADD SWAP2 SWAP1 PUSH1 0x0 MSTORE PUSH1 0x20 PUSH1 0x0 KECCAK256 SWAP1 JUMPDEST DUP2 SLOAD DUP2 MSTORE PUSH1 0x20 ADD SWAP1 PUSH1 0x1 ADD SWAP1 DUP1 DUP4 GT PUSH2 0x657 JUMPI JUMPDEST POP POP POP POP POP SWAP1 POP SWAP2 SWAP1 POP JUMP JUMPDEST PUSH1 0x0 DUP2 PUSH1 0x0 ADD DUP1 SLOAD SWAP1 POP SWAP1 POP SWAP2 SWAP1 POP JUMP JUMPDEST PUSH1 0x0 DUP1 DUP4 PUSH1 0x1 ADD PUSH1 0x0 DUP5 DUP2 MSTORE PUSH1 0x20 ADD SWAP1 DUP2 MSTORE PUSH1 0x20 ADD PUSH1 0x0 KECCAK256 SLOAD EQ ISZERO SWAP1 POP SWAP3 SWAP2 POP POP JUMP JUMPDEST PUSH1 0x0 DUP1 REVERT JUMPDEST PUSH1 0x0 DUP1 REVERT JUMPDEST PUSH1 0x0 PUSH20 0xFFFFFFFFFFFFFFFFFFFFFFFFFFFFFFFFFFFFFFFF DUP3 AND SWAP1 POP SWAP2 SWAP1 POP JUMP JUMPDEST PUSH1 0x0 PUSH2 0x6E0 DUP3 PUSH2 0x6B5 JUMP JUMPDEST SWAP1 POP SWAP2 SWAP1 POP JUMP JUMPDEST PUSH2 0x6F0 DUP2 PUSH2 0x6D5 JUMP JUMPDEST DUP2 EQ PUSH2 0x6FB JUMPI PUSH1 0x0 DUP1 REVERT JUMPDEST POP JUMP JUMPDEST PUSH1 0x0 DUP2 CALLDATALOAD SWAP1 POP PUSH2 0x70D DUP2 PUSH2 0x6E7 JUMP JUMPDEST SWAP3 SWAP2 POP POP JUMP JUMPDEST PUSH1 0x0 DUP2 SWAP1 POP SWAP2 SWAP1 POP JUMP JUMPDEST PUSH2 0x726 DUP2 PUSH2 0x713 JUMP JUMPDEST DUP2 EQ PUSH2 0x731 JUMPI PUSH1 0x0 DUP1 REVERT JUMPDEST POP JUMP JUMPDEST PUSH1 0x0 DUP2 CALLDATALOAD SWAP1 POP PUSH2 0x743 DUP2 PUSH2 0x71D JUMP JUMPDEST SWAP3 SWAP2 POP POP JUMP JUMPDEST PUSH1 0x0 DUP1 REVERT JUMPDEST PUSH1 0x0 DUP1 REVERT JUMPDEST PUSH1 0x0 DUP1 REVERT JUMPDEST PUSH1 0x0 DUP1 DUP4 PUSH1 0x1F DUP5 ADD SLT PUSH2 0x76E JUMPI PUSH2 0x76D PUSH2 0x749 JUMP JUMPDEST JUMPDEST DUP3 CALLDATALOAD SWAP1 POP PUSH8 0xFFFFFFFFFFFFFFFF DUP2 GT ISZERO PUSH2 0x78B JUMPI PUSH2 0x78A PUSH2 0x74E JUMP JUMPDEST JUMPDEST PUSH1 0x20 DUP4 ADD SWAP2 POP DUP4 PUSH1 0x1 DUP3 MUL DUP4 ADD GT ISZERO PUSH2 0x7A7 JUMPI PUSH2 0x7A6 PUSH2 0x753 JUMP JUMPDEST JUMPDEST SWAP3 POP SWAP3 SWAP1 POP JUMP JUMPDEST PUSH1 0x0 DUP1 PUSH1 0x0 DUP1 PUSH1 0x0 PUSH1 0x80 DUP7 DUP9 SUB SLT ISZERO PUSH2 0x7CA JUMPI PUSH2 0x7C9 PUSH2 0x6AB JUMP JUMPDEST JUMPDEST PUSH1 0x0 PUSH2 0x7D8 DUP9 DUP3 DUP10 ADD PUSH2 0x6FE JUMP JUMPDEST SWAP6 POP POP PUSH1 0x20 PUSH2 0x7E9 DUP9 DUP3 DUP10 ADD PUSH2 0x6FE JUMP JUMPDEST SWAP5 POP POP PUSH1 0x40 PUSH2 0x7FA DUP9 DUP3 DUP10 ADD PUSH2 0x734 JUMP JUMPDEST SWAP4 POP POP PUSH1 0x60 DUP7 ADD CALLDATALOAD PUSH8 0xFFFFFFFFFFFFFFFF DUP2 GT ISZERO PUSH2 0x81B JUMPI PUSH2 0x81A PUSH2 0x6B0 JUMP JUMPDEST JUMPDEST PUSH2 0x827 DUP9 DUP3 DUP10 ADD PUSH2 0x758 JUMP JUMPDEST SWAP3 POP SWAP3 POP POP SWAP3 SWAP6 POP SWAP3 SWAP6 SWAP1 SWAP4 POP JUMP JUMPDEST PUSH1 0x0 PUSH32 0xFFFFFFFF00000000000000000000000000000000000000000000000000000000 DUP3 AND SWAP1 POP SWAP2 SWAP1 POP JUMP JUMPDEST PUSH2 0x86B DUP2 PUSH2 0x836 JUMP JUMPDEST DUP3 MSTORE POP POP JUMP JUMPDEST PUSH1 0x0 PUSH1 0x20 DUP3 ADD SWAP1 POP PUSH2 0x886 PUSH1 0x0 DUP4 ADD DUP5 PUSH2 0x862 JUMP JUMPDEST SWAP3 SWAP2 POP POP JUMP JUMPDEST PUSH2 0x895 DUP2 PUSH2 0x713 JUMP JUMPDEST DUP3 MSTORE POP POP JUMP JUMPDEST PUSH1 0x0 PUSH1 0x20 DUP3 ADD SWAP1 POP PUSH2 0x8B0 PUSH1 0x0 DUP4 ADD DUP5 PUSH2 0x88C JUMP JUMPDEST SWAP3 SWAP2 POP POP JUMP JUMPDEST PUSH1 0x0 DUP1 PUSH1 0x40 DUP4 DUP6 SUB SLT ISZERO PUSH2 0x8CD JUMPI PUSH2 0x8CC PUSH2 0x6AB JUMP JUMPDEST JUMPDEST PUSH1 0x0 PUSH2 0x8DB DUP6 DUP3 DUP7 ADD PUSH2 0x6FE JUMP JUMPDEST SWAP3 POP POP PUSH1 0x20 PUSH2 0x8EC DUP6 DUP3 DUP7 ADD PUSH2 0x6FE JUMP JUMPDEST SWAP2 POP POP SWAP3 POP SWAP3 SWAP1 POP JUMP JUMPDEST PUSH1 0x0 DUP2 MLOAD SWAP1 POP SWAP2 SWAP1 POP JUMP JUMPDEST PUSH1 0x0 DUP3 DUP3 MSTORE PUSH1 0x20 DUP3 ADD SWAP1 POP SWAP3 SWAP2 POP POP JUMP JUMPDEST PUSH1 0x0 DUP2 SWAP1 POP PUSH1 0x20 DUP3 ADD SWAP1 POP SWAP2 SWAP1 POP JUMP JUMPDEST PUSH2 0x92B DUP2 PUSH2 0x713 JUMP JUMPDEST DUP3 MSTORE POP POP JUMP JUMPDEST PUSH1 0x0 PUSH2 0x93D DUP4 DUP4 PUSH2 0x922 JUMP JUMPDEST PUSH1 0x20 DUP4 ADD SWAP1 POP SWAP3 SWAP2 POP POP JUMP JUMPDEST PUSH1 0x0 PUSH1 0x20 DUP3 ADD SWAP1 POP SWAP2 SWAP1 POP JUMP JUMPDEST PUSH1 0x0 PUSH2 0x961 DUP3 PUSH2 0x8F6 JUMP JUMPDEST PUSH2 0x96B DUP2 DUP6 PUSH2 0x901 JUMP JUMPDEST SWAP4 POP PUSH2 0x976 DUP4 PUSH2 0x912 JUMP JUMPDEST DUP1 PUSH1 0x0 JUMPDEST DUP4 DUP2 LT ISZERO PUSH2 0x9A7 JUMPI DUP2 MLOAD PUSH2 0x98E DUP9 DUP3 PUSH2 0x931 JUMP JUMPDEST SWAP8 POP PUSH2 0x999 DUP4 PUSH2 0x949 JUMP JUMPDEST SWAP3 POP POP PUSH1 0x1 DUP2 ADD SWAP1 POP PUSH2 0x97A JUMP JUMPDEST POP DUP6 SWAP4 POP POP POP POP SWAP3 SWAP2 POP POP JUMP JUMPDEST PUSH1 0x0 PUSH1 0x20 DUP3 ADD SWAP1 POP DUP2 DUP2 SUB PUSH1 0x0 DUP4 ADD MSTORE PUSH2 0x9CE DUP2 DUP5 PUSH2 0x956 JUMP JUMPDEST SWAP1 POP SWAP3 SWAP2 POP POP JUMP JUMPDEST PUSH1 0x0 PUSH1 0x20 DUP3 DUP5 SUB SLT ISZERO PUSH2 0x9EC JUMPI PUSH2 0x9EB PUSH2 0x6AB JUMP JUMPDEST JUMPDEST PUSH1 0x0 PUSH2 0x9FA DUP5 DUP3 DUP6 ADD PUSH2 0x6FE JUMP JUMPDEST SWAP2 POP POP SWAP3 SWAP2 POP POP JUMP JUMPDEST PUSH1 0x0 DUP1 PUSH1 0x0 PUSH1 0x60 DUP5 DUP7 SUB SLT ISZERO PUSH2 0xA1C JUMPI PUSH2 0xA1B PUSH2 0x6AB JUMP JUMPDEST JUMPDEST PUSH1 0x0 PUSH2 0xA2A DUP7 DUP3 DUP8 ADD PUSH2 0x6FE JUMP JUMPDEST SWAP4 POP POP PUSH1 0x20 PUSH2 0xA3B DUP7 DUP3 DUP8 ADD PUSH2 0x6FE JUMP JUMPDEST SWAP3 POP POP PUSH1 0x40 PUSH2 0xA4C DUP7 DUP3 DUP8 ADD PUSH2 0x734 JUMP JUMPDEST SWAP2 POP POP SWAP3 POP SWAP3 POP SWAP3 JUMP JUMPDEST PUSH1 0x0 DUP2 ISZERO ISZERO SWAP1 POP SWAP2 SWAP1 POP JUMP JUMPDEST PUSH2 0xA6B DUP2 PUSH2 0xA56 JUMP JUMPDEST DUP3 MSTORE POP POP JUMP JUMPDEST PUSH1 0x0 PUSH1 0x20 DUP3 ADD SWAP1 POP PUSH2 0xA86 PUSH1 0x0 DUP4 ADD DUP5 PUSH2 0xA62 JUMP JUMPDEST SWAP3 SWAP2 POP POP JUMP JUMPDEST PUSH1 0x0 PUSH10 0xFFFFFFFFFFFFFFFFFFFF DUP3 AND SWAP1 POP SWAP2 SWAP1 POP JUMP JUMPDEST PUSH2 0xAAB DUP2 PUSH2 0xA8C JUMP JUMPDEST DUP2 EQ PUSH2 0xAB6 JUMPI PUSH1 0x0 DUP1 REVERT JUMPDEST POP JUMP JUMPDEST PUSH1 0x0 DUP2 MLOAD SWAP1 POP PUSH2 0xAC8 DUP2 PUSH2 0xAA2 JUMP JUMPDEST SWAP3 SWAP2 POP POP JUMP JUMPDEST PUSH1 0x0 DUP2 SWAP1 POP SWAP2 SWAP1 POP JUMP JUMPDEST PUSH2 0xAE1 DUP2 PUSH2 0xACE JUMP JUMPDEST DUP2 EQ PUSH2 0xAEC JUMPI PUSH1 0x0 DUP1 REVERT JUMPDEST POP JUMP JUMPDEST PUSH1 0x0 DUP2 MLOAD SWAP1 POP PUSH2 0xAFE DUP2 PUSH2 0xAD8 JUMP JUMPDEST SWAP3 SWAP2 POP POP JUMP JUMPDEST PUSH1 0x0 DUP2 MLOAD SWAP1 POP PUSH2 0xB13 DUP2 PUSH2 0x71D JUMP JUMPDEST SWAP3 SWAP2 POP POP JUMP JUMPDEST PUSH1 0x0 DUP1 PUSH1 0x0 DUP1 PUSH1 0x0 PUSH1 0xA0 DUP7 DUP9 SUB SLT ISZERO PUSH2 0xB35 JUMPI PUSH2 0xB34 PUSH2 0x6AB JUMP JUMPDEST JUMPDEST PUSH1 0x0 PUSH2 0xB43 DUP9 DUP3 DUP10 ADD PUSH2 0xAB9 JUMP JUMPDEST SWAP6 POP POP PUSH1 0x20 PUSH2 0xB54 DUP9 DUP3 DUP10 ADD PUSH2 0xAEF JUMP JUMPDEST SWAP5 POP POP PUSH1 0x40 PUSH2 0xB65 DUP9 DUP3 DUP10 ADD PUSH2 0xB04 JUMP JUMPDEST SWAP4 POP POP PUSH1 0x60 PUSH2 0xB76 DUP9 DUP3 DUP10 ADD PUSH2 0xB04 JUMP JUMPDEST SWAP3 POP POP PUSH1 0x80 PUSH2 0xB87 DUP9 DUP3 DUP10 ADD PUSH2 0xAB9 JUMP JUMPDEST SWAP2 POP POP SWAP3 SWAP6 POP SWAP3 SWAP6 SWAP1 SWAP4 POP JUMP JUMPDEST PUSH32 0x4E487B7100000000000000000000000000000000000000000000000000000000 PUSH1 0x0 MSTORE PUSH1 0x11 PUSH1 0x4 MSTORE PUSH1 0x24 PUSH1 0x0 REVERT JUMPDEST PUSH1 0x0 PUSH2 0xBCE DUP3 PUSH2 0x713 JUMP JUMPDEST SWAP2 POP PUSH2 0xBD9 DUP4 PUSH2 0x713 JUMP JUMPDEST SWAP3 POP DUP3 DUP3 SUB SWAP1 POP DUP2 DUP2 GT ISZERO PUSH2 0xBF1 JUMPI PUSH2 0xBF0 PUSH2 0xB94 JUMP JUMPDEST JUMPDEST SWAP3 SWAP2 POP POP JUMP JUMPDEST PUSH1 0x0 DUP2 PUSH1 0x1 SHR SWAP1 POP SWAP2 SWAP1 POP JUMP JUMPDEST PUSH1 0x0 DUP1 DUP3 SWAP2 POP DUP4 SWAP1 POP JUMPDEST PUSH1 0x1 DUP6 GT ISZERO PUSH2 0xC4E JUMPI DUP1 DUP7 DIV DUP2 GT ISZERO PUSH2 0xC2A JUMPI PUSH2 0xC29 PUSH2 0xB94 JUMP JUMPDEST JUMPDEST PUSH1 0x1 DUP6 AND ISZERO PUSH2 0xC39 JUMPI DUP1 DUP3 MUL SWAP2 POP JUMPDEST DUP1 DUP2 MUL SWAP1 POP PUSH2 0xC47 DUP6 PUSH2 0xBF7 JUMP JUMPDEST SWAP5 POP PUSH2 0xC0E JUMP JUMPDEST SWAP5 POP SWAP5 SWAP3 POP POP POP JUMP JUMPDEST PUSH1 0x0 DUP3 PUSH2 0xC67 JUMPI PUSH1 0x1 SWAP1 POP PUSH2 0xD23 JUMP JUMPDEST DUP2 PUSH2 0xC75 JUMPI PUSH1 0x0 SWAP1 POP PUSH2 0xD23 JUMP JUMPDEST DUP2 PUSH1 0x1 DUP2 EQ PUSH2 0xC8B JUMPI PUSH1 0x2 DUP2 EQ PUSH2 0xC95 JUMPI PUSH2 0xCC4 JUMP JUMPDEST PUSH1 0x1 SWAP2 POP POP PUSH2 0xD23 JUMP JUMPDEST PUSH1 0xFF DUP5 GT ISZERO PUSH2 0xCA7 JUMPI PUSH2 0xCA6 PUSH2 0xB94 JUMP JUMPDEST JUMPDEST DUP4 PUSH1 0x2 EXP SWAP2 POP DUP5 DUP3 GT ISZERO PUSH2 0xCBE JUMPI PUSH2 0xCBD PUSH2 0xB94 JUMP JUMPDEST JUMPDEST POP PUSH2 0xD23 JUMP JUMPDEST POP PUSH1 0x20 DUP4 LT PUSH2 0x133 DUP4 LT AND PUSH1 0x4E DUP5 LT PUSH1 0xB DUP5 LT AND OR ISZERO PUSH2 0xCF9 JUMPI DUP3 DUP3 EXP SWAP1 POP DUP4 DUP2 GT ISZERO PUSH2 0xCF4 JUMPI PUSH2 0xCF3 PUSH2 0xB94 JUMP JUMPDEST JUMPDEST PUSH2 0xD23 JUMP JUMPDEST PUSH2 0xD06 DUP5 DUP5 DUP5 PUSH1 0x1 PUSH2 0xC04 JUMP JUMPDEST SWAP3 POP SWAP1 POP DUP2 DUP5 DIV DUP2 GT ISZERO PUSH2 0xD1D JUMPI PUSH2 0xD1C PUSH2 0xB94 JUMP JUMPDEST JUMPDEST DUP2 DUP2 MUL SWAP1 POP JUMPDEST SWAP4 SWAP3 POP POP POP JUMP JUMPDEST PUSH1 0x0 PUSH2 0xD35 DUP3 PUSH2 0x713 JUMP JUMPDEST SWAP2 POP PUSH2 0xD40 DUP4 PUSH2 0x713 JUMP JUMPDEST SWAP3 POP PUSH2 0xD6D PUSH32 0xFFFFFFFFFFFFFFFFFFFFFFFFFFFFFFFFFFFFFFFFFFFFFFFFFFFFFFFFFFFFFFFF DUP5 DUP5 PUSH2 0xC57 JUMP JUMPDEST SWAP1 POP SWAP3 SWAP2 POP POP JUMP JUMPDEST PUSH1 0x0 PUSH2 0xD80 DUP3 PUSH2 0x713 JUMP JUMPDEST SWAP2 POP PUSH2 0xD8B DUP4 PUSH2 0x713 JUMP JUMPDEST SWAP3 POP DUP3 DUP3 MUL PUSH2 0xD99 DUP2 PUSH2 0x713 JUMP JUMPDEST SWAP2 POP DUP3 DUP3 DIV DUP5 EQ DUP4 ISZERO OR PUSH2 0xDB0 JUMPI PUSH2 0xDAF PUSH2 0xB94 JUMP JUMPDEST JUMPDEST POP SWAP3 SWAP2 POP POP JUMP INVALID LOG2 PUSH5 0x6970667358 0x22 SLT KECCAK256 0xB2 0xDC PUSH7 0xDC4B325F2FAD78 0xC1 0x4F 0xC5 SWAP5 0xE8 PUSH30 0x6BEB3D804DD3CE1340D93A44CB73301264736F6C63430008180033000000 "},"methodIdentifiers":{"BLOCKS_PER_YEAR()":"d37db1d2","BPS()":"249d39e9","PRECISION()":"aaf5eb68","getDepositedNFT(address,address)":"351b14a0","getDepositedNFTCount(address,address)":"b4240c99","getTokenPrice(address)":"d02641a0","hasDepositedNFT(address,address,uint256)":"f6aa13f2","onERC721Received(address,address,uint256,bytes)":"150b7a02"}}}}}