{"contracts/NFTPledging.sol":{"NFTPledging":{"abi":[{"inputs":[],"name":"AlreadySupported","type":"error"},{"inputs":[],"name":"InvalidNFT","type":"error"},{"inputs":[],"name":"InvalidPrice","type":"error"},{"inputs":[{"internalType":"enum Structs.TokenType","name":"tokenType","type":"uint8"}],"name":"InvalidTokenType","type":"error"},{"inputs":[],"name":"TokenNotSupported","type":"error"},{"anonymous":false,"inputs":[{"indexed":false,"internalType":"address","name":"token","type":"address"},{"indexed":false,"internalType":"enum Structs.TokenType","name":"tokenType","type":"uint8"}],"name":"AddSupportedToken","type":"event"},{"inputs":[],"name":"BLOCKS_PER_YEAR","outputs":[{"internalType":"uint256","name":"","type":"uint256"}],"stateMutability":"view","type":"function"},{"inputs":[],"name":"BPS","outputs":[{"internalType":"uint256","name":"","type":"uint256"}],"stateMutability":"view","type":"function"},{"inputs":[],"name":"PRECISION","outputs":[{"internalType":"uint256","name":"","type":"uint256"}],"stateMutability":"view","type":"function"},{"inputs":[{"internalType":"address","name":"owner","type":"address"},{"internalType":"address","name":"nftAddress","type":"address"}],"name":"getDepositedNFT","outputs":[{"internalType":"uint256[]","name":"","type":"uint256[]"}],"stateMutability":"view","type":"function"},{"inputs":[{"internalType":"address","name":"owner","type":"address"},{"internalType":"address","name":"nftAddress","type":"address"}],"name":"getDepositedNFTCount","outputs":[{"internalType":"uint256","name":"","type":"uint256"}],"stateMutability":"view","type":"function"},{"inputs":[{"internalType":"address","name":"token","type":"address"}],"name":"getTokenPrice","outputs":[{"internalType":"uint256","name":"price","type":"uint256"}],"stateMutability":"view","type":"function"},{"inputs":[{"internalType":"address","name":"owner","type":"address"},{"internalType":"address","name":"nftAddress","type":"address"},{"internalType":"uint256","name":"tokenId","type":"uint256"}],"name":"hasDepositedNFT","outputs":[{"internalType":"bool","name":"","type":"bool"}],"stateMutability":"view","type":"function"},{"inputs":[{"internalType":"address","name":"","type":"address"},{"internalType":"address","name":"","type":"address"},{"internalType":"uint256","name":"","type":"uint256"},{"internalType":"bytes","name":"","type":"bytes"}],"name":"onERC721Received","outputs":[{"internalType":"bytes4","name":"","type":"bytes4"}],"stateMutability":"pure","type":"function"}],"devdoc":{"kind":"dev","methods":{},"version":1},"evm":{"bytecode":{"linkReferences":{},"object":"608060405234801561001057600080fd5b506107aa806100206000396000f3fe608060405234801561001057600080fd5b50600436106100885760003560e01c8063b4240c991161005b578063b4240c9914610142578063d02641a014610155578063d37db1d214610168578063f6aa13f21461017257600080fd5b8063150b7a021461008d578063249d39e9146100fb578063351b14a014610113578063aaf5eb6814610133575b600080fd5b6100c561009b366004610458565b7f150b7a020000000000000000000000000000000000000000000000000000000095945050505050565b6040517fffffffff0000000000000000000000000000000000000000000000000000000090911681526020015b60405180910390f35b610105620186a081565b6040519081526020016100f2565b6101266101213660046104f3565b610195565b6040516100f29190610526565b610105670de0b6b3a764000081565b6101056101503660046104f3565b6101cf565b61010561016336600461056a565b6101ff565b6101056220148081565b610185610180366004610585565b61026b565b60405190151581526020016100f2565b6001600160a01b0380831660009081526003602090815260408083209385168352929052206060906101c6906102a4565b90505b92915050565b6001600160a01b03808316600090815260036020908152604080832093851683529290529081206101c6906102b1565b6001600160a01b0381166000908152600260205260408120547501000000000000000000000000000000000000000000900460ff1661024057506000919050565b6001600160a01b0380831660009081526002602052604090205416610264816102bb565b9392505050565b6001600160a01b038084166000908152600360209081526040808320938616835292905290812061029c90836103c8565b949350505050565b60606000610264836103e0565b60006101c9825490565b6000806000806000856001600160a01b031663feaf968c6040518163ffffffff1660e01b815260040160a060405180830381865afa158015610301573d6000803e3d6000fd5b505050506040513d601f19601f8201168201806040525081019061032591906105db565b94509450509350935060008313158061033c575081155b8061035e57508369ffffffffffffffffffff168169ffffffffffffffffffff16105b806103735750611c20610371834261065a565b115b156103a9576040517ebfc92100000000000000000000000000000000000000000000000000000000815260040160405180910390fd5b6103b4600a80610751565b6103be908461075d565b9695505050505050565b600081815260018301602052604081205415156101c6565b60608160000180548060200260200160405190810160405280929190818152602001828054801561043057602002820191906000526020600020905b81548152602001906001019080831161041c575b50505050509050919050565b80356001600160a01b038116811461045357600080fd5b919050565b60008060008060006080868803121561047057600080fd5b6104798661043c565b94506104876020870161043c565b935060408601359250606086013567ffffffffffffffff808211156104ab57600080fd5b818801915088601f8301126104bf57600080fd5b8135818111156104ce57600080fd5b8960208285010111156104e057600080fd5b9699959850939650602001949392505050565b6000806040838503121561050657600080fd5b61050f8361043c565b915061051d6020840161043c565b90509250929050565b6020808252825182820181905260009190848201906040850190845b8181101561055e57835183529284019291840191600101610542565b50909695505050505050565b60006020828403121561057c57600080fd5b6101c68261043c565b60008060006060848603121561059a57600080fd5b6105a38461043c565b92506105b16020850161043c565b9150604084013590509250925092565b805169ffffffffffffffffffff8116811461045357600080fd5b600080600080600060a086880312156105f357600080fd5b6105fc866105c1565b945060208601519350604086015192506060860151915061061f608087016105c1565b90509295509295909350565b7f4e487b7100000000000000000000000000000000000000000000000000000000600052601160045260246000fd5b818103818111156101c9576101c961062b565b600181815b808511156106a857816000190482111561068e5761068e61062b565b8085161561069b57918102915b93841c9390800290610672565b509250929050565b6000826106bf575060016101c9565b816106cc575060006101c9565b81600181146106e257600281146106ec57610708565b60019150506101c9565b60ff8411156106fd576106fd61062b565b50506001821b6101c9565b5060208310610133831016604e8410600b841016171561072b575081810a6101c9565b610735838361066d565b80600019048211156107495761074961062b565b029392505050565b60006101c683836106b0565b80820281158282048414176101c9576101c961062b56fea2646970667358221220cf007ae2f09425d03fc19a18ed411153b978cb0ad655fa7a170a44ee4952348e64736f6c63430008140033","opcodes":"PUSH1 0x80 PUSH1 0x40 MSTORE CALLVALUE DUP1 ISZERO PUSH2 0x10 JUMPI PUSH1 0x0 DUP1 REVERT JUMPDEST POP PUSH2 0x7AA DUP1 PUSH2 0x20 PUSH1 0x0 CODECOPY PUSH1 0x0 RETURN INVALID PUSH1 0x80 PUSH1 0x40 MSTORE CALLVALUE DUP1 ISZERO PUSH2 0x10 JUMPI PUSH1 0x0 DUP1 REVERT JUMPDEST POP PUSH1 0x4 CALLDATASIZE LT PUSH2 0x88 JUMPI PUSH1 0x0 CALLDATALOAD PUSH1 0xE0 SHR DUP1 PUSH4 0xB4240C99 GT PUSH2 0x5B JUMPI DUP1 PUSH4 0xB4240C99 EQ PUSH2 0x142 JUMPI DUP1 PUSH4 0xD02641A0 EQ PUSH2 0x155 JUMPI DUP1 PUSH4 0xD37DB1D2 EQ PUSH2 0x168 JUMPI DUP1 PUSH4 0xF6AA13F2 EQ PUSH2 0x172 JUMPI PUSH1 0x0 DUP1 REVERT JUMPDEST DUP1 PUSH4 0x150B7A02 EQ PUSH2 0x8D JUMPI DUP1 PUSH4 0x249D39E9 EQ PUSH2 0xFB JUMPI DUP1 PUSH4 0x351B14A0 EQ PUSH2 0x113 JUMPI DUP1 PUSH4 0xAAF5EB68 EQ PUSH2 0x133 JUMPI JUMPDEST PUSH1 0x0 DUP1 REVERT JUMPDEST PUSH2 0xC5 PUSH2 0x9B CALLDATASIZE PUSH1 0x4 PUSH2 0x458 JUMP JUMPDEST PUSH32 0x150B7A0200000000000000000000000000000000000000000000000000000000 SWAP6 SWAP5 POP POP POP POP POP JUMP JUMPDEST PUSH1 0x40 MLOAD PUSH32 0xFFFFFFFF00000000000000000000000000000000000000000000000000000000 SWAP1 SWAP2 AND DUP2 MSTORE PUSH1 0x20 ADD JUMPDEST PUSH1 0x40 MLOAD DUP1 SWAP2 SUB SWAP1 RETURN JUMPDEST PUSH2 0x105 PUSH3 0x186A0 DUP2 JUMP JUMPDEST PUSH1 0x40 MLOAD SWAP1 DUP2 MSTORE PUSH1 0x20 ADD PUSH2 0xF2 JUMP JUMPDEST PUSH2 0x126 PUSH2 0x121 CALLDATASIZE PUSH1 0x4 PUSH2 0x4F3 JUMP JUMPDEST PUSH2 0x195 JUMP JUMPDEST PUSH1 0x40 MLOAD PUSH2 0xF2 SWAP2 SWAP1 PUSH2 0x526 JUMP JUMPDEST PUSH2 0x105 PUSH8 0xDE0B6B3A7640000 DUP2 JUMP JUMPDEST PUSH2 0x105 PUSH2 0x150 CALLDATASIZE PUSH1 0x4 PUSH2 0x4F3 JUMP JUMPDEST PUSH2 0x1CF JUMP JUMPDEST PUSH2 0x105 PUSH2 0x163 CALLDATASIZE PUSH1 0x4 PUSH2 0x56A JUMP JUMPDEST PUSH2 0x1FF JUMP JUMPDEST PUSH2 0x105 PUSH3 0x201480 DUP2 JUMP JUMPDEST PUSH2 0x185 PUSH2 0x180 CALLDATASIZE PUSH1 0x4 PUSH2 0x585 JUMP JUMPDEST PUSH2 0x26B JUMP JUMPDEST PUSH1 0x40 MLOAD SWAP1 ISZERO ISZERO DUP2 MSTORE PUSH1 0x20 ADD PUSH2 0xF2 JUMP JUMPDEST PUSH1 0x1 PUSH1 0x1 PUSH1 0xA0 SHL SUB DUP1 DUP4 AND PUSH1 0x0 SWAP1 DUP2 MSTORE PUSH1 0x3 PUSH1 0x20 SWAP1 DUP2 MSTORE PUSH1 0x40 DUP1 DUP4 KECCAK256 SWAP4 DUP6 AND DUP4 MSTORE SWAP3 SWAP1 MSTORE KECCAK256 PUSH1 0x60 SWAP1 PUSH2 0x1C6 SWAP1 PUSH2 0x2A4 JUMP JUMPDEST SWAP1 POP JUMPDEST SWAP3 SWAP2 POP POP JUMP JUMPDEST PUSH1 0x1 PUSH1 0x1 PUSH1 0xA0 SHL SUB DUP1 DUP4 AND PUSH1 0x0 SWAP1 DUP2 MSTORE PUSH1 0x3 PUSH1 0x20 SWAP1 DUP2 MSTORE PUSH1 0x40 DUP1 DUP4 KECCAK256 SWAP4 DUP6 AND DUP4 MSTORE SWAP3 SWAP1 MSTORE SWAP1 DUP2 KECCAK256 PUSH2 0x1C6 SWAP1 PUSH2 0x2B1 JUMP JUMPDEST PUSH1 0x1 PUSH1 0x1 PUSH1 0xA0 SHL SUB DUP2 AND PUSH1 0x0 SWAP1 DUP2 MSTORE PUSH1 0x2 PUSH1 0x20 MSTORE PUSH1 0x40 DUP2 KECCAK256 SLOAD PUSH22 0x1000000000000000000000000000000000000000000 SWAP1 DIV PUSH1 0xFF AND PUSH2 0x240 JUMPI POP PUSH1 0x0 SWAP2 SWAP1 POP JUMP JUMPDEST PUSH1 0x1 PUSH1 0x1 PUSH1 0xA0 SHL SUB DUP1 DUP4 AND PUSH1 0x0 SWAP1 DUP2 MSTORE PUSH1 0x2 PUSH1 0x20 MSTORE PUSH1 0x40 SWAP1 KECCAK256 SLOAD AND PUSH2 0x264 DUP2 PUSH2 0x2BB JUMP JUMPDEST SWAP4 SWAP3 POP POP POP JUMP JUMPDEST PUSH1 0x1 PUSH1 0x1 PUSH1 0xA0 SHL SUB DUP1 DUP5 AND PUSH1 0x0 SWAP1 DUP2 MSTORE PUSH1 0x3 PUSH1 0x20 SWAP1 DUP2 MSTORE PUSH1 0x40 DUP1 DUP4 KECCAK256 SWAP4 DUP7 AND DUP4 MSTORE SWAP3 SWAP1 MSTORE SWAP1 DUP2 KECCAK256 PUSH2 0x29C SWAP1 DUP4 PUSH2 0x3C8 JUMP JUMPDEST SWAP5 SWAP4 POP POP POP POP JUMP JUMPDEST PUSH1 0x60 PUSH1 0x0 PUSH2 0x264 DUP4 PUSH2 0x3E0 JUMP JUMPDEST PUSH1 0x0 PUSH2 0x1C9 DUP3 SLOAD SWAP1 JUMP JUMPDEST PUSH1 0x0 DUP1 PUSH1 0x0 DUP1 PUSH1 0x0 DUP6 PUSH1 0x1 PUSH1 0x1 PUSH1 0xA0 SHL SUB AND PUSH4 0xFEAF968C PUSH1 0x40 MLOAD DUP2 PUSH4 0xFFFFFFFF AND PUSH1 0xE0 SHL DUP2 MSTORE PUSH1 0x4 ADD PUSH1 0xA0 PUSH1 0x40 MLOAD DUP1 DUP4 SUB DUP2 DUP7 GAS STATICCALL ISZERO DUP1 ISZERO PUSH2 0x301 JUMPI RETURNDATASIZE PUSH1 0x0 DUP1 RETURNDATACOPY RETURNDATASIZE PUSH1 0x0 REVERT JUMPDEST POP POP POP POP PUSH1 0x40 MLOAD RETURNDATASIZE PUSH1 0x1F NOT PUSH1 0x1F DUP3 ADD AND DUP3 ADD DUP1 PUSH1 0x40 MSTORE POP DUP2 ADD SWAP1 PUSH2 0x325 SWAP2 SWAP1 PUSH2 0x5DB JUMP JUMPDEST SWAP5 POP SWAP5 POP POP SWAP4 POP SWAP4 POP PUSH1 0x0 DUP4 SGT ISZERO DUP1 PUSH2 0x33C JUMPI POP DUP2 ISZERO JUMPDEST DUP1 PUSH2 0x35E JUMPI POP DUP4 PUSH10 0xFFFFFFFFFFFFFFFFFFFF AND DUP2 PUSH10 0xFFFFFFFFFFFFFFFFFFFF AND LT JUMPDEST DUP1 PUSH2 0x373 JUMPI POP PUSH2 0x1C20 PUSH2 0x371 DUP4 TIMESTAMP PUSH2 0x65A JUMP JUMPDEST GT JUMPDEST ISZERO PUSH2 0x3A9 JUMPI PUSH1 0x40 MLOAD PUSH31 0xBFC92100000000000000000000000000000000000000000000000000000000 DUP2 MSTORE PUSH1 0x4 ADD PUSH1 0x40 MLOAD DUP1 SWAP2 SUB SWAP1 REVERT JUMPDEST PUSH2 0x3B4 PUSH1 0xA DUP1 PUSH2 0x751 JUMP JUMPDEST PUSH2 0x3BE SWAP1 DUP5 PUSH2 0x75D JUMP JUMPDEST SWAP7 SWAP6 POP POP POP POP POP POP JUMP JUMPDEST PUSH1 0x0 DUP2 DUP2 MSTORE PUSH1 0x1 DUP4 ADD PUSH1 0x20 MSTORE PUSH1 0x40 DUP2 KECCAK256 SLOAD ISZERO ISZERO PUSH2 0x1C6 JUMP JUMPDEST PUSH1 0x60 DUP2 PUSH1 0x0 ADD DUP1 SLOAD DUP1 PUSH1 0x20 MUL PUSH1 0x20 ADD PUSH1 0x40 MLOAD SWAP1 DUP2 ADD PUSH1 0x40 MSTORE DUP1 SWAP3 SWAP2 SWAP1 DUP2 DUP2 MSTORE PUSH1 0x20 ADD DUP3 DUP1 SLOAD DUP1 ISZERO PUSH2 0x430 JUMPI PUSH1 0x20 MUL DUP3 ADD SWAP2 SWAP1 PUSH1 0x0 MSTORE PUSH1 0x20 PUSH1 0x0 KECCAK256 SWAP1 JUMPDEST DUP2 SLOAD DUP2 MSTORE PUSH1 0x20 ADD SWAP1 PUSH1 0x1 ADD SWAP1 DUP1 DUP4 GT PUSH2 0x41C JUMPI JUMPDEST POP POP POP POP POP SWAP1 POP SWAP2 SWAP1 POP JUMP JUMPDEST DUP1 CALLDATALOAD PUSH1 0x1 PUSH1 0x1 PUSH1 0xA0 SHL SUB DUP2 AND DUP2 EQ PUSH2 0x453 JUMPI PUSH1 0x0 DUP1 REVERT JUMPDEST SWAP2 SWAP1 POP JUMP JUMPDEST PUSH1 0x0 DUP1 PUSH1 0x0 DUP1 PUSH1 0x0 PUSH1 0x80 DUP7 DUP9 SUB SLT ISZERO PUSH2 0x470 JUMPI PUSH1 0x0 DUP1 REVERT JUMPDEST PUSH2 0x479 DUP7 PUSH2 0x43C JUMP JUMPDEST SWAP5 POP PUSH2 0x487 PUSH1 0x20 DUP8 ADD PUSH2 0x43C JUMP JUMPDEST SWAP4 POP PUSH1 0x40 DUP7 ADD CALLDATALOAD SWAP3 POP PUSH1 0x60 DUP7 ADD CALLDATALOAD PUSH8 0xFFFFFFFFFFFFFFFF DUP1 DUP3 GT ISZERO PUSH2 0x4AB JUMPI PUSH1 0x0 DUP1 REVERT JUMPDEST DUP2 DUP9 ADD SWAP2 POP DUP9 PUSH1 0x1F DUP4 ADD SLT PUSH2 0x4BF JUMPI PUSH1 0x0 DUP1 REVERT JUMPDEST DUP2 CALLDATALOAD DUP2 DUP2 GT ISZERO PUSH2 0x4CE JUMPI PUSH1 0x0 DUP1 REVERT JUMPDEST DUP10 PUSH1 0x20 DUP3 DUP6 ADD ADD GT ISZERO PUSH2 0x4E0 JUMPI PUSH1 0x0 DUP1 REVERT JUMPDEST SWAP7 SWAP10 SWAP6 SWAP9 POP SWAP4 SWAP7 POP PUSH1 0x20 ADD SWAP5 SWAP4 SWAP3 POP POP POP JUMP JUMPDEST PUSH1 0x0 DUP1 PUSH1 0x40 DUP4 DUP6 SUB SLT ISZERO PUSH2 0x506 JUMPI PUSH1 0x0 DUP1 REVERT JUMPDEST PUSH2 0x50F DUP4 PUSH2 0x43C JUMP JUMPDEST SWAP2 POP PUSH2 0x51D PUSH1 0x20 DUP5 ADD PUSH2 0x43C JUMP JUMPDEST SWAP1 POP SWAP3 POP SWAP3 SWAP1 POP JUMP JUMPDEST PUSH1 0x20 DUP1 DUP3 MSTORE DUP3 MLOAD DUP3 DUP3 ADD DUP2 SWAP1 MSTORE PUSH1 0x0 SWAP2 SWAP1 DUP5 DUP3 ADD SWAP1 PUSH1 0x40 DUP6 ADD SWAP1 DUP5 JUMPDEST DUP2 DUP2 LT ISZERO PUSH2 0x55E JUMPI DUP4 MLOAD DUP4 MSTORE SWAP3 DUP5 ADD SWAP3 SWAP2 DUP5 ADD SWAP2 PUSH1 0x1 ADD PUSH2 0x542 JUMP JUMPDEST POP SWAP1 SWAP7 SWAP6 POP POP POP POP POP POP JUMP JUMPDEST PUSH1 0x0 PUSH1 0x20 DUP3 DUP5 SUB SLT ISZERO PUSH2 0x57C JUMPI PUSH1 0x0 DUP1 REVERT JUMPDEST PUSH2 0x1C6 DUP3 PUSH2 0x43C JUMP JUMPDEST PUSH1 0x0 DUP1 PUSH1 0x0 PUSH1 0x60 DUP5 DUP7 SUB SLT ISZERO PUSH2 0x59A JUMPI PUSH1 0x0 DUP1 REVERT JUMPDEST PUSH2 0x5A3 DUP5 PUSH2 0x43C JUMP JUMPDEST SWAP3 POP PUSH2 0x5B1 PUSH1 0x20 DUP6 ADD PUSH2 0x43C JUMP JUMPDEST SWAP2 POP PUSH1 0x40 DUP5 ADD CALLDATALOAD SWAP1 POP SWAP3 POP SWAP3 POP SWAP3 JUMP JUMPDEST DUP1 MLOAD PUSH10 0xFFFFFFFFFFFFFFFFFFFF DUP2 AND DUP2 EQ PUSH2 0x453 JUMPI PUSH1 0x0 DUP1 REVERT JUMPDEST PUSH1 0x0 DUP1 PUSH1 0x0 DUP1 PUSH1 0x0 PUSH1 0xA0 DUP7 DUP9 SUB SLT ISZERO PUSH2 0x5F3 JUMPI PUSH1 0x0 DUP1 REVERT JUMPDEST PUSH2 0x5FC DUP7 PUSH2 0x5C1 JUMP JUMPDEST SWAP5 POP PUSH1 0x20 DUP7 ADD MLOAD SWAP4 POP PUSH1 0x40 DUP7 ADD MLOAD SWAP3 POP PUSH1 0x60 DUP7 ADD MLOAD SWAP2 POP PUSH2 0x61F PUSH1 0x80 DUP8 ADD PUSH2 0x5C1 JUMP JUMPDEST SWAP1 POP SWAP3 SWAP6 POP SWAP3 SWAP6 SWAP1 SWAP4 POP JUMP JUMPDEST PUSH32 0x4E487B7100000000000000000000000000000000000000000000000000000000 PUSH1 0x0 MSTORE PUSH1 0x11 PUSH1 0x4 MSTORE PUSH1 0x24 PUSH1 0x0 REVERT JUMPDEST DUP2 DUP2 SUB DUP2 DUP2 GT ISZERO PUSH2 0x1C9 JUMPI PUSH2 0x1C9 PUSH2 0x62B JUMP JUMPDEST PUSH1 0x1 DUP2 DUP2 JUMPDEST DUP1 DUP6 GT ISZERO PUSH2 0x6A8 JUMPI DUP2 PUSH1 0x0 NOT DIV DUP3 GT ISZERO PUSH2 0x68E JUMPI PUSH2 0x68E PUSH2 0x62B JUMP JUMPDEST DUP1 DUP6 AND ISZERO PUSH2 0x69B JUMPI SWAP2 DUP2 MUL SWAP2 JUMPDEST SWAP4 DUP5 SHR SWAP4 SWAP1 DUP1 MUL SWAP1 PUSH2 0x672 JUMP JUMPDEST POP SWAP3 POP SWAP3 SWAP1 POP JUMP JUMPDEST PUSH1 0x0 DUP3 PUSH2 0x6BF JUMPI POP PUSH1 0x1 PUSH2 0x1C9 JUMP JUMPDEST DUP2 PUSH2 0x6CC JUMPI POP PUSH1 0x0 PUSH2 0x1C9 JUMP JUMPDEST DUP2 PUSH1 0x1 DUP2 EQ PUSH2 0x6E2 JUMPI PUSH1 0x2 DUP2 EQ PUSH2 0x6EC JUMPI PUSH2 0x708 JUMP JUMPDEST PUSH1 0x1 SWAP2 POP POP PUSH2 0x1C9 JUMP JUMPDEST PUSH1 0xFF DUP5 GT ISZERO PUSH2 0x6FD JUMPI PUSH2 0x6FD PUSH2 0x62B JUMP JUMPDEST POP POP PUSH1 0x1 DUP3 SHL PUSH2 0x1C9 JUMP JUMPDEST POP PUSH1 0x20 DUP4 LT PUSH2 0x133 DUP4 LT AND PUSH1 0x4E DUP5 LT PUSH1 0xB DUP5 LT AND OR ISZERO PUSH2 0x72B JUMPI POP DUP2 DUP2 EXP PUSH2 0x1C9 JUMP JUMPDEST PUSH2 0x735 DUP4 DUP4 PUSH2 0x66D JUMP JUMPDEST DUP1 PUSH1 0x0 NOT DIV DUP3 GT ISZERO PUSH2 0x749 JUMPI PUSH2 0x749 PUSH2 0x62B JUMP JUMPDEST MUL SWAP4 SWAP3 POP POP POP JUMP JUMPDEST PUSH1 0x0 PUSH2 0x1C6 DUP4 DUP4 PUSH2 0x6B0 JUMP JUMPDEST DUP1 DUP3 MUL DUP2 ISZERO DUP3 DUP3 DIV DUP5 EQ OR PUSH2 0x1C9 JUMPI PUSH2 0x1C9 PUSH2 0x62B JUMP INVALID LOG2 PUSH5 0x6970667358 0x22 SLT KECCAK256 0xCF STOP PUSH27 0xE2F09425D03FC19A18ED411153B978CB0AD655FA7A170A44EE4952 CALLVALUE DUP15 PUSH5 0x736F6C6343 STOP ADDMOD EQ STOP CALLER "},"gasEstimates":{"creation":{"codeDepositCost":"392400","executionCost":"430","totalCost":"392830"},"external":{"BLOCKS_PER_YEAR()":"239","BPS()":"218","PRECISION()":"262","getDepositedNFT(address,address)":"infinite","getDepositedNFTCount(address,address)":"infinite","getTokenPrice(address)":"infinite","hasDepositedNFT(address,address,uint256)":"infinite","onERC721Received(address,address,uint256,bytes)":"infinite"},"internal":{"_depositNFT(address,uint256)":"infinite","_withdrawNft(address,address,address,uint256)":"infinite"}},"methodIdentifiers":{"BLOCKS_PER_YEAR()":"d37db1d2","BPS()":"249d39e9","PRECISION()":"aaf5eb68","getDepositedNFT(address,address)":"351b14a0","getDepositedNFTCount(address,address)":"b4240c99","getTokenPrice(address)":"d02641a0","hasDepositedNFT(address,address,uint256)":"f6aa13f2","onERC721Received(address,address,uint256,bytes)":"150b7a02"}},"storageLayout":{"storage":[{"astId":6652,"contract":"contracts/NFTPledging.sol:NFTPledging","label":"supportedERC20s","offset":0,"slot":"0","type":"t_array(t_address)dyn_storage"},{"astId":6655,"contract":"contracts/NFTPledging.sol:NFTPledging","label":"supportedNFTs","offset":0,"slot":"1","type":"t_array(t_address)dyn_storage"},{"astId":6660,"contract":"contracts/NFTPledging.sol:NFTPledging","label":"supportedToken","offset":0,"slot":"2","type":"t_mapping(t_address,t_struct(SupportedToken)6835_storage)"},{"astId":6481,"contract":"contracts/NFTPledging.sol:NFTPledging","label":"depositedNFTs","offset":0,"slot":"3","type":"t_mapping(t_address,t_mapping(t_address,t_struct(UintSet)3534_storage))"}],"types":{"t_address":{"encoding":"inplace","label":"address","numberOfBytes":"20"},"t_array(t_address)dyn_storage":{"base":"t_address","encoding":"dynamic_array","label":"address[]","numberOfBytes":"32"},"t_array(t_bytes32)dyn_storage":{"base":"t_bytes32","encoding":"dynamic_array","label":"bytes32[]","numberOfBytes":"32"},"t_bool":{"encoding":"inplace","label":"bool","numberOfBytes":"1"},"t_bytes32":{"encoding":"inplace","label":"bytes32","numberOfBytes":"32"},"t_enum(TokenType)6827":{"encoding":"inplace","label":"enum Structs.TokenType","numberOfBytes":"1"},"t_mapping(t_address,t_mapping(t_address,t_struct(UintSet)3534_storage))":{"encoding":"mapping","key":"t_address","label":"mapping(address => mapping(address => struct EnumerableSet.UintSet))","numberOfBytes":"32","value":"t_mapping(t_address,t_struct(UintSet)3534_storage)"},"t_mapping(t_address,t_struct(SupportedToken)6835_storage)":{"encoding":"mapping","key":"t_address","label":"mapping(address => struct Structs.SupportedToken)","numberOfBytes":"32","value":"t_struct(SupportedToken)6835_storage"},"t_mapping(t_address,t_struct(UintSet)3534_storage)":{"encoding":"mapping","key":"t_address","label":"mapping(address => struct EnumerableSet.UintSet)","numberOfBytes":"32","value":"t_struct(UintSet)3534_storage"},"t_mapping(t_bytes32,t_uint256)":{"encoding":"mapping","key":"t_bytes32","label":"mapping(bytes32 => uint256)","numberOfBytes":"32","value":"t_uint256"},"t_struct(Set)3062_storage":{"encoding":"inplace","label":"struct EnumerableSet.Set","members":[{"astId":3057,"contract":"contracts/NFTPledging.sol:NFTPledging","label":"_values","offset":0,"slot":"0","type":"t_array(t_bytes32)dyn_storage"},{"astId":3061,"contract":"contracts/NFTPledging.sol:NFTPledging","label":"_positions","offset":0,"slot":"1","type":"t_mapping(t_bytes32,t_uint256)"}],"numberOfBytes":"64"},"t_struct(SupportedToken)6835_storage":{"encoding":"inplace","label":"struct Structs.SupportedToken","members":[{"astId":6829,"contract":"contracts/NFTPledging.sol:NFTPledging","label":"usdPriceFeed","offset":0,"slot":"0","type":"t_address"},{"astId":6832,"contract":"contracts/NFTPledging.sol:NFTPledging","label":"tokenType","offset":20,"slot":"0","type":"t_enum(TokenType)6827"},{"astId":6834,"contract":"contracts/NFTPledging.sol:NFTPledging","label":"supported","offset":21,"slot":"0","type":"t_bool"}],"numberOfBytes":"32"},"t_struct(UintSet)3534_storage":{"encoding":"inplace","label":"struct EnumerableSet.UintSet","members":[{"astId":3533,"contract":"contracts/NFTPledging.sol:NFTPledging","label":"_inner","offset":0,"slot":"0","type":"t_struct(Set)3062_storage"}],"numberOfBytes":"64"},"t_uint256":{"encoding":"inplace","label":"uint256","numberOfBytes":"32"}}},"userdoc":{"kind":"user","methods":{},"version":1}}}}