{
  "_format": "hh-sol-artifact-1",
  "contractName": "TokenSupporter",
  "sourceName": "contracts/TokenSupporter.sol",
  "abi": [
    {
      "inputs": [],
      "name": "AlreadySupported",
      "type": "error"
    },
    {
      "inputs": [],
      "name": "InvalidPrice",
      "type": "error"
    },
    {
      "inputs": [
        {
          "internalType": "enum Structs.TokenType",
          "name": "tokenType",
          "type": "uint8"
        }
      ],
      "name": "InvalidTokenType",
      "type": "error"
    },
    {
      "inputs": [],
      "name": "TokenNotSupported",
      "type": "error"
    },
    {
      "anonymous": false,
      "inputs": [
        {
          "indexed": false,
          "internalType": "address",
          "name": "token",
          "type": "address"
        },
        {
          "indexed": false,
          "internalType": "enum Structs.TokenType",
          "name": "tokenType",
          "type": "uint8"
        }
      ],
      "name": "AddSupportedToken",
      "type": "event"
    },
    {
      "inputs": [],
      "name": "BLOCKS_PER_YEAR",
      "outputs": [
        {
          "internalType": "uint256",
          "name": "",
          "type": "uint256"
        }
      ],
      "stateMutability": "view",
      "type": "function"
    },
    {
      "inputs": [],
      "name": "BPS",
      "outputs": [
        {
          "internalType": "uint256",
          "name": "",
          "type": "uint256"
        }
      ],
      "stateMutability": "view",
      "type": "function"
    },
    {
      "inputs": [],
      "name": "PRECISION",
      "outputs": [
        {
          "internalType": "uint256",
          "name": "",
          "type": "uint256"
        }
      ],
      "stateMutability": "view",
      "type": "function"
    },
    {
      "inputs": [
        {
          "internalType": "address",
          "name": "token",
          "type": "address"
        }
      ],
      "name": "getTokenPrice",
      "outputs": [
        {
          "internalType": "uint256",
          "name": "price",
          "type": "uint256"
        }
      ],
      "stateMutability": "view",
      "type": "function"
    }
  ],
  "bytecode": "0x608060405234801561001057600080fd5b50610741806100206000396000f3fe608060405234801561001057600080fd5b506004361061004c5760003560e01c8063249d39e914610051578063aaf5eb681461006f578063d02641a01461008d578063d37db1d2146100bd575b600080fd5b6100596100db565b604051610066919061031e565b60405180910390f35b6100776100e2565b604051610084919061031e565b60405180910390f35b6100a760048036038101906100a2919061039c565b6100ee565b6040516100b4919061031e565b60405180910390f35b6100c56101dc565b6040516100d2919061031e565b60405180910390f35b620186a081565b670de0b6b3a764000081565b6000600260008373ffffffffffffffffffffffffffffffffffffffff1673ffffffffffffffffffffffffffffffffffffffff16815260200190815260200160002060000160159054906101000a900460ff1661014d57600090506101d7565b6000600260008473ffffffffffffffffffffffffffffffffffffffff1673ffffffffffffffffffffffffffffffffffffffff16815260200190815260200160002060000160009054906101000a900473ffffffffffffffffffffffffffffffffffffffff1690506101d38173ffffffffffffffffffffffffffffffffffffffff166101e3565b9150505b919050565b6220148081565b60008060008060008573ffffffffffffffffffffffffffffffffffffffff1663feaf968c6040518163ffffffff1660e01b815260040160a060405180830381865afa158015610236573d6000803e3d6000fd5b505050506040513d601f19601f8201168201806040525081019061025a919061046d565b9450945050935093506000831315806102735750600082145b8061029557508369ffffffffffffffffffff168169ffffffffffffffffffff16105b806102ac5750611c2082426102aa9190610517565b115b156102e2576040517ebfc92100000000000000000000000000000000000000000000000000000000815260040160405180910390fd5b600a806102ef919061067e565b836102fa91906106c9565b945050505050919050565b6000819050919050565b61031881610305565b82525050565b6000602082019050610333600083018461030f565b92915050565b600080fd5b600073ffffffffffffffffffffffffffffffffffffffff82169050919050565b60006103698261033e565b9050919050565b6103798161035e565b811461038457600080fd5b50565b60008135905061039681610370565b92915050565b6000602082840312156103b2576103b1610339565b5b60006103c084828501610387565b91505092915050565b600069ffffffffffffffffffff82169050919050565b6103e8816103c9565b81146103f357600080fd5b50565b600081519050610405816103df565b92915050565b6000819050919050565b61041e8161040b565b811461042957600080fd5b50565b60008151905061043b81610415565b92915050565b61044a81610305565b811461045557600080fd5b50565b60008151905061046781610441565b92915050565b600080600080600060a0868803121561048957610488610339565b5b6000610497888289016103f6565b95505060206104a88882890161042c565b94505060406104b988828901610458565b93505060606104ca88828901610458565b92505060806104db888289016103f6565b9150509295509295909350565b7f4e487b7100000000000000000000000000000000000000000000000000000000600052601160045260246000fd5b600061052282610305565b915061052d83610305565b9250828203905081811115610545576105446104e8565b5b92915050565b60008160011c9050919050565b6000808291508390505b60018511156105a25780860481111561057e5761057d6104e8565b5b600185161561058d5780820291505b808102905061059b8561054b565b9450610562565b94509492505050565b6000826105bb5760019050610677565b816105c95760009050610677565b81600181146105df57600281146105e957610618565b6001915050610677565b60ff8411156105fb576105fa6104e8565b5b8360020a915084821115610612576106116104e8565b5b50610677565b5060208310610133831016604e8410600b841016171561064d5782820a905083811115610648576106476104e8565b5b610677565b61065a8484846001610558565b92509050818404811115610671576106706104e8565b5b81810290505b9392505050565b600061068982610305565b915061069483610305565b92506106c17fffffffffffffffffffffffffffffffffffffffffffffffffffffffffffffffff84846105ab565b905092915050565b60006106d482610305565b91506106df83610305565b92508282026106ed81610305565b91508282048414831517610704576107036104e8565b5b509291505056fea2646970667358221220ba2bdf220d433605691695a1c5fbc058b0f2833049405fe2b13848292e57dd8164736f6c63430008180033",
  "linkReferences": {},
  "deployedLinkReferences": {}
}