{
  "_format": "hh-sol-artifact-1",
  "contractName": "TokenSupporter",
  "sourceName": "contracts/TokenSupporter.sol",
  "abi": [
    {
      "inputs": [],
      "name": "AlreadySupported",
      "type": "error"
    },
    {
      "inputs": [],
      "name": "InvalidPrice",
      "type": "error"
    },
    {
      "inputs": [
        {
          "internalType": "enum Structs.TokenType",
          "name": "tokenType",
          "type": "uint8"
        }
      ],
      "name": "InvalidTokenType",
      "type": "error"
    },
    {
      "inputs": [],
      "name": "TokenNotSupported",
      "type": "error"
    },
    {
      "anonymous": false,
      "inputs": [
        {
          "indexed": false,
          "internalType": "address",
          "name": "token",
          "type": "address"
        },
        {
          "indexed": false,
          "internalType": "enum Structs.TokenType",
          "name": "tokenType",
          "type": "uint8"
        }
      ],
      "name": "AddSupportedToken",
      "type": "event"
    },
    {
      "inputs": [],
      "name": "BLOCKS_PER_YEAR",
      "outputs": [
        {
          "internalType": "uint256",
          "name": "",
          "type": "uint256"
        }
      ],
      "stateMutability": "view",
      "type": "function"
    },
    {
      "inputs": [],
      "name": "BPS",
      "outputs": [
        {
          "internalType": "uint256",
          "name": "",
          "type": "uint256"
        }
      ],
      "stateMutability": "view",
      "type": "function"
    },
    {
      "inputs": [],
      "name": "PRECISION",
      "outputs": [
        {
          "internalType": "uint256",
          "name": "",
          "type": "uint256"
        }
      ],
      "stateMutability": "view",
      "type": "function"
    },
    {
      "inputs": [
        {
          "internalType": "address",
          "name": "token",
          "type": "address"
        }
      ],
      "name": "getTokenPrice",
      "outputs": [
        {
          "internalType": "uint256",
          "name": "price",
          "type": "uint256"
        }
      ],
      "stateMutability": "view",
      "type": "function"
    }
  ],
  "bytecode": "0x608060405234801561001057600080fd5b50610463806100206000396000f3fe608060405234801561001057600080fd5b506004361061004c5760003560e01c8063249d39e914610051578063aaf5eb681461006d578063d02641a01461007c578063d37db1d21461008f575b600080fd5b61005b620186a081565b60405190815260200160405180910390f35b61005b670de0b6b3a764000081565b61005b61008a366004610239565b610099565b61005b6220148081565b73ffffffffffffffffffffffffffffffffffffffff81166000908152600260205260408120547501000000000000000000000000000000000000000000900460ff166100e757506000919050565b73ffffffffffffffffffffffffffffffffffffffff808316600090815260026020526040902054166101188161011f565b9392505050565b60008060008060008573ffffffffffffffffffffffffffffffffffffffff1663feaf968c6040518163ffffffff1660e01b815260040160a060405180830381865afa158015610172573d6000803e3d6000fd5b505050506040513d601f19601f82011682018060405250810190610196919061028e565b9450945050935093506000831315806101ad575081155b806101cf57508369ffffffffffffffffffff168169ffffffffffffffffffff16105b806101e45750611c206101e2834261030d565b115b1561021a576040517ebfc92100000000000000000000000000000000000000000000000000000000815260040160405180910390fd5b610225600a8061040a565b61022f9084610416565b9695505050505050565b60006020828403121561024b57600080fd5b813573ffffffffffffffffffffffffffffffffffffffff8116811461011857600080fd5b805169ffffffffffffffffffff8116811461028957600080fd5b919050565b600080600080600060a086880312156102a657600080fd5b6102af8661026f565b94506020860151935060408601519250606086015191506102d26080870161026f565b90509295509295909350565b7f4e487b7100000000000000000000000000000000000000000000000000000000600052601160045260246000fd5b81810381811115610320576103206102de565b92915050565b600181815b80851115610361578160001904821115610347576103476102de565b8085161561035457918102915b93841c939080029061032b565b509250929050565b60008261037857506001610320565b8161038557506000610320565b816001811461039b57600281146103a5576103c1565b6001915050610320565b60ff8411156103b6576103b66102de565b50506001821b610320565b5060208310610133831016604e8410600b84101617156103e4575081810a610320565b6103ee8383610326565b8060001904821115610402576104026102de565b029392505050565b60006101188383610369565b8082028115828204841417610320576103206102de56fea2646970667358221220ee16034ca18b41743f4da97d486da63c67a36d0b90ee93b9685b76c0738687a164736f6c63430008140033",
  "linkReferences": {},
  "deployedLinkReferences": {}
}