{
  "_format": "hh-sol-artifact-1",
  "contractName": "ERC20DecimalsMock",
  "sourceName": "contracts/mocks/DecimalsMock.sol",
  "abi": [
    {
      "inputs": [
        {
          "internalType": "string",
          "name": "name",
          "type": "string"
        },
        {
          "internalType": "string",
          "name": "symbol",
          "type": "string"
        },
        {
          "internalType": "uint8",
          "name": "_decimals",
          "type": "uint8"
        }
      ],
      "stateMutability": "payable",
      "type": "constructor"
    },
    {
      "inputs": [
        {
          "internalType": "address",
          "name": "spender",
          "type": "address"
        },
        {
          "internalType": "uint256",
          "name": "allowance",
          "type": "uint256"
        },
        {
          "internalType": "uint256",
          "name": "needed",
          "type": "uint256"
        }
      ],
      "name": "ERC20InsufficientAllowance",
      "type": "error"
    },
    {
      "inputs": [
        {
          "internalType": "address",
          "name": "sender",
          "type": "address"
        },
        {
          "internalType": "uint256",
          "name": "balance",
          "type": "uint256"
        },
        {
          "internalType": "uint256",
          "name": "needed",
          "type": "uint256"
        }
      ],
      "name": "ERC20InsufficientBalance",
      "type": "error"
    },
    {
      "inputs": [
        {
          "internalType": "address",
          "name": "approver",
          "type": "address"
        }
      ],
      "name": "ERC20InvalidApprover",
      "type": "error"
    },
    {
      "inputs": [
        {
          "internalType": "address",
          "name": "receiver",
          "type": "address"
        }
      ],
      "name": "ERC20InvalidReceiver",
      "type": "error"
    },
    {
      "inputs": [
        {
          "internalType": "address",
          "name": "sender",
          "type": "address"
        }
      ],
      "name": "ERC20InvalidSender",
      "type": "error"
    },
    {
      "inputs": [
        {
          "internalType": "address",
          "name": "spender",
          "type": "address"
        }
      ],
      "name": "ERC20InvalidSpender",
      "type": "error"
    },
    {
      "anonymous": false,
      "inputs": [
        {
          "indexed": true,
          "internalType": "address",
          "name": "owner",
          "type": "address"
        },
        {
          "indexed": true,
          "internalType": "address",
          "name": "spender",
          "type": "address"
        },
        {
          "indexed": false,
          "internalType": "uint256",
          "name": "value",
          "type": "uint256"
        }
      ],
      "name": "Approval",
      "type": "event"
    },
    {
      "anonymous": false,
      "inputs": [
        {
          "indexed": true,
          "internalType": "address",
          "name": "from",
          "type": "address"
        },
        {
          "indexed": true,
          "internalType": "address",
          "name": "to",
          "type": "address"
        },
        {
          "indexed": false,
          "internalType": "uint256",
          "name": "value",
          "type": "uint256"
        }
      ],
      "name": "Transfer",
      "type": "event"
    },
    {
      "inputs": [
        {
          "internalType": "address",
          "name": "owner",
          "type": "address"
        },
        {
          "internalType": "address",
          "name": "spender",
          "type": "address"
        }
      ],
      "name": "allowance",
      "outputs": [
        {
          "internalType": "uint256",
          "name": "",
          "type": "uint256"
        }
      ],
      "stateMutability": "view",
      "type": "function"
    },
    {
      "inputs": [
        {
          "internalType": "address",
          "name": "spender",
          "type": "address"
        },
        {
          "internalType": "uint256",
          "name": "value",
          "type": "uint256"
        }
      ],
      "name": "approve",
      "outputs": [
        {
          "internalType": "bool",
          "name": "",
          "type": "bool"
        }
      ],
      "stateMutability": "nonpayable",
      "type": "function"
    },
    {
      "inputs": [
        {
          "internalType": "address",
          "name": "owner",
          "type": "address"
        },
        {
          "internalType": "address",
          "name": "spender",
          "type": "address"
        },
        {
          "internalType": "uint256",
          "name": "value",
          "type": "uint256"
        }
      ],
      "name": "approveInternal",
      "outputs": [],
      "stateMutability": "nonpayable",
      "type": "function"
    },
    {
      "inputs": [
        {
          "internalType": "address",
          "name": "account",
          "type": "address"
        }
      ],
      "name": "balanceOf",
      "outputs": [
        {
          "internalType": "uint256",
          "name": "",
          "type": "uint256"
        }
      ],
      "stateMutability": "view",
      "type": "function"
    },
    {
      "inputs": [
        {
          "internalType": "address",
          "name": "account",
          "type": "address"
        },
        {
          "internalType": "uint256",
          "name": "amount",
          "type": "uint256"
        }
      ],
      "name": "burn",
      "outputs": [],
      "stateMutability": "nonpayable",
      "type": "function"
    },
    {
      "inputs": [],
      "name": "decimals",
      "outputs": [
        {
          "internalType": "uint8",
          "name": "",
          "type": "uint8"
        }
      ],
      "stateMutability": "view",
      "type": "function"
    },
    {
      "inputs": [
        {
          "internalType": "address",
          "name": "account",
          "type": "address"
        },
        {
          "internalType": "uint256",
          "name": "amount",
          "type": "uint256"
        }
      ],
      "name": "mint",
      "outputs": [],
      "stateMutability": "nonpayable",
      "type": "function"
    },
    {
      "inputs": [],
      "name": "name",
      "outputs": [
        {
          "internalType": "string",
          "name": "",
          "type": "string"
        }
      ],
      "stateMutability": "view",
      "type": "function"
    },
    {
      "inputs": [],
      "name": "symbol",
      "outputs": [
        {
          "internalType": "string",
          "name": "",
          "type": "string"
        }
      ],
      "stateMutability": "view",
      "type": "function"
    },
    {
      "inputs": [],
      "name": "tokenDecimals",
      "outputs": [
        {
          "internalType": "uint8",
          "name": "",
          "type": "uint8"
        }
      ],
      "stateMutability": "view",
      "type": "function"
    },
    {
      "inputs": [],
      "name": "totalSupply",
      "outputs": [
        {
          "internalType": "uint256",
          "name": "",
          "type": "uint256"
        }
      ],
      "stateMutability": "view",
      "type": "function"
    },
    {
      "inputs": [
        {
          "internalType": "address",
          "name": "to",
          "type": "address"
        },
        {
          "internalType": "uint256",
          "name": "value",
          "type": "uint256"
        }
      ],
      "name": "transfer",
      "outputs": [
        {
          "internalType": "bool",
          "name": "",
          "type": "bool"
        }
      ],
      "stateMutability": "nonpayable",
      "type": "function"
    },
    {
      "inputs": [
        {
          "internalType": "address",
          "name": "from",
          "type": "address"
        },
        {
          "internalType": "address",
          "name": "to",
          "type": "address"
        },
        {
          "internalType": "uint256",
          "name": "value",
          "type": "uint256"
        }
      ],
      "name": "transferFrom",
      "outputs": [
        {
          "internalType": "bool",
          "name": "",
          "type": "bool"
        }
      ],
      "stateMutability": "nonpayable",
      "type": "function"
    },
    {
      "inputs": [
        {
          "internalType": "address",
          "name": "from",
          "type": "address"
        },
        {
          "internalType": "address",
          "name": "to",
          "type": "address"
        },
        {
          "internalType": "uint256",
          "name": "value",
          "type": "uint256"
        }
      ],
      "name": "transferInternal",
      "outputs": [],
      "stateMutability": "nonpayable",
      "type": "function"
    }
  ],
  "bytecode": "0x608060405260405162000bf538038062000bf583398101604081905262000026916200012b565b828260036200003683826200023f565b5060046200004582826200023f565b50506005805460ff191660ff9390931692909217909155506200030b915050565b634e487b7160e01b600052604160045260246000fd5b600082601f8301126200008e57600080fd5b81516001600160401b0380821115620000ab57620000ab62000066565b604051601f8301601f19908116603f01168101908282118183101715620000d657620000d662000066565b81604052838152602092508683858801011115620000f357600080fd5b600091505b83821015620001175785820183015181830184015290820190620000f8565b600093810190920192909252949350505050565b6000806000606084860312156200014157600080fd5b83516001600160401b03808211156200015957600080fd5b62000167878388016200007c565b945060208601519150808211156200017e57600080fd5b506200018d868287016200007c565b925050604084015160ff81168114620001a557600080fd5b809150509250925092565b600181811c90821680620001c557607f821691505b602082108103620001e657634e487b7160e01b600052602260045260246000fd5b50919050565b601f8211156200023a57600081815260208120601f850160051c81016020861015620002155750805b601f850160051c820191505b81811015620002365782815560010162000221565b5050505b505050565b81516001600160401b038111156200025b576200025b62000066565b62000273816200026c8454620001b0565b84620001ec565b602080601f831160018114620002ab5760008415620002925750858301515b600019600386901b1c1916600185901b17855562000236565b600085815260208120601f198616915b82811015620002dc57888601518255948401946001909101908401620002bb565b5085821015620002fb5787850151600019600388901b60f8161c191681555b5050505050600190811b01905550565b6108da806200031b6000396000f3fe608060405234801561001057600080fd5b50600436106100ea5760003560e01c806340c10f191161008c57806395d89b411161006657806395d89b41146101df5780639dc29fac146101e7578063a9059cbb146101fa578063dd62ed3e1461020d57600080fd5b806340c10f191461019057806356189cb4146101a357806370a08231146101b657600080fd5b8063222f5be0116100c8578063222f5be01461014257806323b872dd14610157578063313ce5671461016a5780633b97e8561461018357600080fd5b806306fdde03146100ef578063095ea7b31461010d57806318160ddd14610130575b600080fd5b6100f7610246565b6040516101049190610724565b60405180910390f35b61012061011b36600461078e565b6102d8565b6040519015158152602001610104565b6002545b604051908152602001610104565b6101556101503660046107b8565b6102f2565b005b6101206101653660046107b8565b610302565b60055460ff165b60405160ff9091168152602001610104565b6005546101719060ff1681565b61015561019e36600461078e565b610326565b6101556101b13660046107b8565b610334565b6101346101c43660046107f4565b6001600160a01b031660009081526020819052604090205490565b6100f761033f565b6101556101f536600461078e565b61034e565b61012061020836600461078e565b610358565b61013461021b366004610816565b6001600160a01b03918216600090815260016020908152604080832093909416825291909152205490565b60606003805461025590610849565b80601f016020809104026020016040519081016040528092919081815260200182805461028190610849565b80156102ce5780601f106102a3576101008083540402835291602001916102ce565b820191906000526020600020905b8154815290600101906020018083116102b157829003601f168201915b5050505050905090565b6000336102e6818585610366565b60019150505b92915050565b6102fd838383610373565b505050565b6000336103108582856103d7565b61031b858585610373565b506001949350505050565b610330828261046e565b5050565b6102fd838383610366565b60606004805461025590610849565b61033082826104a4565b6000336102e6818585610373565b6102fd83838360016104da565b6001600160a01b0383166103a257604051634b637e8f60e11b8152600060048201526024015b60405180910390fd5b6001600160a01b0382166103cc5760405163ec442f0560e01b815260006004820152602401610399565b6102fd8383836105e1565b6001600160a01b0383811660009081526001602090815260408083209386168352929052205460001981146104685781811015610459576040517ffb8f41b20000000000000000000000000000000000000000000000000000000081526001600160a01b03841660048201526024810182905260448101839052606401610399565b610468848484840360006104da565b50505050565b6001600160a01b0382166104985760405163ec442f0560e01b815260006004820152602401610399565b610330600083836105e1565b6001600160a01b0382166104ce57604051634b637e8f60e11b815260006004820152602401610399565b610330826000836105e1565b6001600160a01b03841661051d576040517fe602df0500000000000000000000000000000000000000000000000000000000815260006004820152602401610399565b6001600160a01b038316610560576040517f94280d6200000000000000000000000000000000000000000000000000000000815260006004820152602401610399565b6001600160a01b038085166000908152600160209081526040808320938716835292905220829055801561046857826001600160a01b0316846001600160a01b03167f8c5be1e5ebec7d5bd14f71427d1e84f3dd0314c0f7b2291e5b200ac8c7c3b925846040516105d391815260200190565b60405180910390a350505050565b6001600160a01b03831661060c5780600260008282546106019190610883565b909155506106979050565b6001600160a01b03831660009081526020819052604090205481811015610678576040517fe450d38c0000000000000000000000000000000000000000000000000000000081526001600160a01b03851660048201526024810182905260448101839052606401610399565b6001600160a01b03841660009081526020819052604090209082900390555b6001600160a01b0382166106b3576002805482900390556106d2565b6001600160a01b03821660009081526020819052604090208054820190555b816001600160a01b0316836001600160a01b03167fddf252ad1be2c89b69c2b068fc378daa952ba7f163c4a11628f55a4df523b3ef8360405161071791815260200190565b60405180910390a3505050565b600060208083528351808285015260005b8181101561075157858101830151858201604001528201610735565b506000604082860101526040601f19601f8301168501019250505092915050565b80356001600160a01b038116811461078957600080fd5b919050565b600080604083850312156107a157600080fd5b6107aa83610772565b946020939093013593505050565b6000806000606084860312156107cd57600080fd5b6107d684610772565b92506107e460208501610772565b9150604084013590509250925092565b60006020828403121561080657600080fd5b61080f82610772565b9392505050565b6000806040838503121561082957600080fd5b61083283610772565b915061084060208401610772565b90509250929050565b600181811c9082168061085d57607f821691505b60208210810361087d57634e487b7160e01b600052602260045260246000fd5b50919050565b808201808211156102ec57634e487b7160e01b600052601160045260246000fdfea264697066735822122012335b9ec58bc11e2cd9e4b28562749dce59a57d41f67e6aa55087639bb564b664736f6c63430008140033",
  "linkReferences": {},
  "deployedLinkReferences": {}
}