{
  "_format": "hh-sol-artifact-1",
  "contractName": "ERC20DecimalsMock",
  "sourceName": "contracts/mocks/DecimalsMock.sol",
  "abi": [
    {
      "inputs": [
        {
          "internalType": "string",
          "name": "name",
          "type": "string"
        },
        {
          "internalType": "string",
          "name": "symbol",
          "type": "string"
        },
        {
          "internalType": "uint8",
          "name": "_decimals",
          "type": "uint8"
        }
      ],
      "stateMutability": "payable",
      "type": "constructor"
    },
    {
      "inputs": [
        {
          "internalType": "address",
          "name": "spender",
          "type": "address"
        },
        {
          "internalType": "uint256",
          "name": "allowance",
          "type": "uint256"
        },
        {
          "internalType": "uint256",
          "name": "needed",
          "type": "uint256"
        }
      ],
      "name": "ERC20InsufficientAllowance",
      "type": "error"
    },
    {
      "inputs": [
        {
          "internalType": "address",
          "name": "sender",
          "type": "address"
        },
        {
          "internalType": "uint256",
          "name": "balance",
          "type": "uint256"
        },
        {
          "internalType": "uint256",
          "name": "needed",
          "type": "uint256"
        }
      ],
      "name": "ERC20InsufficientBalance",
      "type": "error"
    },
    {
      "inputs": [
        {
          "internalType": "address",
          "name": "approver",
          "type": "address"
        }
      ],
      "name": "ERC20InvalidApprover",
      "type": "error"
    },
    {
      "inputs": [
        {
          "internalType": "address",
          "name": "receiver",
          "type": "address"
        }
      ],
      "name": "ERC20InvalidReceiver",
      "type": "error"
    },
    {
      "inputs": [
        {
          "internalType": "address",
          "name": "sender",
          "type": "address"
        }
      ],
      "name": "ERC20InvalidSender",
      "type": "error"
    },
    {
      "inputs": [
        {
          "internalType": "address",
          "name": "spender",
          "type": "address"
        }
      ],
      "name": "ERC20InvalidSpender",
      "type": "error"
    },
    {
      "anonymous": false,
      "inputs": [
        {
          "indexed": true,
          "internalType": "address",
          "name": "owner",
          "type": "address"
        },
        {
          "indexed": true,
          "internalType": "address",
          "name": "spender",
          "type": "address"
        },
        {
          "indexed": false,
          "internalType": "uint256",
          "name": "value",
          "type": "uint256"
        }
      ],
      "name": "Approval",
      "type": "event"
    },
    {
      "anonymous": false,
      "inputs": [
        {
          "indexed": true,
          "internalType": "address",
          "name": "from",
          "type": "address"
        },
        {
          "indexed": true,
          "internalType": "address",
          "name": "to",
          "type": "address"
        },
        {
          "indexed": false,
          "internalType": "uint256",
          "name": "value",
          "type": "uint256"
        }
      ],
      "name": "Transfer",
      "type": "event"
    },
    {
      "inputs": [
        {
          "internalType": "address",
          "name": "owner",
          "type": "address"
        },
        {
          "internalType": "address",
          "name": "spender",
          "type": "address"
        }
      ],
      "name": "allowance",
      "outputs": [
        {
          "internalType": "uint256",
          "name": "",
          "type": "uint256"
        }
      ],
      "stateMutability": "view",
      "type": "function"
    },
    {
      "inputs": [
        {
          "internalType": "address",
          "name": "spender",
          "type": "address"
        },
        {
          "internalType": "uint256",
          "name": "value",
          "type": "uint256"
        }
      ],
      "name": "approve",
      "outputs": [
        {
          "internalType": "bool",
          "name": "",
          "type": "bool"
        }
      ],
      "stateMutability": "nonpayable",
      "type": "function"
    },
    {
      "inputs": [
        {
          "internalType": "address",
          "name": "owner",
          "type": "address"
        },
        {
          "internalType": "address",
          "name": "spender",
          "type": "address"
        },
        {
          "internalType": "uint256",
          "name": "value",
          "type": "uint256"
        }
      ],
      "name": "approveInternal",
      "outputs": [],
      "stateMutability": "nonpayable",
      "type": "function"
    },
    {
      "inputs": [
        {
          "internalType": "address",
          "name": "account",
          "type": "address"
        }
      ],
      "name": "balanceOf",
      "outputs": [
        {
          "internalType": "uint256",
          "name": "",
          "type": "uint256"
        }
      ],
      "stateMutability": "view",
      "type": "function"
    },
    {
      "inputs": [
        {
          "internalType": "address",
          "name": "account",
          "type": "address"
        },
        {
          "internalType": "uint256",
          "name": "amount",
          "type": "uint256"
        }
      ],
      "name": "burn",
      "outputs": [],
      "stateMutability": "nonpayable",
      "type": "function"
    },
    {
      "inputs": [],
      "name": "decimals",
      "outputs": [
        {
          "internalType": "uint8",
          "name": "",
          "type": "uint8"
        }
      ],
      "stateMutability": "view",
      "type": "function"
    },
    {
      "inputs": [
        {
          "internalType": "address",
          "name": "account",
          "type": "address"
        },
        {
          "internalType": "uint256",
          "name": "amount",
          "type": "uint256"
        }
      ],
      "name": "mint",
      "outputs": [],
      "stateMutability": "nonpayable",
      "type": "function"
    },
    {
      "inputs": [],
      "name": "name",
      "outputs": [
        {
          "internalType": "string",
          "name": "",
          "type": "string"
        }
      ],
      "stateMutability": "view",
      "type": "function"
    },
    {
      "inputs": [],
      "name": "symbol",
      "outputs": [
        {
          "internalType": "string",
          "name": "",
          "type": "string"
        }
      ],
      "stateMutability": "view",
      "type": "function"
    },
    {
      "inputs": [],
      "name": "tokenDecimals",
      "outputs": [
        {
          "internalType": "uint8",
          "name": "",
          "type": "uint8"
        }
      ],
      "stateMutability": "view",
      "type": "function"
    },
    {
      "inputs": [],
      "name": "totalSupply",
      "outputs": [
        {
          "internalType": "uint256",
          "name": "",
          "type": "uint256"
        }
      ],
      "stateMutability": "view",
      "type": "function"
    },
    {
      "inputs": [
        {
          "internalType": "address",
          "name": "to",
          "type": "address"
        },
        {
          "internalType": "uint256",
          "name": "value",
          "type": "uint256"
        }
      ],
      "name": "transfer",
      "outputs": [
        {
          "internalType": "bool",
          "name": "",
          "type": "bool"
        }
      ],
      "stateMutability": "nonpayable",
      "type": "function"
    },
    {
      "inputs": [
        {
          "internalType": "address",
          "name": "from",
          "type": "address"
        },
        {
          "internalType": "address",
          "name": "to",
          "type": "address"
        },
        {
          "internalType": "uint256",
          "name": "value",
          "type": "uint256"
        }
      ],
      "name": "transferFrom",
      "outputs": [
        {
          "internalType": "bool",
          "name": "",
          "type": "bool"
        }
      ],
      "stateMutability": "nonpayable",
      "type": "function"
    },
    {
      "inputs": [
        {
          "internalType": "address",
          "name": "from",
          "type": "address"
        },
        {
          "internalType": "address",
          "name": "to",
          "type": "address"
        },
        {
          "internalType": "uint256",
          "name": "value",
          "type": "uint256"
        }
      ],
      "name": "transferInternal",
      "outputs": [],
      "stateMutability": "nonpayable",
      "type": "function"
    }
  ],
  "bytecode": "0x6080604052604051620016bd380380620016bd833981810160405281019062000029919062000246565b828281600390816200003c91906200052b565b5080600490816200004e91906200052b565b50505080600560006101000a81548160ff021916908360ff16021790555050505062000612565b6000604051905090565b600080fd5b600080fd5b600080fd5b600080fd5b6000601f19601f8301169050919050565b7f4e487b7100000000000000000000000000000000000000000000000000000000600052604160045260246000fd5b620000de8262000093565b810181811067ffffffffffffffff821117156200010057620000ff620000a4565b5b80604052505050565b60006200011562000075565b9050620001238282620000d3565b919050565b600067ffffffffffffffff821115620001465762000145620000a4565b5b620001518262000093565b9050602081019050919050565b60005b838110156200017e57808201518184015260208101905062000161565b60008484015250505050565b6000620001a16200019b8462000128565b62000109565b905082815260208101848484011115620001c057620001bf6200008e565b5b620001cd8482856200015e565b509392505050565b600082601f830112620001ed57620001ec62000089565b5b8151620001ff8482602086016200018a565b91505092915050565b600060ff82169050919050565b620002208162000208565b81146200022c57600080fd5b50565b600081519050620002408162000215565b92915050565b6000806000606084860312156200026257620002616200007f565b5b600084015167ffffffffffffffff81111562000283576200028262000084565b5b6200029186828701620001d5565b935050602084015167ffffffffffffffff811115620002b557620002b462000084565b5b620002c386828701620001d5565b9250506040620002d6868287016200022f565b9150509250925092565b600081519050919050565b7f4e487b7100000000000000000000000000000000000000000000000000000000600052602260045260246000fd5b600060028204905060018216806200033357607f821691505b602082108103620003495762000348620002eb565b5b50919050565b60008190508160005260206000209050919050565b60006020601f8301049050919050565b600082821b905092915050565b600060088302620003b37fffffffffffffffffffffffffffffffffffffffffffffffffffffffffffffffff8262000374565b620003bf868362000374565b95508019841693508086168417925050509392505050565b6000819050919050565b6000819050919050565b60006200040c620004066200040084620003d7565b620003e1565b620003d7565b9050919050565b6000819050919050565b6200042883620003eb565b62000440620004378262000413565b84845462000381565b825550505050565b600090565b6200045762000448565b620004648184846200041d565b505050565b5b818110156200048c57620004806000826200044d565b6001810190506200046a565b5050565b601f821115620004db57620004a5816200034f565b620004b08462000364565b81016020851015620004c0578190505b620004d8620004cf8562000364565b83018262000469565b50505b505050565b600082821c905092915050565b60006200050060001984600802620004e0565b1980831691505092915050565b60006200051b8383620004ed565b9150826002028217905092915050565b6200053682620002e0565b67ffffffffffffffff811115620005525762000551620000a4565b5b6200055e82546200031a565b6200056b82828562000490565b600060209050601f831160018114620005a357600084156200058e578287015190505b6200059a85826200050d565b8655506200060a565b601f198416620005b3866200034f565b60005b82811015620005dd57848901518255600182019150602085019450602081019050620005b6565b86831015620005fd5784890151620005f9601f891682620004ed565b8355505b6001600288020188555050505b505050505050565b61109b80620006226000396000f3fe608060405234801561001057600080fd5b50600436106100ea5760003560e01c806340c10f191161008c57806395d89b411161006657806395d89b411461024b5780639dc29fac14610269578063a9059cbb14610285578063dd62ed3e146102b5576100ea565b806340c10f19146101e357806356189cb4146101ff57806370a082311461021b576100ea565b8063222f5be0116100c8578063222f5be01461015b57806323b872dd14610177578063313ce567146101a75780633b97e856146101c5576100ea565b806306fdde03146100ef578063095ea7b31461010d57806318160ddd1461013d575b600080fd5b6100f76102e5565b6040516101049190610cef565b60405180910390f35b61012760048036038101906101229190610daa565b610377565b6040516101349190610e05565b60405180910390f35b61014561039a565b6040516101529190610e2f565b60405180910390f35b61017560048036038101906101709190610e4a565b6103a4565b005b610191600480360381019061018c9190610e4a565b6103b4565b60405161019e9190610e05565b60405180910390f35b6101af6103e3565b6040516101bc9190610eb9565b60405180910390f35b6101cd6103fa565b6040516101da9190610eb9565b60405180910390f35b6101fd60048036038101906101f89190610daa565b61040d565b005b61021960048036038101906102149190610e4a565b61041b565b005b61023560048036038101906102309190610ed4565b61042b565b6040516102429190610e2f565b60405180910390f35b610253610473565b6040516102609190610cef565b60405180910390f35b610283600480360381019061027e9190610daa565b610505565b005b61029f600480360381019061029a9190610daa565b610513565b6040516102ac9190610e05565b60405180910390f35b6102cf60048036038101906102ca9190610f01565b610536565b6040516102dc9190610e2f565b60405180910390f35b6060600380546102f490610f70565b80601f016020809104026020016040519081016040528092919081815260200182805461032090610f70565b801561036d5780601f106103425761010080835404028352916020019161036d565b820191906000526020600020905b81548152906001019060200180831161035057829003601f168201915b5050505050905090565b6000806103826105bd565b905061038f8185856105c5565b600191505092915050565b6000600254905090565b6103af8383836105d7565b505050565b6000806103bf6105bd565b90506103cc8582856106cb565b6103d78585856105d7565b60019150509392505050565b6000600560009054906101000a900460ff16905090565b600560009054906101000a900460ff1681565b610417828261075f565b5050565b6104268383836105c5565b505050565b60008060008373ffffffffffffffffffffffffffffffffffffffff1673ffffffffffffffffffffffffffffffffffffffff168152602001908152602001600020549050919050565b60606004805461048290610f70565b80601f01602080910402602001604051908101604052809291908181526020018280546104ae90610f70565b80156104fb5780601f106104d0576101008083540402835291602001916104fb565b820191906000526020600020905b8154815290600101906020018083116104de57829003601f168201915b5050505050905090565b61050f82826107e1565b5050565b60008061051e6105bd565b905061052b8185856105d7565b600191505092915050565b6000600160008473ffffffffffffffffffffffffffffffffffffffff1673ffffffffffffffffffffffffffffffffffffffff16815260200190815260200160002060008373ffffffffffffffffffffffffffffffffffffffff1673ffffffffffffffffffffffffffffffffffffffff16815260200190815260200160002054905092915050565b600033905090565b6105d28383836001610863565b505050565b600073ffffffffffffffffffffffffffffffffffffffff168373ffffffffffffffffffffffffffffffffffffffff16036106495760006040517f96c6fd1e0000000000000000000000000000000000000000000000000000000081526004016106409190610fb0565b60405180910390fd5b600073ffffffffffffffffffffffffffffffffffffffff168273ffffffffffffffffffffffffffffffffffffffff16036106bb5760006040517fec442f050000000000000000000000000000000000000000000000000000000081526004016106b29190610fb0565b60405180910390fd5b6106c6838383610a3a565b505050565b60006106d78484610536565b90507fffffffffffffffffffffffffffffffffffffffffffffffffffffffffffffffff81146107595781811015610749578281836040517ffb8f41b200000000000000000000000000000000000000000000000000000000815260040161074093929190610fcb565b60405180910390fd5b61075884848484036000610863565b5b50505050565b600073ffffffffffffffffffffffffffffffffffffffff168273ffffffffffffffffffffffffffffffffffffffff16036107d15760006040517fec442f050000000000000000000000000000000000000000000000000000000081526004016107c89190610fb0565b60405180910390fd5b6107dd60008383610a3a565b5050565b600073ffffffffffffffffffffffffffffffffffffffff168273ffffffffffffffffffffffffffffffffffffffff16036108535760006040517f96c6fd1e00000000000000000000000000000000000000000000000000000000815260040161084a9190610fb0565b60405180910390fd5b61085f82600083610a3a565b5050565b600073ffffffffffffffffffffffffffffffffffffffff168473ffffffffffffffffffffffffffffffffffffffff16036108d55760006040517fe602df050000000000000000000000000000000000000000000000000000000081526004016108cc9190610fb0565b60405180910390fd5b600073ffffffffffffffffffffffffffffffffffffffff168373ffffffffffffffffffffffffffffffffffffffff16036109475760006040517f94280d6200000000000000000000000000000000000000000000000000000000815260040161093e9190610fb0565b60405180910390fd5b81600160008673ffffffffffffffffffffffffffffffffffffffff1673ffffffffffffffffffffffffffffffffffffffff16815260200190815260200160002060008573ffffffffffffffffffffffffffffffffffffffff1673ffffffffffffffffffffffffffffffffffffffff168152602001908152602001600020819055508015610a34578273ffffffffffffffffffffffffffffffffffffffff168473ffffffffffffffffffffffffffffffffffffffff167f8c5be1e5ebec7d5bd14f71427d1e84f3dd0314c0f7b2291e5b200ac8c7c3b92584604051610a2b9190610e2f565b60405180910390a35b50505050565b600073ffffffffffffffffffffffffffffffffffffffff168373ffffffffffffffffffffffffffffffffffffffff1603610a8c578060026000828254610a809190611031565b92505081905550610b5f565b60008060008573ffffffffffffffffffffffffffffffffffffffff1673ffffffffffffffffffffffffffffffffffffffff16815260200190815260200160002054905081811015610b18578381836040517fe450d38c000000000000000000000000000000000000000000000000000000008152600401610b0f93929190610fcb565b60405180910390fd5b8181036000808673ffffffffffffffffffffffffffffffffffffffff1673ffffffffffffffffffffffffffffffffffffffff16815260200190815260200160002081905550505b600073ffffffffffffffffffffffffffffffffffffffff168273ffffffffffffffffffffffffffffffffffffffff1603610ba85780600260008282540392505081905550610bf5565b806000808473ffffffffffffffffffffffffffffffffffffffff1673ffffffffffffffffffffffffffffffffffffffff168152602001908152602001600020600082825401925050819055505b8173ffffffffffffffffffffffffffffffffffffffff168373ffffffffffffffffffffffffffffffffffffffff167fddf252ad1be2c89b69c2b068fc378daa952ba7f163c4a11628f55a4df523b3ef83604051610c529190610e2f565b60405180910390a3505050565b600081519050919050565b600082825260208201905092915050565b60005b83811015610c99578082015181840152602081019050610c7e565b60008484015250505050565b6000601f19601f8301169050919050565b6000610cc182610c5f565b610ccb8185610c6a565b9350610cdb818560208601610c7b565b610ce481610ca5565b840191505092915050565b60006020820190508181036000830152610d098184610cb6565b905092915050565b600080fd5b600073ffffffffffffffffffffffffffffffffffffffff82169050919050565b6000610d4182610d16565b9050919050565b610d5181610d36565b8114610d5c57600080fd5b50565b600081359050610d6e81610d48565b92915050565b6000819050919050565b610d8781610d74565b8114610d9257600080fd5b50565b600081359050610da481610d7e565b92915050565b60008060408385031215610dc157610dc0610d11565b5b6000610dcf85828601610d5f565b9250506020610de085828601610d95565b9150509250929050565b60008115159050919050565b610dff81610dea565b82525050565b6000602082019050610e1a6000830184610df6565b92915050565b610e2981610d74565b82525050565b6000602082019050610e446000830184610e20565b92915050565b600080600060608486031215610e6357610e62610d11565b5b6000610e7186828701610d5f565b9350506020610e8286828701610d5f565b9250506040610e9386828701610d95565b9150509250925092565b600060ff82169050919050565b610eb381610e9d565b82525050565b6000602082019050610ece6000830184610eaa565b92915050565b600060208284031215610eea57610ee9610d11565b5b6000610ef884828501610d5f565b91505092915050565b60008060408385031215610f1857610f17610d11565b5b6000610f2685828601610d5f565b9250506020610f3785828601610d5f565b9150509250929050565b7f4e487b7100000000000000000000000000000000000000000000000000000000600052602260045260246000fd5b60006002820490506001821680610f8857607f821691505b602082108103610f9b57610f9a610f41565b5b50919050565b610faa81610d36565b82525050565b6000602082019050610fc56000830184610fa1565b92915050565b6000606082019050610fe06000830186610fa1565b610fed6020830185610e20565b610ffa6040830184610e20565b949350505050565b7f4e487b7100000000000000000000000000000000000000000000000000000000600052601160045260246000fd5b600061103c82610d74565b915061104783610d74565b925082820190508082111561105f5761105e611002565b5b9291505056fea2646970667358221220b0b62270ebc0f169de8607ed89a4c0cc2f79b0967df299464d8e686023d0946664736f6c63430008180033",
  "linkReferences": {},
  "deployedLinkReferences": {}
}