{
  "_format": "hh-sol-artifact-1",
  "contractName": "Pausing",
  "sourceName": "contracts/utils/Pausing.sol",
  "abi": [
    {
      "inputs": [],
      "name": "isNotPaused",
      "type": "error"
    },
    {
      "inputs": [],
      "name": "isPaused",
      "type": "error"
    },
    {
      "anonymous": false,
      "inputs": [
        {
          "indexed": true,
          "internalType": "address",
          "name": "previousOwner",
          "type": "address"
        },
        {
          "indexed": true,
          "internalType": "address",
          "name": "newOwner",
          "type": "address"
        }
      ],
      "name": "OwnershipTransferred",
      "type": "event"
    },
    {
      "anonymous": false,
      "inputs": [
        {
          "indexed": false,
          "internalType": "bool",
          "name": "state",
          "type": "bool"
        }
      ],
      "name": "SystemPaused",
      "type": "event"
    },
    {
      "anonymous": false,
      "inputs": [
        {
          "indexed": false,
          "internalType": "address",
          "name": "vault",
          "type": "address"
        },
        {
          "indexed": false,
          "internalType": "bool",
          "name": "state",
          "type": "bool"
        }
      ],
      "name": "VaultPaused",
      "type": "event"
    },
    {
      "inputs": [],
      "name": "globalPaused",
      "outputs": [
        {
          "internalType": "bool",
          "name": "",
          "type": "bool"
        }
      ],
      "stateMutability": "view",
      "type": "function"
    },
    {
      "inputs": [],
      "name": "owner",
      "outputs": [
        {
          "internalType": "address",
          "name": "",
          "type": "address"
        }
      ],
      "stateMutability": "view",
      "type": "function"
    },
    {
      "inputs": [
        {
          "internalType": "address",
          "name": "vault",
          "type": "address"
        }
      ],
      "name": "pausedStatus",
      "outputs": [
        {
          "internalType": "bool",
          "name": "",
          "type": "bool"
        }
      ],
      "stateMutability": "view",
      "type": "function"
    },
    {
      "inputs": [],
      "name": "renounceOwnership",
      "outputs": [],
      "stateMutability": "nonpayable",
      "type": "function"
    },
    {
      "inputs": [
        {
          "internalType": "address",
          "name": "vault",
          "type": "address"
        },
        {
          "internalType": "bool",
          "name": "status",
          "type": "bool"
        }
      ],
      "name": "setPausedStatus",
      "outputs": [],
      "stateMutability": "nonpayable",
      "type": "function"
    },
    {
      "inputs": [
        {
          "internalType": "address",
          "name": "newOwner",
          "type": "address"
        }
      ],
      "name": "transferOwnership",
      "outputs": [],
      "stateMutability": "nonpayable",
      "type": "function"
    }
  ],
  "bytecode": "0x60806040526000805460ff60a01b1916600160a01b17905534801561002357600080fd5b5061002d33610032565b610082565b600080546001600160a01b038381166001600160a01b0319831681178455604051919092169283917f8be0079c531659141344cd1fd0a4f28419497f9722a3daafe3b4186f6b6457e09190a35050565b610436806100916000396000f3fe608060405234801561001057600080fd5b50600436106100725760003560e01c80638da5cb5b116100505780638da5cb5b146100bd578063b6812c99146100d8578063f2fde38b146100eb57600080fd5b80631d81944f1461007757806361a552dc1461008c578063715018a6146100b5575b600080fd5b61008a6100853660046103a2565b6100fe565b005b6000546100a090600160a01b900460ff1681565b60405190151581526020015b60405180910390f35b61008a6101e4565b6000546040516001600160a01b0390911681526020016100ac565b6100a06100e63660046103de565b6101f8565b61008a6100f93660046103de565b61022f565b6101066102c4565b6001600160a01b0382166101885760008054821515600160a01b027fffffffffffffffffffffff00ffffffffffffffffffffffffffffffffffffffff9091161790556040517f59617e84cd4a4d47c34c76f190da73d3a6a0236e0770dcba41851db53f336f579061017c90831515815260200190565b60405180910390a15050565b6001600160a01b038216600081815260016020908152604091829020805460ff19168515159081179091558251938452908301527ff0158690f9b0f41fc31e96038d36f6b6517557ebe2d3202408966ef3c616f5b6910161017c565b6101ec6102c4565b6101f6600061031e565b565b60008054600160a01b900460ff168061022957506001600160a01b03821660009081526001602052604090205460ff165b92915050565b6102376102c4565b6001600160a01b0381166102b85760405162461bcd60e51b815260206004820152602660248201527f4f776e61626c653a206e6577206f776e657220697320746865207a65726f206160448201527f646472657373000000000000000000000000000000000000000000000000000060648201526084015b60405180910390fd5b6102c18161031e565b50565b6000546001600160a01b031633146101f65760405162461bcd60e51b815260206004820181905260248201527f4f776e61626c653a2063616c6c6572206973206e6f7420746865206f776e657260448201526064016102af565b600080546001600160a01b038381167fffffffffffffffffffffffff0000000000000000000000000000000000000000831681178455604051919092169283917f8be0079c531659141344cd1fd0a4f28419497f9722a3daafe3b4186f6b6457e09190a35050565b80356001600160a01b038116811461039d57600080fd5b919050565b600080604083850312156103b557600080fd5b6103be83610386565b9150602083013580151581146103d357600080fd5b809150509250929050565b6000602082840312156103f057600080fd5b6103f982610386565b939250505056fea26469706673582212208fa0cf185d0deec20fe4c1ae71099515cc9a638558a7d7fe725167a640f8996a64736f6c63430008140033",
  "linkReferences": {},
  "deployedLinkReferences": {}
}