{
  "_format": "hh-sol-artifact-1",
  "contractName": "Pausing",
  "sourceName": "utils/Pausing.sol",
  "abi": [
    {
      "inputs": [],
      "name": "isNotPaused",
      "type": "error"
    },
    {
      "inputs": [],
      "name": "isPaused",
      "type": "error"
    },
    {
      "anonymous": false,
      "inputs": [
        {
          "indexed": true,
          "internalType": "address",
          "name": "previousOwner",
          "type": "address"
        },
        {
          "indexed": true,
          "internalType": "address",
          "name": "newOwner",
          "type": "address"
        }
      ],
      "name": "OwnershipTransferred",
      "type": "event"
    },
    {
      "anonymous": false,
      "inputs": [
        {
          "indexed": false,
          "internalType": "bool",
          "name": "state",
          "type": "bool"
        }
      ],
      "name": "SystemPaused",
      "type": "event"
    },
    {
      "anonymous": false,
      "inputs": [
        {
          "indexed": false,
          "internalType": "address",
          "name": "vault",
          "type": "address"
        },
        {
          "indexed": false,
          "internalType": "bool",
          "name": "state",
          "type": "bool"
        }
      ],
      "name": "VaultPaused",
      "type": "event"
    },
    {
      "inputs": [],
      "name": "globalPaused",
      "outputs": [
        {
          "internalType": "bool",
          "name": "",
          "type": "bool"
        }
      ],
      "stateMutability": "view",
      "type": "function"
    },
    {
      "inputs": [],
      "name": "owner",
      "outputs": [
        {
          "internalType": "address",
          "name": "",
          "type": "address"
        }
      ],
      "stateMutability": "view",
      "type": "function"
    },
    {
      "inputs": [
        {
          "internalType": "address",
          "name": "vault",
          "type": "address"
        }
      ],
      "name": "pausedStatus",
      "outputs": [
        {
          "internalType": "bool",
          "name": "",
          "type": "bool"
        }
      ],
      "stateMutability": "view",
      "type": "function"
    },
    {
      "inputs": [],
      "name": "renounceOwnership",
      "outputs": [],
      "stateMutability": "nonpayable",
      "type": "function"
    },
    {
      "inputs": [
        {
          "internalType": "address",
          "name": "vault",
          "type": "address"
        },
        {
          "internalType": "bool",
          "name": "status",
          "type": "bool"
        }
      ],
      "name": "setPausedStatus",
      "outputs": [],
      "stateMutability": "nonpayable",
      "type": "function"
    },
    {
      "inputs": [
        {
          "internalType": "address",
          "name": "newOwner",
          "type": "address"
        }
      ],
      "name": "transferOwnership",
      "outputs": [],
      "stateMutability": "nonpayable",
      "type": "function"
    }
  ],
  "bytecode": "0x60806040526001600060146101000a81548160ff02191690831515021790555034801561002b57600080fd5b5061004861003d61004d60201b60201c565b61005560201b60201c565b610119565b600033905090565b60008060009054906101000a900473ffffffffffffffffffffffffffffffffffffffff169050816000806101000a81548173ffffffffffffffffffffffffffffffffffffffff021916908373ffffffffffffffffffffffffffffffffffffffff1602179055508173ffffffffffffffffffffffffffffffffffffffff168173ffffffffffffffffffffffffffffffffffffffff167f8be0079c531659141344cd1fd0a4f28419497f9722a3daafe3b4186f6b6457e060405160405180910390a35050565b61078f806101286000396000f3fe608060405234801561001057600080fd5b50600436106100625760003560e01c80631d81944f1461006757806361a552dc14610083578063715018a6146100a15780638da5cb5b146100ab578063b6812c99146100c9578063f2fde38b146100f9575b600080fd5b610081600480360381019061007c9190610560565b610115565b005b61008b61023c565b60405161009891906105af565b60405180910390f35b6100a961024f565b005b6100b3610263565b6040516100c091906105d9565b60405180910390f35b6100e360048036038101906100de91906105f4565b61028c565b6040516100f091906105af565b60405180910390f35b610113600480360381019061010e91906105f4565b6102f8565b005b61011d61037b565b600073ffffffffffffffffffffffffffffffffffffffff168273ffffffffffffffffffffffffffffffffffffffff16036101a75780600060146101000a81548160ff0219169083151502179055507f59617e84cd4a4d47c34c76f190da73d3a6a0236e0770dcba41851db53f336f578160405161019a91906105af565b60405180910390a1610238565b80600160008473ffffffffffffffffffffffffffffffffffffffff1673ffffffffffffffffffffffffffffffffffffffff16815260200190815260200160002060006101000a81548160ff0219169083151502179055507ff0158690f9b0f41fc31e96038d36f6b6517557ebe2d3202408966ef3c616f5b6828260405161022f929190610621565b60405180910390a15b5050565b600060149054906101000a900460ff1681565b61025761037b565b61026160006103f9565b565b60008060009054906101000a900473ffffffffffffffffffffffffffffffffffffffff16905090565b60008060149054906101000a900460ff16806102f15750600160008373ffffffffffffffffffffffffffffffffffffffff1673ffffffffffffffffffffffffffffffffffffffff16815260200190815260200160002060009054906101000a900460ff165b9050919050565b61030061037b565b600073ffffffffffffffffffffffffffffffffffffffff168173ffffffffffffffffffffffffffffffffffffffff160361036f576040517f08c379a0000000000000000000000000000000000000000000000000000000008152600401610366906106cd565b60405180910390fd5b610378816103f9565b50565b6103836104bd565b73ffffffffffffffffffffffffffffffffffffffff166103a1610263565b73ffffffffffffffffffffffffffffffffffffffff16146103f7576040517f08c379a00000000000000000000000000000000000000000000000000000000081526004016103ee90610739565b60405180910390fd5b565b60008060009054906101000a900473ffffffffffffffffffffffffffffffffffffffff169050816000806101000a81548173ffffffffffffffffffffffffffffffffffffffff021916908373ffffffffffffffffffffffffffffffffffffffff1602179055508173ffffffffffffffffffffffffffffffffffffffff168173ffffffffffffffffffffffffffffffffffffffff167f8be0079c531659141344cd1fd0a4f28419497f9722a3daafe3b4186f6b6457e060405160405180910390a35050565b600033905090565b600080fd5b600073ffffffffffffffffffffffffffffffffffffffff82169050919050565b60006104f5826104ca565b9050919050565b610505816104ea565b811461051057600080fd5b50565b600081359050610522816104fc565b92915050565b60008115159050919050565b61053d81610528565b811461054857600080fd5b50565b60008135905061055a81610534565b92915050565b60008060408385031215610577576105766104c5565b5b600061058585828601610513565b92505060206105968582860161054b565b9150509250929050565b6105a981610528565b82525050565b60006020820190506105c460008301846105a0565b92915050565b6105d3816104ea565b82525050565b60006020820190506105ee60008301846105ca565b92915050565b60006020828403121561060a576106096104c5565b5b600061061884828501610513565b91505092915050565b600060408201905061063660008301856105ca565b61064360208301846105a0565b9392505050565b600082825260208201905092915050565b7f4f776e61626c653a206e6577206f776e657220697320746865207a65726f206160008201527f6464726573730000000000000000000000000000000000000000000000000000602082015250565b60006106b760268361064a565b91506106c28261065b565b604082019050919050565b600060208201905081810360008301526106e6816106aa565b9050919050565b7f4f776e61626c653a2063616c6c6572206973206e6f7420746865206f776e6572600082015250565b600061072360208361064a565b915061072e826106ed565b602082019050919050565b6000602082019050818103600083015261075281610716565b905091905056fea264697066735822122011704e6848f074974cb738f7bba40208c7694e141841129f27d2ae1d0e91569164736f6c63430008180033",
  "linkReferences": {},
  "deployedLinkReferences": {}
}