{
  "_format": "hh-sol-artifact-1",
  "contractName": "HydraPool",
  "sourceName": "contracts/HydraPool.sol",
  "abi": [
    {
      "inputs": [
        {
          "internalType": "address",
          "name": "daiAddress",
          "type": "address"
        },
        {
          "internalType": "address",
          "name": "daiPriceFeed",
          "type": "address"
        },
        {
          "components": [
            {
              "internalType": "uint64",
              "name": "reserveRatio",
              "type": "uint64"
            },
            {
              "internalType": "uint64",
              "name": "feeToProtocolRate",
              "type": "uint64"
            },
            {
              "internalType": "uint64",
              "name": "flashFeeRate",
              "type": "uint64"
            },
            {
              "internalType": "uint64",
              "name": "baseRate",
              "type": "uint64"
            },
            {
              "internalType": "uint64",
              "name": "slope1",
              "type": "uint64"
            },
            {
              "internalType": "uint64",
              "name": "slope2",
              "type": "uint64"
            },
            {
              "internalType": "uint256",
              "name": "optimalUtilization",
              "type": "uint256"
            }
          ],
          "internalType": "struct Structs.VaultSetupParamemters",
          "name": "daiVaultParams",
          "type": "tuple"
        }
      ],
      "stateMutability": "nonpayable",
      "type": "constructor"
    },
    {
      "inputs": [],
      "name": "AlreadySupported",
      "type": "error"
    },
    {
      "inputs": [],
      "name": "ArrayMismatch",
      "type": "error"
    },
    {
      "inputs": [],
      "name": "BelowHealthFactor",
      "type": "error"
    },
    {
      "inputs": [],
      "name": "BorrowerIsSolvant",
      "type": "error"
    },
    {
      "inputs": [],
      "name": "EmptyArray",
      "type": "error"
    },
    {
      "inputs": [],
      "name": "FlashloanFailed",
      "type": "error"
    },
    {
      "inputs": [
        {
          "internalType": "address",
          "name": "token",
          "type": "address"
        }
      ],
      "name": "FlashloanPaused",
      "type": "error"
    },
    {
      "inputs": [],
      "name": "InsufficientBalance",
      "type": "error"
    },
    {
      "inputs": [
        {
          "internalType": "uint256",
          "name": "fee",
          "type": "uint256"
        }
      ],
      "name": "InvalidFeeRate",
      "type": "error"
    },
    {
      "inputs": [],
      "name": "InvalidNFT",
      "type": "error"
    },
    {
      "inputs": [
        {
          "internalType": "address",
          "name": "borrower",
          "type": "address"
        },
        {
          "internalType": "address",
          "name": "nftAddress",
          "type": "address"
        },
        {
          "internalType": "uint256",
          "name": "tokenId",
          "type": "uint256"
        }
      ],
      "name": "InvalidNFTLiquidation",
      "type": "error"
    },
    {
      "inputs": [],
      "name": "InvalidPrice",
      "type": "error"
    },
    {
      "inputs": [
        {
          "internalType": "uint256",
          "name": "ratio",
          "type": "uint256"
        }
      ],
      "name": "InvalidReserveRatio",
      "type": "error"
    },
    {
      "inputs": [
        {
          "internalType": "enum Structs.TokenType",
          "name": "tokenType",
          "type": "uint8"
        }
      ],
      "name": "InvalidTokenType",
      "type": "error"
    },
    {
      "inputs": [],
      "name": "LiquidatorDelayHasNotPassed",
      "type": "error"
    },
    {
      "inputs": [],
      "name": "MustPayMoreDebt",
      "type": "error"
    },
    {
      "inputs": [],
      "name": "NoLiquidationWarning",
      "type": "error"
    },
    {
      "inputs": [],
      "name": "SelfLiquidation",
      "type": "error"
    },
    {
      "inputs": [],
      "name": "TokenNotSupported",
      "type": "error"
    },
    {
      "inputs": [
        {
          "internalType": "uint256",
          "name": "sharesOutOrAmountIn",
          "type": "uint256"
        }
      ],
      "name": "TooHighSlipage",
      "type": "error"
    },
    {
      "inputs": [],
      "name": "TransferFailed",
      "type": "error"
    },
    {
      "inputs": [],
      "name": "WarningDelayHasNotPassed",
      "type": "error"
    },
    {
      "inputs": [],
      "name": "isNotPaused",
      "type": "error"
    },
    {
      "inputs": [],
      "name": "isPaused",
      "type": "error"
    },
    {
      "anonymous": false,
      "inputs": [
        {
          "indexed": false,
          "internalType": "uint64",
          "name": "interestRatePerSec",
          "type": "uint64"
        },
        {
          "indexed": false,
          "internalType": "uint256",
          "name": "interestEarned",
          "type": "uint256"
        },
        {
          "indexed": false,
          "internalType": "uint256",
          "name": "feesAmount",
          "type": "uint256"
        },
        {
          "indexed": false,
          "internalType": "uint256",
          "name": "feesShare",
          "type": "uint256"
        }
      ],
      "name": "AccuredInterest",
      "type": "event"
    },
    {
      "anonymous": false,
      "inputs": [
        {
          "indexed": false,
          "internalType": "address",
          "name": "token",
          "type": "address"
        },
        {
          "indexed": false,
          "internalType": "enum Structs.TokenType",
          "name": "tokenType",
          "type": "uint8"
        }
      ],
      "name": "AddSupportedToken",
      "type": "event"
    },
    {
      "anonymous": false,
      "inputs": [
        {
          "indexed": false,
          "internalType": "address",
          "name": "user",
          "type": "address"
        },
        {
          "indexed": false,
          "internalType": "address",
          "name": "token",
          "type": "address"
        },
        {
          "indexed": false,
          "internalType": "uint256",
          "name": "amount",
          "type": "uint256"
        },
        {
          "indexed": false,
          "internalType": "uint256",
          "name": "shares",
          "type": "uint256"
        }
      ],
      "name": "Borrow",
      "type": "event"
    },
    {
      "anonymous": false,
      "inputs": [
        {
          "indexed": false,
          "internalType": "address",
          "name": "user",
          "type": "address"
        },
        {
          "indexed": false,
          "internalType": "address",
          "name": "token",
          "type": "address"
        },
        {
          "indexed": false,
          "internalType": "uint256",
          "name": "amount",
          "type": "uint256"
        },
        {
          "indexed": false,
          "internalType": "uint256",
          "name": "shares",
          "type": "uint256"
        }
      ],
      "name": "Deposit",
      "type": "event"
    },
    {
      "anonymous": false,
      "inputs": [
        {
          "indexed": false,
          "internalType": "address",
          "name": "user",
          "type": "address"
        },
        {
          "indexed": false,
          "internalType": "address",
          "name": "nftAddress",
          "type": "address"
        },
        {
          "indexed": false,
          "internalType": "uint256",
          "name": "tokenId",
          "type": "uint256"
        }
      ],
      "name": "DepositNFT",
      "type": "event"
    },
    {
      "anonymous": false,
      "inputs": [
        {
          "indexed": false,
          "internalType": "address",
          "name": "initiator",
          "type": "address"
        },
        {
          "indexed": false,
          "internalType": "address[]",
          "name": "token",
          "type": "address[]"
        },
        {
          "indexed": false,
          "internalType": "uint256[]",
          "name": "amount",
          "type": "uint256[]"
        },
        {
          "indexed": false,
          "internalType": "uint256[]",
          "name": "fees",
          "type": "uint256[]"
        },
        {
          "indexed": false,
          "internalType": "bytes",
          "name": "data",
          "type": "bytes"
        }
      ],
      "name": "FlashloanSuccess",
      "type": "event"
    },
    {
      "anonymous": false,
      "inputs": [
        {
          "indexed": false,
          "internalType": "address",
          "name": "borrower",
          "type": "address"
        },
        {
          "indexed": false,
          "internalType": "address",
          "name": "liquidator",
          "type": "address"
        },
        {
          "indexed": false,
          "internalType": "uint256",
          "name": "repaidAmount",
          "type": "uint256"
        },
        {
          "indexed": false,
          "internalType": "uint256",
          "name": "liquidatedCollateral",
          "type": "uint256"
        },
        {
          "indexed": false,
          "internalType": "uint256",
          "name": "reward",
          "type": "uint256"
        }
      ],
      "name": "Liquidated",
      "type": "event"
    },
    {
      "anonymous": false,
      "inputs": [
        {
          "indexed": false,
          "internalType": "address",
          "name": "borrower",
          "type": "address"
        },
        {
          "indexed": false,
          "internalType": "address",
          "name": "nftAddres",
          "type": "address"
        },
        {
          "indexed": false,
          "internalType": "uint256",
          "name": "tokenId",
          "type": "uint256"
        }
      ],
      "name": "LiquidatingNFTStopped",
      "type": "event"
    },
    {
      "anonymous": false,
      "inputs": [
        {
          "indexed": false,
          "internalType": "address",
          "name": "liquidator",
          "type": "address"
        },
        {
          "indexed": false,
          "internalType": "address",
          "name": "borrower",
          "type": "address"
        },
        {
          "indexed": false,
          "internalType": "address",
          "name": "nftAddress",
          "type": "address"
        },
        {
          "indexed": false,
          "internalType": "uint256",
          "name": "tokenId",
          "type": "uint256"
        }
      ],
      "name": "LiquidatingNFTWarning",
      "type": "event"
    },
    {
      "anonymous": false,
      "inputs": [
        {
          "indexed": false,
          "internalType": "address",
          "name": "liquidator",
          "type": "address"
        },
        {
          "indexed": false,
          "internalType": "address",
          "name": "borrower",
          "type": "address"
        },
        {
          "indexed": false,
          "internalType": "address",
          "name": "nftAddress",
          "type": "address"
        },
        {
          "indexed": false,
          "internalType": "uint256",
          "name": "tokenId",
          "type": "uint256"
        },
        {
          "indexed": false,
          "internalType": "uint256",
          "name": "totalRepayDebt",
          "type": "uint256"
        },
        {
          "indexed": false,
          "internalType": "uint256",
          "name": "nftBuyPrice",
          "type": "uint256"
        }
      ],
      "name": "NFTLiquidated",
      "type": "event"
    },
    {
      "anonymous": false,
      "inputs": [
        {
          "indexed": false,
          "internalType": "address",
          "name": "token",
          "type": "address"
        },
        {
          "components": [
            {
              "internalType": "uint64",
              "name": "reserveRatio",
              "type": "uint64"
            },
            {
              "internalType": "uint64",
              "name": "feeToProtocolRate",
              "type": "uint64"
            },
            {
              "internalType": "uint64",
              "name": "flashFeeRate",
              "type": "uint64"
            },
            {
              "internalType": "uint64",
              "name": "baseRate",
              "type": "uint64"
            },
            {
              "internalType": "uint64",
              "name": "slope1",
              "type": "uint64"
            },
            {
              "internalType": "uint64",
              "name": "slope2",
              "type": "uint64"
            },
            {
              "internalType": "uint256",
              "name": "optimalUtilization",
              "type": "uint256"
            }
          ],
          "indexed": false,
          "internalType": "struct Structs.VaultSetupParamemters",
          "name": "params",
          "type": "tuple"
        }
      ],
      "name": "NewVaultSetup",
      "type": "event"
    },
    {
      "anonymous": false,
      "inputs": [
        {
          "indexed": true,
          "internalType": "address",
          "name": "previousOwner",
          "type": "address"
        },
        {
          "indexed": true,
          "internalType": "address",
          "name": "newOwner",
          "type": "address"
        }
      ],
      "name": "OwnershipTransferred",
      "type": "event"
    },
    {
      "anonymous": false,
      "inputs": [
        {
          "indexed": false,
          "internalType": "address",
          "name": "user",
          "type": "address"
        },
        {
          "indexed": false,
          "internalType": "address",
          "name": "token",
          "type": "address"
        },
        {
          "indexed": false,
          "internalType": "uint256",
          "name": "amount",
          "type": "uint256"
        },
        {
          "indexed": false,
          "internalType": "uint256",
          "name": "shares",
          "type": "uint256"
        }
      ],
      "name": "Repay",
      "type": "event"
    },
    {
      "anonymous": false,
      "inputs": [
        {
          "indexed": false,
          "internalType": "bool",
          "name": "state",
          "type": "bool"
        }
      ],
      "name": "SystemPaused",
      "type": "event"
    },
    {
      "anonymous": false,
      "inputs": [
        {
          "indexed": false,
          "internalType": "uint256",
          "name": "elapsedTime",
          "type": "uint256"
        },
        {
          "indexed": false,
          "internalType": "uint64",
          "name": "newInterestRate",
          "type": "uint64"
        }
      ],
      "name": "UpdateInterestRate",
      "type": "event"
    },
    {
      "anonymous": false,
      "inputs": [
        {
          "indexed": false,
          "internalType": "address",
          "name": "vault",
          "type": "address"
        },
        {
          "indexed": false,
          "internalType": "bool",
          "name": "state",
          "type": "bool"
        }
      ],
      "name": "VaultPaused",
      "type": "event"
    },
    {
      "anonymous": false,
      "inputs": [
        {
          "indexed": false,
          "internalType": "address",
          "name": "user",
          "type": "address"
        },
        {
          "indexed": false,
          "internalType": "address",
          "name": "token",
          "type": "address"
        },
        {
          "indexed": false,
          "internalType": "uint256",
          "name": "amount",
          "type": "uint256"
        },
        {
          "indexed": false,
          "internalType": "uint256",
          "name": "shares",
          "type": "uint256"
        }
      ],
      "name": "Withdraw",
      "type": "event"
    },
    {
      "anonymous": false,
      "inputs": [
        {
          "indexed": false,
          "internalType": "address",
          "name": "user",
          "type": "address"
        },
        {
          "indexed": false,
          "internalType": "address",
          "name": "recipient",
          "type": "address"
        },
        {
          "indexed": false,
          "internalType": "address",
          "name": "nftAddress",
          "type": "address"
        },
        {
          "indexed": false,
          "internalType": "uint256",
          "name": "tokenId",
          "type": "uint256"
        }
      ],
      "name": "WithdrawNFT",
      "type": "event"
    },
    {
      "inputs": [],
      "name": "BLOCKS_PER_YEAR",
      "outputs": [
        {
          "internalType": "uint256",
          "name": "",
          "type": "uint256"
        }
      ],
      "stateMutability": "view",
      "type": "function"
    },
    {
      "inputs": [],
      "name": "BPS",
      "outputs": [
        {
          "internalType": "uint256",
          "name": "",
          "type": "uint256"
        }
      ],
      "stateMutability": "view",
      "type": "function"
    },
    {
      "inputs": [],
      "name": "PRECISION",
      "outputs": [
        {
          "internalType": "uint256",
          "name": "",
          "type": "uint256"
        }
      ],
      "stateMutability": "view",
      "type": "function"
    },
    {
      "inputs": [
        {
          "internalType": "address",
          "name": "token",
          "type": "address"
        }
      ],
      "name": "accureInterest",
      "outputs": [
        {
          "internalType": "uint256",
          "name": "_interestEarned",
          "type": "uint256"
        },
        {
          "internalType": "uint256",
          "name": "_feesAmount",
          "type": "uint256"
        },
        {
          "internalType": "uint256",
          "name": "_feesShare",
          "type": "uint256"
        },
        {
          "internalType": "uint64",
          "name": "_newRate",
          "type": "uint64"
        }
      ],
      "stateMutability": "nonpayable",
      "type": "function"
    },
    {
      "inputs": [
        {
          "internalType": "address",
          "name": "token",
          "type": "address"
        },
        {
          "internalType": "uint256",
          "name": "amount",
          "type": "uint256"
        },
        {
          "internalType": "bool",
          "name": "isAsset",
          "type": "bool"
        }
      ],
      "name": "amountToShares",
      "outputs": [
        {
          "internalType": "uint256",
          "name": "shares",
          "type": "uint256"
        }
      ],
      "stateMutability": "view",
      "type": "function"
    },
    {
      "inputs": [
        {
          "internalType": "address",
          "name": "token",
          "type": "address"
        },
        {
          "internalType": "uint256",
          "name": "amount",
          "type": "uint256"
        }
      ],
      "name": "borrow",
      "outputs": [],
      "stateMutability": "payable",
      "type": "function"
    },
    {
      "inputs": [
        {
          "internalType": "address",
          "name": "account",
          "type": "address"
        },
        {
          "internalType": "address",
          "name": "nftAddress",
          "type": "address"
        },
        {
          "internalType": "uint256",
          "name": "tokenId",
          "type": "uint256"
        }
      ],
      "name": "canLiquidateNFT",
      "outputs": [],
      "stateMutability": "view",
      "type": "function"
    },
    {
      "inputs": [
        {
          "internalType": "address",
          "name": "recipient",
          "type": "address"
        },
        {
          "internalType": "address",
          "name": "nftAddress",
          "type": "address"
        },
        {
          "internalType": "uint256",
          "name": "tokenId",
          "type": "uint256"
        }
      ],
      "name": "depositNft",
      "outputs": [],
      "stateMutability": "nonpayable",
      "type": "function"
    },
    {
      "inputs": [
        {
          "internalType": "address",
          "name": "account",
          "type": "address"
        },
        {
          "internalType": "address",
          "name": "nftAddress",
          "type": "address"
        },
        {
          "internalType": "uint256",
          "name": "tokenId",
          "type": "uint256"
        },
        {
          "internalType": "address[]",
          "name": "repayTokens",
          "type": "address[]"
        },
        {
          "internalType": "uint256[]",
          "name": "repayAmounts",
          "type": "uint256[]"
        }
      ],
      "name": "executeNFTLiquidation",
      "outputs": [],
      "stateMutability": "nonpayable",
      "type": "function"
    },
    {
      "inputs": [
        {
          "internalType": "address",
          "name": "receiverAddress",
          "type": "address"
        },
        {
          "internalType": "address[]",
          "name": "tokens",
          "type": "address[]"
        },
        {
          "internalType": "uint256[]",
          "name": "amounts",
          "type": "uint256[]"
        },
        {
          "internalType": "bytes",
          "name": "data",
          "type": "bytes"
        }
      ],
      "name": "flashloan",
      "outputs": [],
      "stateMutability": "nonpayable",
      "type": "function"
    },
    {
      "inputs": [
        {
          "internalType": "address",
          "name": "token",
          "type": "address"
        },
        {
          "internalType": "uint256",
          "name": "amount",
          "type": "uint256"
        }
      ],
      "name": "flashloanFee",
      "outputs": [
        {
          "internalType": "uint256",
          "name": "",
          "type": "uint256"
        }
      ],
      "stateMutability": "view",
      "type": "function"
    },
    {
      "inputs": [
        {
          "internalType": "address",
          "name": "token",
          "type": "address"
        },
        {
          "internalType": "uint256",
          "name": "amount",
          "type": "uint256"
        }
      ],
      "name": "getAmountInUSD",
      "outputs": [
        {
          "internalType": "uint256",
          "name": "value",
          "type": "uint256"
        }
      ],
      "stateMutability": "view",
      "type": "function"
    },
    {
      "inputs": [
        {
          "internalType": "address",
          "name": "owner",
          "type": "address"
        },
        {
          "internalType": "address",
          "name": "nftAddress",
          "type": "address"
        }
      ],
      "name": "getDepositedNFT",
      "outputs": [
        {
          "internalType": "uint256[]",
          "name": "",
          "type": "uint256[]"
        }
      ],
      "stateMutability": "view",
      "type": "function"
    },
    {
      "inputs": [
        {
          "internalType": "address",
          "name": "owner",
          "type": "address"
        },
        {
          "internalType": "address",
          "name": "nftAddress",
          "type": "address"
        }
      ],
      "name": "getDepositedNFTCount",
      "outputs": [
        {
          "internalType": "uint256",
          "name": "",
          "type": "uint256"
        }
      ],
      "stateMutability": "view",
      "type": "function"
    },
    {
      "inputs": [
        {
          "internalType": "address",
          "name": "account",
          "type": "address"
        },
        {
          "internalType": "address",
          "name": "nftAddress",
          "type": "address"
        },
        {
          "internalType": "uint256",
          "name": "tokenId",
          "type": "uint256"
        }
      ],
      "name": "getNFTLiquidationWarning",
      "outputs": [
        {
          "components": [
            {
              "internalType": "address",
              "name": "liquidator",
              "type": "address"
            },
            {
              "internalType": "uint64",
              "name": "liquidationTimestamp",
              "type": "uint64"
            }
          ],
          "internalType": "struct Structs.LiquidatedWarning",
          "name": "",
          "type": "tuple"
        }
      ],
      "stateMutability": "view",
      "type": "function"
    },
    {
      "inputs": [
        {
          "internalType": "address",
          "name": "token",
          "type": "address"
        }
      ],
      "name": "getTokenPrice",
      "outputs": [
        {
          "internalType": "uint256",
          "name": "price",
          "type": "uint256"
        }
      ],
      "stateMutability": "view",
      "type": "function"
    },
    {
      "inputs": [
        {
          "internalType": "address",
          "name": "token",
          "type": "address"
        }
      ],
      "name": "getTokenVault",
      "outputs": [
        {
          "components": [
            {
              "components": [
                {
                  "internalType": "uint256",
                  "name": "amount",
                  "type": "uint256"
                },
                {
                  "internalType": "uint256",
                  "name": "shares",
                  "type": "uint256"
                }
              ],
              "internalType": "struct Structs.Vault",
              "name": "totalAsset",
              "type": "tuple"
            },
            {
              "components": [
                {
                  "internalType": "uint256",
                  "name": "amount",
                  "type": "uint256"
                },
                {
                  "internalType": "uint256",
                  "name": "shares",
                  "type": "uint256"
                }
              ],
              "internalType": "struct Structs.Vault",
              "name": "totalBorrow",
              "type": "tuple"
            },
            {
              "components": [
                {
                  "internalType": "uint256",
                  "name": "reserveRatio",
                  "type": "uint256"
                },
                {
                  "internalType": "uint64",
                  "name": "feeToProtocolRate",
                  "type": "uint64"
                },
                {
                  "internalType": "uint64",
                  "name": "flashFeeRate",
                  "type": "uint64"
                },
                {
                  "internalType": "uint64",
                  "name": "ratePerSec",
                  "type": "uint64"
                },
                {
                  "internalType": "uint64",
                  "name": "lastTimestamp",
                  "type": "uint64"
                },
                {
                  "internalType": "uint64",
                  "name": "lastBlock",
                  "type": "uint64"
                },
                {
                  "internalType": "uint64",
                  "name": "baseRate",
                  "type": "uint64"
                },
                {
                  "internalType": "uint64",
                  "name": "slope1",
                  "type": "uint64"
                },
                {
                  "internalType": "uint64",
                  "name": "slope2",
                  "type": "uint64"
                },
                {
                  "internalType": "uint256",
                  "name": "optimalUtilization",
                  "type": "uint256"
                }
              ],
              "internalType": "struct Structs.VaultInfo",
              "name": "vaultInfo",
              "type": "tuple"
            }
          ],
          "internalType": "struct Structs.TokenVault",
          "name": "vault",
          "type": "tuple"
        }
      ],
      "stateMutability": "view",
      "type": "function"
    },
    {
      "inputs": [
        {
          "internalType": "address",
          "name": "user",
          "type": "address"
        }
      ],
      "name": "getUserData",
      "outputs": [
        {
          "internalType": "uint256",
          "name": "totalTokenCollateral",
          "type": "uint256"
        },
        {
          "internalType": "uint256",
          "name": "totalNFTCollateral",
          "type": "uint256"
        },
        {
          "internalType": "uint256",
          "name": "totalBorrowValue",
          "type": "uint256"
        }
      ],
      "stateMutability": "view",
      "type": "function"
    },
    {
      "inputs": [
        {
          "internalType": "address",
          "name": "user",
          "type": "address"
        }
      ],
      "name": "getUserNFTCollateral",
      "outputs": [
        {
          "internalType": "uint256",
          "name": "totalValueInUSD",
          "type": "uint256"
        }
      ],
      "stateMutability": "view",
      "type": "function"
    },
    {
      "inputs": [
        {
          "internalType": "address",
          "name": "user",
          "type": "address"
        },
        {
          "internalType": "address",
          "name": "token",
          "type": "address"
        }
      ],
      "name": "getUserTokenCollateralAndBorrow",
      "outputs": [
        {
          "internalType": "uint256",
          "name": "tokenCollateralShare",
          "type": "uint256"
        },
        {
          "internalType": "uint256",
          "name": "tokenBorrowShare",
          "type": "uint256"
        }
      ],
      "stateMutability": "view",
      "type": "function"
    },
    {
      "inputs": [
        {
          "internalType": "address",
          "name": "user",
          "type": "address"
        }
      ],
      "name": "getUserTotalBorrow",
      "outputs": [
        {
          "internalType": "uint256",
          "name": "totalValueInUSD",
          "type": "uint256"
        }
      ],
      "stateMutability": "view",
      "type": "function"
    },
    {
      "inputs": [
        {
          "internalType": "address",
          "name": "user",
          "type": "address"
        }
      ],
      "name": "getUserTotalTokenCollateral",
      "outputs": [
        {
          "internalType": "uint256",
          "name": "totalValueInUSD",
          "type": "uint256"
        }
      ],
      "stateMutability": "view",
      "type": "function"
    },
    {
      "inputs": [],
      "name": "globalPaused",
      "outputs": [
        {
          "internalType": "bool",
          "name": "",
          "type": "bool"
        }
      ],
      "stateMutability": "view",
      "type": "function"
    },
    {
      "inputs": [
        {
          "internalType": "address",
          "name": "owner",
          "type": "address"
        },
        {
          "internalType": "address",
          "name": "nftAddress",
          "type": "address"
        },
        {
          "internalType": "uint256",
          "name": "tokenId",
          "type": "uint256"
        }
      ],
      "name": "hasDepositedNFT",
      "outputs": [
        {
          "internalType": "bool",
          "name": "",
          "type": "bool"
        }
      ],
      "stateMutability": "view",
      "type": "function"
    },
    {
      "inputs": [
        {
          "internalType": "address",
          "name": "user",
          "type": "address"
        }
      ],
      "name": "healthFactor",
      "outputs": [
        {
          "internalType": "uint256",
          "name": "factor",
          "type": "uint256"
        }
      ],
      "stateMutability": "view",
      "type": "function"
    },
    {
      "inputs": [
        {
          "internalType": "address",
          "name": "account",
          "type": "address"
        },
        {
          "internalType": "address",
          "name": "collateral",
          "type": "address"
        },
        {
          "internalType": "address",
          "name": "userBorrowToken",
          "type": "address"
        },
        {
          "internalType": "uint256",
          "name": "amountToLiquidate",
          "type": "uint256"
        }
      ],
      "name": "liquidate",
      "outputs": [],
      "stateMutability": "nonpayable",
      "type": "function"
    },
    {
      "inputs": [
        {
          "internalType": "address",
          "name": "token",
          "type": "address"
        }
      ],
      "name": "maxFlashloan",
      "outputs": [
        {
          "internalType": "uint256",
          "name": "maxFlashloanAmount",
          "type": "uint256"
        }
      ],
      "stateMutability": "view",
      "type": "function"
    },
    {
      "inputs": [
        {
          "internalType": "address",
          "name": "",
          "type": "address"
        },
        {
          "internalType": "address",
          "name": "",
          "type": "address"
        },
        {
          "internalType": "uint256",
          "name": "",
          "type": "uint256"
        },
        {
          "internalType": "bytes",
          "name": "",
          "type": "bytes"
        }
      ],
      "name": "onERC721Received",
      "outputs": [
        {
          "internalType": "bytes4",
          "name": "",
          "type": "bytes4"
        }
      ],
      "stateMutability": "pure",
      "type": "function"
    },
    {
      "inputs": [],
      "name": "owner",
      "outputs": [
        {
          "internalType": "address",
          "name": "",
          "type": "address"
        }
      ],
      "stateMutability": "view",
      "type": "function"
    },
    {
      "inputs": [
        {
          "internalType": "address",
          "name": "vault",
          "type": "address"
        }
      ],
      "name": "pausedStatus",
      "outputs": [
        {
          "internalType": "bool",
          "name": "",
          "type": "bool"
        }
      ],
      "stateMutability": "view",
      "type": "function"
    },
    {
      "inputs": [
        {
          "internalType": "address",
          "name": "token",
          "type": "address"
        },
        {
          "internalType": "uint256",
          "name": "shares",
          "type": "uint256"
        },
        {
          "internalType": "uint256",
          "name": "minAmountOut",
          "type": "uint256"
        }
      ],
      "name": "redeem",
      "outputs": [],
      "stateMutability": "nonpayable",
      "type": "function"
    },
    {
      "inputs": [],
      "name": "renounceOwnership",
      "outputs": [],
      "stateMutability": "nonpayable",
      "type": "function"
    },
    {
      "inputs": [
        {
          "internalType": "address",
          "name": "token",
          "type": "address"
        },
        {
          "internalType": "uint256",
          "name": "amount",
          "type": "uint256"
        }
      ],
      "name": "repay",
      "outputs": [],
      "stateMutability": "nonpayable",
      "type": "function"
    },
    {
      "inputs": [
        {
          "internalType": "address",
          "name": "vault",
          "type": "address"
        },
        {
          "internalType": "bool",
          "name": "status",
          "type": "bool"
        }
      ],
      "name": "setPausedStatus",
      "outputs": [],
      "stateMutability": "nonpayable",
      "type": "function"
    },
    {
      "inputs": [
        {
          "internalType": "address",
          "name": "token",
          "type": "address"
        },
        {
          "internalType": "address",
          "name": "priceFeed",
          "type": "address"
        },
        {
          "internalType": "enum Structs.TokenType",
          "name": "tokenType",
          "type": "uint8"
        },
        {
          "components": [
            {
              "internalType": "uint64",
              "name": "reserveRatio",
              "type": "uint64"
            },
            {
              "internalType": "uint64",
              "name": "feeToProtocolRate",
              "type": "uint64"
            },
            {
              "internalType": "uint64",
              "name": "flashFeeRate",
              "type": "uint64"
            },
            {
              "internalType": "uint64",
              "name": "baseRate",
              "type": "uint64"
            },
            {
              "internalType": "uint64",
              "name": "slope1",
              "type": "uint64"
            },
            {
              "internalType": "uint64",
              "name": "slope2",
              "type": "uint64"
            },
            {
              "internalType": "uint256",
              "name": "optimalUtilization",
              "type": "uint256"
            }
          ],
          "internalType": "struct Structs.VaultSetupParamemters",
          "name": "params",
          "type": "tuple"
        },
        {
          "internalType": "bool",
          "name": "addToken",
          "type": "bool"
        }
      ],
      "name": "setupVault",
      "outputs": [],
      "stateMutability": "nonpayable",
      "type": "function"
    },
    {
      "inputs": [
        {
          "internalType": "address",
          "name": "token",
          "type": "address"
        },
        {
          "internalType": "uint256",
          "name": "shares",
          "type": "uint256"
        },
        {
          "internalType": "bool",
          "name": "isAsset",
          "type": "bool"
        }
      ],
      "name": "sharesToAmount",
      "outputs": [
        {
          "internalType": "uint256",
          "name": "amount",
          "type": "uint256"
        }
      ],
      "stateMutability": "view",
      "type": "function"
    },
    {
      "inputs": [
        {
          "internalType": "address",
          "name": "account",
          "type": "address"
        },
        {
          "internalType": "address",
          "name": "nftAddress",
          "type": "address"
        },
        {
          "internalType": "uint256",
          "name": "tokenId",
          "type": "uint256"
        }
      ],
      "name": "stopNFTLiquidation",
      "outputs": [],
      "stateMutability": "nonpayable",
      "type": "function"
    },
    {
      "inputs": [
        {
          "internalType": "address",
          "name": "token",
          "type": "address"
        },
        {
          "internalType": "uint256",
          "name": "amount",
          "type": "uint256"
        },
        {
          "internalType": "uint256",
          "name": "minSharesOut",
          "type": "uint256"
        }
      ],
      "name": "supply",
      "outputs": [],
      "stateMutability": "payable",
      "type": "function"
    },
    {
      "inputs": [
        {
          "internalType": "address",
          "name": "newOwner",
          "type": "address"
        }
      ],
      "name": "transferOwnership",
      "outputs": [],
      "stateMutability": "nonpayable",
      "type": "function"
    },
    {
      "inputs": [
        {
          "internalType": "address",
          "name": "account",
          "type": "address"
        },
        {
          "internalType": "address",
          "name": "nftAddress",
          "type": "address"
        },
        {
          "internalType": "uint256",
          "name": "tokenId",
          "type": "uint256"
        }
      ],
      "name": "triggerNFTiquidation",
      "outputs": [],
      "stateMutability": "nonpayable",
      "type": "function"
    },
    {
      "inputs": [
        {
          "internalType": "address",
          "name": "token",
          "type": "address"
        },
        {
          "internalType": "uint256",
          "name": "amount",
          "type": "uint256"
        },
        {
          "internalType": "uint256",
          "name": "maxShareIn",
          "type": "uint256"
        }
      ],
      "name": "withdraw",
      "outputs": [],
      "stateMutability": "nonpayable",
      "type": "function"
    }
  ],
  "bytecode": "0x60806040526000805460ff60a01b1916600160a01b1790553480156200002457600080fd5b506040516200516b3803806200516b8339810160408190526200004791620005d1565b62000052336200006c565b6200006383836000846001620000bc565b50505062000749565b600080546001600160a01b038381166001600160a01b0319831681178455604051919092169283917f8be0079c531659141344cd1fd0a4f28419497f9722a3daafe3b4186f6b6457e09190a35050565b8015620000d657620000d08585856200034d565b620000e1565b620000e18562000546565b6000836001811115620000f857620000f8620006d4565b036200034657620186a082600001516001600160401b0316111562000143578151604051635f7918ed60e01b81526001600160401b0390911660048201526024015b60405180910390fd5b61138882602001516001600160401b03161115620001865760208201516040516336e6824b60e21b81526001600160401b0390911660048201526024016200013a565b61138882604001516001600160401b03161115620001c95760408083015190516336e6824b60e21b81526001600160401b0390911660048201526024016200013a565b6001600160a01b03851660009081526006602081815260409283902085516001600160401b039081166004830190815592870151600583018054898801518416680100000000000000009081026001600160801b0319909216938516939093171790556060880151948301805460808a015160a08b01518516600160c01b026001600160c01b03918616600160801b02600160801b600160c01b03199990961690940297909716600160401b600160c01b03199091161792909217949094169390931790925560c085015160079092019190915590517f7e914af3d8d31ac64e6df6e8087ac12953b11a1bceebf2a80692aa35e6b0e6ff906200033c908890869060006101008201905060018060a01b038416825260018060401b038084511660208401528060208501511660408401528060408501511660608401528060608501511660808401528060808501511660a08401528060a08501511660c08401525060c083015160e08301529392505050565b60405180910390a1505b5050505050565b6001600160a01b038316600090815260046020526040902054600160a81b900460ff16156200038f57604051633706ba4960e01b815260040160405180910390fd5b6001816001811115620003a657620003a6620006d4565b1115620003ca5780604051630270056f60e51b81526004016200013a91906200070d565b6001600160a01b03808416600090815260046020526040902080549184166001600160a01b031983168117825583926001600160a81b03191617600160a01b8360018111156200041e576200041e620006d4565b02179055506001600160a01b0383166000908152600460205260409020805460ff60a81b1916600160a81b1790556001816001811115620004635762000463620006d4565b03620004ba57600380546001810182556000919091527fc2575a0e9e593c00f959f8c92f12db2869c3395a3b0502d05e2516446f71f85b0180546001600160a01b0319166001600160a01b03851617905562000506565b600280546001810182556000919091527f405787fa12a823e0f2b7631cc41b3ba8828b3321ca811111fa75cd3aa3bb5ace0180546001600160a01b0319166001600160a01b0385161790555b7f20ba3738d0f69ad18e0a9923005003b1434ffc62c40ad3332d30d2d42c49ef4283826040516200053992919062000723565b60405180910390a1505050565b600054600160a01b900460ff161580156200057a57506001600160a01b03811660009081526001602052604090205460ff16155b156200059957604051633d67a44960e11b815260040160405180910390fd5b50565b80516001600160a01b0381168114620005b457600080fd5b919050565b80516001600160401b0381168114620005b457600080fd5b6000806000838503610120811215620005e957600080fd5b620005f4856200059c565b935062000604602086016200059c565b925060e0603f19820112156200061957600080fd5b5060405160e081016001600160401b03811182821017156200064b57634e487b7160e01b600052604160045260246000fd5b80604052506200065e60408601620005b9565b81526200066e60608601620005b9565b60208201526200068160808601620005b9565b60408201526200069460a08601620005b9565b6060820152620006a760c08601620005b9565b6080820152620006ba60e08601620005b9565b60a0820152610100949094015160c0850152509093909250565b634e487b7160e01b600052602160045260246000fd5b600281106200070957634e487b7160e01b600052602160045260246000fd5b9052565b602081016200071d8284620006ea565b92915050565b6001600160a01b038316815260408101620007426020830184620006ea565b9392505050565b614a1280620007596000396000f3fe6080604052600436106102c65760003560e01c80637dbca35311610179578063b6812c99116100d6578063dbe7cc171161008a578063fdda829511610064578063fdda82951461085b578063ff9b8bb81461087b578063ffc9896b1461093357600080fd5b8063dbe7cc17146107fb578063f2fde38b1461081b578063f6aa13f21461083b57600080fd5b8063c223a9be116100bb578063c223a9be146107a4578063d02641a0146107c4578063d37db1d2146107e457600080fd5b8063b6812c9914610764578063bf3702991461078457600080fd5b8063a2d20cf21161012d578063aaf5eb6811610112578063aaf5eb6814610708578063b4240c9914610724578063b5c5f6721461074457600080fd5b8063a2d20cf214610685578063aab3f868146106e857600080fd5b806389a1e8031161015e57806389a1e8031461061d5780638da5cb5b1461063d57806393f2d72e1461066557600080fd5b80637dbca353146105ea57806382a5b1aa146105fd57600080fd5b80632c895aff116102275780634cd5491c116101db5780636ad9f9df116101c05780636ad9f9df14610595578063715018a6146105b557806378767d70146105ca57600080fd5b80634cd5491c1461054457806361a552dc1461056457600080fd5b8063351b14a01161020c578063351b14a0146104e4578063429e2c1a146105115780634b8a35291461053157600080fd5b80632c895aff1461049757806330941e62146104b757600080fd5b80631d81944f1161027e578063249d39e911610263578063249d39e91461044057806325d07a95146104575780632b83cccd1461047757600080fd5b80631d81944f1461040057806322867d781461042057600080fd5b80630f342ee9116102af5780630f342ee91461033c578063150b7a021461036a5780631880b981146103e057600080fd5b80630d30320e146102cb5780630d8459fe146102ed575b600080fd5b3480156102d757600080fd5b506102eb6102e6366004613f8d565b61096e565b005b3480156102f957600080fd5b5061030d610308366004613fc9565b610a3a565b6040805194855260208501939093529183015267ffffffffffffffff1660608201526080015b60405180910390f35b34801561034857600080fd5b5061035c610357366004613ffd565b610a59565b604051908152602001610333565b34801561037657600080fd5b506103af610385366004614086565b7f150b7a020000000000000000000000000000000000000000000000000000000095945050505050565b6040517fffffffff000000000000000000000000000000000000000000000000000000009091168152602001610333565b3480156103ec57600080fd5b506102eb6103fb366004614123565b610aef565b34801561040c57600080fd5b506102eb61041b36600461423b565b610b0b565b34801561042c57600080fd5b506102eb61043b366004614272565b610bf1565b34801561044c57600080fd5b5061035c620186a081565b34801561046357600080fd5b5061035c610472366004614272565b610d74565b34801561048357600080fd5b506102eb61049236600461429c565b610de3565b3480156104a357600080fd5b5061035c6104b2366004613fc9565b610df5565b3480156104c357600080fd5b506104d76104d2366004613fc9565b610e78565b60405161033391906142cf565b3480156104f057600080fd5b506105046104ff3660046143ca565b610f77565b6040516103339190614438565b34801561051d57600080fd5b506102eb61052c366004613f8d565b610fb1565b6102eb61053f366004614272565b611138565b34801561055057600080fd5b506102eb61055f366004613f8d565b6112fb565b34801561057057600080fd5b5060005461058590600160a01b900460ff1681565b6040519015158152602001610333565b3480156105a157600080fd5b5061035c6105b0366004613fc9565b611457565b3480156105c157600080fd5b506102eb6114dd565b3480156105d657600080fd5b506102eb6105e5366004614490565b6114f1565b6102eb6105f836600461429c565b6118f2565b34801561060957600080fd5b506102eb610618366004613f8d565b611a7e565b34801561062957600080fd5b5061035c610638366004613fc9565b611b0c565b34801561064957600080fd5b506000546040516001600160a01b039091168152602001610333565b34801561067157600080fd5b5061035c610680366004614272565b611bbc565b34801561069157600080fd5b506106d36106a03660046143ca565b6001600160a01b039182166000908152600760209081526040808320939094168252919091522080546001909101549091565b60408051928352602083019190915201610333565b3480156106f457600080fd5b506102eb61070336600461453b565b611c07565b34801561071457600080fd5b5061035c670de0b6b3a764000081565b34801561073057600080fd5b5061035c61073f3660046143ca565b61218e565b34801561075057600080fd5b506102eb61075f36600461429c565b6121be565b34801561077057600080fd5b5061058561077f366004613fc9565b6121cb565b34801561079057600080fd5b5061035c61079f366004613fc9565b6121fe565b3480156107b057600080fd5b506102eb6107bf366004614586565b61221d565b3480156107d057600080fd5b5061035c6107df366004613fc9565b612653565b3480156107f057600080fd5b5061035c6220148081565b34801561080757600080fd5b5061035c610816366004613fc9565b6126a6565b34801561082757600080fd5b506102eb610836366004613fc9565b612750565b34801561084757600080fd5b50610585610856366004613f8d565b6127e0565b34801561086757600080fd5b5061035c610876366004613ffd565b612811565b34801561088757600080fd5b50610905610896366004613f8d565b6040805180820190915260008082526020820152506001600160a01b03928316600090815260086020908152604080832094861683529381528382209282529182528290208251808401909352549283168252600160a01b90920467ffffffffffffffff169181019190915290565b6040805182516001600160a01b0316815260209283015167ffffffffffffffff169281019290925201610333565b34801561093f57600080fd5b5061095361094e366004613fc9565b612896565b60408051938452602084019290925290820152606001610333565b670de0b6b3a764000061098084611457565b101561099f576040516374fa216b60e01b815260040160405180910390fd5b6001600160a01b03838116600081815260086020908152604080832094871680845294825280832086845282529182902080547fffffffff0000000000000000000000000000000000000000000000000000000016905581519283528201929092529081018290527f077c7becfad752fe6ee0143187438b002e564c671aabfd4b3b3c4343a2e79524906060015b60405180910390a1505050565b600080600080610a49856128c2565b93509350935093505b9193509193565b60008115610aa5576001600160a01b03841660009081526006602090815260408083208151808301909252805482526001015491810191909152610a9e918590612de3565b9050610ae8565b6001600160a01b03841660009081526006602090815260408083208151808301909252600281015482526003015491810191909152610ae5918590612de3565b90505b9392505050565b610af7612e4a565b610b048585858585612ea4565b5050505050565b610b13612e4a565b6001600160a01b038216610b955760008054821515600160a01b027fffffffffffffffffffffff00ffffffffffffffffffffffffffffffffffffffff9091161790556040517f59617e84cd4a4d47c34c76f190da73d3a6a0236e0770dcba41851db53f336f5790610b8990831515815260200190565b60405180910390a15050565b6001600160a01b038216600081815260016020908152604091829020805460ff19168515159081179091558251938452908301527ff0158690f9b0f41fc31e96038d36f6b6517557ebe2d3202408966ef3c616f5b69101610b89565b610bfa826128c2565b50503360009081526007602090815260408083206001600160a01b03881684528252808320600190810154600684528285208351808501909452600281015484526003015493830193909352919450919250610c5891908590612de3565b9050600019831480610c6957508181115b15610cb357506001600160a01b03831660009081526006602090815260409182902082518084019093526002810154835260030154908201528190610cb090826001613186565b92505b610cc86001600160a01b0385163330866131d4565b6001600160a01b03841660008181526006602090815260408083206003810180546001600160801b03888116909103909155600290910180549189169091039055338084526007835281842085855283529281902085870360019190910155805192835290820192909252908101849052606081018290527fe4a1ae657f49cb1fb1c7d3a94ae6093565c4c8c0e03de488f79c377c3c3a24e0906080015b60405180910390a150505050565b600080610d8084612653565b90506000610d96856001600160a01b0316613347565b90506000610da5826012614624565b610db090600a614721565b610dba9086614730565b9050670de0b6b3a7640000610dcf8483614730565b610dd99190614747565b9695505050505050565b610df083838360016133ab565b505050565b600354600090815b81811015610e7157600060038281548110610e1a57610e1a614769565b60009182526020822001546001600160a01b03169150610e3a868361218e565b90508015610e67576000610e4d83612653565b9050610e598183614730565b610e63908761477f565b9550505b5050600101610dfd565b5050919050565b610e80613eda565b506001600160a01b0316600090815260066020818152604092839020835160a0808201865282546060808401918252600185015460808086019190915291845287518089018952600286015481526003860154818801528487015287516101408101895260048601548152600586015467ffffffffffffffff80821698830198909852680100000000000000008082048916838c0152600160801b8083048a1694840194909452600160c01b918290048916948301949094529786015480881694820194909452918304861660c08301528204851660e0820152949004909216610100840152600701546101208301529182015290565b6001600160a01b038083166000908152600560209081526040808320938516835292905220606090610fa890613627565b90505b92915050565b610fbc8383836127e0565b610fd95760405163079f151f60e11b815260040160405180910390fd5b6000610fe4846126a6565b9050670de0b6b3a7640000610ff885611457565b10158061100457508015155b1561105a576040517f6560982d0000000000000000000000000000000000000000000000000000000081526001600160a01b03808616600483015284166024820152604481018390526064015b60405180910390fd5b6001600160a01b038085166000908152600860209081526040808320938716835292815282822085835290522080546001600160a01b031916331781556110a4620151804261477f565b81547fffffffff0000000000000000ffffffffffffffffffffffffffffffffffffffff16600160a01b67ffffffffffffffff9290921691909102178155604080513381526001600160a01b0387811660208301528616818301526060810185905290517f2d2541220f1c874dae8d6fa2dc8987e584ca7efede079594de6066330745daa59181900360800190a15050505050565b61114182613634565b61114b8282613674565b61116857604051631e9acf1760e31b815260040160405180910390fd5b611171826128c2565b505050506001600160a01b038216600090815260066020908152604080832081518083019092526002810154825260030154918101919091526111b5908383612de3565b6001600160a01b038416600090815260066020526040812060030180549293506001600160801b038416929091906111ee90849061477f565b90915550506001600160a01b038316600090815260066020526040812060020180546001600160801b038516929061122790849061477f565b90915550503360009081526007602090815260408083206001600160a01b03871684529091528120600101805483929061126290849061477f565b9091555061127d90506001600160a01b0384163033856131d4565b670de0b6b3a764000061128f33611457565b10156112ae576040516374fa216b60e01b815260040160405180910390fd5b604080513381526001600160a01b0385166020820152908101839052606081018290527fc1561b330e73faa7d5d1ac03c968d8f359b0191ccdb9cc002cf7d8eb6ae038cb90608001610a2d565b670de0b6b3a764000061130d84611457565b101561132c576040516330af2d6760e21b815260040160405180910390fd5b6001600160a01b0380841660009081526008602090815260408083208685168452825280832085845290915290208054909116611395576040517f049c49b600000000000000000000000000000000000000000000000000000000815260040160405180910390fd5b8054600160a01b900467ffffffffffffffff164210156113e1576040517f606f9ea300000000000000000000000000000000000000000000000000000000815260040160405180910390fd5b80546114019061012c90600160a01b900467ffffffffffffffff1661477f565b421115801561141a575080546001600160a01b03163314155b15611451576040517f728e956900000000000000000000000000000000000000000000000000000000815260040160405180910390fd5b50505050565b60008060008061146685612896565b919450925090506000611479838561477f565b90508160000361149657610dd9670de0b6b3a76400006064614730565b6000620186a06114a96201388084614730565b6114b39190614747565b9050826114c8670de0b6b3a764000083614730565b6114d29190614747565b979650505050505050565b6114e5612e4a565b6114ef6000613750565b565b60008590036115135760405163521299a960e01b815260040160405180910390fd5b8483146115335760405163b7c1140d60e01b815260040160405180910390fd5b8660008667ffffffffffffffff81111561154f5761154f6140f5565b604051908082528060200260200182016040528015611578578160200160208202803683370190505b50905060005b878110156116e0576115b089898381811061159b5761159b614769565b905060200201602081019061079f9190613fc9565b60000361161c578888828181106115c9576115c9614769565b90506020020160208101906115de9190613fc9565b6040517f7c154f890000000000000000000000000000000000000000000000000000000081526001600160a01b039091166004820152602401611051565b61166489898381811061163157611631614769565b90506020020160208101906116469190613fc9565b88888481811061165857611658614769565b90506020020135611bbc565b82828151811061167657611676614769565b6020026020010181815250506116d8308b89898581811061169957611699614769565b905060200201358c8c868181106116b2576116b2614769565b90506020020160208101906116c79190613fc9565b6001600160a01b03169291906131d4565b60010161157e565b506040517f64573d020000000000000000000000000000000000000000000000000000000081526001600160a01b038316906364573d02906117349033908c908c908c908c9089908d908d906004016147bb565b6020604051808303816000875af1158015611753573d6000803e3d6000fd5b505050506040513d601f19601f82011682018060405250810190611777919061488d565b6117ad576040517ffd5ead8000000000000000000000000000000000000000000000000000000000815260040160405180910390fd5b6000805b888110156118a0578281815181106117cb576117cb614769565b60200260200101518888838181106117e5576117e5614769565b905060200201356117f6919061477f565b91506118108b30848d8d868181106116b2576116b2614769565b82818151811061182257611822614769565b60200260200101516001600160801b0316600660008c8c8581811061184957611849614769565b905060200201602081019061185e9190613fc9565b6001600160a01b03166001600160a01b031681526020019081526020016000206000016000016000828254611893919061477f565b90915550506001016117b1565b507f76f226d30806b7b34cf90ae0330c53df665a4127510985a1a3958387039b9d75338a8a8a8a878b8b6040516118de9897969594939291906147bb565b60405180910390a150505050505050505050565b6118fb83613634565b611904836137a0565b61190d836128c2565b50611927925050506001600160a01b0384163330856131d4565b6001600160a01b03831660009081526006602090815260408083208151808301909252805482526001015491810191909152611964908483612de3565b90508181101561198a576040516328ac9b3f60e11b815260048101829052602401611051565b6001600160a01b038416600090815260066020526040812060010180546001600160801b03841692906119be90849061477f565b90915550506001600160a01b038416600090815260066020526040812080546001600160801b03861692906119f490849061477f565b90915550503360009081526007602090815260408083206001600160a01b038816845290915281208054839290611a2c90849061477f565b9091555050604080513381526001600160a01b0386166020820152908101849052606081018290527fdcbc1c05240f31ff3ad067ef1ee35ce4997762752e3a095284754544f4c709d790608001610d66565b611a8a338484846137f9565b670de0b6b3a7640000611a9c33611457565b1015611abb576040516374fa216b60e01b815260040160405180910390fd5b604080513381526001600160a01b038086166020830152841691810191909152606081018290527fa766742a23fe9ecbd32c553cd9ad3115b2d15c6b72cd5e95858f5a911d55cb4590608001610a2d565b600254600090815b81811015610e7157600060028281548110611b3157611b31614769565b60009182526020808320909101546001600160a01b03888116845260078352604080852091909216808552908352818420600101546006845282852083518085019094526002810154845260030154938301939093529350611b939183613186565b90508015611bb257611ba58282610d74565b611baf908661477f565b94505b5050600101611b14565b6001600160a01b038216600090815260066020526040812060050154620186a090611bfd9068010000000000000000900467ffffffffffffffff1684614730565b610fa89190614747565b6001600160a01b0384163303611c49576040517f44511af100000000000000000000000000000000000000000000000000000000815260040160405180910390fd5b6000611c5485611457565b9050670de0b6b3a76400008110611c7e576040516330af2d6760e21b815260040160405180910390fd5b6001600160a01b0385811660009081526007602090815260408083208885168452909152808220549286168252902060010154811580611cbc575080155b15611cc957505050611451565b6001600160a01b03851660009081526006602090815260408083208151808301909252600281015482526003015491810191909152611d0a90836001613186565b90506000670c7d713b49da0000851015611d245781611d3e565b620186a0611d3461c35084614730565b611d3e9190614747565b9050808611611d4d5785611d4f565b805b6001600160a01b038916600090815260066020908152604080832081518083019092528054825260010154918101919091529197509250829150899088908a9089908590611d9e908a83613186565b90506000611dab84612653565b90506000611db886612653565b90506000611dce866001600160a01b0316613347565b90506000611de4886001600160a01b0316613347565b9050611df181600a614721565b611dfb9085614730565b611e0683600a614721565b611e108589614730565b611e1a9190614730565b611e249190614747565b9a506000620186a0611e386113888e614730565b611e429190614747565b9050858c1115611e9a57859b5082600a611e5c9190614721565b84611e6884600a614721565b611e72888a614730565b611e7c9190614730565b611e869190614747565b611e909190614730565b9a50869f50611ebb565b6000611ea68d886148aa565b9050808211611eb55781611eb7565b805b9b50505b6001600160a01b03891660009081526006602090815260408083208151808301909252600281015482526003015491810191909152611efb908983612de3565b6001600160a01b038b16600090815260066020526040812060030180549293506001600160801b03841692909190611f349084906148aa565b90915550506001600160a01b038a16600090815260066020526040812060020180546001600160801b038b169290611f6d9084906148aa565b925050819055506000611fbe8d8f611f85919061477f565b6001600160a01b038c16600090815260066020908152604080832081518083019092528054825260010154918101919091529190612de3565b6001600160a01b038b16600090815260066020526040812060010180549293506001600160801b03841692909190611ff79084906148aa565b9091555061200790508d8f61477f565b6001600160a01b038b16600090815260066020526040812080546001600160801b03939093169290919061203c9084906148aa565b90915550506001600160a01b03808d166000908152600760209081526040808320938f16835292905290812060010180546001600160801b03851692906120849084906148aa565b90915550506001600160a01b03808d166000908152600760209081526040808320938e16835292905290812080546001600160801b03841692906120c99084906148aa565b925050819055505050505050505050505050506120ff303383856120ed919061477f565b6001600160a01b038b169291906131d4565b612120303361210e848661477f565b6001600160a01b038c169291906131d4565b7ffcbc974bf3a532baf2bb229db3c37fd58299b62d2d1db6a855dac5b693bb6ff389338861214e858761477f565b604080516001600160a01b0395861681529490931660208501529183015260608201526080810183905260a00160405180910390a1505050505050505050565b6001600160a01b0380831660009081526005602090815260408083209385168352929052908120610fa8906138d8565b610df083838360006133ab565b60008054600160a01b900460ff1680610fab5750506001600160a01b031660009081526001602052604090205460ff1690565b6000612209826121cb565b61221557600019610fab565b600092915050565b600083900361223f5760405163521299a960e01b815260040160405180910390fd5b82811461225f5760405163b7c1140d60e01b815260040160405180910390fd5b61226a8787876112fb565b600061227588611b0c565b9050600061228288612653565b9050600089818080805b8a811015612414578b8b828181106122a6576122a6614769565b90506020020160208101906122bb9190613fc9565b93508989828181106122cf576122cf614769565b9050602002013592506122e1846128c2565b5050506001600160a01b03851660009081526006602090815260409182902082518084019093526002810154835260030154908201526123249150846001612de3565b915061233b6001600160a01b0385163330866131d4565b6001600160a01b038416600090815260066020526040812060030180546001600160801b038516929061236f9084906148aa565b90915550506001600160a01b038416600090815260066020526040812060020180546001600160801b03861692906123a89084906148aa565b90915550506001600160a01b038086166000908152600760209081526040808320938816835292905290812060010180546001600160801b03851692906123f09084906148aa565b9091555061240090508484610d74565b61240a908761477f565b955060010161228c565b50858711801561243c5750620186a061242f61c35088614730565b6124399190614747565b85105b15612473576040517ff67d9a2700000000000000000000000000000000000000000000000000000000815260040160405180910390fd5b50600092508c9150829050620186a061248e6127108261477f565b6124989086614730565b6124a29190614747565b90506124ae81866148aa565b9250600060026000815481106124c6576124c6614769565b6000918252602090912001546001600160a01b031690506124e9813330876131d4565b6001600160a01b03811660009081526006602090815260408083208151808301909252805482526001015491810191909152612526908683612de3565b6001600160a01b038316600090815260066020526040812060010180549293506001600160801b0384169290919061255f90849061477f565b90915550506001600160a01b038216600090815260066020526040812080546001600160801b038816929061259590849061477f565b90915550506001600160a01b038085166000908152600760209081526040808320938616835292905290812080548392906125d190849061477f565b92505081905550505050506125e88b338c8c6137f9565b604080513381526001600160a01b038d811660208301528c1681830152606081018b90526080810184905260a0810183905290517f7cd35ff79d73d5af7cb402eaac9792d8b3d32b685b221cd81c3d5611c8327fd09181900360c00190a15050505050505050505050565b6001600160a01b038116600090815260046020526040812054600160a81b900460ff1661268257506000919050565b6001600160a01b0380831660009081526004602052604090205416610ae8816138e2565b600254600090815b81811015610e71576000600282815481106126cb576126cb614769565b60009182526020808320909101546001600160a01b038881168452600783526040808520919092168085529083528184205460068452828520835180850190945280548452600101549383019390935293506127279183613186565b90508015612746576127398282610d74565b612743908661477f565b94505b50506001016126ae565b612758612e4a565b6001600160a01b0381166127d45760405162461bcd60e51b815260206004820152602660248201527f4f776e61626c653a206e6577206f776e657220697320746865207a65726f206160448201527f64647265737300000000000000000000000000000000000000000000000000006064820152608401611051565b6127dd81613750565b50565b6001600160a01b0380841660009081526005602090815260408083209386168352929052908120610ae590836139e5565b60008115612856576001600160a01b03841660009081526006602090815260408083208151808301909252805482526001015491810191909152610a9e918590613186565b6001600160a01b03841660009081526006602090815260408083208151808301909252600281015482526003015491810191909152610ae5918590613186565b60008060006128a4846126a6565b92506128af84610df5565b91506128ba84611b0c565b929491935050565b6001600160a01b0381166000908152600660208181526040808420815160a0808201845282546060808401918252600185015460808086019190915291845285518087018752600286015481526003860154818901528488015285516101408101875260048601548152600586015467ffffffffffffffff80821699830199909952680100000000000000008082048a16838a0152600160801b8083048b1694840194909452600160c01b918290048a16948301949094529886015480891694820194909452918304871660c08301528204861660e0820152959004909316610100850152600701546101208401528101919091528051518291829182919082036129db57600080600080945094509450945050610a52565b604081015160808101514267ffffffffffffffff90911603612a0457606001519150610a529050565b60208083015101511580612a1c5750612a1c876121cb565b15612a455767ffffffffffffffff4281166080830152431660a082015260408201819052612cad565b60008160a0015167ffffffffffffffff1643612a6191906148aa565b835151602085015151919250600091612a8390670de0b6b3a764000090614730565b612a8d9190614747565b90506000612a9b84836139fd565b67ffffffffffffffff8781166060870152428116608087015243811660a08701526040805186815291831660208301529192507fcff294bc3695620876ce22ec38b97aaa07675b271c26a784ebeba510e59b1f65910160405180910390a1612b0e62201480670de0b6b3a7640000614730565b846060015167ffffffffffffffff1686602001516000015185612b319190614730565b612b3b9190614730565b612b459190614747565b9850886001600160801b03168560200151600001818151612b66919061477f565b905250845180516001600160801b038b169190612b8490839061477f565b90525060408501849052602084015167ffffffffffffffff1615612c5257620186a0846020015167ffffffffffffffff168a612bc09190614730565b612bca9190614747565b855151909850612bdb9089906148aa565b855160200151612beb908a614730565b612bf59190614747565b9650866001600160801b03168560000151602001818151612c16919061477f565b9052503060009081526007602090815260408083206001600160a01b038e16845290915281208054899290612c4c90849061477f565b90915550505b6060808501516040805167ffffffffffffffff9092168252602082018c905281018a90529081018890527ff4fc4a63006144011c7214b4099772de96603a49b426f18267c33b3c1ec35bed9060800160405180910390a15050505b506001600160a01b039590951660009081526006602081815260409283902088518051825582015160018201558882015180516002830155820151600382015597830151805160048a015590810151600589018054948301516060840151608085015167ffffffffffffffff9485166fffffffffffffffffffffffffffffffff1998891617680100000000000000009386168402176001600160801b03908116600160801b938716840277ffffffffffffffffffffffffffffffffffffffffffffffff90811691909117600160c01b93881684021790955560a0870151978e01805460c089015160e08a01516101008b01519b8a1692909c169190911790881690950294909417169785169091029092169590951793909116029190911790915561012001516007909501949094559193909290565b82516000908103612df5575081610ae8565b83516020850151612e069085614730565b612e109190614747565b9050818015612e3a575060208401518451849190612e2e9084614730565b612e389190614747565b105b15610ae857610ae581600161477f565b6000546001600160a01b031633146114ef5760405162461bcd60e51b815260206004820181905260248201527f4f776e61626c653a2063616c6c6572206973206e6f7420746865206f776e65726044820152606401611051565b8015612eba57612eb5858585613ada565b612ec3565b612ec385613d1a565b6000836001811115612ed757612ed76148bd565b03610b0457620186a0826000015167ffffffffffffffff161115612f365781516040517f5f7918ed00000000000000000000000000000000000000000000000000000000815267ffffffffffffffff9091166004820152602401611051565b611388826020015167ffffffffffffffff161115612f795760208201516040516336e6824b60e21b815267ffffffffffffffff9091166004820152602401611051565b611388826040015167ffffffffffffffff161115612fbc5760408083015190516336e6824b60e21b815267ffffffffffffffff9091166004820152602401611051565b6001600160a01b038516600090815260066020818152604092839020855167ffffffffffffffff9081166004830190815592870151600583018054898801518416680100000000000000009081026fffffffffffffffffffffffffffffffff19909216938516939093171790556060880151948301805460808a015160a08b01518516600160c01b0277ffffffffffffffffffffffffffffffffffffffffffffffff918616600160801b027fffffffffffffffff0000000000000000ffffffffffffffffffffffffffffffff99909616909402979097167fffffffffffffffff00000000000000000000000000000000ffffffffffffffff9091161792909217949094169390931790925560c085015160079092019190915590517f7e914af3d8d31ac64e6df6e8087ac12953b11a1bceebf2a80692aa35e6b0e6ff9061317690889086906000610100820190506001600160a01b038416825267ffffffffffffffff8084511660208401528060208501511660408401528060408501511660608401528060608501511660808401528060808501511660a08401528060a08501511660c08401525060c083015160e08301529392505050565b60405180910390a1505050505050565b6000836020015160000361319b575081610ae8565b602084015184516131ac9085614730565b6131b69190614747565b9050818015612e3a575083516020850151849190612e2e9084614730565b6000306001600160a01b03851603613279576040517fa9059cbb0000000000000000000000000000000000000000000000000000000081526001600160a01b0384811660048301526024820184905286169063a9059cbb906044016020604051808303816000875af115801561324e573d6000803e3d6000fd5b505050506040513d601f19601f82011682018060405250810190613272919061488d565b9050613310565b6040517f23b872dd0000000000000000000000000000000000000000000000000000000081526001600160a01b0385811660048301528481166024830152604482018490528616906323b872dd906064016020604051808303816000875af11580156132e9573d6000803e3d6000fd5b505050506040513d601f19601f8201168201806040525081019061330d919061488d565b90505b80610b04576040517f90b8ec1800000000000000000000000000000000000000000000000000000000815260040160405180910390fd5b6000816001600160a01b031663313ce5676040518163ffffffff1660e01b8152600401602060405180830381865afa158015613387573d6000803e3d6000fd5b505050506040513d601f19601f82011682018060405250810190610fab91906148d3565b6133b4846128c2565b50503360009081526007602090815260408083206001600160a01b038a16845290915281205492509050821561345057506001600160a01b03851660009081526006602090815260408083208151808301909252805482526001015491810191909152859161342591908390613186565b94508385101561344b576040516328ac9b3f60e11b815260048101869052602401611051565b6134b3565b6001600160a01b0386166000908152600660209081526040808320815180830190925280548252600101549181019190915261348d918790612de3565b9050838111156134b3576040516328ac9b3f60e11b815260048101829052602401611051565b8082108061352857506040516370a0823160e01b815230600482015285906001600160a01b038816906370a0823190602401602060405180830381865afa158015613502573d6000803e3d6000fd5b505050506040513d601f19601f8201168201806040525081019061352691906148f6565b105b1561354657604051631e9acf1760e31b815260040160405180910390fd5b6001600160a01b03861660008181526006602090815260408083206001810180546001600160801b038089169091039091558154908b16900390553380845260078352818420858552909252909120805484900390556135a991903090886131d4565b670de0b6b3a76400006135bb33611457565b10156135da576040516374fa216b60e01b815260040160405180910390fd5b604080513381526001600160a01b0388166020820152908101869052606081018290527ff341246adaac6f497bc2a656f546ab9e182111d630394f0c57c710a59a2cb56790608001613176565b60606000610ae883613d84565b61363d816121cb565b156127dd576040517fb187bd2600000000000000000000000000000000000000000000000000000000815260040160405180910390fd5b6001600160a01b0382166000908152600660205260408120600481015490548291620186a0916136a49190614730565b6136ae9190614747565b6001600160a01b0385166000908152600660205260409020549091501580159061374857506136dd838261477f565b6040516370a0823160e01b81523060048201526001600160a01b038616906370a0823190602401602060405180830381865afa158015613721573d6000803e3d6000fd5b505050506040513d601f19601f8201168201806040525081019061374591906148f6565b10155b949350505050565b600080546001600160a01b038381166001600160a01b0319831681178455604051919092169283917f8be0079c531659141344cd1fd0a4f28419497f9722a3daafe3b4186f6b6457e09190a35050565b6001600160a01b038116600090815260046020526040902054600160a81b900460ff166127dd576040517f3dd1b30500000000000000000000000000000000000000000000000000000000815260040160405180910390fd5b6138048483836127e0565b6138215760405163079f151f60e11b815260040160405180910390fd5b6001600160a01b0380851660009081526005602090815260408083209386168352929052206138509082613de0565b506040517f42842e0e0000000000000000000000000000000000000000000000000000000081523060048201526001600160a01b038481166024830152604482018390528316906342842e0e90606401600060405180830381600087803b1580156138ba57600080fd5b505af11580156138ce573d6000803e3d6000fd5b5050505050505050565b6000610fab825490565b6000806000806000856001600160a01b031663feaf968c6040518163ffffffff1660e01b815260040160a060405180830381865afa158015613928573d6000803e3d6000fd5b505050506040513d601f19601f8201168201806040525081019061394c9190614929565b945094505093509350600083131580613963575081155b8061398557508369ffffffffffffffffffff168169ffffffffffffffffffff16105b8061399a5750611c2061399883426148aa565b115b156139d0576040517ebfc92100000000000000000000000000000000000000000000000000000000815260040160405180910390fd5b6139db600a8061496d565b610dd99084614730565b60008181526001830160205260408120541515610fa8565b61012082015160c083015160e08401516101008501516000939267ffffffffffffffff9081169281169116838611613a5a57600084613a3c8489614730565b613a469190614747565b9050613a52818561477f565b955050613ad0565b6000613a6685886148aa565b90506000613a7c86670de0b6b3a76400006148aa565b613a8e670de0b6b3a764000084614730565b613a989190614747565b9050670de0b6b3a7640000613aad8483614730565b613ab79190614747565b613ac1858761477f565b613acb919061477f565b965050505b5050505092915050565b6001600160a01b038316600090815260046020526040902054600160a81b900460ff1615613b34576040517f3706ba4900000000000000000000000000000000000000000000000000000000815260040160405180910390fd5b6001816001811115613b4857613b486148bd565b1115613b8257806040517f4e00ade0000000000000000000000000000000000000000000000000000000008152600401611051919061499b565b6001600160a01b03808416600090815260046020526040902080549184166001600160a01b031983168117825583927fffffffffffffffffffffff0000000000000000000000000000000000000000001617600160a01b836001811115613beb57613beb6148bd565b02179055506001600160a01b038316600090815260046020526040902080547fffffffffffffffffffff00ffffffffffffffffffffffffffffffffffffffffff16600160a81b1790556001816001811115613c4857613c486148bd565b03613c9d57600380546001810182556000919091527fc2575a0e9e593c00f959f8c92f12db2869c3395a3b0502d05e2516446f71f85b0180546001600160a01b0319166001600160a01b038516179055613ce9565b600280546001810182556000919091527f405787fa12a823e0f2b7631cc41b3ba8828b3321ca811111fa75cd3aa3bb5ace0180546001600160a01b0319166001600160a01b0385161790555b7f20ba3738d0f69ad18e0a9923005003b1434ffc62c40ad3332d30d2d42c49ef428382604051610a2d9291906149a9565b600054600160a01b900460ff16158015613d4d57506001600160a01b03811660009081526001602052604090205460ff16155b156127dd576040517f7acf489200000000000000000000000000000000000000000000000000000000815260040160405180910390fd5b606081600001805480602002602001604051908101604052809291908181526020018280548015613dd457602002820191906000526020600020905b815481526020019060010190808311613dc0575b50505050509050919050565b6000610fa8838360008181526001830160205260408120548015613ed0576000613e0b6001836148aa565b8554909150600090613e1f906001906148aa565b9050808214613e84576000866000018281548110613e3f57613e3f614769565b9060005260206000200154905080876000018481548110613e6257613e62614769565b6000918252602080832090910192909255918252600188019052604090208390555b8554869080613e9557613e956149c6565b600190038181906000526020600020016000905590558560010160008681526020019081526020016000206000905560019350505050610fab565b6000915050610fab565b6040805160a08101909152600060608201818152608083019190915281908152602001613f1a604051806040016040528060008152602001600081525090565b8152604080516101408101825260008082526020828101829052928201819052606082018190526080820181905260a0820181905260c0820181905260e08201819052610100820181905261012082015291015290565b80356001600160a01b0381168114613f8857600080fd5b919050565b600080600060608486031215613fa257600080fd5b613fab84613f71565b9250613fb960208501613f71565b9150604084013590509250925092565b600060208284031215613fdb57600080fd5b610fa882613f71565b80151581146127dd57600080fd5b8035613f8881613fe4565b60008060006060848603121561401257600080fd5b61401b84613f71565b925060208401359150604084013561403281613fe4565b809150509250925092565b60008083601f84011261404f57600080fd5b50813567ffffffffffffffff81111561406757600080fd5b60208301915083602082850101111561407f57600080fd5b9250929050565b60008060008060006080868803121561409e57600080fd5b6140a786613f71565b94506140b560208701613f71565b935060408601359250606086013567ffffffffffffffff8111156140d857600080fd5b6140e48882890161403d565b969995985093965092949392505050565b634e487b7160e01b600052604160045260246000fd5b803567ffffffffffffffff81168114613f8857600080fd5b600080600080600085870361016081121561413d57600080fd5b61414687613f71565b955061415460208801613f71565b945060408701356002811061416857600080fd5b935060e0605f198201121561417c57600080fd5b5060405160e0810181811067ffffffffffffffff821117156141ae57634e487b7160e01b600052604160045260246000fd5b6040526141bd6060880161410b565b81526141cb6080880161410b565b60208201526141dc60a0880161410b565b60408201526141ed60c0880161410b565b60608201526141fe60e0880161410b565b6080820152614210610100880161410b565b60a082015261012087013560c0820152915061422f6101408701613ff2565b90509295509295909350565b6000806040838503121561424e57600080fd5b61425783613f71565b9150602083013561426781613fe4565b809150509250929050565b6000806040838503121561428557600080fd5b61428e83613f71565b946020939093013593505050565b6000806000606084860312156142b157600080fd5b6142ba84613f71565b95602085013595506040909401359392505050565b815180518252602090810151908201526101c081016020838101518051604085015290810151606084015250604083015180516080840152602081015167ffffffffffffffff811660a085015250604081015167ffffffffffffffff811660c085015250606081015167ffffffffffffffff811660e08501525060808101516101006143668186018367ffffffffffffffff169052565b60a083015191506101206143858187018467ffffffffffffffff169052565b60c084015167ffffffffffffffff90811661014088015260e0850151811661016088015291840151909116610180860152909101516101a09093019290925292915050565b600080604083850312156143dd57600080fd5b6143e683613f71565b91506143f460208401613f71565b90509250929050565b600081518084526020808501945080840160005b8381101561442d57815187529582019590820190600101614411565b509495945050505050565b602081526000610fa860208301846143fd565b60008083601f84011261445d57600080fd5b50813567ffffffffffffffff81111561447557600080fd5b6020830191508360208260051b850101111561407f57600080fd5b60008060008060008060006080888a0312156144ab57600080fd5b6144b488613f71565b9650602088013567ffffffffffffffff808211156144d157600080fd5b6144dd8b838c0161444b565b909850965060408a01359150808211156144f657600080fd5b6145028b838c0161444b565b909650945060608a013591508082111561451b57600080fd5b506145288a828b0161403d565b989b979a50959850939692959293505050565b6000806000806080858703121561455157600080fd5b61455a85613f71565b935061456860208601613f71565b925061457660408601613f71565b9396929550929360600135925050565b600080600080600080600060a0888a0312156145a157600080fd5b6145aa88613f71565b96506145b860208901613f71565b955060408801359450606088013567ffffffffffffffff808211156145dc57600080fd5b6145e88b838c0161444b565b909650945060808a013591508082111561460157600080fd5b506145288a828b0161444b565b634e487b7160e01b600052601160045260246000fd5b60ff8281168282160390811115610fab57610fab61460e565b600181815b8085111561467857816000190482111561465e5761465e61460e565b8085161561466b57918102915b93841c9390800290614642565b509250929050565b60008261468f57506001610fab565b8161469c57506000610fab565b81600181146146b257600281146146bc576146d8565b6001915050610fab565b60ff8411156146cd576146cd61460e565b50506001821b610fab565b5060208310610133831016604e8410600b84101617156146fb575081810a610fab565b614705838361463d565b80600019048211156147195761471961460e565b029392505050565b6000610fa860ff841683614680565b8082028115828204841417610fab57610fab61460e565b60008261476457634e487b7160e01b600052601260045260246000fd5b500490565b634e487b7160e01b600052603260045260246000fd5b80820180821115610fab57610fab61460e565b81835281816020850137506000828201602090810191909152601f909101601f19169091010190565b6001600160a01b03898116825260a060208084018290529083018990526000918a9160c08501845b8c81101561480857836147f586613f71565b16825293820193908201906001016147e3565b5085810360408701528981527f07ffffffffffffffffffffffffffffffffffffffffffffffffffffffffffffff8a111561484157600080fd5b8960051b9350838b838301379092018481038301606086015291614867818401896143fd565b92505050828103608084015261487e818587614792565b9b9a5050505050505050505050565b60006020828403121561489f57600080fd5b8151610ae881613fe4565b81810381811115610fab57610fab61460e565b634e487b7160e01b600052602160045260246000fd5b6000602082840312156148e557600080fd5b815160ff81168114610ae857600080fd5b60006020828403121561490857600080fd5b5051919050565b805169ffffffffffffffffffff81168114613f8857600080fd5b600080600080600060a0868803121561494157600080fd5b61494a8661490f565b945060208601519350604086015192506060860151915061422f6080870161490f565b6000610fa88383614680565b6002811061499757634e487b7160e01b600052602160045260246000fd5b9052565b60208101610fab8284614979565b6001600160a01b038316815260408101610ae86020830184614979565b634e487b7160e01b600052603160045260246000fdfea26469706673582212206e15512fd904e89d9fc5c3f4f5b1ef0b971d07904bd64ca056609e3f7a8cbd7464736f6c63430008140033",
  "linkReferences": {},
  "deployedLinkReferences": {}
}