{
  "_format": "hh-sol-artifact-1",
  "contractName": "FlashloanReceiverMock",
  "sourceName": "contracts/mocks/FlashloanReceiverMock.sol",
  "abi": [
    {
      "inputs": [
        {
          "internalType": "address",
          "name": "pool",
          "type": "address"
        },
        {
          "internalType": "address",
          "name": "weth",
          "type": "address"
        },
        {
          "internalType": "address",
          "name": "wbtc",
          "type": "address"
        }
      ],
      "stateMutability": "nonpayable",
      "type": "constructor"
    },
    {
      "inputs": [
        {
          "internalType": "address",
          "name": "initiator",
          "type": "address"
        },
        {
          "internalType": "address[]",
          "name": "tokens",
          "type": "address[]"
        },
        {
          "internalType": "uint256[]",
          "name": "amounts",
          "type": "uint256[]"
        },
        {
          "internalType": "uint256[]",
          "name": "fees",
          "type": "uint256[]"
        },
        {
          "internalType": "bytes",
          "name": "data",
          "type": "bytes"
        }
      ],
      "name": "onFlashLoan",
      "outputs": [
        {
          "internalType": "bool",
          "name": "",
          "type": "bool"
        }
      ],
      "stateMutability": "nonpayable",
      "type": "function"
    }
  ],
  "bytecode": "0x608060405234801561001057600080fd5b506040516103cf3803806103cf83398101604081905261002f9161013d565b60405163095ea7b360e01b81526001600160a01b038481166004830152600019602483015283169063095ea7b3906044016020604051808303816000875af115801561007f573d6000803e3d6000fd5b505050506040513d601f19601f820116820180604052508101906100a39190610180565b5060405163095ea7b360e01b81526001600160a01b038481166004830152600019602483015282169063095ea7b3906044016020604051808303816000875af11580156100f4573d6000803e3d6000fd5b505050506040513d601f19601f820116820180604052508101906101189190610180565b505050506101a9565b80516001600160a01b038116811461013857600080fd5b919050565b60008060006060848603121561015257600080fd5b61015b84610121565b925061016960208501610121565b915061017760408501610121565b90509250925092565b60006020828403121561019257600080fd5b815180151581146101a257600080fd5b9392505050565b610217806101b86000396000f3fe608060405234801561001057600080fd5b506004361061002b5760003560e01c806364573d0214610030575b600080fd5b61004d61003e3660046100ef565b60019998505050505050505050565b604051901515815260200160405180910390f35b60008083601f84011261007357600080fd5b50813567ffffffffffffffff81111561008b57600080fd5b6020830191508360208260051b85010111156100a657600080fd5b9250929050565b60008083601f8401126100bf57600080fd5b50813567ffffffffffffffff8111156100d757600080fd5b6020830191508360208285010111156100a657600080fd5b600080600080600080600080600060a08a8c03121561010d57600080fd5b893573ffffffffffffffffffffffffffffffffffffffff8116811461013157600080fd5b985060208a013567ffffffffffffffff8082111561014e57600080fd5b61015a8d838e01610061565b909a50985060408c013591508082111561017357600080fd5b61017f8d838e01610061565b909850965060608c013591508082111561019857600080fd5b6101a48d838e01610061565b909650945060808c01359150808211156101bd57600080fd5b506101ca8c828d016100ad565b91508093505080915050929598509295985092959856fea2646970667358221220dd0c49ca6d2e80e831912261a36e6cb01f3de35b541f378e76dfe9e5ffb3e39964736f6c63430008140033",
  "linkReferences": {},
  "deployedLinkReferences": {}
}